{
  "_format": "hh-sol-artifact-1",
  "contractName": "Project721",
  "sourceName": "contracts/Project721.sol",
  "abi": [
    {
      "inputs": [
        {
          "internalType": "address",
          "name": "_poolImplementation",
          "type": "address"
        }
      ],
      "stateMutability": "nonpayable",
      "type": "constructor"
    },
    {
      "anonymous": false,
      "inputs": [
        {
          "indexed": false,
          "internalType": "address",
          "name": "owner",
          "type": "address"
        },
        {
          "indexed": false,
          "internalType": "address",
          "name": "poolAddress",
          "type": "address"
        },
        {
          "indexed": false,
          "internalType": "uint256",
          "name": "time",
          "type": "uint256"
        }
      ],
      "name": "createPool721EVT",
      "type": "event"
    },
    {
      "inputs": [
        {
          "internalType": "uint256[]",
          "name": "_dates",
          "type": "uint256[]"
        },
        {
          "internalType": "uint16[]",
          "name": "_data",
          "type": "uint16[]"
        }
      ],
      "name": "createPool721",
      "outputs": [
        {
          "internalType": "address",
          "name": "",
          "type": "address"
        }
      ],
      "stateMutability": "nonpayable",
      "type": "function"
    },
    {
      "inputs": [],
      "name": "getAllPool",
      "outputs": [
        {
          "internalType": "address[]",
          "name": "",
          "type": "address[]"
        }
      ],
      "stateMutability": "view",
      "type": "function"
    },
    {
      "inputs": [
        {
          "internalType": "address",
          "name": "_nftAddress",
          "type": "address"
        },
        {
          "internalType": "bytes[3]",
          "name": "_projectdetails",
          "type": "bytes[3]"
        },
        {
          "internalType": "address",
          "name": "_project721Owner",
          "type": "address"
        }
      ],
      "name": "setProjectDetails",
      "outputs": [],
      "stateMutability": "nonpayable",
      "type": "function"
    }
  ],
  "bytecode": "0x60a060405234801561001057600080fd5b506040516109f03803806109f083398101604081905261002f91610044565b60601b6001600160601b031916608052610072565b600060208284031215610055578081fd5b81516001600160a01b038116811461006b578182fd5b9392505050565b60805160601c610960610090600039600061013c01526109606000f3fe608060405234801561001057600080fd5b50600436106100415760003560e01c8063180f88e4146100465780637a9980821461005b578063a20a4cb414610084575b600080fd5b610059610054366004610501565b610099565b005b61006e6100693660046105f0565b610108565b60405161007b91906106b4565b60405180910390f35b61008c610258565b60405161007b91906106ec565b6002546001600160a01b0316156100cb5760405162461bcd60e51b81526004016100c290610848565b60405180910390fd5b6100d76003838161032e565b50600180546001600160a01b039485166001600160a01b031991821617909155600280549290941691161790915550565b6002546000906001600160a01b031633146101355760405162461bcd60e51b81526004016100c2906107d5565b60006101607f00000000000000000000000000000000000000000000000000000000000000006102ba565b60015460405163a283415160e01b81529192506001600160a01b038084169263a28341519261019b9289928992909116903390600401610739565b600060405180830381600087803b1580156101b557600080fd5b505af11580156101c9573d6000803e3d6000fd5b5050600080546001810182559080527f290decd9548b62a8d60345a988386fc84ba6bc95484008f6362f93160ef3e5630180546001600160a01b0319166001600160a01b03851617905550506040517f6356bf6527c313e3a91df7db8b9c2157025e5f9fc68c3a778f32cc0af6f8ebeb90610249903390849042906106c8565b60405180910390a19392505050565b606060008054806020026020016040519081016040528092919081815260200182805480156102b057602002820191906000526020600020905b81546001600160a01b03168152600190910190602001808311610292575b5050505050905090565b6000604051733d602d80600a3d3981f3363d3d373d3d3d363d7360601b81528260601b60148201526e5af43d82803e903d91602b57fd5bf360881b60288201526037816000f09150506001600160a01b0381166103295760405162461bcd60e51b81526004016100c290610818565b919050565b826003810192821561036e579160200282015b8281111561036e578251805161035e91849160209091019061037e565b5091602001919060010190610341565b5061037a9291506103fe565b5090565b82805461038a906108d9565b90600052602060002090601f0160209004810192826103ac57600085556103f2565b82601f106103c557805160ff19168380011785556103f2565b828001600101855582156103f2579182015b828111156103f25782518255916020019190600101906103d7565b5061037a92915061041b565b8082111561037a5760006104128282610430565b506001016103fe565b5b8082111561037a576000815560010161041c565b50805461043c906108d9565b6000825580601f1061044e575061046c565b601f01602090049060005260206000209081019061046c919061041b565b50565b80356001600160a01b038116811461032957600080fd5b600082601f830112610496578081fd5b813560206104ab6104a6836108b5565b61088b565b82815281810190858301838502870184018810156104c7578586fd5b855b858110156104f457813561ffff811681146104e2578788fd5b845292840192908401906001016104c9565b5090979650505050505050565b600080600060608486031215610515578283fd5b61051e8461046f565b925060208085013567ffffffffffffffff8082111561053b578485fd5b8187019150601f888184011261054f578586fd5b610559606061088b565b8084885b60038110156105d057813587018d86820112610577578a8bfd5b80358781111561058957610589610914565b61059a818801601f19168b0161088b565b8181528f8b8385010111156105ad578c8dfd5b818b84018c8301379081018a018c9052855250928701929087019060010161055d565b50508097505050505050506105e76040850161046f565b90509250925092565b60008060408385031215610602578182fd5b823567ffffffffffffffff80821115610619578384fd5b818501915085601f83011261062c578384fd5b8135602061063c6104a6836108b5565b82815281810190858301838502870184018b1015610658578889fd5b8896505b8487101561067a57803583526001969096019591830191830161065c565b5096505086013592505080821115610690578283fd5b5061069d85828601610486565b9150509250929050565b6001600160a01b03169052565b6001600160a01b0391909116815260200190565b6001600160a01b039384168152919092166020820152604081019190915260600190565b6020808252825182820181905260009190848201906040850190845b8181101561072d5783516001600160a01b031683529284019291840191600101610708565b50909695505050505050565b6080808252855190820181905260009060209060a0840190828901845b8281101561077257815184529284019290840190600101610756565b50505083810382850152865180825287830191830190845b818110156107aa57835161ffff168352928401929184019160010161078a565b50508093505050506107bf60408301856106a7565b6107cc60608301846106a7565b95945050505050565b60208082526023908201527f50726f6a6563743732313a2043616c6c6572206973206e6f7420746865206f776040820152623732b960e91b606082015260800190565b602080825260169082015275115490cc4c4d8dce8818dc99585d194819985a5b195960521b604082015260600190565b60208082526023908201527f50726f6a6563743732313a20506f6f6c20616c726561647920696e697469616c604082015262697a6560e81b606082015260800190565b60405181810167ffffffffffffffff811182821017156108ad576108ad610914565b604052919050565b600067ffffffffffffffff8211156108cf576108cf610914565b5060209081020190565b6002810460018216806108ed57607f821691505b6020821081141561090e57634e487b7160e01b600052602260045260246000fd5b50919050565b634e487b7160e01b600052604160045260246000fdfea26469706673582212200caa36c0589185b03b40fc8f738c66c57b0d599851a369f953583caf3007bda164736f6c63430008000033",
  "linkReferences": {},
  "deployedLinkReferences": {}
}