{
    "_format": "hh-sol-artifact-1",
    "contractName": "LaunchpadFactory",
    "sourceName": "contracts/LaunchpadFactory.sol",
    "abi": [
        {
            "inputs": [
                {
                    "internalType": "uint256",
                    "name": "_createFee",
                    "type": "uint256"
                },
                {
                    "internalType": "uint256",
                    "name": "_additionalFee",
                    "type": "uint256"
                },
                {
                    "internalType": "address",
                    "name": "_router",
                    "type": "address"
                },
                {
                    "internalType": "address",
                    "name": "launchpad",
                    "type": "address"
                },
                {
                    "internalType": "address",
                    "name": "fairlaunch",
                    "type": "address"
                }
            ],
            "stateMutability": "nonpayable",
            "type": "constructor"
        },
        {
            "anonymous": false,
            "inputs": [
                {
                    "indexed": true,
                    "internalType": "address",
                    "name": "contract_address",
                    "type": "address"
                },
                {
                    "indexed": true,
                    "internalType": "address",
                    "name": "owner",
                    "type": "address"
                }
            ],
            "name": "LaunchpadCreated",
            "type": "event"
        },
        {
            "anonymous": false,
            "inputs": [
                {
                    "indexed": true,
                    "internalType": "address",
                    "name": "previousOwner",
                    "type": "address"
                },
                {
                    "indexed": true,
                    "internalType": "address",
                    "name": "newOwner",
                    "type": "address"
                }
            ],
            "name": "OwnershipTransferred",
            "type": "event"
        },
        {
            "anonymous": false,
            "inputs": [
                {
                    "indexed": true,
                    "internalType": "address",
                    "name": "from",
                    "type": "address"
                },
                {
                    "indexed": true,
                    "internalType": "address",
                    "name": "to",
                    "type": "address"
                },
                {
                    "indexed": false,
                    "internalType": "uint256",
                    "name": "amount",
                    "type": "uint256"
                }
            ],
            "name": "TransferSent",
            "type": "event"
        },
        {
            "inputs": [
                {
                    "internalType": "address",
                    "name": "router",
                    "type": "address"
                }
            ],
            "name": "addAcceptedRouter",
            "outputs": [],
            "stateMutability": "nonpayable",
            "type": "function"
        },
        {
            "inputs": [
                {
                    "internalType": "uint256",
                    "name": "raised",
                    "type": "uint256"
                },
                {
                    "internalType": "uint256",
                    "name": "locked",
                    "type": "uint256"
                }
            ],
            "name": "addRaised",
            "outputs": [],
            "stateMutability": "nonpayable",
            "type": "function"
        },
        {
            "inputs": [],
            "name": "additionalFee",
            "outputs": [
                {
                    "internalType": "uint256",
                    "name": "",
                    "type": "uint256"
                }
            ],
            "stateMutability": "view",
            "type": "function"
        },
        {
            "inputs": [
                {
                    "internalType": "uint256",
                    "name": "start",
                    "type": "uint256"
                },
                {
                    "internalType": "uint256",
                    "name": "end",
                    "type": "uint256"
                }
            ],
            "name": "allLaunchpads",
            "outputs": [
                {
                    "internalType": "address[]",
                    "name": "",
                    "type": "address[]"
                }
            ],
            "stateMutability": "view",
            "type": "function"
        },
        {
            "inputs": [],
            "name": "allRouters",
            "outputs": [
                {
                    "internalType": "address[]",
                    "name": "",
                    "type": "address[]"
                }
            ],
            "stateMutability": "view",
            "type": "function"
        },
        {
            "inputs": [
                {
                    "internalType": "uint256",
                    "name": "amount",
                    "type": "uint256"
                }
            ],
            "name": "changeAdditionalFee",
            "outputs": [],
            "stateMutability": "nonpayable",
            "type": "function"
        },
        {
            "inputs": [
                {
                    "internalType": "uint256",
                    "name": "amount",
                    "type": "uint256"
                }
            ],
            "name": "changeListingPrice",
            "outputs": [],
            "stateMutability": "nonpayable",
            "type": "function"
        },
        {
            "inputs": [
                {
                    "internalType": "address[2]",
                    "name": "addresses",
                    "type": "address[2]"
                },
                {
                    "internalType": "bytes[12]",
                    "name": "details",
                    "type": "bytes[12]"
                },
                {
                    "internalType": "uint256[2]",
                    "name": "date",
                    "type": "uint256[2]"
                },
                {
                    "internalType": "uint256[3]",
                    "name": "qty",
                    "type": "uint256[3]"
                },
                {
                    "internalType": "uint256[2]",
                    "name": "liquidity",
                    "type": "uint256[2]"
                }
            ],
            "name": "createFairLaunch",
            "outputs": [],
            "stateMutability": "payable",
            "type": "function"
        },
        {
            "inputs": [],
            "name": "createFee",
            "outputs": [
                {
                    "internalType": "uint256",
                    "name": "",
                    "type": "uint256"
                }
            ],
            "stateMutability": "view",
            "type": "function"
        },
        {
            "inputs": [
                {
                    "internalType": "address[2]",
                    "name": "addresses",
                    "type": "address[2]"
                },
                {
                    "internalType": "bytes[12]",
                    "name": "details",
                    "type": "bytes[12]"
                },
                {
                    "internalType": "uint256[2]",
                    "name": "date",
                    "type": "uint256[2]"
                },
                {
                    "internalType": "uint256[4]",
                    "name": "prices",
                    "type": "uint256[4]"
                },
                {
                    "internalType": "uint256[2]",
                    "name": "cap",
                    "type": "uint256[2]"
                },
                {
                    "internalType": "uint256[2]",
                    "name": "minmaxBuy",
                    "type": "uint256[2]"
                },
                {
                    "internalType": "uint256[2]",
                    "name": "liquidity",
                    "type": "uint256[2]"
                },
                {
                    "internalType": "bool",
                    "name": "whitelist",
                    "type": "bool"
                }
            ],
            "name": "createLaunchpad",
            "outputs": [],
            "stateMutability": "payable",
            "type": "function"
        },
        {
            "inputs": [],
            "name": "fundLocked",
            "outputs": [
                {
                    "internalType": "uint256",
                    "name": "",
                    "type": "uint256"
                }
            ],
            "stateMutability": "view",
            "type": "function"
        },
        {
            "inputs": [],
            "name": "fundRaised",
            "outputs": [
                {
                    "internalType": "uint256",
                    "name": "",
                    "type": "uint256"
                }
            ],
            "stateMutability": "view",
            "type": "function"
        },
        {
            "inputs": [],
            "name": "getOwnedLaunchpads",
            "outputs": [
                {
                    "internalType": "address[]",
                    "name": "",
                    "type": "address[]"
                }
            ],
            "stateMutability": "view",
            "type": "function"
        },
        {
            "inputs": [
                {
                    "internalType": "address",
                    "name": "token",
                    "type": "address"
                }
            ],
            "name": "isCreated",
            "outputs": [
                {
                    "internalType": "address",
                    "name": "",
                    "type": "address"
                }
            ],
            "stateMutability": "view",
            "type": "function"
        },
        {
            "inputs": [
                {
                    "internalType": "address",
                    "name": "launchpad",
                    "type": "address"
                }
            ],
            "name": "isVerified",
            "outputs": [
                {
                    "internalType": "bool",
                    "name": "",
                    "type": "bool"
                }
            ],
            "stateMutability": "view",
            "type": "function"
        },
        {
            "inputs": [],
            "name": "owner",
            "outputs": [
                {
                    "internalType": "address",
                    "name": "",
                    "type": "address"
                }
            ],
            "stateMutability": "view",
            "type": "function"
        },
        {
            "inputs": [
                {
                    "internalType": "uint256",
                    "name": "amount",
                    "type": "uint256"
                }
            ],
            "name": "removeLocked",
            "outputs": [],
            "stateMutability": "nonpayable",
            "type": "function"
        },
        {
            "inputs": [],
            "name": "renounceOwnership",
            "outputs": [],
            "stateMutability": "nonpayable",
            "type": "function"
        },
        {
            "inputs": [],
            "name": "totalLaunchpads",
            "outputs": [
                {
                    "internalType": "uint256",
                    "name": "",
                    "type": "uint256"
                }
            ],
            "stateMutability": "view",
            "type": "function"
        },
        {
            "inputs": [
                {
                    "internalType": "address",
                    "name": "newOwner",
                    "type": "address"
                }
            ],
            "name": "transferOwnership",
            "outputs": [],
            "stateMutability": "nonpayable",
            "type": "function"
        },
        {
            "inputs": [
                {
                    "internalType": "address",
                    "name": "implementation",
                    "type": "address"
                }
            ],
            "name": "updateFairLaunchImplementation",
            "outputs": [],
            "stateMutability": "nonpayable",
            "type": "function"
        },
        {
            "inputs": [
                {
                    "internalType": "address",
                    "name": "implementation",
                    "type": "address"
                }
            ],
            "name": "updateSaleImplementation",
            "outputs": [],
            "stateMutability": "nonpayable",
            "type": "function"
        },
        {
            "inputs": [
                {
                    "internalType": "address",
                    "name": "launchpad",
                    "type": "address"
                }
            ],
            "name": "verifyLaunchPad",
            "outputs": [],
            "stateMutability": "nonpayable",
            "type": "function"
        },
        {
            "inputs": [
                {
                    "internalType": "uint256",
                    "name": "amount",
                    "type": "uint256"
                }
            ],
            "name": "withdraw",
            "outputs": [],
            "stateMutability": "nonpayable",
            "type": "function"
        }
    ],
    "bytecode": "0x608060405267058d15e1762800006006553480156200001d57600080fd5b50604051620047d2380380620047d28339818101604052810190620000439190620002e3565b60016000819055506200006b6200005f620001e760201b60201c565b620001ef60201b60201c565b84600481905550836005819055506009839080600181540180825580915050600190039060005260206000200160009091909190916101000a81548173ffffffffffffffffffffffffffffffffffffffff021916908373ffffffffffffffffffffffffffffffffffffffff16021790555082600a60008573ffffffffffffffffffffffffffffffffffffffff1673ffffffffffffffffffffffffffffffffffffffff16815260200190815260200160002060006101000a81548173ffffffffffffffffffffffffffffffffffffffff021916908373ffffffffffffffffffffffffffffffffffffffff16021790555081600760006101000a81548173ffffffffffffffffffffffffffffffffffffffff021916908373ffffffffffffffffffffffffffffffffffffffff16021790555080600860006101000a81548173ffffffffffffffffffffffffffffffffffffffff021916908373ffffffffffffffffffffffffffffffffffffffff1602179055505050505050620003d7565b600033905090565b6000600160009054906101000a900473ffffffffffffffffffffffffffffffffffffffff16905081600160006101000a81548173ffffffffffffffffffffffffffffffffffffffff021916908373ffffffffffffffffffffffffffffffffffffffff1602179055508173ffffffffffffffffffffffffffffffffffffffff168173ffffffffffffffffffffffffffffffffffffffff167f8be0079c531659141344cd1fd0a4f28419497f9722a3daafe3b4186f6b6457e060405160405180910390a35050565b600081519050620002c681620003a3565b92915050565b600081519050620002dd81620003bd565b92915050565b600080600080600060a08688031215620002fc57600080fd5b60006200030c88828901620002cc565b95505060206200031f88828901620002cc565b94505060406200033288828901620002b5565b93505060606200034588828901620002b5565b92505060806200035888828901620002b5565b9150509295509295909350565b6000620003728262000379565b9050919050565b600073ffffffffffffffffffffffffffffffffffffffff82169050919050565b6000819050919050565b620003ae8162000365565b8114620003ba57600080fd5b50565b620003c88162000399565b8114620003d457600080fd5b50565b6143eb80620003e76000396000f3fe60806040526004361061014b5760003560e01c80639647e88c116100b6578063ba0f1d9c1161006f578063ba0f1d9c14610438578063c06ca1dd14610461578063c71c0b401461048c578063ec9b2b5f146104b7578063f2fde38b146104e2578063f80272961461050b5761014b565b80639647e88c14610344578063a4f2159f14610360578063ae6be56714610389578063b2db919b146103b4578063b6ea59de146103df578063b9209e33146103fb5761014b565b80632e1a7d4d116101085780632e1a7d4d1461025e5780633917cf5b14610287578063715018a6146102b057806389c6308e146102c75780638da5cb5b146102f057806395f68a731461031b5761014b565b80630373ad7814610150578063045a2630146101795780630f42949a146101a457806316d3354c146101cd57806317700ad3146101f65780632b5da78014610233575b600080fd5b34801561015c57600080fd5b5061017760048036038101906101729190612fc0565b610548565b005b34801561018557600080fd5b5061018e610566565b60405161019b9190613b17565b60405180910390f35b3480156101b057600080fd5b506101cb60048036038101906101c69190613012565b61056c565b005b3480156101d957600080fd5b506101f460048036038101906101ef9190612e0f565b6105a6565b005b34801561020257600080fd5b5061021d60048036038101906102189190613012565b6106d6565b60405161022a9190613838565b60405180910390f35b34801561023f57600080fd5b50610248610881565b6040516102559190613b17565b60405180910390f35b34801561026a57600080fd5b5061028560048036038101906102809190612fc0565b610887565b005b34801561029357600080fd5b506102ae60048036038101906102a99190612e0f565b610a0a565b005b3480156102bc57600080fd5b506102c5610b3a565b005b3480156102d357600080fd5b506102ee60048036038101906102e99190612e0f565b610bc2565b005b3480156102fc57600080fd5b50610305610c99565b6040516103129190613682565b60405180910390f35b34801561032757600080fd5b50610342600480360381019061033d9190612e0f565b610cc3565b005b61035e60048036038101906103599190612ec9565b610ef1565b005b34801561036c57600080fd5b5061038760048036038101906103829190612fc0565b61136f565b005b34801561039557600080fd5b5061039e6113f5565b6040516103ab9190613838565b60405180910390f35b3480156103c057600080fd5b506103c9611483565b6040516103d69190613b17565b60405180910390f35b6103f960048036038101906103f49190612e38565b611489565b005b34801561040757600080fd5b50610422600480360381019061041d9190612e0f565b611781565b60405161042f919061385a565b60405180910390f35b34801561044457600080fd5b5061045f600480360381019061045a9190612fc0565b6117d7565b005b34801561046d57600080fd5b5061047661185d565b6040516104839190613b17565b60405180910390f35b34801561049857600080fd5b506104a161186a565b6040516104ae9190613b17565b60405180910390f35b3480156104c357600080fd5b506104cc611870565b6040516104d99190613838565b60405180910390f35b3480156104ee57600080fd5b5061050960048036038101906105049190612e0f565b611942565b005b34801561051757600080fd5b50610532600480360381019061052d9190612e0f565b611a3a565b60405161053f9190613682565b60405180910390f35b61055d81600354611c7a90919063ffffffff16565b60038190555050565b60055481565b61058182600254611c9090919063ffffffff16565b60028190555061059c81600354611c9090919063ffffffff16565b6003819055505050565b6105ae611ca6565b73ffffffffffffffffffffffffffffffffffffffff166105cc610c99565b73ffffffffffffffffffffffffffffffffffffffff1614610622576040517f08c379a000000000000000000000000000000000000000000000000000000000815260040161061990613957565b60405180910390fd5b600073ffffffffffffffffffffffffffffffffffffffff168173ffffffffffffffffffffffffffffffffffffffff161415610692576040517f08c379a000000000000000000000000000000000000000000000000000000000815260040161068990613917565b60405180910390fd5b80600760006101000a81548173ffffffffffffffffffffffffffffffffffffffff021916908373ffffffffffffffffffffffffffffffffffffffff16021790555050565b60606000600183856106e89190613df9565b6106f29190613da3565b67ffffffffffffffff811115610731577f4e487b7100000000000000000000000000000000000000000000000000000000600052604160045260246000fd5b60405190808252806020026020018201604052801561075f5781602001602082028036833780820191505090505b5090506000808590505b84811061087557600b60018261077f9190613df9565b815481106107b6577f4e487b7100000000000000000000000000000000000000000000000000000000600052603260045260246000fd5b9060005260206000200160009054906101000a900473ffffffffffffffffffffffffffffffffffffffff1683838151811061081a577f4e487b7100000000000000000000000000000000000000000000000000000000600052603260045260246000fd5b602002602001019073ffffffffffffffffffffffffffffffffffffffff16908173ffffffffffffffffffffffffffffffffffffffff1681525050818061085f90613f12565b925050808061086d90613eb7565b915050610769565b50819250505092915050565b60035481565b61088f611ca6565b73ffffffffffffffffffffffffffffffffffffffff166108ad610c99565b73ffffffffffffffffffffffffffffffffffffffff1614610903576040517f08c379a00000000000000000000000000000000000000000000000000000000081526004016108fa90613957565b60405180910390fd5b80471015610946576040517f08c379a000000000000000000000000000000000000000000000000000000000815260040161093d90613977565b60405180910390fd5b61094e610c99565b73ffffffffffffffffffffffffffffffffffffffff166108fc829081150290604051600060405180830381858888f19350505050158015610993573d6000803e3d6000fd5b5061099c610c99565b73ffffffffffffffffffffffffffffffffffffffff166109ba611ca6565b73ffffffffffffffffffffffffffffffffffffffff167ffda3a3e0e1479b43cb1c701f7576187f4c4ad80768d627387e00184302f7d88e836040516109ff9190613b17565b60405180910390a350565b610a12611ca6565b73ffffffffffffffffffffffffffffffffffffffff16610a30610c99565b73ffffffffffffffffffffffffffffffffffffffff1614610a86576040517f08c379a0000000000000000000000000000000000000000000000000000000008152600401610a7d90613957565b60405180910390fd5b600073ffffffffffffffffffffffffffffffffffffffff168173ffffffffffffffffffffffffffffffffffffffff161415610af6576040517f08c379a0000000000000000000000000000000000000000000000000000000008152600401610aed90613917565b60405180910390fd5b80600860006101000a81548173ffffffffffffffffffffffffffffffffffffffff021916908373ffffffffffffffffffffffffffffffffffffffff16021790555050565b610b42611ca6565b73ffffffffffffffffffffffffffffffffffffffff16610b60610c99565b73ffffffffffffffffffffffffffffffffffffffff1614610bb6576040517f08c379a0000000000000000000000000000000000000000000000000000000008152600401610bad90613957565b60405180910390fd5b610bc06000611cae565b565b610bca611ca6565b73ffffffffffffffffffffffffffffffffffffffff16610be8610c99565b73ffffffffffffffffffffffffffffffffffffffff1614610c3e576040517f08c379a0000000000000000000000000000000000000000000000000000000008152600401610c3590613957565b60405180910390fd5b6001600c60008373ffffffffffffffffffffffffffffffffffffffff1673ffffffffffffffffffffffffffffffffffffffff16815260200190815260200160002060006101000a81548160ff02191690831515021790555050565b6000600160009054906101000a900473ffffffffffffffffffffffffffffffffffffffff16905090565b610ccb611ca6565b73ffffffffffffffffffffffffffffffffffffffff16610ce9610c99565b73ffffffffffffffffffffffffffffffffffffffff1614610d3f576040517f08c379a0000000000000000000000000000000000000000000000000000000008152600401610d3690613957565b60405180910390fd5b600073ffffffffffffffffffffffffffffffffffffffff16600a60008373ffffffffffffffffffffffffffffffffffffffff1673ffffffffffffffffffffffffffffffffffffffff16815260200190815260200160002060009054906101000a900473ffffffffffffffffffffffffffffffffffffffff1673ffffffffffffffffffffffffffffffffffffffff1614610e0d576040517f08c379a0000000000000000000000000000000000000000000000000000000008152600401610e04906139f7565b60405180910390fd5b6009819080600181540180825580915050600190039060005260206000200160009091909190916101000a81548173ffffffffffffffffffffffffffffffffffffffff021916908373ffffffffffffffffffffffffffffffffffffffff16021790555080600a60008373ffffffffffffffffffffffffffffffffffffffff1673ffffffffffffffffffffffffffffffffffffffff16815260200190815260200160002060006101000a81548173ffffffffffffffffffffffffffffffffffffffff021916908373ffffffffffffffffffffffffffffffffffffffff16021790555050565b60026000541415610f37576040517f08c379a0000000000000000000000000000000000000000000000000000000008152600401610f2e90613a77565b60405180910390fd5b6002600081905550610f4a888784611d74565b83600060028110610f84577f4e487b7100000000000000000000000000000000000000000000000000000000600052603260045260246000fd5b602002015184600160028110610fc3577f4e487b7100000000000000000000000000000000000000000000000000000000600052603260045260246000fd5b602002015111611008576040517f08c379a0000000000000000000000000000000000000000000000000000000008152600401610fff90613a57565b60405180910390fd5b82600060028110611042577f4e487b7100000000000000000000000000000000000000000000000000000000600052603260045260246000fd5b602002015183600160028110611081577f4e487b7100000000000000000000000000000000000000000000000000000000600052603260045260246000fd5b602002015110156110c7576040517f08c379a00000000000000000000000000000000000000000000000000000000081526004016110be90613ab7565b60405180910390fd5b6111c76110d2611ca6565b3061116288600360048110611110577f4e487b7100000000000000000000000000000000000000000000000000000000600052603260045260246000fd5b60200201518960026004811061114f577f4e487b7100000000000000000000000000000000000000000000000000000000600052603260045260246000fd5b6020020151611c9090919063ffffffff16565b8b60006002811061119c577f4e487b7100000000000000000000000000000000000000000000000000000000600052603260045260246000fd5b602002015173ffffffffffffffffffffffffffffffffffffffff1661226e909392919063ffffffff16565b60006111f4600760009054906101000a900473ffffffffffffffffffffffffffffffffffffffff166122f7565b90508073ffffffffffffffffffffffffffffffffffffffff1663d481f75b61121a611ca6565b611222610c99565b6005548d8d8d8d8d8d8d8d6040518c63ffffffff1660e01b81526004016112539b9a9998979695949392919061375b565b600060405180830381600087803b15801561126d57600080fd5b505af1158015611281573d6000803e3d6000fd5b5050505061135c818a6000600281106112c3577f4e487b7100000000000000000000000000000000000000000000000000000000600052603260045260246000fd5b602002015161135789600360048110611305577f4e487b7100000000000000000000000000000000000000000000000000000000600052603260045260246000fd5b60200201518a600260048110611344577f4e487b7100000000000000000000000000000000000000000000000000000000600052603260045260246000fd5b6020020151611c9090919063ffffffff16565b6123cc565b5060016000819055505050505050505050565b611377611ca6565b73ffffffffffffffffffffffffffffffffffffffff16611395610c99565b73ffffffffffffffffffffffffffffffffffffffff16146113eb576040517f08c379a00000000000000000000000000000000000000000000000000000000081526004016113e290613957565b60405180910390fd5b8060058190555050565b6060600980548060200260200160405190810160405280929190818152602001828054801561147957602002820191906000526020600020905b8160009054906101000a900473ffffffffffffffffffffffffffffffffffffffff1673ffffffffffffffffffffffffffffffffffffffff168152602001906001019080831161142f575b5050505050905090565b60045481565b600260005414156114cf576040517f08c379a00000000000000000000000000000000000000000000000000000000081526004016114c690613a77565b60405180910390fd5b60026000819055506114e2858483611d74565b6115e26114ed611ca6565b3061157d8560016003811061152b577f4e487b7100000000000000000000000000000000000000000000000000000000600052603260045260246000fd5b60200201518660006003811061156a577f4e487b7100000000000000000000000000000000000000000000000000000000600052603260045260246000fd5b6020020151611c9090919063ffffffff16565b886000600281106115b7577f4e487b7100000000000000000000000000000000000000000000000000000000600052603260045260246000fd5b602002015173ffffffffffffffffffffffffffffffffffffffff1661226e909392919063ffffffff16565b600061160f600860009054906101000a900473ffffffffffffffffffffffffffffffffffffffff166122f7565b90508073ffffffffffffffffffffffffffffffffffffffff1663a21c2b17611635611ca6565b61163d610c99565b6005548a8a8a8a8a6040518963ffffffff1660e01b81526004016116689897969594939291906136d4565b600060405180830381600087803b15801561168257600080fd5b505af1158015611696573d6000803e3d6000fd5b5050505061177181876000600281106116d8577f4e487b7100000000000000000000000000000000000000000000000000000000600052603260045260246000fd5b602002015161176c8660016003811061171a577f4e487b7100000000000000000000000000000000000000000000000000000000600052603260045260246000fd5b602002015187600060038110611759577f4e487b7100000000000000000000000000000000000000000000000000000000600052603260045260246000fd5b6020020151611c9090919063ffffffff16565b6123cc565b5060016000819055505050505050565b6000600c60008373ffffffffffffffffffffffffffffffffffffffff1673ffffffffffffffffffffffffffffffffffffffff16815260200190815260200160002060009054906101000a900460ff169050919050565b6117df611ca6565b73ffffffffffffffffffffffffffffffffffffffff166117fd610c99565b73ffffffffffffffffffffffffffffffffffffffff1614611853576040517f08c379a000000000000000000000000000000000000000000000000000000000815260040161184a90613957565b60405180910390fd5b8060048190555050565b6000600b80549050905090565b60025481565b6060600d600061187e611ca6565b73ffffffffffffffffffffffffffffffffffffffff1673ffffffffffffffffffffffffffffffffffffffff16815260200190815260200160002080548060200260200160405190810160405280929190818152602001828054801561193857602002820191906000526020600020905b8160009054906101000a900473ffffffffffffffffffffffffffffffffffffffff1673ffffffffffffffffffffffffffffffffffffffff16815260200190600101908083116118ee575b5050505050905090565b61194a611ca6565b73ffffffffffffffffffffffffffffffffffffffff16611968610c99565b73ffffffffffffffffffffffffffffffffffffffff16146119be576040517f08c379a00000000000000000000000000000000000000000000000000000000081526004016119b590613957565b60405180910390fd5b600073ffffffffffffffffffffffffffffffffffffffff168173ffffffffffffffffffffffffffffffffffffffff161415611a2e576040517f08c379a0000000000000000000000000000000000000000000000000000000008152600401611a2590613897565b60405180910390fd5b611a3781611cae565b50565b6000806000905060005b600e60008573ffffffffffffffffffffffffffffffffffffffff1673ffffffffffffffffffffffffffffffffffffffff16815260200190815260200160002080549050811015611c70576002600e60008673ffffffffffffffffffffffffffffffffffffffff1673ffffffffffffffffffffffffffffffffffffffff1681526020019081526020016000208281548110611b07577f4e487b7100000000000000000000000000000000000000000000000000000000600052603260045260246000fd5b9060005260206000200160009054906101000a900473ffffffffffffffffffffffffffffffffffffffff1673ffffffffffffffffffffffffffffffffffffffff1663c19d93fb6040518163ffffffff1660e01b815260040160206040518083038186803b158015611b7757600080fd5b505afa158015611b8b573d6000803e3d6000fd5b505050506040513d601f19601f82011682018060405250810190611baf9190612fe9565b14611c5d57600e60008573ffffffffffffffffffffffffffffffffffffffff1673ffffffffffffffffffffffffffffffffffffffff1681526020019081526020016000208181548110611c2b577f4e487b7100000000000000000000000000000000000000000000000000000000600052603260045260246000fd5b9060005260206000200160009054906101000a900473ffffffffffffffffffffffffffffffffffffffff169150611c70565b8080611c6890613f12565b915050611a44565b5080915050919050565b60008183611c889190613df9565b905092915050565b60008183611c9e9190613da3565b905092915050565b600033905090565b6000600160009054906101000a900473ffffffffffffffffffffffffffffffffffffffff16905081600160006101000a81548173ffffffffffffffffffffffffffffffffffffffff021916908373ffffffffffffffffffffffffffffffffffffffff1602179055508173ffffffffffffffffffffffffffffffffffffffff168173ffffffffffffffffffffffffffffffffffffffff167f8be0079c531659141344cd1fd0a4f28419497f9722a3daafe3b4186f6b6457e060405160405180910390a35050565b600073ffffffffffffffffffffffffffffffffffffffff16611dd384600060028110611dc9577f4e487b7100000000000000000000000000000000000000000000000000000000600052603260045260246000fd5b6020020151611a3a565b73ffffffffffffffffffffffffffffffffffffffff1614611e29576040517f08c379a0000000000000000000000000000000000000000000000000000000008152600401611e2090613937565b60405180910390fd5b6004543414611e6d576040517f08c379a0000000000000000000000000000000000000000000000000000000008152600401611e6490613af7565b60405180910390fd5b600073ffffffffffffffffffffffffffffffffffffffff1683600060028110611ebf577f4e487b7100000000000000000000000000000000000000000000000000000000600052603260045260246000fd5b602002015173ffffffffffffffffffffffffffffffffffffffff161415611f1b576040517f08c379a0000000000000000000000000000000000000000000000000000000008152600401611f1290613a97565b60405180910390fd5b600073ffffffffffffffffffffffffffffffffffffffff16600a600085600160028110611f71577f4e487b7100000000000000000000000000000000000000000000000000000000600052603260045260246000fd5b602002015173ffffffffffffffffffffffffffffffffffffffff1673ffffffffffffffffffffffffffffffffffffffff16815260200190815260200160002060009054906101000a900473ffffffffffffffffffffffffffffffffffffffff1673ffffffffffffffffffffffffffffffffffffffff161415612028576040517f08c379a000000000000000000000000000000000000000000000000000000000815260040161201f906138b7565b60405180910390fd5b4282600060028110612063577f4e487b7100000000000000000000000000000000000000000000000000000000600052603260045260246000fd5b6020020151116120a8576040517f08c379a000000000000000000000000000000000000000000000000000000000815260040161209f906139d7565b60405180910390fd5b816000600281106120e2577f4e487b7100000000000000000000000000000000000000000000000000000000600052603260045260246000fd5b602002015182600160028110612121577f4e487b7100000000000000000000000000000000000000000000000000000000600052603260045260246000fd5b602002015111612166576040517f08c379a000000000000000000000000000000000000000000000000000000000815260040161215d90613997565b60405180910390fd5b600654816000600281106121a3577f4e487b7100000000000000000000000000000000000000000000000000000000600052603260045260246000fd5b6020020151116121e8576040517f08c379a00000000000000000000000000000000000000000000000000000000081526004016121df90613a17565b60405180910390fd5b600081600160028110612224577f4e487b7100000000000000000000000000000000000000000000000000000000600052603260045260246000fd5b602002015111612269576040517f08c379a000000000000000000000000000000000000000000000000000000000815260040161226090613ad7565b60405180910390fd5b505050565b6122f1846323b872dd60e01b85858560405160240161228f9392919061369d565b604051602081830303815290604052907bffffffffffffffffffffffffffffffffffffffffffffffffffffffff19166020820180517bffffffffffffffffffffffffffffffffffffffffffffffffffffffff8381831617835250505050612668565b50505050565b60006040517f3d602d80600a3d3981f3363d3d373d3d3d363d7300000000000000000000000081528260601b60148201527f5af43d82803e903d91602b57fd5bf3000000000000000000000000000000000060288201526037816000f0915050600073ffffffffffffffffffffffffffffffffffffffff168173ffffffffffffffffffffffffffffffffffffffff1614156123c7576040517f08c379a00000000000000000000000000000000000000000000000000000000081526004016123be906138f7565b60405180910390fd5b919050565b600b839080600181540180825580915050600190039060005260206000200160009091909190916101000a81548173ffffffffffffffffffffffffffffffffffffffff021916908373ffffffffffffffffffffffffffffffffffffffff1602179055506000600c60008573ffffffffffffffffffffffffffffffffffffffff1673ffffffffffffffffffffffffffffffffffffffff16815260200190815260200160002060006101000a81548160ff021916908315150217905550600d6000612493611ca6565b73ffffffffffffffffffffffffffffffffffffffff1673ffffffffffffffffffffffffffffffffffffffff168152602001908152602001600020839080600181540180825580915050600190039060005260206000200160009091909190916101000a81548173ffffffffffffffffffffffffffffffffffffffff021916908373ffffffffffffffffffffffffffffffffffffffff160217905550600e60008373ffffffffffffffffffffffffffffffffffffffff1673ffffffffffffffffffffffffffffffffffffffff168152602001908152602001600020839080600181540180825580915050600190039060005260206000200160009091909190916101000a81548173ffffffffffffffffffffffffffffffffffffffff021916908373ffffffffffffffffffffffffffffffffffffffff1602179055506125f983828473ffffffffffffffffffffffffffffffffffffffff1661272f9092919063ffffffff16565b612602346127b5565b61260a611ca6565b73ffffffffffffffffffffffffffffffffffffffff168373ffffffffffffffffffffffffffffffffffffffff167f12f4f726e3d40b72a8eba977c6858d0fe014165116e5d458ebf1c41386f4180f60405160405180910390a3505050565b60006126ca826040518060400160405280602081526020017f5361666545524332303a206c6f772d6c6576656c2063616c6c206661696c65648152508573ffffffffffffffffffffffffffffffffffffffff166128bc9092919063ffffffff16565b905060008151111561272a57808060200190518101906126ea9190612f97565b612729576040517f08c379a000000000000000000000000000000000000000000000000000000000815260040161272090613a37565b60405180910390fd5b5b505050565b6127b08363a9059cbb60e01b848460405160240161274e92919061380f565b604051602081830303815290604052907bffffffffffffffffffffffffffffffffffffffffffffffffffffffff19166020820180517bffffffffffffffffffffffffffffffffffffffffffffffffffffffff8381831617835250505050612668565b505050565b804710156127f8576040517f08c379a00000000000000000000000000000000000000000000000000000000081526004016127ef90613977565b60405180910390fd5b612800610c99565b73ffffffffffffffffffffffffffffffffffffffff166108fc829081150290604051600060405180830381858888f19350505050158015612845573d6000803e3d6000fd5b5061284e610c99565b73ffffffffffffffffffffffffffffffffffffffff1661286c611ca6565b73ffffffffffffffffffffffffffffffffffffffff167ffda3a3e0e1479b43cb1c701f7576187f4c4ad80768d627387e00184302f7d88e836040516128b19190613b17565b60405180910390a350565b60606128cb84846000856128d4565b90509392505050565b606082471015612919576040517f08c379a0000000000000000000000000000000000000000000000000000000008152600401612910906138d7565b60405180910390fd5b612922856129e8565b612961576040517f08c379a0000000000000000000000000000000000000000000000000000000008152600401612958906139b7565b60405180910390fd5b6000808673ffffffffffffffffffffffffffffffffffffffff16858760405161298a919061366b565b60006040518083038185875af1925050503d80600081146129c7576040519150601f19603f3d011682016040523d82523d6000602084013e6129cc565b606091505b50915091506129dc828286612a0b565b92505050949350505050565b6000808273ffffffffffffffffffffffffffffffffffffffff163b119050919050565b60608315612a1b57829050612a6b565b600083511115612a2e5782518084602001fd5b816040517f08c379a0000000000000000000000000000000000000000000000000000000008152600401612a629190613875565b60405180910390fd5b9392505050565b6000612a85612a8084613b57565b613b32565b90508082856020860282011115612a9b57600080fd5b60005b85811015612acb5781612ab18882612cb9565b845260208401935060208301925050600181019050612a9e565b5050509392505050565b6000612ae8612ae384613b7d565b613b32565b90508082856020860282011115612afe57600080fd5b60005b85811015612b4857813567ffffffffffffffff811115612b2057600080fd5b808601612b2d8982612dbb565b85526020850194506020840193505050600181019050612b01565b5050509392505050565b6000612b65612b6084613ba3565b613b32565b90508082856020860282011115612b7b57600080fd5b60005b85811015612bab5781612b918882612de5565b845260208401935060208301925050600181019050612b7e565b5050509392505050565b6000612bc8612bc384613bc9565b613b32565b90508082856020860282011115612bde57600080fd5b60005b85811015612c0e5781612bf48882612de5565b845260208401935060208301925050600181019050612be1565b5050509392505050565b6000612c2b612c2684613bef565b613b32565b90508082856020860282011115612c4157600080fd5b60005b85811015612c715781612c578882612de5565b845260208401935060208301925050600181019050612c44565b5050509392505050565b6000612c8e612c8984613c15565b613b32565b905082815260208101848484011115612ca657600080fd5b612cb1848285613e75565b509392505050565b600081359050612cc881614370565b92915050565b600082601f830112612cdf57600080fd5b6002612cec848285612a72565b91505092915050565b600082601f830112612d0657600080fd5b600c612d13848285612ad5565b91505092915050565b600082601f830112612d2d57600080fd5b6002612d3a848285612b52565b91505092915050565b600082601f830112612d5457600080fd5b6003612d61848285612bb5565b91505092915050565b600082601f830112612d7b57600080fd5b6004612d88848285612c18565b91505092915050565b600081359050612da081614387565b92915050565b600081519050612db581614387565b92915050565b600082601f830112612dcc57600080fd5b8135612ddc848260208601612c7b565b91505092915050565b600081359050612df48161439e565b92915050565b600081519050612e098161439e565b92915050565b600060208284031215612e2157600080fd5b6000612e2f84828501612cb9565b91505092915050565b60008060008060006101408688031215612e5157600080fd5b6000612e5f88828901612cce565b955050604086013567ffffffffffffffff811115612e7c57600080fd5b612e8888828901612cf5565b9450506060612e9988828901612d1c565b93505060a0612eaa88828901612d43565b925050610100612ebc88828901612d1c565b9150509295509295909350565b600080600080600080600080610200898b031215612ee657600080fd5b6000612ef48b828c01612cce565b985050604089013567ffffffffffffffff811115612f1157600080fd5b612f1d8b828c01612cf5565b9750506060612f2e8b828c01612d1c565b96505060a0612f3f8b828c01612d6a565b955050610120612f518b828c01612d1c565b945050610160612f638b828c01612d1c565b9350506101a0612f758b828c01612d1c565b9250506101e0612f878b828c01612d91565b9150509295985092959890939650565b600060208284031215612fa957600080fd5b6000612fb784828501612da6565b91505092915050565b600060208284031215612fd257600080fd5b6000612fe084828501612de5565b91505092915050565b600060208284031215612ffb57600080fd5b600061300984828501612dfa565b91505092915050565b6000806040838503121561302557600080fd5b600061303385828601612de5565b925050602061304485828601612de5565b9150509250929050565b600061305a8383613092565b60208301905092915050565b600061307283836132ee565b905092915050565b6000613086838361364d565b60208301905092915050565b61309b81613e2d565b82525050565b6130aa81613e2d565b82525050565b6130b981613c88565b6130c38184613d2e565b92506130ce82613c46565b8060005b838110156130ff5781516130e6878261304e565b96506130f183613ce0565b9250506001810190506130d2565b505050505050565b600061311282613c93565b61311c8185613d39565b935061312783613c50565b8060005b8381101561315857815161313f888261304e565b975061314a83613ced565b92505060018101905061312b565b5085935050505092915050565b600061317082613c9e565b61317a8185613d4a565b93508360208202850161318c85613c60565b8060005b858110156131c857848403895281516131a98582613066565b94506131b483613cfa565b925060208a01995050600181019050613190565b50829750879550505050505092915050565b6131e381613ca9565b6131ed8184613d55565b92506131f882613c6a565b8060005b83811015613229578151613210878261307a565b965061321b83613d07565b9250506001810190506131fc565b505050505050565b61323a81613cb4565b6132448184613d60565b925061324f82613c74565b8060005b83811015613280578151613267878261307a565b965061327283613d14565b925050600181019050613253565b505050505050565b61329181613cbf565b61329b8184613d6b565b92506132a682613c7e565b8060005b838110156132d75781516132be878261307a565b96506132c983613d21565b9250506001810190506132aa565b505050505050565b6132e881613e3f565b82525050565b60006132f982613cca565b6133038185613d76565b9350613313818560208601613e84565b61331c81613fb9565b840191505092915050565b600061333282613cca565b61333c8185613d87565b935061334c818560208601613e84565b80840191505092915050565b600061336382613cd5565b61336d8185613d92565b935061337d818560208601613e84565b61338681613fb9565b840191505092915050565b600061339e602683613d92565b91506133a982613fca565b604082019050919050565b60006133c1601883613d92565b91506133cc82614019565b602082019050919050565b60006133e4602683613d92565b91506133ef82614042565b604082019050919050565b6000613407601683613d92565b915061341282614091565b602082019050919050565b600061342a601683613d92565b9150613435826140ba565b602082019050919050565b600061344d601883613d92565b9150613458826140e3565b602082019050919050565b6000613470602083613d92565b915061347b8261410c565b602082019050919050565b6000613493601483613d92565b915061349e82614135565b602082019050919050565b60006134b6601983613d92565b91506134c18261415e565b602082019050919050565b60006134d9601d83613d92565b91506134e482614187565b602082019050919050565b60006134fc601b83613d92565b9150613507826141b0565b602082019050919050565b600061351f601483613d92565b915061352a826141d9565b602082019050919050565b6000613542601b83613d92565b915061354d82614202565b602082019050919050565b6000613565602a83613d92565b91506135708261422b565b604082019050919050565b6000613588601783613d92565b91506135938261427a565b602082019050919050565b60006135ab601f83613d92565b91506135b6826142a3565b602082019050919050565b60006135ce601383613d92565b91506135d9826142cc565b602082019050919050565b60006135f1601583613d92565b91506135fc826142f5565b602082019050919050565b6000613614601a83613d92565b915061361f8261431e565b602082019050919050565b6000613637601a83613d92565b915061364282614347565b602082019050919050565b61365681613e6b565b82525050565b61366581613e6b565b82525050565b60006136778284613327565b915081905092915050565b600060208201905061369760008301846130a1565b92915050565b60006060820190506136b260008301866130a1565b6136bf60208301856130a1565b6136cc604083018461365c565b949350505050565b60006101a0820190506136ea600083018b6130a1565b6136f7602083018a6130a1565b613704604083018961365c565b61371160608301886130b0565b81810360a08301526137238187613165565b905061373260c08301866131da565b613740610100830185613231565b61374e6101608301846131da565b9998505050505050505050565b600061026082019050613771600083018e6130a1565b61377e602083018d6130a1565b61378b604083018c61365c565b613798606083018b6130b0565b81810360a08301526137aa818a613165565b90506137b960c08301896131da565b6137c7610100830188613288565b6137d56101808301876131da565b6137e36101c08301866131da565b6137f16102008301856131da565b6137ff6102408301846132df565b9c9b505050505050505050505050565b600060408201905061382460008301856130a1565b613831602083018461365c565b9392505050565b600060208201905081810360008301526138528184613107565b905092915050565b600060208201905061386f60008301846132df565b92915050565b6000602082019050818103600083015261388f8184613358565b905092915050565b600060208201905081810360008301526138b081613391565b9050919050565b600060208201905081810360008301526138d0816133b4565b9050919050565b600060208201905081810360008301526138f0816133d7565b9050919050565b60006020820190508181036000830152613910816133fa565b9050919050565b600060208201905081810360008301526139308161341d565b9050919050565b6000602082019050818103600083015261395081613440565b9050919050565b6000602082019050818103600083015261397081613463565b9050919050565b6000602082019050818103600083015261399081613486565b9050919050565b600060208201905081810360008301526139b0816134a9565b9050919050565b600060208201905081810360008301526139d0816134cc565b9050919050565b600060208201905081810360008301526139f0816134ef565b9050919050565b60006020820190508181036000830152613a1081613512565b9050919050565b60006020820190508181036000830152613a3081613535565b9050919050565b60006020820190508181036000830152613a5081613558565b9050919050565b60006020820190508181036000830152613a708161357b565b9050919050565b60006020820190508181036000830152613a908161359e565b9050919050565b60006020820190508181036000830152613ab0816135c1565b9050919050565b60006020820190508181036000830152613ad0816135e4565b9050919050565b60006020820190508181036000830152613af081613607565b9050919050565b60006020820190508181036000830152613b108161362a565b9050919050565b6000602082019050613b2c600083018461365c565b92915050565b6000613b3c613b4d565b9050613b488282613ee1565b919050565b6000604051905090565b600067ffffffffffffffff821115613b7257613b71613f8a565b5b602082029050919050565b600067ffffffffffffffff821115613b9857613b97613f8a565b5b602082029050919050565b600067ffffffffffffffff821115613bbe57613bbd613f8a565b5b602082029050919050565b600067ffffffffffffffff821115613be457613be3613f8a565b5b602082029050919050565b600067ffffffffffffffff821115613c0a57613c09613f8a565b5b602082029050919050565b600067ffffffffffffffff821115613c3057613c2f613f8a565b5b613c3982613fb9565b9050602081019050919050565b6000819050919050565b6000819050602082019050919050565b6000819050919050565b6000819050919050565b6000819050919050565b6000819050919050565b600060029050919050565b600081519050919050565b6000600c9050919050565b600060029050919050565b600060039050919050565b600060049050919050565b600081519050919050565b600081519050919050565b6000602082019050919050565b6000602082019050919050565b6000602082019050919050565b6000602082019050919050565b6000602082019050919050565b6000602082019050919050565b600081905092915050565b600082825260208201905092915050565b600081905092915050565b600081905092915050565b600081905092915050565b600081905092915050565b600082825260208201905092915050565b600081905092915050565b600082825260208201905092915050565b6000613dae82613e6b565b9150613db983613e6b565b9250827fffffffffffffffffffffffffffffffffffffffffffffffffffffffffffffffff03821115613dee57613ded613f5b565b5b828201905092915050565b6000613e0482613e6b565b9150613e0f83613e6b565b925082821015613e2257613e21613f5b565b5b828203905092915050565b6000613e3882613e4b565b9050919050565b60008115159050919050565b600073ffffffffffffffffffffffffffffffffffffffff82169050919050565b6000819050919050565b82818337600083830152505050565b60005b83811015613ea2578082015181840152602081019050613e87565b83811115613eb1576000848401525b50505050565b6000613ec282613e6b565b91506000821415613ed657613ed5613f5b565b5b600182039050919050565b613eea82613fb9565b810181811067ffffffffffffffff82111715613f0957613f08613f8a565b5b80604052505050565b6000613f1d82613e6b565b91507fffffffffffffffffffffffffffffffffffffffffffffffffffffffffffffffff821415613f5057613f4f613f5b565b5b600182019050919050565b7f4e487b7100000000000000000000000000000000000000000000000000000000600052601160045260246000fd5b7f4e487b7100000000000000000000000000000000000000000000000000000000600052604160045260246000fd5b6000601f19601f8301169050919050565b7f4f776e61626c653a206e6577206f776e657220697320746865207a65726f206160008201527f6464726573730000000000000000000000000000000000000000000000000000602082015250565b7f524f555445523a204f55545f4f465f53454c454354494f4e0000000000000000600082015250565b7f416464726573733a20696e73756666696369656e742062616c616e636520666f60008201527f722063616c6c0000000000000000000000000000000000000000000000000000602082015250565b7f455243313136373a20637265617465206661696c656400000000000000000000600082015250565b7f696e76616c696420696d706c656d656e746174696f6e00000000000000000000600082015250565b7f4c41554e43485041443a20414c52454144595f45584953540000000000000000600082015250565b7f4f776e61626c653a2063616c6c6572206973206e6f7420746865206f776e6572600082015250565b7f696e73756666696369656e742062616c616e6365000000000000000000000000600082015250565b7f454e445f444154453a204c4553535f5448414e5f535441525400000000000000600082015250565b7f416464726573733a2063616c6c20746f206e6f6e2d636f6e7472616374000000600082015250565b7f53544152545f444154453a204e4f545f4655545552455f444154450000000000600082015250565b7f726f7574657220616c7265616479206164646564000000000000000000000000600082015250565b7f4c49515549444954593a204c4553535f5448414e5f4e4f524d414c0000000000600082015250565b7f5361666545524332303a204552433230206f7065726174696f6e20646964206e60008201527f6f74207375636365656400000000000000000000000000000000000000000000602082015250565b7f4341503a204c4553535f5448414e5f534f46545f434150000000000000000000600082015250565b7f5265656e7472616e637947756172643a207265656e7472616e742063616c6c00600082015250565b7f544f4b454e3a205a45524f5f4144445245535300000000000000000000000000600082015250565b7f4d494e4d41583a204c4553535f5448414e5f4d494e0000000000000000000000600082015250565b7f4c49515549444954593a205a45524f5f54494d455f56414c5545000000000000600082015250565b7f696e76616c696420616d6f756e7420666f72207061796d656e74000000000000600082015250565b61437981613e2d565b811461438457600080fd5b50565b61439081613e3f565b811461439b57600080fd5b50565b6143a781613e6b565b81146143b257600080fd5b5056fea264697066735822122038755f5e6659b2b7ab038280877abef8c878ad6b2f79f86bef07aee9a99cdf2464736f6c63430008040033",
    "linkReferences": {},
    "deployedLinkReferences": {}
}