{
  "_format": "hh-sol-artifact-1",
  "contractName": "FairLaunch",
  "sourceName": "contracts/FairLaunch.sol",
  "abi": [
    {
      "anonymous": false,
      "inputs": [
        {
          "indexed": false,
          "internalType": "uint256",
          "name": "status",
          "type": "uint256"
        }
      ],
      "name": "ChangeState",
      "type": "event"
    },
    {
      "anonymous": false,
      "inputs": [
        {
          "indexed": true,
          "internalType": "address",
          "name": "account",
          "type": "address"
        },
        {
          "indexed": false,
          "internalType": "uint256",
          "name": "amount",
          "type": "uint256"
        }
      ],
      "name": "Claim",
      "type": "event"
    },
    {
      "anonymous": false,
      "inputs": [
        {
          "indexed": true,
          "internalType": "address",
          "name": "previousOwner",
          "type": "address"
        },
        {
          "indexed": true,
          "internalType": "address",
          "name": "newOwner",
          "type": "address"
        }
      ],
      "name": "OwnershipTransferred",
      "type": "event"
    },
    {
      "anonymous": false,
      "inputs": [
        {
          "indexed": false,
          "internalType": "address",
          "name": "account",
          "type": "address"
        },
        {
          "indexed": false,
          "internalType": "uint256",
          "name": "amount",
          "type": "uint256"
        }
      ],
      "name": "Purchase",
      "type": "event"
    },
    {
      "anonymous": false,
      "inputs": [
        {
          "indexed": false,
          "internalType": "address",
          "name": "sender",
          "type": "address"
        },
        {
          "indexed": false,
          "internalType": "uint256",
          "name": "amount",
          "type": "uint256"
        }
      ],
      "name": "TokenDeposited",
      "type": "event"
    },
    {
      "anonymous": false,
      "inputs": [
        {
          "indexed": false,
          "internalType": "address",
          "name": "account",
          "type": "address"
        }
      ],
      "name": "WhitelistAdded",
      "type": "event"
    },
    {
      "anonymous": false,
      "inputs": [
        {
          "indexed": false,
          "internalType": "address",
          "name": "account",
          "type": "address"
        }
      ],
      "name": "WhitelistRemoved",
      "type": "event"
    },
    {
      "inputs": [],
      "name": "activate",
      "outputs": [],
      "stateMutability": "nonpayable",
      "type": "function"
    },
    {
      "inputs": [],
      "name": "additionalDetails",
      "outputs": [
        {
          "internalType": "bytes[12]",
          "name": "",
          "type": "bytes[12]"
        },
        {
          "internalType": "uint256",
          "name": "",
          "type": "uint256"
        },
        {
          "internalType": "uint256",
          "name": "",
          "type": "uint256"
        },
        {
          "internalType": "uint256",
          "name": "",
          "type": "uint256"
        }
      ],
      "stateMutability": "view",
      "type": "function"
    },
    {
      "inputs": [],
      "name": "cancel",
      "outputs": [],
      "stateMutability": "nonpayable",
      "type": "function"
    },
    {
      "inputs": [],
      "name": "claim",
      "outputs": [],
      "stateMutability": "nonpayable",
      "type": "function"
    },
    {
      "inputs": [],
      "name": "contributors",
      "outputs": [
        {
          "internalType": "address[]",
          "name": "",
          "type": "address[]"
        }
      ],
      "stateMutability": "view",
      "type": "function"
    },
    {
      "inputs": [
        {
          "internalType": "uint256",
          "name": "amount",
          "type": "uint256"
        }
      ],
      "name": "depositTokens",
      "outputs": [],
      "stateMutability": "nonpayable",
      "type": "function"
    },
    {
      "inputs": [],
      "name": "finalize",
      "outputs": [],
      "stateMutability": "nonpayable",
      "type": "function"
    },
    {
      "inputs": [
        {
          "internalType": "address",
          "name": "_owner",
          "type": "address"
        },
        {
          "internalType": "address",
          "name": "platformOwner",
          "type": "address"
        },
        {
          "internalType": "uint256",
          "name": "additionalFee",
          "type": "uint256"
        },
        {
          "internalType": "address[2]",
          "name": "addresses",
          "type": "address[2]"
        },
        {
          "internalType": "bytes[12]",
          "name": "details",
          "type": "bytes[12]"
        },
        {
          "internalType": "uint256[2]",
          "name": "date",
          "type": "uint256[2]"
        },
        {
          "internalType": "uint256[3]",
          "name": "qty",
          "type": "uint256[3]"
        },
        {
          "internalType": "uint256[2]",
          "name": "liquidity",
          "type": "uint256[2]"
        }
      ],
      "name": "init",
      "outputs": [],
      "stateMutability": "nonpayable",
      "type": "function"
    },
    {
      "inputs": [],
      "name": "liquidityDetails",
      "outputs": [
        {
          "internalType": "uint256",
          "name": "",
          "type": "uint256"
        },
        {
          "internalType": "uint256",
          "name": "",
          "type": "uint256"
        }
      ],
      "stateMutability": "view",
      "type": "function"
    },
    {
      "inputs": [],
      "name": "owner",
      "outputs": [
        {
          "internalType": "address",
          "name": "",
          "type": "address"
        }
      ],
      "stateMutability": "view",
      "type": "function"
    },
    {
      "inputs": [],
      "name": "pause",
      "outputs": [],
      "stateMutability": "nonpayable",
      "type": "function"
    },
    {
      "inputs": [],
      "name": "pullOutTokens",
      "outputs": [],
      "stateMutability": "nonpayable",
      "type": "function"
    },
    {
      "inputs": [],
      "name": "purchase",
      "outputs": [],
      "stateMutability": "payable",
      "type": "function"
    },
    {
      "inputs": [],
      "name": "refund",
      "outputs": [],
      "stateMutability": "nonpayable",
      "type": "function"
    },
    {
      "inputs": [],
      "name": "removeLiquidity",
      "outputs": [],
      "stateMutability": "nonpayable",
      "type": "function"
    },
    {
      "inputs": [],
      "name": "renounceOwnership",
      "outputs": [],
      "stateMutability": "nonpayable",
      "type": "function"
    },
    {
      "inputs": [],
      "name": "saleDetails",
      "outputs": [
        {
          "internalType": "address",
          "name": "",
          "type": "address"
        },
        {
          "internalType": "uint256",
          "name": "",
          "type": "uint256"
        },
        {
          "internalType": "uint256",
          "name": "",
          "type": "uint256"
        },
        {
          "internalType": "address",
          "name": "",
          "type": "address"
        },
        {
          "internalType": "uint256",
          "name": "",
          "type": "uint256"
        },
        {
          "internalType": "uint256",
          "name": "",
          "type": "uint256"
        },
        {
          "internalType": "uint256",
          "name": "",
          "type": "uint256"
        }
      ],
      "stateMutability": "view",
      "type": "function"
    },
    {
      "inputs": [],
      "name": "saleType",
      "outputs": [
        {
          "internalType": "bytes32",
          "name": "",
          "type": "bytes32"
        }
      ],
      "stateMutability": "view",
      "type": "function"
    },
    {
      "inputs": [
        {
          "internalType": "bytes[12]",
          "name": "info",
          "type": "bytes[12]"
        }
      ],
      "name": "setDetails",
      "outputs": [],
      "stateMutability": "nonpayable",
      "type": "function"
    },
    {
      "inputs": [],
      "name": "state",
      "outputs": [
        {
          "internalType": "uint256",
          "name": "",
          "type": "uint256"
        }
      ],
      "stateMutability": "view",
      "type": "function"
    },
    {
      "inputs": [
        {
          "internalType": "address",
          "name": "account",
          "type": "address"
        }
      ],
      "name": "totalContributions",
      "outputs": [
        {
          "internalType": "uint256",
          "name": "",
          "type": "uint256"
        }
      ],
      "stateMutability": "view",
      "type": "function"
    },
    {
      "inputs": [
        {
          "internalType": "address",
          "name": "newOwner",
          "type": "address"
        }
      ],
      "name": "transferOwnership",
      "outputs": [],
      "stateMutability": "nonpayable",
      "type": "function"
    },
    {
      "inputs": [],
      "name": "withdrawFunds",
      "outputs": [],
      "stateMutability": "nonpayable",
      "type": "function"
    }
  ],
  "bytecode": "0x60a06040527f3431b77d8caae6a9c9b19b5339115bd83b06940e316197267e03954ce73611c26080908152503480156200003857600080fd5b50600080819055506200005260006200006060201b60201c565b600160038190555062000126565b6000600260009054906101000a900473ffffffffffffffffffffffffffffffffffffffff16905081600260006101000a81548173ffffffffffffffffffffffffffffffffffffffff021916908373ffffffffffffffffffffffffffffffffffffffff1602179055508173ffffffffffffffffffffffffffffffffffffffff168173ffffffffffffffffffffffffffffffffffffffff167f8be0079c531659141344cd1fd0a4f28419497f9722a3daafe3b4186f6b6457e060405160405180910390a35050565b6080516148d562000142600039600061119701526148d56000f3fe6080604052600436106101405760003560e01c806367b9a286116100b6578063a21c2b171161006f578063a21c2b1714610379578063c19d93fb146103a2578063dd49756e146103cd578063ea8a1af0146103f6578063edad0dfe1461040d578063f2fde38b1461042457610140565b806367b9a286146102a15780636e7e3b2b146102b8578063715018a6146102e35780637ed3deba146102fa5780638456cb59146103375780638da5cb5b1461034e57610140565b8063485366881161010857806348536688146101fe5780634bb278f3146102275780634e71d92d1461023e578063590e1ae3146102555780635bcc79281461026c57806364edfbf01461029757610140565b806307a130f7146101455780630f15f4c01461017157806324600fc31461018857806331f4b58a1461019f5780633474a4a6146101cd575b600080fd5b34801561015157600080fd5b5061015a61044d565b604051610168929190613f89565b60405180910390f35b34801561017d57600080fd5b5061018661045e565b005b34801561019457600080fd5b5061019d610504565b005b3480156101ab57600080fd5b506101b4610aac565b6040516101c49493929190613bf9565b60405180910390f35b3480156101d957600080fd5b506101e2610b93565b6040516101f59796959493929190613b68565b60405180910390f35b34801561020a57600080fd5b5061022560048036038101906102209190613406565b610c0a565b005b34801561023357600080fd5b5061023c610c1f565b005b34801561024a57600080fd5b50610253610d70565b005b34801561026157600080fd5b5061026a610ff1565b005b34801561027857600080fd5b50610281611195565b60405161028e9190613c45565b60405180910390f35b61029f6111b9565b005b3480156102ad57600080fd5b506102b661148d565b005b3480156102c457600080fd5b506102cd6117b4565b6040516102da9190613bd7565b60405180910390f35b3480156102ef57600080fd5b506102f8611842565b005b34801561030657600080fd5b50610321600480360381019061031c91906132e8565b6118ca565b60405161032e9190613f6e565b60405180910390f35b34801561034357600080fd5b5061034c611913565b005b34801561035a57600080fd5b50610363611999565b6040516103709190613a63565b60405180910390f35b34801561038557600080fd5b506103a0600480360381019061039b919061333a565b6119c3565b005b3480156103ae57600080fd5b506103b7611e95565b6040516103c49190613f6e565b60405180910390f35b3480156103d957600080fd5b506103f460048036038101906103ef9190613470565b611e9e565b005b34801561040257600080fd5b5061040b61203a565b005b34801561041957600080fd5b506104226120c0565b005b34801561043057600080fd5b5061044b600480360381019061044691906132e8565b6122f8565b005b600080601c54601e54915091509091565b6104666123f0565b73ffffffffffffffffffffffffffffffffffffffff16610484611999565b73ffffffffffffffffffffffffffffffffffffffff16146104da576040517f08c379a00000000000000000000000000000000000000000000000000000000081526004016104d190613eae565b60405180910390fd5b60006104e46123f8565b90506104fb8160195461249190919063ffffffff16565b60198190555050565b6002600354141561054a576040517f08c379a000000000000000000000000000000000000000000000000000000000815260040161054190613f2e565b60405180910390fd5b6002600381905550600360005414610597576040517f08c379a000000000000000000000000000000000000000000000000000000000815260040161058e90613e8e565b60405180910390fd5b61059f6123f0565b73ffffffffffffffffffffffffffffffffffffffff166105bd611999565b73ffffffffffffffffffffffffffffffffffffffff1614610613576040517f08c379a000000000000000000000000000000000000000000000000000000000815260040161060a90613eae565b60405180910390fd5b600073ffffffffffffffffffffffffffffffffffffffff166106336124a7565b73ffffffffffffffffffffffffffffffffffffffff1614610689576040517f08c379a000000000000000000000000000000000000000000000000000000000815260040161068090613dce565b60405180910390fd5b6106b36106a4601b546201518061269990919063ffffffff16565b4261249190919063ffffffff16565b601c8190555060006106ec670de0b6b3a76400006106de60165460225461269990919063ffffffff16565b6126af90919063ffffffff16565b90506000610721670de0b6b3a7640000610713601654601f5461269990919063ffffffff16565b6126af90919063ffffffff16565b90506000610756670de0b6b3a7640000610748601a5460225461269990919063ffffffff16565b6126af90919063ffffffff16565b9050600061076f836020546126c590919063ffffffff16565b905061078484836126c590919063ffffffff16565b601d819055506107f9600860009054906101000a900473ffffffffffffffffffffffffffffffffffffffff1682600760009054906101000a900473ffffffffffffffffffffffffffffffffffffffff1673ffffffffffffffffffffffffffffffffffffffff166126db9092919063ffffffff16565b600860009054906101000a900473ffffffffffffffffffffffffffffffffffffffff1673ffffffffffffffffffffffffffffffffffffffff1663f305d719601d54600760009054906101000a900473ffffffffffffffffffffffffffffffffffffffff168460008030426040518863ffffffff1660e01b815260040161088496959493929190613b07565b6060604051808303818588803b15801561089d57600080fd5b505af11580156108b1573d6000803e3d6000fd5b50505050506040513d601f19601f820116820180604052508101906108d691906134fe565b9091509050601e6000829190505550600960009054906101000a900473ffffffffffffffffffffffffffffffffffffffff1673ffffffffffffffffffffffffffffffffffffffff16630f42949a602254601d546040518363ffffffff1660e01b8152600401610946929190613f89565b600060405180830381600087803b15801561096057600080fd5b505af1158015610974573d6000803e3d6000fd5b50505050600660009054906101000a900473ffffffffffffffffffffffffffffffffffffffff1673ffffffffffffffffffffffffffffffffffffffff166108fc859081150290604051600060405180830381858888f193505050501580156109e0573d6000803e3d6000fd5b50610a50600660009054906101000a900473ffffffffffffffffffffffffffffffffffffffff1684600760009054906101000a900473ffffffffffffffffffffffffffffffffffffffff1673ffffffffffffffffffffffffffffffffffffffff166128399092919063ffffffff16565b610a58611999565b73ffffffffffffffffffffffffffffffffffffffff166108fc479081150290604051600060405180830381858888f19350505050158015610a9d573d6000803e3d6000fd5b50505050506001600381905550565b610ab4612e3e565b6000806000600a60225460185460195483600c80602002604051908101604052809291906000905b82821015610b7f578382018054610af290614347565b80601f0160208091040260200160405190810160405280929190818152602001828054610b1e90614347565b8015610b6b5780601f10610b4057610100808354040283529160200191610b6b565b820191906000526020600020905b815481529060010190602001808311610b4e57829003601f168201915b505050505081526020019060010190610adc565b505050509350935093509350935090919293565b6000806000806000806000600760009054906101000a900473ffffffffffffffffffffffffffffffffffffffff16601f54602154600860009054906101000a900473ffffffffffffffffffffffffffffffffffffffff16602054601a54601b54965096509650965096509650965090919293949596565b80600a90600c610c1b929190612e66565b5050565b610c276123f0565b73ffffffffffffffffffffffffffffffffffffffff16610c45611999565b73ffffffffffffffffffffffffffffffffffffffff1614610c9b576040517f08c379a0000000000000000000000000000000000000000000000000000000008152600401610c9290613eae565b60405180910390fd5b600073ffffffffffffffffffffffffffffffffffffffff16610cbb6124a7565b73ffffffffffffffffffffffffffffffffffffffff1614610d11576040517f08c379a0000000000000000000000000000000000000000000000000000000008152600401610d0890613e6e565b60405180910390fd5b4260195411158015610d27575060215460225410155b610d66576040517f08c379a0000000000000000000000000000000000000000000000000000000008152600401610d5d90613d6e565b60405180910390fd5b610d6e6128bf565b565b60026003541415610db6576040517f08c379a0000000000000000000000000000000000000000000000000000000008152600401610dad90613f2e565b60405180910390fd5b6002600381905550600360005414610e03576040517f08c379a0000000000000000000000000000000000000000000000000000000008152600401610dfa90613e8e565b60405180910390fd5b600060056000610e116123f0565b73ffffffffffffffffffffffffffffffffffffffff1673ffffffffffffffffffffffffffffffffffffffff1681526020019081526020016000205411610e8c576040517f08c379a0000000000000000000000000000000000000000000000000000000008152600401610e8390613eee565b60405180910390fd5b600060056000610e9a6123f0565b73ffffffffffffffffffffffffffffffffffffffff1673ffffffffffffffffffffffffffffffffffffffff168152602001908152602001600020549050600060056000610ee56123f0565b73ffffffffffffffffffffffffffffffffffffffff1673ffffffffffffffffffffffffffffffffffffffff16815260200190815260200160002081905550610f91610f2e6123f0565b601f5460225484610f3f919061419f565b610f4991906141d0565b600760009054906101000a900473ffffffffffffffffffffffffffffffffffffffff1673ffffffffffffffffffffffffffffffffffffffff166128399092919063ffffffff16565b610f996123f0565b73ffffffffffffffffffffffffffffffffffffffff167f47cee97cb7acd717b3c0aa1435d004cd5b3c8c57d70dbceb4e4458bbd60e39d482604051610fde9190613f6e565b60405180910390a2506001600381905550565b60026003541415611037576040517f08c379a000000000000000000000000000000000000000000000000000000000815260040161102e90613f2e565b60405180910390fd5b60026003819055506002611049611e95565b1480611066575042601954111580156110655750602154602254105b5b6110a5576040517f08c379a000000000000000000000000000000000000000000000000000000000815260040161109c90613d8e565b60405180910390fd5b6000600560006110b36123f0565b73ffffffffffffffffffffffffffffffffffffffff1673ffffffffffffffffffffffffffffffffffffffff1681526020019081526020016000205490506000600560006110fe6123f0565b73ffffffffffffffffffffffffffffffffffffffff1673ffffffffffffffffffffffffffffffffffffffff168152602001908152602001600020819055506111446123f0565b73ffffffffffffffffffffffffffffffffffffffff166108fc829081150290604051600060405180830381858888f19350505050158015611189573d6000803e3d6000fd5b50506001600381905550565b7f000000000000000000000000000000000000000000000000000000000000000081565b600260035414156111ff576040517f08c379a00000000000000000000000000000000000000000000000000000000081526004016111f690613f2e565b60405180910390fd5b6002600381905550600080541461124b576040517f08c379a000000000000000000000000000000000000000000000000000000000815260040161124290613dae565b60405180910390fd5b600073ffffffffffffffffffffffffffffffffffffffff1661126b6124a7565b73ffffffffffffffffffffffffffffffffffffffff16146112c1576040517f08c379a00000000000000000000000000000000000000000000000000000000081526004016112b890613e6e565b60405180910390fd5b60185442101580156112d557506019544211155b611314576040517f08c379a000000000000000000000000000000000000000000000000000000000815260040161130b90613e4e565b60405180910390fd5b6000600560006113226123f0565b73ffffffffffffffffffffffffffffffffffffffff1673ffffffffffffffffffffffffffffffffffffffff1681526020019081526020016000205414156113ce57600461136d6123f0565b9080600181540180825580915050600190039060005260206000200160009091909190916101000a81548173ffffffffffffffffffffffffffffffffffffffff021916908373ffffffffffffffffffffffffffffffffffffffff1602179055505b61142734600560006113de6123f0565b73ffffffffffffffffffffffffffffffffffffffff1673ffffffffffffffffffffffffffffffffffffffff1681526020019081526020016000205461249190919063ffffffff16565b5061143d3460225461249190919063ffffffff16565b6022819055507f2499a5330ab0979cc612135e7883ebc3cd5c9f7a8508f042540c34723348f63261146c6123f0565b3460405161147b929190613ade565b60405180910390a16001600381905550565b600260035414156114d3576040517f08c379a00000000000000000000000000000000000000000000000000000000081526004016114ca90613f2e565b60405180910390fd5b6002600381905550600360005414611520576040517f08c379a000000000000000000000000000000000000000000000000000000000815260040161151790613e8e565b60405180910390fd5b6115286123f0565b73ffffffffffffffffffffffffffffffffffffffff16611546611999565b73ffffffffffffffffffffffffffffffffffffffff161461159c576040517f08c379a000000000000000000000000000000000000000000000000000000000815260040161159390613eae565b60405180910390fd5b42601c5411156115e1576040517f08c379a00000000000000000000000000000000000000000000000000000000081526004016115d890613e0e565b60405180910390fd5b611637600860009054906101000a900473ffffffffffffffffffffffffffffffffffffffff16601e546116126124a7565b73ffffffffffffffffffffffffffffffffffffffff166126db9092919063ffffffff16565b600860009054906101000a900473ffffffffffffffffffffffffffffffffffffffff1673ffffffffffffffffffffffffffffffffffffffff166302751cec600760009054906101000a900473ffffffffffffffffffffffffffffffffffffffff16601e546000806116a6611999565b426040518763ffffffff1660e01b81526004016116c896959493929190613b07565b6040805180830381600087803b1580156116e157600080fd5b505af11580156116f5573d6000803e3d6000fd5b505050506040513d601f19601f8201168201806040525081019061171991906134c2565b5050600960009054906101000a900473ffffffffffffffffffffffffffffffffffffffff1673ffffffffffffffffffffffffffffffffffffffff16630373ad78601d546040518263ffffffff1660e01b81526004016117789190613f6e565b600060405180830381600087803b15801561179257600080fd5b505af11580156117a6573d6000803e3d6000fd5b505050506001600381905550565b6060600480548060200260200160405190810160405280929190818152602001828054801561183857602002820191906000526020600020905b8160009054906101000a900473ffffffffffffffffffffffffffffffffffffffff1673ffffffffffffffffffffffffffffffffffffffff16815260200190600101908083116117ee575b5050505050905090565b61184a6123f0565b73ffffffffffffffffffffffffffffffffffffffff16611868611999565b73ffffffffffffffffffffffffffffffffffffffff16146118be576040517f08c379a00000000000000000000000000000000000000000000000000000000081526004016118b590613eae565b60405180910390fd5b6118c86000612952565b565b6000600560008373ffffffffffffffffffffffffffffffffffffffff1673ffffffffffffffffffffffffffffffffffffffff168152602001908152602001600020549050919050565b61191b6123f0565b73ffffffffffffffffffffffffffffffffffffffff16611939611999565b73ffffffffffffffffffffffffffffffffffffffff161461198f576040517f08c379a000000000000000000000000000000000000000000000000000000000815260040161198690613eae565b60405180910390fd5b611997612a18565b565b6000600260009054906101000a900473ffffffffffffffffffffffffffffffffffffffff16905090565b600073ffffffffffffffffffffffffffffffffffffffff166119e3611999565b73ffffffffffffffffffffffffffffffffffffffff161415611a3a576040517f08c379a0000000000000000000000000000000000000000000000000000000008152600401611a3190613cee565b60405180910390fd5b8560168190555086600660006101000a81548173ffffffffffffffffffffffffffffffffffffffff021916908373ffffffffffffffffffffffffffffffffffffffff16021790555084600060028110611abc577f4e487b7100000000000000000000000000000000000000000000000000000000600052603260045260246000fd5b6020020151600760006101000a81548173ffffffffffffffffffffffffffffffffffffffff021916908373ffffffffffffffffffffffffffffffffffffffff16021790555084600160028110611b3b577f4e487b7100000000000000000000000000000000000000000000000000000000600052603260045260246000fd5b6020020151600860006101000a81548173ffffffffffffffffffffffffffffffffffffffff021916908373ffffffffffffffffffffffffffffffffffffffff16021790555084600060028110611bba577f4e487b7100000000000000000000000000000000000000000000000000000000600052603260045260246000fd5b602002015173ffffffffffffffffffffffffffffffffffffffff1663313ce5676040518163ffffffff1660e01b815260040160206040518083038186803b158015611c0457600080fd5b505afa158015611c18573d6000803e3d6000fd5b505050506040513d601f19601f82011682018060405250810190611c3c919061354d565b60ff1660178190555083600a90600c611c56929190612e66565b5082600060028110611c91577f4e487b7100000000000000000000000000000000000000000000000000000000600052603260045260246000fd5b602002015160188190555082600160028110611cd6577f4e487b7100000000000000000000000000000000000000000000000000000000600052603260045260246000fd5b602002015160198190555081600060038110611d1b577f4e487b7100000000000000000000000000000000000000000000000000000000600052603260045260246000fd5b6020020151601f8190555081600160038110611d60577f4e487b7100000000000000000000000000000000000000000000000000000000600052603260045260246000fd5b602002015160208190555081600260038110611da5577f4e487b7100000000000000000000000000000000000000000000000000000000600052603260045260246000fd5b602002015160218190555080600060028110611dea577f4e487b7100000000000000000000000000000000000000000000000000000000600052603260045260246000fd5b6020020151601a8190555080600160028110611e2f577f4e487b7100000000000000000000000000000000000000000000000000000000600052603260045260246000fd5b6020020151601b81905550611e426123f0565b600960006101000a81548173ffffffffffffffffffffffffffffffffffffffff021916908373ffffffffffffffffffffffffffffffffffffffff160217905550611e8b88612952565b5050505050505050565b60008054905090565b611ea66123f0565b73ffffffffffffffffffffffffffffffffffffffff16611ec4611999565b73ffffffffffffffffffffffffffffffffffffffff1614611f1a576040517f08c379a0000000000000000000000000000000000000000000000000000000008152600401611f1190613eae565b60405180910390fd5b6000805414611f5e576040517f08c379a0000000000000000000000000000000000000000000000000000000008152600401611f5590613dae565b60405180910390fd5b60008111611fa1576040517f08c379a0000000000000000000000000000000000000000000000000000000008152600401611f9890613d0e565b60405180910390fd5b611ff7611fac6123f0565b3083600760009054906101000a900473ffffffffffffffffffffffffffffffffffffffff1673ffffffffffffffffffffffffffffffffffffffff16612aa5909392919063ffffffff16565b7fbc7c8a4d8049a3f99a02f2a20640c206a2e4d3f2fa54fd20da9f01fda3620cda6120206123f0565b8260405161202f929190613ade565b60405180910390a150565b6120426123f0565b73ffffffffffffffffffffffffffffffffffffffff16612060611999565b73ffffffffffffffffffffffffffffffffffffffff16146120b6576040517f08c379a00000000000000000000000000000000000000000000000000000000081526004016120ad90613eae565b60405180910390fd5b6120be612b2e565b565b60026003541415612106576040517f08c379a00000000000000000000000000000000000000000000000000000000081526004016120fd90613f2e565b60405180910390fd5b60026003819055506121166123f0565b73ffffffffffffffffffffffffffffffffffffffff16612134611999565b73ffffffffffffffffffffffffffffffffffffffff161461218a576040517f08c379a000000000000000000000000000000000000000000000000000000000815260040161218190613eae565b60405180910390fd5b6002612194611e95565b14806121b1575042601954111580156121b05750602154602254105b5b6121f0576040517f08c379a00000000000000000000000000000000000000000000000000000000081526004016121e790613d8e565b60405180910390fd5b6122ee6121fb6123f0565b600760009054906101000a900473ffffffffffffffffffffffffffffffffffffffff1673ffffffffffffffffffffffffffffffffffffffff166370a08231306040518263ffffffff1660e01b81526004016122569190613a63565b60206040518083038186803b15801561226e57600080fd5b505afa158015612282573d6000803e3d6000fd5b505050506040513d601f19601f820116820180604052508101906122a69190613499565b600760009054906101000a900473ffffffffffffffffffffffffffffffffffffffff1673ffffffffffffffffffffffffffffffffffffffff166128399092919063ffffffff16565b6001600381905550565b6123006123f0565b73ffffffffffffffffffffffffffffffffffffffff1661231e611999565b73ffffffffffffffffffffffffffffffffffffffff1614612374576040517f08c379a000000000000000000000000000000000000000000000000000000000815260040161236b90613eae565b60405180910390fd5b600073ffffffffffffffffffffffffffffffffffffffff168173ffffffffffffffffffffffffffffffffffffffff1614156123e4576040517f08c379a00000000000000000000000000000000000000000000000000000000081526004016123db90613d2e565b60405180910390fd5b6123ed81612952565b50565b600033905090565b600060016000541461243f576040517f08c379a000000000000000000000000000000000000000000000000000000000815260040161243690613d4e565b60405180910390fd5b6000808190555060015442612454919061422a565b90507fe53a714be5f4cafd59534776fb9c70cb9d78291e7ea841bb0180f59b64ace03760006040516124869190613c60565b60405180910390a190565b6000818361249f9190614149565b905092915050565b6000600860009054906101000a900473ffffffffffffffffffffffffffffffffffffffff1673ffffffffffffffffffffffffffffffffffffffff1663c45a01556040518163ffffffff1660e01b815260040160206040518083038186803b15801561251157600080fd5b505afa158015612525573d6000803e3d6000fd5b505050506040513d601f19601f820116820180604052508101906125499190613311565b73ffffffffffffffffffffffffffffffffffffffff1663e6a43905600760009054906101000a900473ffffffffffffffffffffffffffffffffffffffff16600860009054906101000a900473ffffffffffffffffffffffffffffffffffffffff1673ffffffffffffffffffffffffffffffffffffffff1663ad5c46486040518163ffffffff1660e01b815260040160206040518083038186803b1580156125ef57600080fd5b505afa158015612603573d6000803e3d6000fd5b505050506040513d601f19601f820116820180604052508101906126279190613311565b6040518363ffffffff1660e01b8152600401612644929190613a7e565b60206040518083038186803b15801561265c57600080fd5b505afa158015612670573d6000803e3d6000fd5b505050506040513d601f19601f820116820180604052508101906126949190613311565b905090565b600081836126a791906141d0565b905092915050565b600081836126bd919061419f565b905092915050565b600081836126d3919061422a565b905092915050565b6000811480612774575060008373ffffffffffffffffffffffffffffffffffffffff1663dd62ed3e30856040518363ffffffff1660e01b8152600401612722929190613a7e565b60206040518083038186803b15801561273a57600080fd5b505afa15801561274e573d6000803e3d6000fd5b505050506040513d601f19601f820116820180604052508101906127729190613499565b145b6127b3576040517f08c379a00000000000000000000000000000000000000000000000000000000081526004016127aa90613f4e565b60405180910390fd5b6128348363095ea7b360e01b84846040516024016127d2929190613ade565b604051602081830303815290604052907bffffffffffffffffffffffffffffffffffffffffffffffffffffffff19166020820180517bffffffffffffffffffffffffffffffffffffffffffffffffffffffff8381831617835250505050612bc1565b505050565b6128ba8363a9059cbb60e01b8484604051602401612858929190613ade565b604051602081830303815290604052907bffffffffffffffffffffffffffffffffffffffffffffffffffffffff19166020820180517bffffffffffffffffffffffffffffffffffffffffffffffffffffffff8381831617835250505050612bc1565b505050565b6000805414806128d157506001600054145b612910576040517f08c379a000000000000000000000000000000000000000000000000000000000815260040161290790613e2e565b60405180910390fd5b60036000819055507fe53a714be5f4cafd59534776fb9c70cb9d78291e7ea841bb0180f59b64ace03760036040516129489190613cb1565b60405180910390a1565b6000600260009054906101000a900473ffffffffffffffffffffffffffffffffffffffff16905081600260006101000a81548173ffffffffffffffffffffffffffffffffffffffff021916908373ffffffffffffffffffffffffffffffffffffffff1602179055508173ffffffffffffffffffffffffffffffffffffffff168173ffffffffffffffffffffffffffffffffffffffff167f8be0079c531659141344cd1fd0a4f28419497f9722a3daafe3b4186f6b6457e060405160405180910390a35050565b6000805414612a5c576040517f08c379a0000000000000000000000000000000000000000000000000000000008152600401612a5390613dae565b60405180910390fd5b6001600081905550426001819055507fe53a714be5f4cafd59534776fb9c70cb9d78291e7ea841bb0180f59b64ace0376001604051612a9b9190613c7b565b60405180910390a1565b612b28846323b872dd60e01b858585604051602401612ac693929190613aa7565b604051602081830303815290604052907bffffffffffffffffffffffffffffffffffffffffffffffffffffffff19166020820180517bffffffffffffffffffffffffffffffffffffffffffffffffffffffff8381831617835250505050612bc1565b50505050565b600080541480612b4057506001600054145b612b7f576040517f08c379a0000000000000000000000000000000000000000000000000000000008152600401612b7690613e2e565b60405180910390fd5b60026000819055507fe53a714be5f4cafd59534776fb9c70cb9d78291e7ea841bb0180f59b64ace0376002604051612bb79190613c96565b60405180910390a1565b6000612c23826040518060400160405280602081526020017f5361666545524332303a206c6f772d6c6576656c2063616c6c206661696c65648152508573ffffffffffffffffffffffffffffffffffffffff16612c889092919063ffffffff16565b9050600081511115612c835780806020019051810190612c439190613447565b612c82576040517f08c379a0000000000000000000000000000000000000000000000000000000008152600401612c7990613f0e565b60405180910390fd5b5b505050565b6060612c978484600085612ca0565b90509392505050565b606082471015612ce5576040517f08c379a0000000000000000000000000000000000000000000000000000000008152600401612cdc90613dee565b60405180910390fd5b612cee85612db4565b612d2d576040517f08c379a0000000000000000000000000000000000000000000000000000000008152600401612d2490613ece565b60405180910390fd5b6000808673ffffffffffffffffffffffffffffffffffffffff168587604051612d569190613a4c565b60006040518083038185875af1925050503d8060008114612d93576040519150601f19603f3d011682016040523d82523d6000602084013e612d98565b606091505b5091509150612da8828286612dd7565b92505050949350505050565b6000808273ffffffffffffffffffffffffffffffffffffffff163b119050919050565b60608315612de757829050612e37565b600083511115612dfa5782518084602001fd5b816040517f08c379a0000000000000000000000000000000000000000000000000000000008152600401612e2e9190613ccc565b60405180910390fd5b9392505050565b604051806101800160405280600c905b6060815260200190600190039081612e4e5790505090565b82600c8101928215612ea8579160200282015b82811115612ea7578251829080519060200190612e97929190612eb9565b5091602001919060010190612e79565b5b509050612eb59190612f3f565b5090565b828054612ec590614347565b90600052602060002090601f016020900481019282612ee75760008555612f2e565b82601f10612f0057805160ff1916838001178555612f2e565b82800160010185558215612f2e579182015b82811115612f2d578251825591602001919060010190612f12565b5b509050612f3b9190612f63565b5090565b5b80821115612f5f5760008181612f569190612f80565b50600101612f40565b5090565b5b80821115612f7c576000816000905550600101612f64565b5090565b508054612f8c90614347565b6000825580601f10612f9e5750612fbd565b601f016020900490600052602060002090810190612fbc9190612f63565b5b50565b6000612fd3612fce84613fd7565b613fb2565b90508082856020860282011115612fe957600080fd5b60005b858110156130195781612fff88826131a4565b845260208401935060208301925050600181019050612fec565b5050509392505050565b600061303661303184613ffd565b613fb2565b9050808285602086028201111561304c57600080fd5b60005b8581101561309657813567ffffffffffffffff81111561306e57600080fd5b80860161307b898261327f565b8552602085019450602084019350505060018101905061304f565b5050509392505050565b60006130b36130ae84614023565b613fb2565b905080828560208602820111156130c957600080fd5b60005b858110156130f957816130df88826132a9565b8452602084019350602083019250506001810190506130cc565b5050509392505050565b600061311661311184614049565b613fb2565b9050808285602086028201111561312c57600080fd5b60005b8581101561315c578161314288826132a9565b84526020840193506020830192505060018101905061312f565b5050509392505050565b60006131796131748461406f565b613fb2565b90508281526020810184848401111561319157600080fd5b61319c848285614305565b509392505050565b6000813590506131b381614843565b92915050565b6000815190506131c881614843565b92915050565b600082601f8301126131df57600080fd5b60026131ec848285612fc0565b91505092915050565b600082601f83011261320657600080fd5b600c613213848285613023565b91505092915050565b600082601f83011261322d57600080fd5b600261323a8482856130a0565b91505092915050565b600082601f83011261325457600080fd5b6003613261848285613103565b91505092915050565b6000815190506132798161485a565b92915050565b600082601f83011261329057600080fd5b81356132a0848260208601613166565b91505092915050565b6000813590506132b881614871565b92915050565b6000815190506132cd81614871565b92915050565b6000815190506132e281614888565b92915050565b6000602082840312156132fa57600080fd5b6000613308848285016131a4565b91505092915050565b60006020828403121561332357600080fd5b6000613331848285016131b9565b91505092915050565b6000806000806000806000806101a0898b03121561335757600080fd5b60006133658b828c016131a4565b98505060206133768b828c016131a4565b97505060406133878b828c016132a9565b96505060606133988b828c016131ce565b95505060a089013567ffffffffffffffff8111156133b557600080fd5b6133c18b828c016131f5565b94505060c06133d28b828c0161321c565b9350506101006133e48b828c01613243565b9250506101606133f68b828c0161321c565b9150509295985092959890939650565b60006020828403121561341857600080fd5b600082013567ffffffffffffffff81111561343257600080fd5b61343e848285016131f5565b91505092915050565b60006020828403121561345957600080fd5b60006134678482850161326a565b91505092915050565b60006020828403121561348257600080fd5b6000613490848285016132a9565b91505092915050565b6000602082840312156134ab57600080fd5b60006134b9848285016132be565b91505092915050565b600080604083850312156134d557600080fd5b60006134e3858286016132be565b92505060206134f4858286016132be565b9150509250929050565b60008060006060848603121561351357600080fd5b6000613521868287016132be565b9350506020613532868287016132be565b9250506040613543868287016132be565b9150509250925092565b60006020828403121561355f57600080fd5b600061356d848285016132d3565b91505092915050565b600061358283836135a2565b60208301905092915050565b600061359a83836136a2565b905092915050565b6135ab8161425e565b82525050565b6135ba8161425e565b82525050565b60006135cb826140ba565b6135d58185614100565b93506135e0836140a0565b8060005b838110156136115781516135f88882613576565b9750613603836140e6565b9250506001810190506135e4565b5085935050505092915050565b6000613629826140c5565b6136338185614111565b935083602082028501613645856140b0565b8060005b858110156136815784840389528151613662858261358e565b945061366d836140f3565b925060208a01995050600181019050613649565b50829750879550505050505092915050565b61369c8161427c565b82525050565b60006136ad826140d0565b6136b7818561411c565b93506136c7818560208601614314565b6136d081614466565b840191505092915050565b60006136e6826140d0565b6136f0818561412d565b9350613700818560208601614314565b80840191505092915050565b613715816142bd565b82525050565b613724816142cf565b82525050565b613733816142e1565b82525050565b613742816142f3565b82525050565b6000613753826140db565b61375d8185614138565b935061376d818560208601614314565b61377681614466565b840191505092915050565b600061378e601983614138565b915061379982614477565b602082019050919050565b60006137b1601c83614138565b91506137bc826144a0565b602082019050919050565b60006137d4602683614138565b91506137df826144c9565b604082019050919050565b60006137f7601183614138565b915061380282614518565b602082019050919050565b600061381a601a83614138565b915061382582614541565b602082019050919050565b600061383d601a83614138565b91506138488261456a565b602082019050919050565b6000613860601183614138565b915061386b82614593565b602082019050919050565b6000613883601983614138565b915061388e826145bc565b602082019050919050565b60006138a6602683614138565b91506138b1826145e5565b604082019050919050565b60006138c9601183614138565b91506138d482614634565b602082019050919050565b60006138ec601b83614138565b91506138f78261465d565b602082019050919050565b600061390f601283614138565b915061391a82614686565b602082019050919050565b6000613932601983614138565b915061393d826146af565b602082019050919050565b6000613955601483614138565b9150613960826146d8565b602082019050919050565b6000613978602083614138565b915061398382614701565b602082019050919050565b600061399b601d83614138565b91506139a68261472a565b602082019050919050565b60006139be601483614138565b91506139c982614753565b602082019050919050565b60006139e1602a83614138565b91506139ec8261477c565b604082019050919050565b6000613a04601f83614138565b9150613a0f826147cb565b602082019050919050565b6000613a27603683614138565b9150613a32826147f4565b604082019050919050565b613a46816142a6565b82525050565b6000613a5882846136db565b915081905092915050565b6000602082019050613a7860008301846135b1565b92915050565b6000604082019050613a9360008301856135b1565b613aa060208301846135b1565b9392505050565b6000606082019050613abc60008301866135b1565b613ac960208301856135b1565b613ad66040830184613a3d565b949350505050565b6000604082019050613af360008301856135b1565b613b006020830184613a3d565b9392505050565b600060c082019050613b1c60008301896135b1565b613b296020830188613a3d565b613b36604083018761370c565b613b43606083018661370c565b613b5060808301856135b1565b613b5d60a0830184613a3d565b979650505050505050565b600060e082019050613b7d600083018a6135b1565b613b8a6020830189613a3d565b613b976040830188613a3d565b613ba460608301876135b1565b613bb16080830186613a3d565b613bbe60a0830185613a3d565b613bcb60c0830184613a3d565b98975050505050505050565b60006020820190508181036000830152613bf181846135c0565b905092915050565b60006080820190508181036000830152613c13818761361e565b9050613c226020830186613a3d565b613c2f6040830185613a3d565b613c3c6060830184613a3d565b95945050505050565b6000602082019050613c5a6000830184613693565b92915050565b6000602082019050613c75600083018461370c565b92915050565b6000602082019050613c90600083018461371b565b92915050565b6000602082019050613cab600083018461372a565b92915050565b6000602082019050613cc66000830184613739565b92915050565b60006020820190508181036000830152613ce68184613748565b905092915050565b60006020820190508181036000830152613d0781613781565b9050919050565b60006020820190508181036000830152613d27816137a4565b9050919050565b60006020820190508181036000830152613d47816137c7565b9050919050565b60006020820190508181036000830152613d67816137ea565b9050919050565b60006020820190508181036000830152613d878161380d565b9050919050565b60006020820190508181036000830152613da781613830565b9050919050565b60006020820190508181036000830152613dc781613853565b9050919050565b60006020820190508181036000830152613de781613876565b9050919050565b60006020820190508181036000830152613e0781613899565b9050919050565b60006020820190508181036000830152613e27816138bc565b9050919050565b60006020820190508181036000830152613e47816138df565b9050919050565b60006020820190508181036000830152613e6781613902565b9050919050565b60006020820190508181036000830152613e8781613925565b9050919050565b60006020820190508181036000830152613ea781613948565b9050919050565b60006020820190508181036000830152613ec78161396b565b9050919050565b60006020820190508181036000830152613ee78161398e565b9050919050565b60006020820190508181036000830152613f07816139b1565b9050919050565b60006020820190508181036000830152613f27816139d4565b9050919050565b60006020820190508181036000830152613f47816139f7565b9050919050565b60006020820190508181036000830152613f6781613a1a565b9050919050565b6000602082019050613f836000830184613a3d565b92915050565b6000604082019050613f9e6000830185613a3d565b613fab6020830184613a3d565b9392505050565b6000613fbc613fcd565b9050613fc88282614379565b919050565b6000604051905090565b600067ffffffffffffffff821115613ff257613ff1614437565b5b602082029050919050565b600067ffffffffffffffff82111561401857614017614437565b5b602082029050919050565b600067ffffffffffffffff82111561403e5761403d614437565b5b602082029050919050565b600067ffffffffffffffff82111561406457614063614437565b5b602082029050919050565b600067ffffffffffffffff82111561408a57614089614437565b5b61409382614466565b9050602081019050919050565b6000819050602082019050919050565b6000819050919050565b600081519050919050565b6000600c9050919050565b600081519050919050565b600081519050919050565b6000602082019050919050565b6000602082019050919050565b600082825260208201905092915050565b600081905092915050565b600082825260208201905092915050565b600081905092915050565b600082825260208201905092915050565b6000614154826142a6565b915061415f836142a6565b9250827fffffffffffffffffffffffffffffffffffffffffffffffffffffffffffffffff03821115614194576141936143aa565b5b828201905092915050565b60006141aa826142a6565b91506141b5836142a6565b9250826141c5576141c46143d9565b5b828204905092915050565b60006141db826142a6565b91506141e6836142a6565b9250817fffffffffffffffffffffffffffffffffffffffffffffffffffffffffffffffff048311821515161561421f5761421e6143aa565b5b828202905092915050565b6000614235826142a6565b9150614240836142a6565b925082821015614253576142526143aa565b5b828203905092915050565b600061426982614286565b9050919050565b60008115159050919050565b6000819050919050565b600073ffffffffffffffffffffffffffffffffffffffff82169050919050565b6000819050919050565b600060ff82169050919050565b60006142c8826142a6565b9050919050565b60006142da826142a6565b9050919050565b60006142ec826142a6565b9050919050565b60006142fe826142a6565b9050919050565b82818337600083830152505050565b60005b83811015614332578082015181840152602081019050614317565b83811115614341576000848401525b50505050565b6000600282049050600182168061435f57607f821691505b6020821081141561437357614372614408565b5b50919050565b61438282614466565b810181811067ffffffffffffffff821117156143a1576143a0614437565b5b80604052505050565b7f4e487b7100000000000000000000000000000000000000000000000000000000600052601160045260246000fd5b7f4e487b7100000000000000000000000000000000000000000000000000000000600052601260045260246000fd5b7f4e487b7100000000000000000000000000000000000000000000000000000000600052602260045260246000fd5b7f4e487b7100000000000000000000000000000000000000000000000000000000600052604160045260246000fd5b6000601f19601f8301169050919050565b7f53616c653a20414c52454144595f494e495449414c495a454400000000000000600082015250565b7f53616c653a204445504f5349545f414d4f554e545f494e56414c494400000000600082015250565b7f4f776e61626c653a206e6577206f776e657220697320746865207a65726f206160008201527f6464726573730000000000000000000000000000000000000000000000000000602082015250565b7f53746174653a206e6f7420706175736564000000000000000000000000000000600082015250565b7f73746174653a20554e41424c455f544f5f46494e414c495a4544000000000000600082015250565b7f526566756e643a2053414c455f4e4f545f43414e43454c4c4544000000000000600082015250565b7f53746174653a206e6f7420616374697665000000000000000000000000000000600082015250565b7f4c49515549444954593a20414c52454144595f4c495354454400000000000000600082015250565b7f416464726573733a20696e73756666696369656e742062616c616e636520666f60008201527f722063616c6c0000000000000000000000000000000000000000000000000000602082015250565b7f4c69717569646974793a204c4f434b4544000000000000000000000000000000600082015250565b7f53746174653a206e6f7420616374697665206f72207061757365640000000000600082015250565b7f53616c653a20494e56414c49445f444154450000000000000000000000000000600082015250565b7f4c69717569646974793a20414c52454144595f4c495354454400000000000000600082015250565b7f53746174653a206e6f742066696e616c697a6564000000000000000000000000600082015250565b7f4f776e61626c653a2063616c6c6572206973206e6f7420746865206f776e6572600082015250565b7f416464726573733a2063616c6c20746f206e6f6e2d636f6e7472616374000000600082015250565b7f53616c653a205a45524f5f505552434841534544000000000000000000000000600082015250565b7f5361666545524332303a204552433230206f7065726174696f6e20646964206e60008201527f6f74207375636365656400000000000000000000000000000000000000000000602082015250565b7f5265656e7472616e637947756172643a207265656e7472616e742063616c6c00600082015250565b7f5361666545524332303a20617070726f76652066726f6d206e6f6e2d7a65726f60008201527f20746f206e6f6e2d7a65726f20616c6c6f77616e636500000000000000000000602082015250565b61484c8161425e565b811461485757600080fd5b50565b61486381614270565b811461486e57600080fd5b50565b61487a816142a6565b811461488557600080fd5b50565b614891816142b0565b811461489c57600080fd5b5056fea26469706673582212204aeb081fbf0f5401854db7370c6d3c0a57cf980a72a82d2ee17fd3ef5ebfadd464736f6c63430008040033",
  "linkReferences": {},
  "deployedLinkReferences": {}
}