{
    "_format": "hh-sol-artifact-1",
    "contractName": "Sale",
    "sourceName": "contracts/Sale.sol",
    "abi": [
        {
            "anonymous": false,
            "inputs": [
                {
                    "indexed": false,
                    "internalType": "uint256",
                    "name": "status",
                    "type": "uint256"
                }
            ],
            "name": "ChangeState",
            "type": "event"
        },
        {
            "anonymous": false,
            "inputs": [
                {
                    "indexed": true,
                    "internalType": "address",
                    "name": "previousOwner",
                    "type": "address"
                },
                {
                    "indexed": true,
                    "internalType": "address",
                    "name": "newOwner",
                    "type": "address"
                }
            ],
            "name": "OwnershipTransferred",
            "type": "event"
        },
        {
            "anonymous": false,
            "inputs": [
                {
                    "indexed": true,
                    "internalType": "address",
                    "name": "account",
                    "type": "address"
                },
                {
                    "indexed": false,
                    "internalType": "uint256",
                    "name": "amount",
                    "type": "uint256"
                }
            ],
            "name": "Purchase",
            "type": "event"
        },
        {
            "anonymous": false,
            "inputs": [
                {
                    "indexed": false,
                    "internalType": "address",
                    "name": "sender",
                    "type": "address"
                },
                {
                    "indexed": false,
                    "internalType": "uint256",
                    "name": "amount",
                    "type": "uint256"
                }
            ],
            "name": "TokenDeposited",
            "type": "event"
        },
        {
            "anonymous": false,
            "inputs": [
                {
                    "indexed": false,
                    "internalType": "address",
                    "name": "account",
                    "type": "address"
                }
            ],
            "name": "WhitelistAdded",
            "type": "event"
        },
        {
            "anonymous": false,
            "inputs": [
                {
                    "indexed": false,
                    "internalType": "address",
                    "name": "account",
                    "type": "address"
                }
            ],
            "name": "WhitelistRemoved",
            "type": "event"
        },
        {
            "inputs": [],
            "name": "activate",
            "outputs": [],
            "stateMutability": "nonpayable",
            "type": "function"
        },
        {
            "inputs": [
                {
                    "internalType": "address[]",
                    "name": "accounts",
                    "type": "address[]"
                }
            ],
            "name": "addWhitelist",
            "outputs": [],
            "stateMutability": "nonpayable",
            "type": "function"
        },
        {
            "inputs": [],
            "name": "additionalDetails",
            "outputs": [
                {
                    "internalType": "bytes[12]",
                    "name": "",
                    "type": "bytes[12]"
                },
                {
                    "internalType": "bool",
                    "name": "",
                    "type": "bool"
                }
            ],
            "stateMutability": "view",
            "type": "function"
        },
        {
            "inputs": [],
            "name": "cancel",
            "outputs": [],
            "stateMutability": "nonpayable",
            "type": "function"
        },
        {
            "inputs": [],
            "name": "claim",
            "outputs": [],
            "stateMutability": "nonpayable",
            "type": "function"
        },
        {
            "inputs": [],
            "name": "contributors",
            "outputs": [
                {
                    "internalType": "address[]",
                    "name": "",
                    "type": "address[]"
                }
            ],
            "stateMutability": "view",
            "type": "function"
        },
        {
            "inputs": [
                {
                    "internalType": "uint256",
                    "name": "amount",
                    "type": "uint256"
                }
            ],
            "name": "depositTokens",
            "outputs": [],
            "stateMutability": "nonpayable",
            "type": "function"
        },
        {
            "inputs": [],
            "name": "finalize",
            "outputs": [],
            "stateMutability": "nonpayable",
            "type": "function"
        },
        {
            "inputs": [
                {
                    "internalType": "address",
                    "name": "_owner",
                    "type": "address"
                },
                {
                    "internalType": "address",
                    "name": "platformOwner",
                    "type": "address"
                },
                {
                    "internalType": "uint256",
                    "name": "additionalFee",
                    "type": "uint256"
                },
                {
                    "internalType": "address[2]",
                    "name": "addresses",
                    "type": "address[2]"
                },
                {
                    "internalType": "bytes[12]",
                    "name": "info",
                    "type": "bytes[12]"
                },
                {
                    "internalType": "uint256[2]",
                    "name": "date",
                    "type": "uint256[2]"
                },
                {
                    "internalType": "uint256[4]",
                    "name": "prices",
                    "type": "uint256[4]"
                },
                {
                    "internalType": "uint256[2]",
                    "name": "cap",
                    "type": "uint256[2]"
                },
                {
                    "internalType": "uint256[2]",
                    "name": "minmaxBuy",
                    "type": "uint256[2]"
                },
                {
                    "internalType": "uint256[2]",
                    "name": "liquidity",
                    "type": "uint256[2]"
                },
                {
                    "internalType": "bool",
                    "name": "whitelist",
                    "type": "bool"
                }
            ],
            "name": "init",
            "outputs": [],
            "stateMutability": "nonpayable",
            "type": "function"
        },
        {
            "inputs": [],
            "name": "liquidityDetails",
            "outputs": [
                {
                    "internalType": "uint256",
                    "name": "",
                    "type": "uint256"
                },
                {
                    "internalType": "uint256",
                    "name": "",
                    "type": "uint256"
                }
            ],
            "stateMutability": "view",
            "type": "function"
        },
        {
            "inputs": [],
            "name": "listingDetails",
            "outputs": [
                {
                    "internalType": "address",
                    "name": "",
                    "type": "address"
                },
                {
                    "internalType": "uint256",
                    "name": "",
                    "type": "uint256"
                },
                {
                    "internalType": "uint256",
                    "name": "",
                    "type": "uint256"
                },
                {
                    "internalType": "uint256",
                    "name": "",
                    "type": "uint256"
                },
                {
                    "internalType": "uint256",
                    "name": "",
                    "type": "uint256"
                }
            ],
            "stateMutability": "view",
            "type": "function"
        },
        {
            "inputs": [],
            "name": "owner",
            "outputs": [
                {
                    "internalType": "address",
                    "name": "",
                    "type": "address"
                }
            ],
            "stateMutability": "view",
            "type": "function"
        },
        {
            "inputs": [],
            "name": "pause",
            "outputs": [],
            "stateMutability": "nonpayable",
            "type": "function"
        },
        {
            "inputs": [],
            "name": "pullOutTokens",
            "outputs": [],
            "stateMutability": "nonpayable",
            "type": "function"
        },
        {
            "inputs": [],
            "name": "purchase",
            "outputs": [],
            "stateMutability": "payable",
            "type": "function"
        },
        {
            "inputs": [],
            "name": "raised",
            "outputs": [
                {
                    "internalType": "uint256",
                    "name": "",
                    "type": "uint256"
                }
            ],
            "stateMutability": "view",
            "type": "function"
        },
        {
            "inputs": [],
            "name": "refund",
            "outputs": [],
            "stateMutability": "nonpayable",
            "type": "function"
        },
        {
            "inputs": [],
            "name": "removeLiquidity",
            "outputs": [],
            "stateMutability": "nonpayable",
            "type": "function"
        },
        {
            "inputs": [
                {
                    "internalType": "address[]",
                    "name": "accounts",
                    "type": "address[]"
                }
            ],
            "name": "removeWhitelist",
            "outputs": [],
            "stateMutability": "nonpayable",
            "type": "function"
        },
        {
            "inputs": [],
            "name": "renounceOwnership",
            "outputs": [],
            "stateMutability": "nonpayable",
            "type": "function"
        },
        {
            "inputs": [],
            "name": "saleDetails",
            "outputs": [
                {
                    "internalType": "address",
                    "name": "",
                    "type": "address"
                },
                {
                    "internalType": "uint256",
                    "name": "",
                    "type": "uint256"
                },
                {
                    "internalType": "uint256",
                    "name": "",
                    "type": "uint256"
                },
                {
                    "internalType": "uint256",
                    "name": "",
                    "type": "uint256"
                },
                {
                    "internalType": "uint256",
                    "name": "",
                    "type": "uint256"
                },
                {
                    "internalType": "uint256",
                    "name": "",
                    "type": "uint256"
                },
                {
                    "internalType": "uint256",
                    "name": "",
                    "type": "uint256"
                },
                {
                    "internalType": "uint256",
                    "name": "",
                    "type": "uint256"
                },
                {
                    "internalType": "uint256",
                    "name": "",
                    "type": "uint256"
                }
            ],
            "stateMutability": "view",
            "type": "function"
        },
        {
            "inputs": [],
            "name": "saleType",
            "outputs": [
                {
                    "internalType": "bytes32",
                    "name": "",
                    "type": "bytes32"
                }
            ],
            "stateMutability": "view",
            "type": "function"
        },
        {
            "inputs": [
                {
                    "internalType": "bytes[12]",
                    "name": "info",
                    "type": "bytes[12]"
                }
            ],
            "name": "setDetails",
            "outputs": [],
            "stateMutability": "nonpayable",
            "type": "function"
        },
        {
            "inputs": [],
            "name": "state",
            "outputs": [
                {
                    "internalType": "uint256",
                    "name": "",
                    "type": "uint256"
                }
            ],
            "stateMutability": "view",
            "type": "function"
        },
        {
            "inputs": [
                {
                    "internalType": "bool",
                    "name": "status",
                    "type": "bool"
                }
            ],
            "name": "toogleWhiteList",
            "outputs": [],
            "stateMutability": "nonpayable",
            "type": "function"
        },
        {
            "inputs": [
                {
                    "internalType": "address",
                    "name": "account",
                    "type": "address"
                }
            ],
            "name": "totalContributions",
            "outputs": [
                {
                    "internalType": "uint256",
                    "name": "",
                    "type": "uint256"
                }
            ],
            "stateMutability": "view",
            "type": "function"
        },
        {
            "inputs": [
                {
                    "internalType": "address",
                    "name": "newOwner",
                    "type": "address"
                }
            ],
            "name": "transferOwnership",
            "outputs": [],
            "stateMutability": "nonpayable",
            "type": "function"
        },
        {
            "inputs": [],
            "name": "whitelistedUsers",
            "outputs": [
                {
                    "internalType": "address[]",
                    "name": "",
                    "type": "address[]"
                }
            ],
            "stateMutability": "view",
            "type": "function"
        },
        {
            "inputs": [],
            "name": "withdrawFunds",
            "outputs": [],
            "stateMutability": "nonpayable",
            "type": "function"
        }
    ],
    "bytecode": "0x60a06040526000801b6080908152503480156200001b57600080fd5b50600080819055506200003560006200004360201b60201c565b600160038190555062000109565b6000600260009054906101000a900473ffffffffffffffffffffffffffffffffffffffff16905081600260006101000a81548173ffffffffffffffffffffffffffffffffffffffff021916908373ffffffffffffffffffffffffffffffffffffffff1602179055508173ffffffffffffffffffffffffffffffffffffffff168173ffffffffffffffffffffffffffffffffffffffff167f8be0079c531659141344cd1fd0a4f28419497f9722a3daafe3b4186f6b6457e060405160405180910390a35050565b608051615e056200012560003960006118aa0152615e056000f3fe6080604052600436106101c25760003560e01c80636e7e3b2b116100f7578063d481f75b11610095578063edac985b11610064578063edac985b1461053b578063edad0dfe14610564578063f0ea4bfc1461057b578063f2fde38b146105a6576101c2565b8063d481f75b146104a9578063d934d5af146104d2578063dd49756e146104fb578063ea8a1af014610524576101c2565b806380c62483116100d157806380c624831461040d5780638456cb591461043c5780638da5cb5b14610453578063c19d93fb1461047e576101c2565b80636e7e3b2b1461038e578063715018a6146103b95780637ed3deba146103d0576101c2565b80634853668811610164578063590e1ae31161013e578063590e1ae31461032b5780635bcc79281461034257806364edfbf01461036d57806367b9a28614610377576101c2565b806348536688146102d45780634bb278f3146102fd5780634e71d92d14610314576101c2565b806323245216116101a0578063232452161461023557806324600fc31461025e57806331f4b58a146102755780633474a4a6146102a1576101c2565b806307a130f7146101c75780630f15f4c0146101f35780631ec6a7de1461020a575b600080fd5b3480156101d357600080fd5b506101dc6105cf565b6040516101ea929190615222565b60405180910390f35b3480156101ff57600080fd5b506102086105e0565b005b34801561021657600080fd5b5061021f610686565b60405161022c9190614e0c565b60405180910390f35b34801561024157600080fd5b5061025c600480360381019061025791906144c5565b6108be565b005b34801561026a57600080fd5b50610273610c42565b005b34801561028157600080fd5b5061028a6112e8565b604051610298929190614e2e565b60405180910390f35b3480156102ad57600080fd5b506102b66113cd565b6040516102cb99989796959493929190614d7f565b60405180910390f35b3480156102e057600080fd5b506102fb60048036038101906102f69190614506565b611433565b005b34801561030957600080fd5b50610312611448565b005b34801561032057600080fd5b50610329611543565b005b34801561033757600080fd5b5061034061173e565b005b34801561034e57600080fd5b506103576118a8565b6040516103649190614e5e565b60405180910390f35b6103756118cc565b005b34801561038357600080fd5b5061038c611c4a565b005b34801561039a57600080fd5b506103a3611f79565b6040516103b09190614e0c565b60405180910390f35b3480156103c557600080fd5b506103ce612007565b005b3480156103dc57600080fd5b506103f760048036038101906103f29190614369565b61208f565b6040516104049190615207565b60405180910390f35b34801561041957600080fd5b506104226120d8565b604051610433959493929190614d2c565b60405180910390f35b34801561044857600080fd5b50610451612120565b005b34801561045f57600080fd5b506104686121a6565b6040516104759190614c27565b60405180910390f35b34801561048a57600080fd5b506104936121d0565b6040516104a09190615207565b60405180910390f35b3480156104b557600080fd5b506104d060048036038101906104cb91906143bb565b6121d9565b005b3480156104de57600080fd5b506104f960048036038101906104f49190614547565b612831565b005b34801561050757600080fd5b50610522600480360381019061051d9190614599565b61290e565b005b34801561053057600080fd5b50610539612aaa565b005b34801561054757600080fd5b50610562600480360381019061055d91906144c5565b612b30565b005b34801561057057600080fd5b50610579612f56565b005b34801561058757600080fd5b50610590613172565b60405161059d9190615207565b60405180910390f35b3480156105b257600080fd5b506105cd60048036038101906105c89190614369565b61317c565b005b600080602954602a54915091509091565b6105e8613274565b73ffffffffffffffffffffffffffffffffffffffff166106066121a6565b73ffffffffffffffffffffffffffffffffffffffff161461065c576040517f08c379a000000000000000000000000000000000000000000000000000000000815260040161065390615107565b60405180910390fd5b600061066661327c565b905061067d8160175461331590919063ffffffff16565b60178190555050565b60606000601b8054905067ffffffffffffffff8111156106cf577f4e487b7100000000000000000000000000000000000000000000000000000000600052604160045260246000fd5b6040519080825280602002602001820160405280156106fd5781602001602082028036833780820191505090505b50905060005b601b805490508110156108b657601c6000601b838154811061074e577f4e487b7100000000000000000000000000000000000000000000000000000000600052603260045260246000fd5b9060005260206000200160009054906101000a900473ffffffffffffffffffffffffffffffffffffffff1673ffffffffffffffffffffffffffffffffffffffff1673ffffffffffffffffffffffffffffffffffffffff16815260200190815260200160002060009054906101000a900460ff166107ca576108a3565b601b8181548110610804577f4e487b7100000000000000000000000000000000000000000000000000000000600052603260045260246000fd5b9060005260206000200160009054906101000a900473ffffffffffffffffffffffffffffffffffffffff16828281518110610868577f4e487b7100000000000000000000000000000000000000000000000000000000600052603260045260246000fd5b602002602001019073ffffffffffffffffffffffffffffffffffffffff16908173ffffffffffffffffffffffffffffffffffffffff16815250505b80806108ae906157e0565b915050610703565b508091505090565b601a60009054906101000a900460ff1661090d576040517f08c379a000000000000000000000000000000000000000000000000000000000815260040161090490614f27565b60405180910390fd5b610915613274565b73ffffffffffffffffffffffffffffffffffffffff166109336121a6565b73ffffffffffffffffffffffffffffffffffffffff1614610989576040517f08c379a000000000000000000000000000000000000000000000000000000000815260040161098090615107565b60405180910390fd5b60008054146109cd576040517f08c379a00000000000000000000000000000000000000000000000000000000081526004016109c490614fe7565b60405180910390fd5b60005b8151811015610c3e57600073ffffffffffffffffffffffffffffffffffffffff16828281518110610a2a577f4e487b7100000000000000000000000000000000000000000000000000000000600052603260045260246000fd5b602002602001015173ffffffffffffffffffffffffffffffffffffffff161415610a89576040517f08c379a0000000000000000000000000000000000000000000000000000000008152600401610a8090615167565b60405180910390fd5b601c6000838381518110610ac6577f4e487b7100000000000000000000000000000000000000000000000000000000600052603260045260246000fd5b602002602001015173ffffffffffffffffffffffffffffffffffffffff1673ffffffffffffffffffffffffffffffffffffffff16815260200190815260200160002060009054906101000a900460ff1615610c2b576000601c6000848481518110610b5a577f4e487b7100000000000000000000000000000000000000000000000000000000600052603260045260246000fd5b602002602001015173ffffffffffffffffffffffffffffffffffffffff1673ffffffffffffffffffffffffffffffffffffffff16815260200190815260200160002060006101000a81548160ff0219169083151502179055507fde8cf212af7ce38b2840785a2768d97ff2dbf3c21b516961cec0061e134c2a1e828281518110610c0d577f4e487b7100000000000000000000000000000000000000000000000000000000600052603260045260246000fd5b6020026020010151604051610c229190614c27565b60405180910390a15b8080610c36906157e0565b9150506109d0565b5050565b60026003541415610c88576040517f08c379a0000000000000000000000000000000000000000000000000000000008152600401610c7f906151c7565b60405180910390fd5b6002600381905550600360005414610cd5576040517f08c379a0000000000000000000000000000000000000000000000000000000008152600401610ccc906150e7565b60405180910390fd5b610cdd613274565b73ffffffffffffffffffffffffffffffffffffffff16610cfb6121a6565b73ffffffffffffffffffffffffffffffffffffffff1614610d51576040517f08c379a0000000000000000000000000000000000000000000000000000000008152600401610d4890615107565b60405180910390fd5b610d5961332b565b610d83610d74601954620151806133a390919063ffffffff16565b4261331590919063ffffffff16565b6029819055506000670de0b6b3a7640000602254602554610da49190615464565b610dae9190615606565b90506000610de3670de0b6b3a7640000610dd56028546025546133a390919063ffffffff16565b6133b990919063ffffffff16565b90506000610e18670de0b6b3a7640000610e0a6028546026546133a390919063ffffffff16565b6133b990919063ffffffff16565b90506000610e4d670de0b6b3a7640000610e3f6018546025546133a390919063ffffffff16565b6133b990919063ffffffff16565b90506000610e6683601f546133cf90919063ffffffff16565b9050610e7b84836133cf90919063ffffffff16565b602b819055506000610eb0670de0b6b3a7640000610ea284896133a390919063ffffffff16565b6133b990919063ffffffff16565b9050610f21600960009054906101000a900473ffffffffffffffffffffffffffffffffffffffff1682600860009054906101000a900473ffffffffffffffffffffffffffffffffffffffff1673ffffffffffffffffffffffffffffffffffffffff166133e59092919063ffffffff16565b600960009054906101000a900473ffffffffffffffffffffffffffffffffffffffff1673ffffffffffffffffffffffffffffffffffffffff1663f305d719602b54600860009054906101000a900473ffffffffffffffffffffffffffffffffffffffff168460008030426040518863ffffffff1660e01b8152600401610fac96959493929190614ccb565b6060604051808303818588803b158015610fc557600080fd5b505af1158015610fd9573d6000803e3d6000fd5b50505050506040513d601f19601f82011682018060405250810190610ffe9190614627565b9091509050602a6000829190505550600660009054906101000a900473ffffffffffffffffffffffffffffffffffffffff1673ffffffffffffffffffffffffffffffffffffffff16630f42949a602554602b546040518363ffffffff1660e01b815260040161106e929190615222565b600060405180830381600087803b15801561108857600080fd5b505af115801561109c573d6000803e3d6000fd5b50505050600760009054906101000a900473ffffffffffffffffffffffffffffffffffffffff1673ffffffffffffffffffffffffffffffffffffffff166108fc869081150290604051600060405180830381858888f19350505050158015611108573d6000803e3d6000fd5b50611178600760009054906101000a900473ffffffffffffffffffffffffffffffffffffffff1685600860009054906101000a900473ffffffffffffffffffffffffffffffffffffffff1673ffffffffffffffffffffffffffffffffffffffff166135439092919063ffffffff16565b6111806121a6565b73ffffffffffffffffffffffffffffffffffffffff166108fc479081150290604051600060405180830381858888f193505050501580156111c5573d6000803e3d6000fd5b506112d86111d16121a6565b611290602754600860009054906101000a900473ffffffffffffffffffffffffffffffffffffffff1673ffffffffffffffffffffffffffffffffffffffff166370a08231306040518263ffffffff1660e01b81526004016112329190614c27565b60206040518083038186803b15801561124a57600080fd5b505afa15801561125e573d6000803e3d6000fd5b505050506040513d601f19601f8201168201806040525081019061128291906145c2565b6133cf90919063ffffffff16565b600860009054906101000a900473ffffffffffffffffffffffffffffffffffffffff1673ffffffffffffffffffffffffffffffffffffffff166135439092919063ffffffff16565b5050505050506001600381905550565b6112f0613e14565b6000600a601a60009054906101000a900460ff1681600c80602002604051908101604052809291906000905b828210156113bf5783820180546113329061577d565b80601f016020809104026020016040519081016040528092919081815260200182805461135e9061577d565b80156113ab5780601f10611380576101008083540402835291602001916113ab565b820191906000526020600020905b81548152906001019060200180831161138e57829003601f168201915b50505050508152602001906001019061131c565b505050509150915091509091565b6000806000806000806000806000600860009054906101000a900473ffffffffffffffffffffffffffffffffffffffff16601654601754601d54601e54602154602254602354602454985098509850985098509850985098509850909192939495969798565b80600a90600c611444929190613e3c565b5050565b611450613274565b73ffffffffffffffffffffffffffffffffffffffff1661146e6121a6565b73ffffffffffffffffffffffffffffffffffffffff16146114c4576040517f08c379a00000000000000000000000000000000000000000000000000000000081526004016114bb90615107565b60405180910390fd5b6114cc61332b565b6022546025541015806114f1575042601754111580156114f0575060215460255410155b5b611530576040517f08c379a000000000000000000000000000000000000000000000000000000000815260040161152790614fa7565b60405180910390fd5b6026546027819055506115416135c9565b565b60026003541415611589576040517f08c379a0000000000000000000000000000000000000000000000000000000008152600401611580906151c7565b60405180910390fd5b60026003819055506003600054146115d6576040517f08c379a00000000000000000000000000000000000000000000000000000000081526004016115cd906150e7565b60405180910390fd5b6000600560006115e4613274565b73ffffffffffffffffffffffffffffffffffffffff1673ffffffffffffffffffffffffffffffffffffffff168152602001908152602001600020541161165f576040517f08c379a000000000000000000000000000000000000000000000000000000000815260040161165690615187565b60405180910390fd5b60006116b060056000611670613274565b73ffffffffffffffffffffffffffffffffffffffff1673ffffffffffffffffffffffffffffffffffffffff1681526020019081526020016000205461365c565b90506116c7816027546133cf90919063ffffffff16565b6027819055506116df6116d8613274565b60006136ee565b6117336116ea613274565b82600860009054906101000a900473ffffffffffffffffffffffffffffffffffffffff1673ffffffffffffffffffffffffffffffffffffffff166135439092919063ffffffff16565b506001600381905550565b60026003541415611784576040517f08c379a000000000000000000000000000000000000000000000000000000000815260040161177b906151c7565b60405180910390fd5b600260038190555060026117966121d0565b14806117b3575042601754111580156117b25750602154602554105b5b6117f2576040517f08c379a00000000000000000000000000000000000000000000000000000000081526004016117e990614fc7565b60405180910390fd5b600060056000611800613274565b73ffffffffffffffffffffffffffffffffffffffff1673ffffffffffffffffffffffffffffffffffffffff16815260200190815260200160002054905061184f611848613274565b60006136ee565b611857613274565b73ffffffffffffffffffffffffffffffffffffffff166108fc829081150290604051600060405180830381858888f1935050505015801561189c573d6000803e3d6000fd5b50506001600381905550565b7f000000000000000000000000000000000000000000000000000000000000000081565b60026003541415611912576040517f08c379a0000000000000000000000000000000000000000000000000000000008152600401611909906151c7565b60405180910390fd5b6002600381905550600080541461195e576040517f08c379a000000000000000000000000000000000000000000000000000000000815260040161195590614fe7565b60405180910390fd5b61196661332b565b601a60009054906101000a900460ff1615611a0f57601c6000611987613274565b73ffffffffffffffffffffffffffffffffffffffff1673ffffffffffffffffffffffffffffffffffffffff16815260200190815260200160002060009054906101000a900460ff16611a0e576040517f08c379a0000000000000000000000000000000000000000000000000000000008152600401611a0590615027565b60405180910390fd5b5b6016544210158015611a2357506017544211155b611a62576040517f08c379a0000000000000000000000000000000000000000000000000000000008152600401611a59906150a7565b60405180910390fd5b611a773460255461331590919063ffffffff16565b6022541015611abb576040517f08c379a0000000000000000000000000000000000000000000000000000000008152600401611ab290615127565b60405180910390fd5b602454611b173460056000611ace613274565b73ffffffffffffffffffffffffffffffffffffffff1673ffffffffffffffffffffffffffffffffffffffff1681526020019081526020016000205461331590919063ffffffff16565b1115611b58576040517f08c379a0000000000000000000000000000000000000000000000000000000008152600401611b4f90615047565b60405180910390fd5b611bc1611b63613274565b611bbc3460056000611b73613274565b73ffffffffffffffffffffffffffffffffffffffff1673ffffffffffffffffffffffffffffffffffffffff1681526020019081526020016000205461331590919063ffffffff16565b6136ee565b611bd63460255461331590919063ffffffff16565b602581905550611be53461365c565b602681905550611bf3613274565b73ffffffffffffffffffffffffffffffffffffffff167f2499a5330ab0979cc612135e7883ebc3cd5c9f7a8508f042540c34723348f63234604051611c389190615207565b60405180910390a26001600381905550565b60026003541415611c90576040517f08c379a0000000000000000000000000000000000000000000000000000000008152600401611c87906151c7565b60405180910390fd5b6002600381905550600360005414611cdd576040517f08c379a0000000000000000000000000000000000000000000000000000000008152600401611cd4906150e7565b60405180910390fd5b611ce5613274565b73ffffffffffffffffffffffffffffffffffffffff16611d036121a6565b73ffffffffffffffffffffffffffffffffffffffff1614611d59576040517f08c379a0000000000000000000000000000000000000000000000000000000008152600401611d5090615107565b60405180910390fd5b426029541115611d9e576040517f08c379a0000000000000000000000000000000000000000000000000000000008152600401611d9590615067565b60405180910390fd5b611df4600960009054906101000a900473ffffffffffffffffffffffffffffffffffffffff16602a54611dcf613736565b73ffffffffffffffffffffffffffffffffffffffff166133e59092919063ffffffff16565b600960009054906101000a900473ffffffffffffffffffffffffffffffffffffffff1673ffffffffffffffffffffffffffffffffffffffff166302751cec600860009054906101000a900473ffffffffffffffffffffffffffffffffffffffff16602a54600080611e636121a6565b426040518763ffffffff1660e01b8152600401611e8596959493929190614ccb565b6040805180830381600087803b158015611e9e57600080fd5b505af1158015611eb2573d6000803e3d6000fd5b505050506040513d601f19601f82011682018060405250810190611ed691906145eb565b50506000602a81905550600660009054906101000a900473ffffffffffffffffffffffffffffffffffffffff1673ffffffffffffffffffffffffffffffffffffffff16630373ad78602b546040518263ffffffff1660e01b8152600401611f3d9190615207565b600060405180830381600087803b158015611f5757600080fd5b505af1158015611f6b573d6000803e3d6000fd5b505050506001600381905550565b60606004805480602002602001604051908101604052809291908181526020018280548015611ffd57602002820191906000526020600020905b8160009054906101000a900473ffffffffffffffffffffffffffffffffffffffff1673ffffffffffffffffffffffffffffffffffffffff1681526020019060010190808311611fb3575b5050505050905090565b61200f613274565b73ffffffffffffffffffffffffffffffffffffffff1661202d6121a6565b73ffffffffffffffffffffffffffffffffffffffff1614612083576040517f08c379a000000000000000000000000000000000000000000000000000000000815260040161207a90615107565b60405180910390fd5b61208d6000613928565b565b6000600560008373ffffffffffffffffffffffffffffffffffffffff1673ffffffffffffffffffffffffffffffffffffffff168152602001908152602001600020549050919050565b6000806000806000600960009054906101000a900473ffffffffffffffffffffffffffffffffffffffff16602054601f54601854601954945094509450945094509091929394565b612128613274565b73ffffffffffffffffffffffffffffffffffffffff166121466121a6565b73ffffffffffffffffffffffffffffffffffffffff161461219c576040517f08c379a000000000000000000000000000000000000000000000000000000000815260040161219390615107565b60405180910390fd5b6121a46139ee565b565b6000600260009054906101000a900473ffffffffffffffffffffffffffffffffffffffff16905090565b60008054905090565b600073ffffffffffffffffffffffffffffffffffffffff166121f96121a6565b73ffffffffffffffffffffffffffffffffffffffff161461224f576040517f08c379a000000000000000000000000000000000000000000000000000000000815260040161224690614f07565b60405180910390fd5b8860288190555089600760006101000a81548173ffffffffffffffffffffffffffffffffffffffff021916908373ffffffffffffffffffffffffffffffffffffffff160217905550876000600281106122d1577f4e487b7100000000000000000000000000000000000000000000000000000000600052603260045260246000fd5b6020020151600860006101000a81548173ffffffffffffffffffffffffffffffffffffffff021916908373ffffffffffffffffffffffffffffffffffffffff16021790555087600160028110612350577f4e487b7100000000000000000000000000000000000000000000000000000000600052603260045260246000fd5b6020020151600960006101000a81548173ffffffffffffffffffffffffffffffffffffffff021916908373ffffffffffffffffffffffffffffffffffffffff160217905550876000600281106123cf577f4e487b7100000000000000000000000000000000000000000000000000000000600052603260045260246000fd5b602002015173ffffffffffffffffffffffffffffffffffffffff1663313ce5676040518163ffffffff1660e01b815260040160206040518083038186803b15801561241957600080fd5b505afa15801561242d573d6000803e3d6000fd5b505050506040513d601f19601f820116820180604052508101906124519190614676565b600960146101000a81548160ff021916908360ff16021790555086600a90600c61247c929190613e3c565b50856000600281106124b7577f4e487b7100000000000000000000000000000000000000000000000000000000600052603260045260246000fd5b6020020151601681905550856001600281106124fc577f4e487b7100000000000000000000000000000000000000000000000000000000600052603260045260246000fd5b602002015160178190555084600060048110612541577f4e487b7100000000000000000000000000000000000000000000000000000000600052603260045260246000fd5b6020020151601d8190555084600160048110612586577f4e487b7100000000000000000000000000000000000000000000000000000000600052603260045260246000fd5b6020020151602081905550846002600481106125cb577f4e487b7100000000000000000000000000000000000000000000000000000000600052603260045260246000fd5b6020020151601e8190555084600360048110612610577f4e487b7100000000000000000000000000000000000000000000000000000000600052603260045260246000fd5b6020020151601f8190555083600060028110612655577f4e487b7100000000000000000000000000000000000000000000000000000000600052603260045260246000fd5b60200201516021819055508360016002811061269a577f4e487b7100000000000000000000000000000000000000000000000000000000600052603260045260246000fd5b6020020151602281905550826000600281106126df577f4e487b7100000000000000000000000000000000000000000000000000000000600052603260045260246000fd5b602002015160238190555082600160028110612724577f4e487b7100000000000000000000000000000000000000000000000000000000600052603260045260246000fd5b602002015160248190555081600060028110612769577f4e487b7100000000000000000000000000000000000000000000000000000000600052603260045260246000fd5b6020020151601881905550816001600281106127ae577f4e487b7100000000000000000000000000000000000000000000000000000000600052603260045260246000fd5b602002015160198190555080601a60006101000a81548160ff0219169083151502179055506127db613274565b600660006101000a81548173ffffffffffffffffffffffffffffffffffffffff021916908373ffffffffffffffffffffffffffffffffffffffff1602179055506128248b613928565b5050505050505050505050565b612839613274565b73ffffffffffffffffffffffffffffffffffffffff166128576121a6565b73ffffffffffffffffffffffffffffffffffffffff16146128ad576040517f08c379a00000000000000000000000000000000000000000000000000000000081526004016128a490615107565b60405180910390fd5b60008054146128f1576040517f08c379a00000000000000000000000000000000000000000000000000000000081526004016128e890614fe7565b60405180910390fd5b80601a60006101000a81548160ff02191690831515021790555050565b612916613274565b73ffffffffffffffffffffffffffffffffffffffff166129346121a6565b73ffffffffffffffffffffffffffffffffffffffff161461298a576040517f08c379a000000000000000000000000000000000000000000000000000000000815260040161298190615107565b60405180910390fd5b60008054146129ce576040517f08c379a00000000000000000000000000000000000000000000000000000000081526004016129c590614fe7565b60405180910390fd5b60008111612a11576040517f08c379a0000000000000000000000000000000000000000000000000000000008152600401612a0890614f47565b60405180910390fd5b612a67612a1c613274565b3083600860009054906101000a900473ffffffffffffffffffffffffffffffffffffffff1673ffffffffffffffffffffffffffffffffffffffff16613a7b909392919063ffffffff16565b7fbc7c8a4d8049a3f99a02f2a20640c206a2e4d3f2fa54fd20da9f01fda3620cda612a90613274565b82604051612a9f929190614ca2565b60405180910390a150565b612ab2613274565b73ffffffffffffffffffffffffffffffffffffffff16612ad06121a6565b73ffffffffffffffffffffffffffffffffffffffff1614612b26576040517f08c379a0000000000000000000000000000000000000000000000000000000008152600401612b1d90615107565b60405180910390fd5b612b2e613b04565b565b601a60009054906101000a900460ff16612b7f576040517f08c379a0000000000000000000000000000000000000000000000000000000008152600401612b7690614f27565b60405180910390fd5b612b87613274565b73ffffffffffffffffffffffffffffffffffffffff16612ba56121a6565b73ffffffffffffffffffffffffffffffffffffffff1614612bfb576040517f08c379a0000000000000000000000000000000000000000000000000000000008152600401612bf290615107565b60405180910390fd5b6000805414612c3f576040517f08c379a0000000000000000000000000000000000000000000000000000000008152600401612c3690614fe7565b60405180910390fd5b60005b8151811015612f5257600073ffffffffffffffffffffffffffffffffffffffff16828281518110612c9c577f4e487b7100000000000000000000000000000000000000000000000000000000600052603260045260246000fd5b602002602001015173ffffffffffffffffffffffffffffffffffffffff161415612cfb576040517f08c379a0000000000000000000000000000000000000000000000000000000008152600401612cf290615167565b60405180910390fd5b601c6000838381518110612d38577f4e487b7100000000000000000000000000000000000000000000000000000000600052603260045260246000fd5b602002602001015173ffffffffffffffffffffffffffffffffffffffff1673ffffffffffffffffffffffffffffffffffffffff16815260200190815260200160002060009054906101000a900460ff16612f3f576001601c6000848481518110612dcb577f4e487b7100000000000000000000000000000000000000000000000000000000600052603260045260246000fd5b602002602001015173ffffffffffffffffffffffffffffffffffffffff1673ffffffffffffffffffffffffffffffffffffffff16815260200190815260200160002060006101000a81548160ff021916908315150217905550601b828281518110612e5f577f4e487b7100000000000000000000000000000000000000000000000000000000600052603260045260246000fd5b60200260200101519080600181540180825580915050600190039060005260206000200160009091909190916101000a81548173ffffffffffffffffffffffffffffffffffffffff021916908373ffffffffffffffffffffffffffffffffffffffff1602179055507f4790a4adb426ca2345bb5108f6e454eae852a7bf687544cd66a7270dff3a41d6828281518110612f21577f4e487b7100000000000000000000000000000000000000000000000000000000600052603260045260246000fd5b6020026020010151604051612f369190614c27565b60405180910390a15b8080612f4a906157e0565b915050612c42565b5050565b60026003541415612f9c576040517f08c379a0000000000000000000000000000000000000000000000000000000008152600401612f93906151c7565b60405180910390fd5b6002600381905550612fac613274565b73ffffffffffffffffffffffffffffffffffffffff16612fca6121a6565b73ffffffffffffffffffffffffffffffffffffffff1614613020576040517f08c379a000000000000000000000000000000000000000000000000000000000815260040161301790615107565b60405180910390fd5b600261302a6121d0565b1461306a576040517f08c379a000000000000000000000000000000000000000000000000000000000815260040161306190614fc7565b60405180910390fd5b613168613075613274565b600860009054906101000a900473ffffffffffffffffffffffffffffffffffffffff1673ffffffffffffffffffffffffffffffffffffffff166370a08231306040518263ffffffff1660e01b81526004016130d09190614c27565b60206040518083038186803b1580156130e857600080fd5b505afa1580156130fc573d6000803e3d6000fd5b505050506040513d601f19601f8201168201806040525081019061312091906145c2565b600860009054906101000a900473ffffffffffffffffffffffffffffffffffffffff1673ffffffffffffffffffffffffffffffffffffffff166135439092919063ffffffff16565b6001600381905550565b6000602554905090565b613184613274565b73ffffffffffffffffffffffffffffffffffffffff166131a26121a6565b73ffffffffffffffffffffffffffffffffffffffff16146131f8576040517f08c379a00000000000000000000000000000000000000000000000000000000081526004016131ef90615107565b60405180910390fd5b600073ffffffffffffffffffffffffffffffffffffffff168173ffffffffffffffffffffffffffffffffffffffff161415613268576040517f08c379a000000000000000000000000000000000000000000000000000000000815260040161325f90614f67565b60405180910390fd5b61327181613928565b50565b600033905090565b60006001600054146132c3576040517f08c379a00000000000000000000000000000000000000000000000000000000081526004016132ba90614f87565b60405180910390fd5b60008081905550600154426132d89190615660565b90507fe53a714be5f4cafd59534776fb9c70cb9d78291e7ea841bb0180f59b64ace037600060405161330a9190614e79565b60405180910390a190565b60008183613323919061540e565b905092915050565b600073ffffffffffffffffffffffffffffffffffffffff1661334b613736565b73ffffffffffffffffffffffffffffffffffffffff16146133a1576040517f08c379a0000000000000000000000000000000000000000000000000000000008152600401613398906150c7565b60405180910390fd5b565b600081836133b19190615606565b905092915050565b600081836133c79190615464565b905092915050565b600081836133dd9190615660565b905092915050565b600081148061347e575060008373ffffffffffffffffffffffffffffffffffffffff1663dd62ed3e30856040518363ffffffff1660e01b815260040161342c929190614c42565b60206040518083038186803b15801561344457600080fd5b505afa158015613458573d6000803e3d6000fd5b505050506040513d601f19601f8201168201806040525081019061347c91906145c2565b145b6134bd576040517f08c379a00000000000000000000000000000000000000000000000000000000081526004016134b4906151e7565b60405180910390fd5b61353e8363095ea7b360e01b84846040516024016134dc929190614ca2565b604051602081830303815290604052907bffffffffffffffffffffffffffffffffffffffffffffffffffffffff19166020820180517bffffffffffffffffffffffffffffffffffffffffffffffffffffffff8381831617835250505050613b97565b505050565b6135c48363a9059cbb60e01b8484604051602401613562929190614ca2565b604051602081830303815290604052907bffffffffffffffffffffffffffffffffffffffffffffffffffffffff19166020820180517bffffffffffffffffffffffffffffffffffffffffffffffffffffffff8381831617835250505050613b97565b505050565b6000805414806135db57506001600054145b61361a576040517f08c379a000000000000000000000000000000000000000000000000000000000815260040161361190615087565b60405180910390fd5b60036000819055507fe53a714be5f4cafd59534776fb9c70cb9d78291e7ea841bb0180f59b64ace03760036040516136529190614eca565b60405180910390a1565b60006136e7600960149054906101000a900460ff16600a61367d91906154e8565b6136d9601d546136cb670de0b6b3a76400006136bd600960149054906101000a900460ff16600a6136ae91906154e8565b896133a390919063ffffffff16565b6133b990919063ffffffff16565b6133a390919063ffffffff16565b6133b990919063ffffffff16565b9050919050565b80600560008473ffffffffffffffffffffffffffffffffffffffff1673ffffffffffffffffffffffffffffffffffffffff168152602001908152602001600020819055505050565b6000600960009054906101000a900473ffffffffffffffffffffffffffffffffffffffff1673ffffffffffffffffffffffffffffffffffffffff1663c45a01556040518163ffffffff1660e01b815260040160206040518083038186803b1580156137a057600080fd5b505afa1580156137b4573d6000803e3d6000fd5b505050506040513d601f19601f820116820180604052508101906137d89190614392565b73ffffffffffffffffffffffffffffffffffffffff1663e6a43905600860009054906101000a900473ffffffffffffffffffffffffffffffffffffffff16600960009054906101000a900473ffffffffffffffffffffffffffffffffffffffff1673ffffffffffffffffffffffffffffffffffffffff1663ad5c46486040518163ffffffff1660e01b815260040160206040518083038186803b15801561387e57600080fd5b505afa158015613892573d6000803e3d6000fd5b505050506040513d601f19601f820116820180604052508101906138b69190614392565b6040518363ffffffff1660e01b81526004016138d3929190614c42565b60206040518083038186803b1580156138eb57600080fd5b505afa1580156138ff573d6000803e3d6000fd5b505050506040513d601f19601f820116820180604052508101906139239190614392565b905090565b6000600260009054906101000a900473ffffffffffffffffffffffffffffffffffffffff16905081600260006101000a81548173ffffffffffffffffffffffffffffffffffffffff021916908373ffffffffffffffffffffffffffffffffffffffff1602179055508173ffffffffffffffffffffffffffffffffffffffff168173ffffffffffffffffffffffffffffffffffffffff167f8be0079c531659141344cd1fd0a4f28419497f9722a3daafe3b4186f6b6457e060405160405180910390a35050565b6000805414613a32576040517f08c379a0000000000000000000000000000000000000000000000000000000008152600401613a2990614fe7565b60405180910390fd5b6001600081905550426001819055507fe53a714be5f4cafd59534776fb9c70cb9d78291e7ea841bb0180f59b64ace0376001604051613a719190614e94565b60405180910390a1565b613afe846323b872dd60e01b858585604051602401613a9c93929190614c6b565b604051602081830303815290604052907bffffffffffffffffffffffffffffffffffffffffffffffffffffffff19166020820180517bffffffffffffffffffffffffffffffffffffffffffffffffffffffff8381831617835250505050613b97565b50505050565b600080541480613b1657506001600054145b613b55576040517f08c379a0000000000000000000000000000000000000000000000000000000008152600401613b4c90615087565b60405180910390fd5b60026000819055507fe53a714be5f4cafd59534776fb9c70cb9d78291e7ea841bb0180f59b64ace0376002604051613b8d9190614eaf565b60405180910390a1565b6000613bf9826040518060400160405280602081526020017f5361666545524332303a206c6f772d6c6576656c2063616c6c206661696c65648152508573ffffffffffffffffffffffffffffffffffffffff16613c5e9092919063ffffffff16565b9050600081511115613c595780806020019051810190613c199190614570565b613c58576040517f08c379a0000000000000000000000000000000000000000000000000000000008152600401613c4f906151a7565b60405180910390fd5b5b505050565b6060613c6d8484600085613c76565b90509392505050565b606082471015613cbb576040517f08c379a0000000000000000000000000000000000000000000000000000000008152600401613cb290615007565b60405180910390fd5b613cc485613d8a565b613d03576040517f08c379a0000000000000000000000000000000000000000000000000000000008152600401613cfa90615147565b60405180910390fd5b6000808673ffffffffffffffffffffffffffffffffffffffff168587604051613d2c9190614c10565b60006040518083038185875af1925050503d8060008114613d69576040519150601f19603f3d011682016040523d82523d6000602084013e613d6e565b606091505b5091509150613d7e828286613dad565b92505050949350505050565b6000808273ffffffffffffffffffffffffffffffffffffffff163b119050919050565b60608315613dbd57829050613e0d565b600083511115613dd05782518084602001fd5b816040517f08c379a0000000000000000000000000000000000000000000000000000000008152600401613e049190614ee5565b60405180910390fd5b9392505050565b604051806101800160405280600c905b6060815260200190600190039081613e245790505090565b82600c8101928215613e7e579160200282015b82811115613e7d578251829080519060200190613e6d929190613e8f565b5091602001919060010190613e4f565b5b509050613e8b9190613f15565b5090565b828054613e9b9061577d565b90600052602060002090601f016020900481019282613ebd5760008555613f04565b82601f10613ed657805160ff1916838001178555613f04565b82800160010185558215613f04579182015b82811115613f03578251825591602001919060010190613ee8565b5b509050613f119190613f39565b5090565b5b80821115613f355760008181613f2c9190613f56565b50600101613f16565b5090565b5b80821115613f52576000816000905550600101613f3a565b5090565b508054613f629061577d565b6000825580601f10613f745750613f93565b601f016020900490600052602060002090810190613f929190613f39565b5b50565b6000613fa9613fa484615270565b61524b565b90508082856020860282011115613fbf57600080fd5b60005b85811015613fef5781613fd588826141e6565b845260208401935060208301925050600181019050613fc2565b5050509392505050565b600061400c61400784615296565b61524b565b9050808382526020820190508285602086028201111561402b57600080fd5b60005b8581101561405b578161404188826141e6565b84526020840193506020830192505060018101905061402e565b5050509392505050565b6000614078614073846152c2565b61524b565b9050808285602086028201111561408e57600080fd5b60005b858110156140d857813567ffffffffffffffff8111156140b057600080fd5b8086016140bd8982614300565b85526020850194506020840193505050600181019050614091565b5050509392505050565b60006140f56140f0846152e8565b61524b565b9050808285602086028201111561410b57600080fd5b60005b8581101561413b5781614121888261432a565b84526020840193506020830192505060018101905061410e565b5050509392505050565b60006141586141538461530e565b61524b565b9050808285602086028201111561416e57600080fd5b60005b8581101561419e5781614184888261432a565b845260208401935060208301925050600181019050614171565b5050509392505050565b60006141bb6141b684615334565b61524b565b9050828152602081018484840111156141d357600080fd5b6141de84828561573b565b509392505050565b6000813590506141f581615d73565b92915050565b60008151905061420a81615d73565b92915050565b600082601f83011261422157600080fd5b600261422e848285613f96565b91505092915050565b600082601f83011261424857600080fd5b8135614258848260208601613ff9565b91505092915050565b600082601f83011261427257600080fd5b600c61427f848285614065565b91505092915050565b600082601f83011261429957600080fd5b60026142a68482856140e2565b91505092915050565b600082601f8301126142c057600080fd5b60046142cd848285614145565b91505092915050565b6000813590506142e581615d8a565b92915050565b6000815190506142fa81615d8a565b92915050565b600082601f83011261431157600080fd5b81356143218482602086016141a8565b91505092915050565b60008135905061433981615da1565b92915050565b60008151905061434e81615da1565b92915050565b60008151905061436381615db8565b92915050565b60006020828403121561437b57600080fd5b6000614389848285016141e6565b91505092915050565b6000602082840312156143a457600080fd5b60006143b2848285016141fb565b91505092915050565b60008060008060008060008060008060006102608c8e0312156143dd57600080fd5b60006143eb8e828f016141e6565b9b505060206143fc8e828f016141e6565b9a5050604061440d8e828f0161432a565b995050606061441e8e828f01614210565b98505060a08c013567ffffffffffffffff81111561443b57600080fd5b6144478e828f01614261565b97505060c06144588e828f01614288565b96505061010061446a8e828f016142af565b95505061018061447c8e828f01614288565b9450506101c061448e8e828f01614288565b9350506102006144a08e828f01614288565b9250506102406144b28e828f016142d6565b9150509295989b509295989b9093969950565b6000602082840312156144d757600080fd5b600082013567ffffffffffffffff8111156144f157600080fd5b6144fd84828501614237565b91505092915050565b60006020828403121561451857600080fd5b600082013567ffffffffffffffff81111561453257600080fd5b61453e84828501614261565b91505092915050565b60006020828403121561455957600080fd5b6000614567848285016142d6565b91505092915050565b60006020828403121561458257600080fd5b6000614590848285016142eb565b91505092915050565b6000602082840312156145ab57600080fd5b60006145b98482850161432a565b91505092915050565b6000602082840312156145d457600080fd5b60006145e28482850161433f565b91505092915050565b600080604083850312156145fe57600080fd5b600061460c8582860161433f565b925050602061461d8582860161433f565b9150509250929050565b60008060006060848603121561463c57600080fd5b600061464a8682870161433f565b935050602061465b8682870161433f565b925050604061466c8682870161433f565b9150509250925092565b60006020828403121561468857600080fd5b600061469684828501614354565b91505092915050565b60006146ab83836146cb565b60208301905092915050565b60006146c383836147da565b905092915050565b6146d481615694565b82525050565b6146e381615694565b82525050565b60006146f48261537f565b6146fe81856153c5565b935061470983615365565b8060005b8381101561473a578151614721888261469f565b975061472c836153ab565b92505060018101905061470d565b5085935050505092915050565b60006147528261538a565b61475c81856153d6565b93508360208202850161476e85615375565b8060005b858110156147aa578484038952815161478b85826146b7565b9450614796836153b8565b925060208a01995050600181019050614772565b50829750879550505050505092915050565b6147c5816156a6565b82525050565b6147d4816156b2565b82525050565b60006147e582615395565b6147ef81856153e1565b93506147ff81856020860161574a565b614808816158e5565b840191505092915050565b600061481e82615395565b61482881856153f2565b935061483881856020860161574a565b80840191505092915050565b61484d816156f3565b82525050565b61485c81615705565b82525050565b61486b81615717565b82525050565b61487a81615729565b82525050565b600061488b826153a0565b61489581856153fd565b93506148a581856020860161574a565b6148ae816158e5565b840191505092915050565b60006148c66019836153fd565b91506148d182615903565b602082019050919050565b60006148e96018836153fd565b91506148f48261592c565b602082019050919050565b600061490c601c836153fd565b915061491782615955565b602082019050919050565b600061492f6026836153fd565b915061493a8261597e565b604082019050919050565b60006149526011836153fd565b915061495d826159cd565b602082019050919050565b6000614975601a836153fd565b9150614980826159f6565b602082019050919050565b6000614998601a836153fd565b91506149a382615a1f565b602082019050919050565b60006149bb6011836153fd565b91506149c682615a48565b602082019050919050565b60006149de6026836153fd565b91506149e982615a71565b604082019050919050565b6000614a01601a836153fd565b9150614a0c82615ac0565b602082019050919050565b6000614a24601e836153fd565b9150614a2f82615ae9565b602082019050919050565b6000614a476011836153fd565b9150614a5282615b12565b602082019050919050565b6000614a6a601b836153fd565b9150614a7582615b3b565b602082019050919050565b6000614a8d6012836153fd565b9150614a9882615b64565b602082019050919050565b6000614ab06019836153fd565b9150614abb82615b8d565b602082019050919050565b6000614ad36014836153fd565b9150614ade82615bb6565b602082019050919050565b6000614af66020836153fd565b9150614b0182615bdf565b602082019050919050565b6000614b196016836153fd565b9150614b2482615c08565b602082019050919050565b6000614b3c601d836153fd565b9150614b4782615c31565b602082019050919050565b6000614b5f6015836153fd565b9150614b6a82615c5a565b602082019050919050565b6000614b826014836153fd565b9150614b8d82615c83565b602082019050919050565b6000614ba5602a836153fd565b9150614bb082615cac565b604082019050919050565b6000614bc8601f836153fd565b9150614bd382615cfb565b602082019050919050565b6000614beb6036836153fd565b9150614bf682615d24565b604082019050919050565b614c0a816156dc565b82525050565b6000614c1c8284614813565b915081905092915050565b6000602082019050614c3c60008301846146da565b92915050565b6000604082019050614c5760008301856146da565b614c6460208301846146da565b9392505050565b6000606082019050614c8060008301866146da565b614c8d60208301856146da565b614c9a6040830184614c01565b949350505050565b6000604082019050614cb760008301856146da565b614cc46020830184614c01565b9392505050565b600060c082019050614ce060008301896146da565b614ced6020830188614c01565b614cfa6040830187614844565b614d076060830186614844565b614d1460808301856146da565b614d2160a0830184614c01565b979650505050505050565b600060a082019050614d4160008301886146da565b614d4e6020830187614c01565b614d5b6040830186614c01565b614d686060830185614c01565b614d756080830184614c01565b9695505050505050565b600061012082019050614d95600083018c6146da565b614da2602083018b614c01565b614daf604083018a614c01565b614dbc6060830189614c01565b614dc96080830188614c01565b614dd660a0830187614c01565b614de360c0830186614c01565b614df060e0830185614c01565b614dfe610100830184614c01565b9a9950505050505050505050565b60006020820190508181036000830152614e2681846146e9565b905092915050565b60006040820190508181036000830152614e488185614747565b9050614e5760208301846147bc565b9392505050565b6000602082019050614e7360008301846147cb565b92915050565b6000602082019050614e8e6000830184614844565b92915050565b6000602082019050614ea96000830184614853565b92915050565b6000602082019050614ec46000830184614862565b92915050565b6000602082019050614edf6000830184614871565b92915050565b60006020820190508181036000830152614eff8184614880565b905092915050565b60006020820190508181036000830152614f20816148b9565b9050919050565b60006020820190508181036000830152614f40816148dc565b9050919050565b60006020820190508181036000830152614f60816148ff565b9050919050565b60006020820190508181036000830152614f8081614922565b9050919050565b60006020820190508181036000830152614fa081614945565b9050919050565b60006020820190508181036000830152614fc081614968565b9050919050565b60006020820190508181036000830152614fe08161498b565b9050919050565b60006020820190508181036000830152615000816149ae565b9050919050565b60006020820190508181036000830152615020816149d1565b9050919050565b60006020820190508181036000830152615040816149f4565b9050919050565b6000602082019050818103600083015261506081614a17565b9050919050565b6000602082019050818103600083015261508081614a3a565b9050919050565b600060208201905081810360008301526150a081614a5d565b9050919050565b600060208201905081810360008301526150c081614a80565b9050919050565b600060208201905081810360008301526150e081614aa3565b9050919050565b6000602082019050818103600083015261510081614ac6565b9050919050565b6000602082019050818103600083015261512081614ae9565b9050919050565b6000602082019050818103600083015261514081614b0c565b9050919050565b6000602082019050818103600083015261516081614b2f565b9050919050565b6000602082019050818103600083015261518081614b52565b9050919050565b600060208201905081810360008301526151a081614b75565b9050919050565b600060208201905081810360008301526151c081614b98565b9050919050565b600060208201905081810360008301526151e081614bbb565b9050919050565b6000602082019050818103600083015261520081614bde565b9050919050565b600060208201905061521c6000830184614c01565b92915050565b60006040820190506152376000830185614c01565b6152446020830184614c01565b9392505050565b6000615255615266565b905061526182826157af565b919050565b6000604051905090565b600067ffffffffffffffff82111561528b5761528a6158b6565b5b602082029050919050565b600067ffffffffffffffff8211156152b1576152b06158b6565b5b602082029050602081019050919050565b600067ffffffffffffffff8211156152dd576152dc6158b6565b5b602082029050919050565b600067ffffffffffffffff821115615303576153026158b6565b5b602082029050919050565b600067ffffffffffffffff821115615329576153286158b6565b5b602082029050919050565b600067ffffffffffffffff82111561534f5761534e6158b6565b5b615358826158e5565b9050602081019050919050565b6000819050602082019050919050565b6000819050919050565b600081519050919050565b6000600c9050919050565b600081519050919050565b600081519050919050565b6000602082019050919050565b6000602082019050919050565b600082825260208201905092915050565b600081905092915050565b600082825260208201905092915050565b600081905092915050565b600082825260208201905092915050565b6000615419826156dc565b9150615424836156dc565b9250827fffffffffffffffffffffffffffffffffffffffffffffffffffffffffffffffff0382111561545957615458615829565b5b828201905092915050565b600061546f826156dc565b915061547a836156dc565b92508261548a57615489615858565b5b828204905092915050565b6000808291508390505b60018511156154df578086048111156154bb576154ba615829565b5b60018516156154ca5780820291505b80810290506154d8856158f6565b945061549f565b94509492505050565b60006154f3826156dc565b91506154fe836156e6565b925061552b7fffffffffffffffffffffffffffffffffffffffffffffffffffffffffffffffff8484615533565b905092915050565b60008261554357600190506155ff565b8161555157600090506155ff565b81600181146155675760028114615571576155a0565b60019150506155ff565b60ff84111561558357615582615829565b5b8360020a91508482111561559a57615599615829565b5b506155ff565b5060208310610133831016604e8410600b84101617156155d55782820a9050838111156155d0576155cf615829565b5b6155ff565b6155e28484846001615495565b925090508184048111156155f9576155f8615829565b5b81810290505b9392505050565b6000615611826156dc565b915061561c836156dc565b9250817fffffffffffffffffffffffffffffffffffffffffffffffffffffffffffffffff048311821515161561565557615654615829565b5b828202905092915050565b600061566b826156dc565b9150615676836156dc565b92508282101561568957615688615829565b5b828203905092915050565b600061569f826156bc565b9050919050565b60008115159050919050565b6000819050919050565b600073ffffffffffffffffffffffffffffffffffffffff82169050919050565b6000819050919050565b600060ff82169050919050565b60006156fe826156dc565b9050919050565b6000615710826156dc565b9050919050565b6000615722826156dc565b9050919050565b6000615734826156dc565b9050919050565b82818337600083830152505050565b60005b8381101561576857808201518184015260208101905061574d565b83811115615777576000848401525b50505050565b6000600282049050600182168061579557607f821691505b602082108114156157a9576157a8615887565b5b50919050565b6157b8826158e5565b810181811067ffffffffffffffff821117156157d7576157d66158b6565b5b80604052505050565b60006157eb826156dc565b91507fffffffffffffffffffffffffffffffffffffffffffffffffffffffffffffffff82141561581e5761581d615829565b5b600182019050919050565b7f4e487b7100000000000000000000000000000000000000000000000000000000600052601160045260246000fd5b7f4e487b7100000000000000000000000000000000000000000000000000000000600052601260045260246000fd5b7f4e487b7100000000000000000000000000000000000000000000000000000000600052602260045260246000fd5b7f4e487b7100000000000000000000000000000000000000000000000000000000600052604160045260246000fd5b6000601f19601f8301169050919050565b60008160011c9050919050565b7f53616c653a20414c52454144595f494e495449414c495a454400000000000000600082015250565b7f53616c653a2057484954454c4953545f44495341424c45440000000000000000600082015250565b7f53616c653a204445504f5349545f414d4f554e545f494e56414c494400000000600082015250565b7f4f776e61626c653a206e6577206f776e657220697320746865207a65726f206160008201527f6464726573730000000000000000000000000000000000000000000000000000602082015250565b7f53746174653a206e6f7420706175736564000000000000000000000000000000600082015250565b7f73746174653a20554e41424c455f544f5f46494e414c495a4544000000000000600082015250565b7f526566756e643a2053414c455f4e4f545f43414e43454c4c4544000000000000600082015250565b7f53746174653a206e6f7420616374697665000000000000000000000000000000600082015250565b7f416464726573733a20696e73756666696369656e742062616c616e636520666f60008201527f722063616c6c0000000000000000000000000000000000000000000000000000602082015250565b7f53616c653a20555345525f4e4f545f57484954454c4953544544000000000000600082015250565b7f53616c653a2050555243484153455f414d4f554e545f45584345454445440000600082015250565b7f4c69717569646974793a204c4f434b4544000000000000000000000000000000600082015250565b7f53746174653a206e6f7420616374697665206f72207061757365640000000000600082015250565b7f53616c653a20494e56414c49445f444154450000000000000000000000000000600082015250565b7f4c69717569646974793a20414c52454144595f4c495354454400000000000000600082015250565b7f53746174653a206e6f742066696e616c697a6564000000000000000000000000600082015250565b7f4f776e61626c653a2063616c6c6572206973206e6f7420746865206f776e6572600082015250565b7f53616c652c20484152445f4341505f5245414348454400000000000000000000600082015250565b7f416464726573733a2063616c6c20746f206e6f6e2d636f6e7472616374000000600082015250565b7f49444f53616c653a205a45524f5f414444524553530000000000000000000000600082015250565b7f53616c653a205a45524f5f505552434841534544000000000000000000000000600082015250565b7f5361666545524332303a204552433230206f7065726174696f6e20646964206e60008201527f6f74207375636365656400000000000000000000000000000000000000000000602082015250565b7f5265656e7472616e637947756172643a207265656e7472616e742063616c6c00600082015250565b7f5361666545524332303a20617070726f76652066726f6d206e6f6e2d7a65726f60008201527f20746f206e6f6e2d7a65726f20616c6c6f77616e636500000000000000000000602082015250565b615d7c81615694565b8114615d8757600080fd5b50565b615d93816156a6565b8114615d9e57600080fd5b50565b615daa816156dc565b8114615db557600080fd5b50565b615dc1816156e6565b8114615dcc57600080fd5b5056fea2646970667358221220005facb3e74c6054fe0fc7607d686a3ecd684d9409ad06052bccaaa67d93cedb64736f6c63430008040033",
    "linkReferences": {},
    "deployedLinkReferences": {}
}