{
    "_format": "hh-sol-artifact-1",
    "contractName": "Sale",
    "sourceName": "contracts/Sale.sol",
    "abi": [
        {
            "anonymous": false,
            "inputs": [
                {
                    "indexed": false,
                    "internalType": "uint256",
                    "name": "status",
                    "type": "uint256"
                }
            ],
            "name": "ChangeState",
            "type": "event"
        },
        {
            "anonymous": false,
            "inputs": [
                {
                    "indexed": true,
                    "internalType": "address",
                    "name": "account",
                    "type": "address"
                },
                {
                    "indexed": false,
                    "internalType": "uint256",
                    "name": "amount",
                    "type": "uint256"
                }
            ],
            "name": "Claim",
            "type": "event"
        },
        {
            "anonymous": false,
            "inputs": [
                {
                    "indexed": true,
                    "internalType": "address",
                    "name": "previousOwner",
                    "type": "address"
                },
                {
                    "indexed": true,
                    "internalType": "address",
                    "name": "newOwner",
                    "type": "address"
                }
            ],
            "name": "OwnershipTransferred",
            "type": "event"
        },
        {
            "anonymous": false,
            "inputs": [
                {
                    "indexed": false,
                    "internalType": "uint256",
                    "name": "amount",
                    "type": "uint256"
                }
            ],
            "name": "Pullout",
            "type": "event"
        },
        {
            "anonymous": false,
            "inputs": [
                {
                    "indexed": true,
                    "internalType": "address",
                    "name": "account",
                    "type": "address"
                },
                {
                    "indexed": false,
                    "internalType": "uint256",
                    "name": "amount",
                    "type": "uint256"
                }
            ],
            "name": "Purchase",
            "type": "event"
        },
        {
            "anonymous": false,
            "inputs": [
                {
                    "indexed": true,
                    "internalType": "address",
                    "name": "account",
                    "type": "address"
                },
                {
                    "indexed": false,
                    "internalType": "uint256",
                    "name": "amount",
                    "type": "uint256"
                }
            ],
            "name": "Refund",
            "type": "event"
        },
        {
            "anonymous": false,
            "inputs": [
                {
                    "indexed": false,
                    "internalType": "bool",
                    "name": "status",
                    "type": "bool"
                }
            ],
            "name": "ToggleWhitelist",
            "type": "event"
        },
        {
            "anonymous": false,
            "inputs": [
                {
                    "indexed": true,
                    "internalType": "address",
                    "name": "sender",
                    "type": "address"
                },
                {
                    "indexed": false,
                    "internalType": "uint256",
                    "name": "amount",
                    "type": "uint256"
                }
            ],
            "name": "TokenDeposited",
            "type": "event"
        },
        {
            "anonymous": false,
            "inputs": [
                {
                    "indexed": true,
                    "internalType": "address",
                    "name": "account",
                    "type": "address"
                }
            ],
            "name": "WhitelistAdded",
            "type": "event"
        },
        {
            "anonymous": false,
            "inputs": [
                {
                    "indexed": true,
                    "internalType": "address",
                    "name": "account",
                    "type": "address"
                }
            ],
            "name": "WhitelistRemoved",
            "type": "event"
        },
        {
            "inputs": [],
            "name": "_saleType",
            "outputs": [
                {
                    "internalType": "bytes32",
                    "name": "",
                    "type": "bytes32"
                }
            ],
            "stateMutability": "view",
            "type": "function"
        },
        {
            "inputs": [],
            "name": "activate",
            "outputs": [],
            "stateMutability": "nonpayable",
            "type": "function"
        },
        {
            "inputs": [
                {
                    "internalType": "address[]",
                    "name": "accounts",
                    "type": "address[]"
                }
            ],
            "name": "addWhitelist",
            "outputs": [],
            "stateMutability": "nonpayable",
            "type": "function"
        },
        {
            "inputs": [],
            "name": "cancel",
            "outputs": [],
            "stateMutability": "nonpayable",
            "type": "function"
        },
        {
            "inputs": [],
            "name": "claim",
            "outputs": [],
            "stateMutability": "nonpayable",
            "type": "function"
        },
        {
            "inputs": [],
            "name": "contributors",
            "outputs": [
                {
                    "internalType": "address[]",
                    "name": "",
                    "type": "address[]"
                }
            ],
            "stateMutability": "view",
            "type": "function"
        },
        {
            "inputs": [
                {
                    "internalType": "uint256",
                    "name": "amount",
                    "type": "uint256"
                }
            ],
            "name": "depositTokens",
            "outputs": [],
            "stateMutability": "nonpayable",
            "type": "function"
        },
        {
            "inputs": [],
            "name": "finalize",
            "outputs": [],
            "stateMutability": "nonpayable",
            "type": "function"
        },
        {
            "inputs": [
                {
                    "internalType": "address",
                    "name": "_owner",
                    "type": "address"
                },
                {
                    "internalType": "address",
                    "name": "platformOwner",
                    "type": "address"
                },
                {
                    "internalType": "uint256",
                    "name": "additionalFee",
                    "type": "uint256"
                },
                {
                    "internalType": "address[2]",
                    "name": "addresses",
                    "type": "address[2]"
                },
                {
                    "internalType": "bytes[12]",
                    "name": "info",
                    "type": "bytes[12]"
                },
                {
                    "internalType": "uint256[2]",
                    "name": "date",
                    "type": "uint256[2]"
                },
                {
                    "internalType": "uint256[4]",
                    "name": "prices",
                    "type": "uint256[4]"
                },
                {
                    "internalType": "uint256[2]",
                    "name": "cap",
                    "type": "uint256[2]"
                },
                {
                    "internalType": "uint256[2]",
                    "name": "minmaxBuy",
                    "type": "uint256[2]"
                },
                {
                    "internalType": "uint256[2]",
                    "name": "liquidity",
                    "type": "uint256[2]"
                },
                {
                    "internalType": "bool",
                    "name": "whitelist",
                    "type": "bool"
                }
            ],
            "name": "init",
            "outputs": [],
            "stateMutability": "nonpayable",
            "type": "function"
        },
        {
            "inputs": [],
            "name": "liquidityDetails",
            "outputs": [
                {
                    "internalType": "uint256",
                    "name": "",
                    "type": "uint256"
                },
                {
                    "internalType": "uint256",
                    "name": "",
                    "type": "uint256"
                }
            ],
            "stateMutability": "view",
            "type": "function"
        },
        {
            "inputs": [],
            "name": "owner",
            "outputs": [
                {
                    "internalType": "address",
                    "name": "",
                    "type": "address"
                }
            ],
            "stateMutability": "view",
            "type": "function"
        },
        {
            "inputs": [],
            "name": "pause",
            "outputs": [],
            "stateMutability": "nonpayable",
            "type": "function"
        },
        {
            "inputs": [],
            "name": "pullOutTokens",
            "outputs": [],
            "stateMutability": "nonpayable",
            "type": "function"
        },
        {
            "inputs": [],
            "name": "purchase",
            "outputs": [],
            "stateMutability": "payable",
            "type": "function"
        },
        {
            "inputs": [],
            "name": "raised",
            "outputs": [
                {
                    "internalType": "uint256",
                    "name": "",
                    "type": "uint256"
                }
            ],
            "stateMutability": "view",
            "type": "function"
        },
        {
            "inputs": [],
            "name": "refund",
            "outputs": [],
            "stateMutability": "nonpayable",
            "type": "function"
        },
        {
            "inputs": [],
            "name": "removeLiquidity",
            "outputs": [],
            "stateMutability": "nonpayable",
            "type": "function"
        },
        {
            "inputs": [
                {
                    "internalType": "address[]",
                    "name": "accounts",
                    "type": "address[]"
                }
            ],
            "name": "removeWhitelist",
            "outputs": [],
            "stateMutability": "nonpayable",
            "type": "function"
        },
        {
            "inputs": [],
            "name": "renounceOwnership",
            "outputs": [],
            "stateMutability": "nonpayable",
            "type": "function"
        },
        {
            "inputs": [],
            "name": "saleDetails",
            "outputs": [
                {
                    "internalType": "address[2]",
                    "name": "",
                    "type": "address[2]"
                },
                {
                    "internalType": "bytes[12]",
                    "name": "",
                    "type": "bytes[12]"
                },
                {
                    "internalType": "uint256[13]",
                    "name": "",
                    "type": "uint256[13]"
                },
                {
                    "internalType": "bool",
                    "name": "",
                    "type": "bool"
                },
                {
                    "internalType": "uint256",
                    "name": "",
                    "type": "uint256"
                }
            ],
            "stateMutability": "view",
            "type": "function"
        },
        {
            "inputs": [
                {
                    "internalType": "bytes[12]",
                    "name": "info",
                    "type": "bytes[12]"
                }
            ],
            "name": "setDetails",
            "outputs": [],
            "stateMutability": "nonpayable",
            "type": "function"
        },
        {
            "inputs": [],
            "name": "state",
            "outputs": [
                {
                    "internalType": "uint256",
                    "name": "",
                    "type": "uint256"
                }
            ],
            "stateMutability": "view",
            "type": "function"
        },
        {
            "inputs": [
                {
                    "internalType": "bool",
                    "name": "status",
                    "type": "bool"
                }
            ],
            "name": "toogleWhiteList",
            "outputs": [],
            "stateMutability": "nonpayable",
            "type": "function"
        },
        {
            "inputs": [
                {
                    "internalType": "address",
                    "name": "account",
                    "type": "address"
                }
            ],
            "name": "totalContributions",
            "outputs": [
                {
                    "internalType": "uint256",
                    "name": "",
                    "type": "uint256"
                },
                {
                    "internalType": "uint256",
                    "name": "",
                    "type": "uint256"
                }
            ],
            "stateMutability": "view",
            "type": "function"
        },
        {
            "inputs": [
                {
                    "internalType": "address",
                    "name": "newOwner",
                    "type": "address"
                }
            ],
            "name": "transferOwnership",
            "outputs": [],
            "stateMutability": "nonpayable",
            "type": "function"
        },
        {
            "inputs": [],
            "name": "whitelistedUsers",
            "outputs": [
                {
                    "internalType": "address[]",
                    "name": "",
                    "type": "address[]"
                }
            ],
            "stateMutability": "view",
            "type": "function"
        }
    ],
    "bytecode": "0x60a06040526000801b6080908152503480156200001b57600080fd5b50600080819055506200003560006200004360201b60201c565b600160038190555062000109565b6000600260009054906101000a900473ffffffffffffffffffffffffffffffffffffffff16905081600260006101000a81548173ffffffffffffffffffffffffffffffffffffffff021916908373ffffffffffffffffffffffffffffffffffffffff1602179055508173ffffffffffffffffffffffffffffffffffffffff168173ffffffffffffffffffffffffffffffffffffffff167f8be0079c531659141344cd1fd0a4f28419497f9722a3daafe3b4186f6b6457e060405160405180910390a35050565b608051615ee162000125600039600061185b0152615ee16000f3fe6080604052600436106101815760003560e01c8063715018a6116100d1578063d934d5af1161008a578063edac985b11610064578063edac985b14610485578063edad0dfe146104ae578063f0ea4bfc146104c5578063f2fde38b146104f057610181565b8063d934d5af1461041c578063dd49756e14610445578063ea8a1af01461046e57610181565b8063715018a6146103315780637ed3deba146103485780638456cb59146103865780638da5cb5b1461039d578063c19d93fb146103c8578063d481f75b146103f357610181565b80634bb278f31161013e5780635cee0439116101185780635cee0439146102ba57806364edfbf0146102e557806367b9a286146102ef5780636e7e3b2b1461030657610181565b80634bb278f3146102755780634e71d92d1461028c578063590e1ae3146102a357610181565b806307a130f7146101865780630f15f4c0146101b25780631ec6a7de146101c957806323245216146101f45780633474a4a61461021d578063485366881461024c575b600080fd5b34801561019257600080fd5b5061019b610519565b6040516101a99291906152f6565b60405180910390f35b3480156101be57600080fd5b506101c761052a565b005b3480156101d557600080fd5b506101de6105d0565b6040516101eb9190614f35565b60405180910390f35b34801561020057600080fd5b5061021b600480360381019061021691906145e2565b610808565b005b34801561022957600080fd5b50610232610b49565b604051610243959493929190614ed8565b60405180910390f35b34801561025857600080fd5b50610273600480360381019061026e9190614623565b610d83565b005b34801561028157600080fd5b5061028a610d98565b005b34801561029857600080fd5b506102a16113f9565b005b3480156102af57600080fd5b506102b8611660565b005b3480156102c657600080fd5b506102cf611859565b6040516102dc9190614f72565b60405180910390f35b6102ed61187d565b005b3480156102fb57600080fd5b50610304611e24565b005b34801561031257600080fd5b5061031b612153565b6040516103289190614f35565b60405180910390f35b34801561033d57600080fd5b506103466121e1565b005b34801561035457600080fd5b5061036f600480360381019061036a9190614486565b612269565b60405161037d9291906152f6565b60405180910390f35b34801561039257600080fd5b5061039b6122f5565b005b3480156103a957600080fd5b506103b261237b565b6040516103bf9190614dd3565b60405180910390f35b3480156103d457600080fd5b506103dd6123a5565b6040516103ea91906152db565b60405180910390f35b3480156103ff57600080fd5b5061041a600480360381019061041591906144d8565b6123ae565b005b34801561042857600080fd5b50610443600480360381019061043e9190614664565b612a06565b005b34801561045157600080fd5b5061046c600480360381019061046791906146b6565b612b1a565b005b34801561047a57600080fd5b50610483612ccb565b005b34801561049157600080fd5b506104ac60048036038101906104a791906145e2565b612d51565b005b3480156104ba57600080fd5b506104c3613134565b005b3480156104d157600080fd5b506104da6132ea565b6040516104e791906152db565b60405180910390f35b3480156104fc57600080fd5b5061051760048036038101906105129190614486565b6132f4565b005b600080602954602a54915091509091565b6105326133ec565b73ffffffffffffffffffffffffffffffffffffffff1661055061237b565b73ffffffffffffffffffffffffffffffffffffffff16146105a6576040517f08c379a000000000000000000000000000000000000000000000000000000000815260040161059d906151db565b60405180910390fd5b60006105b06133f4565b90506105c78160185461348d90919063ffffffff16565b60188190555050565b60606000601c8054905067ffffffffffffffff811115610619577f4e487b7100000000000000000000000000000000000000000000000000000000600052604160045260246000fd5b6040519080825280602002602001820160405280156106475781602001602082028036833780820191505090505b50905060005b601c8054905081101561080057601d6000601c8381548110610698577f4e487b7100000000000000000000000000000000000000000000000000000000600052603260045260246000fd5b9060005260206000200160009054906101000a900473ffffffffffffffffffffffffffffffffffffffff1673ffffffffffffffffffffffffffffffffffffffff1673ffffffffffffffffffffffffffffffffffffffff16815260200190815260200160002060009054906101000a900460ff16610714576107ed565b601c818154811061074e577f4e487b7100000000000000000000000000000000000000000000000000000000600052603260045260246000fd5b9060005260206000200160009054906101000a900473ffffffffffffffffffffffffffffffffffffffff168282815181106107b2577f4e487b7100000000000000000000000000000000000000000000000000000000600052603260045260246000fd5b602002602001019073ffffffffffffffffffffffffffffffffffffffff16908173ffffffffffffffffffffffffffffffffffffffff16815250505b80806107f89061590e565b91505061064d565b508091505090565b6108106133ec565b73ffffffffffffffffffffffffffffffffffffffff1661082e61237b565b73ffffffffffffffffffffffffffffffffffffffff1614610884576040517f08c379a000000000000000000000000000000000000000000000000000000000815260040161087b906151db565b60405180910390fd5b60008054146108c8576040517f08c379a00000000000000000000000000000000000000000000000000000000081526004016108bf906150db565b60405180910390fd5b60005b8151811015610b4557600073ffffffffffffffffffffffffffffffffffffffff16828281518110610925577f4e487b7100000000000000000000000000000000000000000000000000000000600052603260045260246000fd5b602002602001015173ffffffffffffffffffffffffffffffffffffffff161415610984576040517f08c379a000000000000000000000000000000000000000000000000000000000815260040161097b9061523b565b60405180910390fd5b601d60008383815181106109c1577f4e487b7100000000000000000000000000000000000000000000000000000000600052603260045260246000fd5b602002602001015173ffffffffffffffffffffffffffffffffffffffff1673ffffffffffffffffffffffffffffffffffffffff16815260200190815260200160002060009054906101000a900460ff1615610b32576000601d6000848481518110610a55577f4e487b7100000000000000000000000000000000000000000000000000000000600052603260045260246000fd5b602002602001015173ffffffffffffffffffffffffffffffffffffffff1673ffffffffffffffffffffffffffffffffffffffff16815260200190815260200160002060006101000a81548160ff021916908315150217905550818181518110610ae7577f4e487b7100000000000000000000000000000000000000000000000000000000600052603260045260246000fd5b602002602001015173ffffffffffffffffffffffffffffffffffffffff167fde8cf212af7ce38b2840785a2768d97ff2dbf3c21b516961cec0061e134c2a1e60405160405180910390a25b8080610b3d9061590e565b9150506108cb565b5050565b610b51613eec565b610b59613f0e565b610b61613f36565b6000806040518060400160405280600960009054906101000a900473ffffffffffffffffffffffffffffffffffffffff1673ffffffffffffffffffffffffffffffffffffffff1673ffffffffffffffffffffffffffffffffffffffff168152602001600a60009054906101000a900473ffffffffffffffffffffffffffffffffffffffff1673ffffffffffffffffffffffffffffffffffffffff1673ffffffffffffffffffffffffffffffffffffffff16815250600b604051806101a00160405280600a60149054906101000a900460ff1660ff168152602001601e548152602001601f548152602001602254815260200160235481526020016024548152602001602554815260200160175481526020016018548152602001602154815260200160205481526020016019548152602001601a54815250601b60009054906101000a900460ff16610cb16123a5565b83600c80602002604051908101604052809291906000905b82821015610d6c578382018054610cdf906158ab565b80601f0160208091040260200160405190810160405280929190818152602001828054610d0b906158ab565b8015610d585780601f10610d2d57610100808354040283529160200191610d58565b820191906000526020600020905b815481529060010190602001808311610d3b57829003601f168201915b505050505081526020019060010190610cc9565b505050509350945094509450945094509091929394565b80600b90600c610d94929190613f59565b5050565b60026003541415610dde576040517f08c379a0000000000000000000000000000000000000000000000000000000008152600401610dd59061529b565b60405180910390fd5b6002600381905550610dee6133ec565b73ffffffffffffffffffffffffffffffffffffffff16610e0c61237b565b73ffffffffffffffffffffffffffffffffffffffff1614610e62576040517f08c379a0000000000000000000000000000000000000000000000000000000008152600401610e59906151db565b60405180910390fd5b602354602654101580610e8757504260185411158015610e86575060225460265410155b5b610ec6576040517f08c379a0000000000000000000000000000000000000000000000000000000008152600401610ebd9061509b565b60405180910390fd5b610ece6134a3565b610ef8610ee9601a546201518061353690919063ffffffff16565b4261348d90919063ffffffff16565b6029819055506000670de0b6b3a7640000602354602654610f199190615592565b610f239190615734565b90506000610f58670de0b6b3a7640000610f4a60285460265461353690919063ffffffff16565b61354c90919063ffffffff16565b90506000610f8d670de0b6b3a7640000610f7f60285460275461353690919063ffffffff16565b61354c90919063ffffffff16565b90506000610fc2670de0b6b3a7640000610fb460195460265461353690919063ffffffff16565b61354c90919063ffffffff16565b90506000610fdb8360205461356290919063ffffffff16565b9050610ff0848361356290919063ffffffff16565b602b819055506000611025670de0b6b3a7640000611017848961353690919063ffffffff16565b61354c90919063ffffffff16565b9050611096600a60009054906101000a900473ffffffffffffffffffffffffffffffffffffffff1682600960009054906101000a900473ffffffffffffffffffffffffffffffffffffffff1673ffffffffffffffffffffffffffffffffffffffff166135789092919063ffffffff16565b600a60009054906101000a900473ffffffffffffffffffffffffffffffffffffffff1673ffffffffffffffffffffffffffffffffffffffff1663f305d719602b54600960009054906101000a900473ffffffffffffffffffffffffffffffffffffffff168460008030426040518863ffffffff1660e01b815260040161112196959493929190614e77565b6060604051808303818588803b15801561113a57600080fd5b505af115801561114e573d6000803e3d6000fd5b50505050506040513d601f19601f820116820180604052508101906111739190614744565b9091509050602a6000829190505550600760009054906101000a900473ffffffffffffffffffffffffffffffffffffffff1673ffffffffffffffffffffffffffffffffffffffff16630f42949a602654602b546040518363ffffffff1660e01b81526004016111e39291906152f6565b600060405180830381600087803b1580156111fd57600080fd5b505af1158015611211573d6000803e3d6000fd5b50505050600860009054906101000a900473ffffffffffffffffffffffffffffffffffffffff1673ffffffffffffffffffffffffffffffffffffffff166108fc869081150290604051600060405180830381858888f1935050505015801561127d573d6000803e3d6000fd5b506112ed600860009054906101000a900473ffffffffffffffffffffffffffffffffffffffff1685600960009054906101000a900473ffffffffffffffffffffffffffffffffffffffff1673ffffffffffffffffffffffffffffffffffffffff166136d69092919063ffffffff16565b6112f561237b565b73ffffffffffffffffffffffffffffffffffffffff166108fc479081150290604051600060405180830381858888f1935050505015801561133a573d6000803e3d6000fd5b506113aa61134661237b565b61136260275461135461375c565b61356290919063ffffffff16565b600960009054906101000a900473ffffffffffffffffffffffffffffffffffffffff1673ffffffffffffffffffffffffffffffffffffffff166136d69092919063ffffffff16565b6113b261375c565b602754146113e9577f4e487b7100000000000000000000000000000000000000000000000000000000600052600160045260246000fd5b5050505050506001600381905550565b6002600354141561143f576040517f08c379a00000000000000000000000000000000000000000000000000000000081526004016114369061529b565b60405180910390fd5b600260038190555060036000541461148c576040517f08c379a0000000000000000000000000000000000000000000000000000000008152600401611483906151bb565b60405180910390fd5b60006006600061149a6133ec565b73ffffffffffffffffffffffffffffffffffffffff1673ffffffffffffffffffffffffffffffffffffffff1681526020019081526020016000205411611515576040517f08c379a000000000000000000000000000000000000000000000000000000000815260040161150c9061525b565b60405180910390fd5b6000600660006115236133ec565b73ffffffffffffffffffffffffffffffffffffffff1673ffffffffffffffffffffffffffffffffffffffff16815260200190815260200160002054905060006006600061156e6133ec565b73ffffffffffffffffffffffffffffffffffffffff1673ffffffffffffffffffffffffffffffffffffffff168152602001908152602001600020819055506116006115b76133ec565b82600960009054906101000a900473ffffffffffffffffffffffffffffffffffffffff1673ffffffffffffffffffffffffffffffffffffffff166136d69092919063ffffffff16565b6116086133ec565b73ffffffffffffffffffffffffffffffffffffffff167f47cee97cb7acd717b3c0aa1435d004cd5b3c8c57d70dbceb4e4458bbd60e39d48260405161164d91906152db565b60405180910390a2506001600381905550565b600260035414156116a6576040517f08c379a000000000000000000000000000000000000000000000000000000000815260040161169d9061529b565b60405180910390fd5b600260038190555060026116b86123a5565b14806116d5575042601854111580156116d45750602254602654105b5b611714576040517f08c379a000000000000000000000000000000000000000000000000000000000815260040161170b906150bb565b60405180910390fd5b6000600560006117226133ec565b73ffffffffffffffffffffffffffffffffffffffff1673ffffffffffffffffffffffffffffffffffffffff16815260200190815260200160002054905060006005600061176d6133ec565b73ffffffffffffffffffffffffffffffffffffffff1673ffffffffffffffffffffffffffffffffffffffff168152602001908152602001600020819055506117b36133ec565b73ffffffffffffffffffffffffffffffffffffffff166108fc829081150290604051600060405180830381858888f193505050501580156117f8573d6000803e3d6000fd5b506118016133ec565b73ffffffffffffffffffffffffffffffffffffffff167fbb28353e4598c3b9199101a66e0989549b659a59a54d2c27fbb183f1932c8e6d8260405161184691906152db565b60405180910390a2506001600381905550565b7f000000000000000000000000000000000000000000000000000000000000000081565b600260035414156118c3576040517f08c379a00000000000000000000000000000000000000000000000000000000081526004016118ba9061529b565b60405180910390fd5b6002600381905550600080541461190f576040517f08c379a0000000000000000000000000000000000000000000000000000000008152600401611906906150db565b60405180910390fd5b601b60009054906101000a900460ff16156119b857601d60006119306133ec565b73ffffffffffffffffffffffffffffffffffffffff1673ffffffffffffffffffffffffffffffffffffffff16815260200190815260200160002060009054906101000a900460ff166119b7576040517f08c379a00000000000000000000000000000000000000000000000000000000081526004016119ae9061511b565b60405180910390fd5b5b60175442101580156119cc57506018544211155b611a0b576040517f08c379a0000000000000000000000000000000000000000000000000000000008152600401611a029061519b565b60405180910390fd5b611a203460265461348d90919063ffffffff16565b6023541015611a64576040517f08c379a0000000000000000000000000000000000000000000000000000000008152600401611a5b906151fb565b60405180910390fd5b602554611ac03460056000611a776133ec565b73ffffffffffffffffffffffffffffffffffffffff1673ffffffffffffffffffffffffffffffffffffffff1681526020019081526020016000205461348d90919063ffffffff16565b1115611b01576040517f08c379a0000000000000000000000000000000000000000000000000000000008152600401611af89061513b565b60405180910390fd5b600060056000611b0f6133ec565b73ffffffffffffffffffffffffffffffffffffffff1673ffffffffffffffffffffffffffffffffffffffff168152602001908152602001600020541415611bbb576004611b5a6133ec565b9080600181540180825580915050600190039060005260206000200160009091909190916101000a81548173ffffffffffffffffffffffffffffffffffffffff021916908373ffffffffffffffffffffffffffffffffffffffff1602179055505b6000611c46600a60149054906101000a900460ff16600a611bdc9190615616565b611c38601e54611c2a670de0b6b3a7640000611c1c600a60149054906101000a900460ff16600a611c0d9190615616565b3461353690919063ffffffff16565b61354c90919063ffffffff16565b61353690919063ffffffff16565b61354c90919063ffffffff16565b9050611ca13460056000611c586133ec565b73ffffffffffffffffffffffffffffffffffffffff1673ffffffffffffffffffffffffffffffffffffffff1681526020019081526020016000205461348d90919063ffffffff16565b60056000611cad6133ec565b73ffffffffffffffffffffffffffffffffffffffff1673ffffffffffffffffffffffffffffffffffffffff16815260200190815260200160002081905550611d448160066000611cfb6133ec565b73ffffffffffffffffffffffffffffffffffffffff1673ffffffffffffffffffffffffffffffffffffffff1681526020019081526020016000205461348d90919063ffffffff16565b60066000611d506133ec565b73ffffffffffffffffffffffffffffffffffffffff1673ffffffffffffffffffffffffffffffffffffffff16815260200190815260200160002081905550611da33460265461348d90919063ffffffff16565b602681905550611dbe8160275461348d90919063ffffffff16565b602781905550611dcc6133ec565b73ffffffffffffffffffffffffffffffffffffffff167f2499a5330ab0979cc612135e7883ebc3cd5c9f7a8508f042540c34723348f63234604051611e1191906152db565b60405180910390a2506001600381905550565b60026003541415611e6a576040517f08c379a0000000000000000000000000000000000000000000000000000000008152600401611e619061529b565b60405180910390fd5b6002600381905550600360005414611eb7576040517f08c379a0000000000000000000000000000000000000000000000000000000008152600401611eae906151bb565b60405180910390fd5b611ebf6133ec565b73ffffffffffffffffffffffffffffffffffffffff16611edd61237b565b73ffffffffffffffffffffffffffffffffffffffff1614611f33576040517f08c379a0000000000000000000000000000000000000000000000000000000008152600401611f2a906151db565b60405180910390fd5b426029541115611f78576040517f08c379a0000000000000000000000000000000000000000000000000000000008152600401611f6f9061515b565b60405180910390fd5b611fce600a60009054906101000a900473ffffffffffffffffffffffffffffffffffffffff16602a54611fa961380e565b73ffffffffffffffffffffffffffffffffffffffff166135789092919063ffffffff16565b600a60009054906101000a900473ffffffffffffffffffffffffffffffffffffffff1673ffffffffffffffffffffffffffffffffffffffff166302751cec600960009054906101000a900473ffffffffffffffffffffffffffffffffffffffff16602a5460008061203d61237b565b426040518763ffffffff1660e01b815260040161205f96959493929190614e77565b6040805180830381600087803b15801561207857600080fd5b505af115801561208c573d6000803e3d6000fd5b505050506040513d601f19601f820116820180604052508101906120b09190614708565b50506000602a81905550600760009054906101000a900473ffffffffffffffffffffffffffffffffffffffff1673ffffffffffffffffffffffffffffffffffffffff16630373ad78602b546040518263ffffffff1660e01b815260040161211791906152db565b600060405180830381600087803b15801561213157600080fd5b505af1158015612145573d6000803e3d6000fd5b505050506001600381905550565b606060048054806020026020016040519081016040528092919081815260200182805480156121d757602002820191906000526020600020905b8160009054906101000a900473ffffffffffffffffffffffffffffffffffffffff1673ffffffffffffffffffffffffffffffffffffffff168152602001906001019080831161218d575b5050505050905090565b6121e96133ec565b73ffffffffffffffffffffffffffffffffffffffff1661220761237b565b73ffffffffffffffffffffffffffffffffffffffff161461225d576040517f08c379a0000000000000000000000000000000000000000000000000000000008152600401612254906151db565b60405180910390fd5b6122676000613a00565b565b600080600560008473ffffffffffffffffffffffffffffffffffffffff1673ffffffffffffffffffffffffffffffffffffffff16815260200190815260200160002054600660008573ffffffffffffffffffffffffffffffffffffffff1673ffffffffffffffffffffffffffffffffffffffff1681526020019081526020016000205491509150915091565b6122fd6133ec565b73ffffffffffffffffffffffffffffffffffffffff1661231b61237b565b73ffffffffffffffffffffffffffffffffffffffff1614612371576040517f08c379a0000000000000000000000000000000000000000000000000000000008152600401612368906151db565b60405180910390fd5b612379613ac6565b565b6000600260009054906101000a900473ffffffffffffffffffffffffffffffffffffffff16905090565b60008054905090565b600073ffffffffffffffffffffffffffffffffffffffff166123ce61237b565b73ffffffffffffffffffffffffffffffffffffffff1614612424576040517f08c379a000000000000000000000000000000000000000000000000000000000815260040161241b9061501b565b60405180910390fd5b8860288190555089600860006101000a81548173ffffffffffffffffffffffffffffffffffffffff021916908373ffffffffffffffffffffffffffffffffffffffff160217905550876000600281106124a6577f4e487b7100000000000000000000000000000000000000000000000000000000600052603260045260246000fd5b6020020151600960006101000a81548173ffffffffffffffffffffffffffffffffffffffff021916908373ffffffffffffffffffffffffffffffffffffffff16021790555087600160028110612525577f4e487b7100000000000000000000000000000000000000000000000000000000600052603260045260246000fd5b6020020151600a60006101000a81548173ffffffffffffffffffffffffffffffffffffffff021916908373ffffffffffffffffffffffffffffffffffffffff160217905550876000600281106125a4577f4e487b7100000000000000000000000000000000000000000000000000000000600052603260045260246000fd5b602002015173ffffffffffffffffffffffffffffffffffffffff1663313ce5676040518163ffffffff1660e01b815260040160206040518083038186803b1580156125ee57600080fd5b505afa158015612602573d6000803e3d6000fd5b505050506040513d601f19601f820116820180604052508101906126269190614793565b600a60146101000a81548160ff021916908360ff16021790555086600b90600c612651929190613f59565b508560006002811061268c577f4e487b7100000000000000000000000000000000000000000000000000000000600052603260045260246000fd5b6020020151601781905550856001600281106126d1577f4e487b7100000000000000000000000000000000000000000000000000000000600052603260045260246000fd5b602002015160188190555084600060048110612716577f4e487b7100000000000000000000000000000000000000000000000000000000600052603260045260246000fd5b6020020151601e819055508460016004811061275b577f4e487b7100000000000000000000000000000000000000000000000000000000600052603260045260246000fd5b6020020151602181905550846002600481106127a0577f4e487b7100000000000000000000000000000000000000000000000000000000600052603260045260246000fd5b6020020151601f81905550846003600481106127e5577f4e487b7100000000000000000000000000000000000000000000000000000000600052603260045260246000fd5b60200201516020819055508360006002811061282a577f4e487b7100000000000000000000000000000000000000000000000000000000600052603260045260246000fd5b60200201516022819055508360016002811061286f577f4e487b7100000000000000000000000000000000000000000000000000000000600052603260045260246000fd5b6020020151602381905550826000600281106128b4577f4e487b7100000000000000000000000000000000000000000000000000000000600052603260045260246000fd5b6020020151602481905550826001600281106128f9577f4e487b7100000000000000000000000000000000000000000000000000000000600052603260045260246000fd5b60200201516025819055508160006002811061293e577f4e487b7100000000000000000000000000000000000000000000000000000000600052603260045260246000fd5b602002015160198190555081600160028110612983577f4e487b7100000000000000000000000000000000000000000000000000000000600052603260045260246000fd5b6020020151601a8190555080601b60006101000a81548160ff0219169083151502179055506129b06133ec565b600760006101000a81548173ffffffffffffffffffffffffffffffffffffffff021916908373ffffffffffffffffffffffffffffffffffffffff1602179055506129f98b613a00565b5050505050505050505050565b612a0e6133ec565b73ffffffffffffffffffffffffffffffffffffffff16612a2c61237b565b73ffffffffffffffffffffffffffffffffffffffff1614612a82576040517f08c379a0000000000000000000000000000000000000000000000000000000008152600401612a79906151db565b60405180910390fd5b6000805414612ac6576040517f08c379a0000000000000000000000000000000000000000000000000000000008152600401612abd906150db565b60405180910390fd5b80601b60006101000a81548160ff0219169083151502179055507f95ec290351e1f741d1d2977adb35606438854388d4bbb5346920dc15925081e081604051612b0f9190614f57565b60405180910390a150565b612b226133ec565b73ffffffffffffffffffffffffffffffffffffffff16612b4061237b565b73ffffffffffffffffffffffffffffffffffffffff1614612b96576040517f08c379a0000000000000000000000000000000000000000000000000000000008152600401612b8d906151db565b60405180910390fd5b6000805414612bda576040517f08c379a0000000000000000000000000000000000000000000000000000000008152600401612bd1906150db565b60405180910390fd5b60008111612c1d576040517f08c379a0000000000000000000000000000000000000000000000000000000008152600401612c149061503b565b60405180910390fd5b612c73612c286133ec565b3083600960009054906101000a900473ffffffffffffffffffffffffffffffffffffffff1673ffffffffffffffffffffffffffffffffffffffff16613b53909392919063ffffffff16565b612c7b6133ec565b73ffffffffffffffffffffffffffffffffffffffff167fbc7c8a4d8049a3f99a02f2a20640c206a2e4d3f2fa54fd20da9f01fda3620cda82604051612cc091906152db565b60405180910390a250565b612cd36133ec565b73ffffffffffffffffffffffffffffffffffffffff16612cf161237b565b73ffffffffffffffffffffffffffffffffffffffff1614612d47576040517f08c379a0000000000000000000000000000000000000000000000000000000008152600401612d3e906151db565b60405180910390fd5b612d4f613bdc565b565b612d596133ec565b73ffffffffffffffffffffffffffffffffffffffff16612d7761237b565b73ffffffffffffffffffffffffffffffffffffffff1614612dcd576040517f08c379a0000000000000000000000000000000000000000000000000000000008152600401612dc4906151db565b60405180910390fd5b6000805414612e11576040517f08c379a0000000000000000000000000000000000000000000000000000000008152600401612e08906150db565b60405180910390fd5b60005b815181101561313057600073ffffffffffffffffffffffffffffffffffffffff16828281518110612e6e577f4e487b7100000000000000000000000000000000000000000000000000000000600052603260045260246000fd5b602002602001015173ffffffffffffffffffffffffffffffffffffffff161415612ecd576040517f08c379a0000000000000000000000000000000000000000000000000000000008152600401612ec49061523b565b60405180910390fd5b601d6000838381518110612f0a577f4e487b7100000000000000000000000000000000000000000000000000000000600052603260045260246000fd5b602002602001015173ffffffffffffffffffffffffffffffffffffffff1673ffffffffffffffffffffffffffffffffffffffff16815260200190815260200160002060009054906101000a900460ff1661311d576001601d6000848481518110612f9d577f4e487b7100000000000000000000000000000000000000000000000000000000600052603260045260246000fd5b602002602001015173ffffffffffffffffffffffffffffffffffffffff1673ffffffffffffffffffffffffffffffffffffffff16815260200190815260200160002060006101000a81548160ff021916908315150217905550601c828281518110613031577f4e487b7100000000000000000000000000000000000000000000000000000000600052603260045260246000fd5b60200260200101519080600181540180825580915050600190039060005260206000200160009091909190916101000a81548173ffffffffffffffffffffffffffffffffffffffff021916908373ffffffffffffffffffffffffffffffffffffffff1602179055508181815181106130d2577f4e487b7100000000000000000000000000000000000000000000000000000000600052603260045260246000fd5b602002602001015173ffffffffffffffffffffffffffffffffffffffff167f4790a4adb426ca2345bb5108f6e454eae852a7bf687544cd66a7270dff3a41d660405160405180910390a25b80806131289061590e565b915050612e14565b5050565b6002600354141561317a576040517f08c379a00000000000000000000000000000000000000000000000000000000081526004016131719061529b565b60405180910390fd5b600260038190555061318a6133ec565b73ffffffffffffffffffffffffffffffffffffffff166131a861237b565b73ffffffffffffffffffffffffffffffffffffffff16146131fe576040517f08c379a00000000000000000000000000000000000000000000000000000000081526004016131f5906151db565b60405180910390fd5b60026132086123a5565b14613248576040517f08c379a000000000000000000000000000000000000000000000000000000000815260040161323f906150bb565b60405180910390fd5b600061325261375c565b90506132a861325f6133ec565b82600960009054906101000a900473ffffffffffffffffffffffffffffffffffffffff1673ffffffffffffffffffffffffffffffffffffffff166136d69092919063ffffffff16565b7f15f56d0336a9b0b6dbce0b429d80ef25928d93e95a7056f429876ad93acb6a61816040516132d791906152db565b60405180910390a1506001600381905550565b6000602654905090565b6132fc6133ec565b73ffffffffffffffffffffffffffffffffffffffff1661331a61237b565b73ffffffffffffffffffffffffffffffffffffffff1614613370576040517f08c379a0000000000000000000000000000000000000000000000000000000008152600401613367906151db565b60405180910390fd5b600073ffffffffffffffffffffffffffffffffffffffff168173ffffffffffffffffffffffffffffffffffffffff1614156133e0576040517f08c379a00000000000000000000000000000000000000000000000000000000081526004016133d79061505b565b60405180910390fd5b6133e981613a00565b50565b600033905090565b600060016000541461343b576040517f08c379a00000000000000000000000000000000000000000000000000000000081526004016134329061507b565b60405180910390fd5b6000808190555060015442613450919061578e565b90507fe53a714be5f4cafd59534776fb9c70cb9d78291e7ea841bb0180f59b64ace03760006040516134829190614f8d565b60405180910390a190565b6000818361349b919061553c565b905092915050565b6000805414806134b557506001600054145b6134f4576040517f08c379a00000000000000000000000000000000000000000000000000000000081526004016134eb9061517b565b60405180910390fd5b60036000819055507fe53a714be5f4cafd59534776fb9c70cb9d78291e7ea841bb0180f59b64ace037600360405161352c9190614fde565b60405180910390a1565b600081836135449190615734565b905092915050565b6000818361355a9190615592565b905092915050565b60008183613570919061578e565b905092915050565b6000811480613611575060008373ffffffffffffffffffffffffffffffffffffffff1663dd62ed3e30856040518363ffffffff1660e01b81526004016135bf929190614dee565b60206040518083038186803b1580156135d757600080fd5b505afa1580156135eb573d6000803e3d6000fd5b505050506040513d601f19601f8201168201806040525081019061360f91906146df565b145b613650576040517f08c379a0000000000000000000000000000000000000000000000000000000008152600401613647906152bb565b60405180910390fd5b6136d18363095ea7b360e01b848460405160240161366f929190614e4e565b604051602081830303815290604052907bffffffffffffffffffffffffffffffffffffffffffffffffffffffff19166020820180517bffffffffffffffffffffffffffffffffffffffffffffffffffffffff8381831617835250505050613c6f565b505050565b6137578363a9059cbb60e01b84846040516024016136f5929190614e4e565b604051602081830303815290604052907bffffffffffffffffffffffffffffffffffffffffffffffffffffffff19166020820180517bffffffffffffffffffffffffffffffffffffffffffffffffffffffff8381831617835250505050613c6f565b505050565b6000600960009054906101000a900473ffffffffffffffffffffffffffffffffffffffff1673ffffffffffffffffffffffffffffffffffffffff166370a08231306040518263ffffffff1660e01b81526004016137b99190614dd3565b60206040518083038186803b1580156137d157600080fd5b505afa1580156137e5573d6000803e3d6000fd5b505050506040513d601f19601f8201168201806040525081019061380991906146df565b905090565b6000600a60009054906101000a900473ffffffffffffffffffffffffffffffffffffffff1673ffffffffffffffffffffffffffffffffffffffff1663c45a01556040518163ffffffff1660e01b815260040160206040518083038186803b15801561387857600080fd5b505afa15801561388c573d6000803e3d6000fd5b505050506040513d601f19601f820116820180604052508101906138b091906144af565b73ffffffffffffffffffffffffffffffffffffffff1663e6a43905600960009054906101000a900473ffffffffffffffffffffffffffffffffffffffff16600a60009054906101000a900473ffffffffffffffffffffffffffffffffffffffff1673ffffffffffffffffffffffffffffffffffffffff1663ad5c46486040518163ffffffff1660e01b815260040160206040518083038186803b15801561395657600080fd5b505afa15801561396a573d6000803e3d6000fd5b505050506040513d601f19601f8201168201806040525081019061398e91906144af565b6040518363ffffffff1660e01b81526004016139ab929190614dee565b60206040518083038186803b1580156139c357600080fd5b505afa1580156139d7573d6000803e3d6000fd5b505050506040513d601f19601f820116820180604052508101906139fb91906144af565b905090565b6000600260009054906101000a900473ffffffffffffffffffffffffffffffffffffffff16905081600260006101000a81548173ffffffffffffffffffffffffffffffffffffffff021916908373ffffffffffffffffffffffffffffffffffffffff1602179055508173ffffffffffffffffffffffffffffffffffffffff168173ffffffffffffffffffffffffffffffffffffffff167f8be0079c531659141344cd1fd0a4f28419497f9722a3daafe3b4186f6b6457e060405160405180910390a35050565b6000805414613b0a576040517f08c379a0000000000000000000000000000000000000000000000000000000008152600401613b01906150db565b60405180910390fd5b6001600081905550426001819055507fe53a714be5f4cafd59534776fb9c70cb9d78291e7ea841bb0180f59b64ace0376001604051613b499190614fa8565b60405180910390a1565b613bd6846323b872dd60e01b858585604051602401613b7493929190614e17565b604051602081830303815290604052907bffffffffffffffffffffffffffffffffffffffffffffffffffffffff19166020820180517bffffffffffffffffffffffffffffffffffffffffffffffffffffffff8381831617835250505050613c6f565b50505050565b600080541480613bee57506001600054145b613c2d576040517f08c379a0000000000000000000000000000000000000000000000000000000008152600401613c249061517b565b60405180910390fd5b60026000819055507fe53a714be5f4cafd59534776fb9c70cb9d78291e7ea841bb0180f59b64ace0376002604051613c659190614fc3565b60405180910390a1565b6000613cd1826040518060400160405280602081526020017f5361666545524332303a206c6f772d6c6576656c2063616c6c206661696c65648152508573ffffffffffffffffffffffffffffffffffffffff16613d369092919063ffffffff16565b9050600081511115613d315780806020019051810190613cf1919061468d565b613d30576040517f08c379a0000000000000000000000000000000000000000000000000000000008152600401613d279061527b565b60405180910390fd5b5b505050565b6060613d458484600085613d4e565b90509392505050565b606082471015613d93576040517f08c379a0000000000000000000000000000000000000000000000000000000008152600401613d8a906150fb565b60405180910390fd5b613d9c85613e62565b613ddb576040517f08c379a0000000000000000000000000000000000000000000000000000000008152600401613dd29061521b565b60405180910390fd5b6000808673ffffffffffffffffffffffffffffffffffffffff168587604051613e049190614dbc565b60006040518083038185875af1925050503d8060008114613e41576040519150601f19603f3d011682016040523d82523d6000602084013e613e46565b606091505b5091509150613e56828286613e85565b92505050949350505050565b6000808273ffffffffffffffffffffffffffffffffffffffff163b119050919050565b60608315613e9557829050613ee5565b600083511115613ea85782518084602001fd5b816040517f08c379a0000000000000000000000000000000000000000000000000000000008152600401613edc9190614ff9565b60405180910390fd5b9392505050565b6040518060400160405280600290602082028036833780820191505090505090565b604051806101800160405280600c905b6060815260200190600190039081613f1e5790505090565b604051806101a00160405280600d90602082028036833780820191505090505090565b82600c8101928215613f9b579160200282015b82811115613f9a578251829080519060200190613f8a929190613fac565b5091602001919060010190613f6c565b5b509050613fa89190614032565b5090565b828054613fb8906158ab565b90600052602060002090601f016020900481019282613fda5760008555614021565b82601f10613ff357805160ff1916838001178555614021565b82800160010185558215614021579182015b82811115614020578251825591602001919060010190614005565b5b50905061402e9190614056565b5090565b5b8082111561405257600081816140499190614073565b50600101614033565b5090565b5b8082111561406f576000816000905550600101614057565b5090565b50805461407f906158ab565b6000825580601f1061409157506140b0565b601f0160209004906000526020600020908101906140af9190614056565b5b50565b60006140c66140c184615344565b61531f565b905080828560208602820111156140dc57600080fd5b60005b8581101561410c57816140f28882614303565b8452602084019350602083019250506001810190506140df565b5050509392505050565b60006141296141248461536a565b61531f565b9050808382526020820190508285602086028201111561414857600080fd5b60005b85811015614178578161415e8882614303565b84526020840193506020830192505060018101905061414b565b5050509392505050565b600061419561419084615396565b61531f565b905080828560208602820111156141ab57600080fd5b60005b858110156141f557813567ffffffffffffffff8111156141cd57600080fd5b8086016141da898261441d565b855260208501945060208401935050506001810190506141ae565b5050509392505050565b600061421261420d846153bc565b61531f565b9050808285602086028201111561422857600080fd5b60005b85811015614258578161423e8882614447565b84526020840193506020830192505060018101905061422b565b5050509392505050565b6000614275614270846153e2565b61531f565b9050808285602086028201111561428b57600080fd5b60005b858110156142bb57816142a18882614447565b84526020840193506020830192505060018101905061428e565b5050509392505050565b60006142d86142d384615408565b61531f565b9050828152602081018484840111156142f057600080fd5b6142fb848285615869565b509392505050565b60008135905061431281615e4f565b92915050565b60008151905061432781615e4f565b92915050565b600082601f83011261433e57600080fd5b600261434b8482856140b3565b91505092915050565b600082601f83011261436557600080fd5b8135614375848260208601614116565b91505092915050565b600082601f83011261438f57600080fd5b600c61439c848285614182565b91505092915050565b600082601f8301126143b657600080fd5b60026143c38482856141ff565b91505092915050565b600082601f8301126143dd57600080fd5b60046143ea848285614262565b91505092915050565b60008135905061440281615e66565b92915050565b60008151905061441781615e66565b92915050565b600082601f83011261442e57600080fd5b813561443e8482602086016142c5565b91505092915050565b60008135905061445681615e7d565b92915050565b60008151905061446b81615e7d565b92915050565b60008151905061448081615e94565b92915050565b60006020828403121561449857600080fd5b60006144a684828501614303565b91505092915050565b6000602082840312156144c157600080fd5b60006144cf84828501614318565b91505092915050565b60008060008060008060008060008060006102608c8e0312156144fa57600080fd5b60006145088e828f01614303565b9b505060206145198e828f01614303565b9a5050604061452a8e828f01614447565b995050606061453b8e828f0161432d565b98505060a08c013567ffffffffffffffff81111561455857600080fd5b6145648e828f0161437e565b97505060c06145758e828f016143a5565b9650506101006145878e828f016143cc565b9550506101806145998e828f016143a5565b9450506101c06145ab8e828f016143a5565b9350506102006145bd8e828f016143a5565b9250506102406145cf8e828f016143f3565b9150509295989b509295989b9093969950565b6000602082840312156145f457600080fd5b600082013567ffffffffffffffff81111561460e57600080fd5b61461a84828501614354565b91505092915050565b60006020828403121561463557600080fd5b600082013567ffffffffffffffff81111561464f57600080fd5b61465b8482850161437e565b91505092915050565b60006020828403121561467657600080fd5b6000614684848285016143f3565b91505092915050565b60006020828403121561469f57600080fd5b60006146ad84828501614408565b91505092915050565b6000602082840312156146c857600080fd5b60006146d684828501614447565b91505092915050565b6000602082840312156146f157600080fd5b60006146ff8482850161445c565b91505092915050565b6000806040838503121561471b57600080fd5b60006147298582860161445c565b925050602061473a8582860161445c565b9150509250929050565b60008060006060848603121561475957600080fd5b60006147678682870161445c565b93505060206147788682870161445c565b92505060406147898682870161445c565b9150509250925092565b6000602082840312156147a557600080fd5b60006147b384828501614471565b91505092915050565b60006147c88383614800565b60208301905092915050565b60006147e083836149bd565b905092915050565b60006147f48383614d9e565b60208301905092915050565b614809816157c2565b82525050565b614818816157c2565b82525050565b61482781615467565b61483181846154dd565b925061483c82615439565b8060005b8381101561486d57815161485487826147bc565b965061485f836154a9565b925050600181019050614840565b505050505050565b600061488082615472565b61488a81856154e8565b935061489583615443565b8060005b838110156148c65781516148ad88826147bc565b97506148b8836154b6565b925050600181019050614899565b5085935050505092915050565b60006148de8261547d565b6148e881856154f9565b9350836020820285016148fa85615453565b8060005b85811015614936578484038952815161491785826147d4565b9450614922836154c3565b925060208a019950506001810190506148fe565b50829750879550505050505092915050565b61495181615488565b61495b8184615504565b92506149668261545d565b8060005b8381101561499757815161497e87826147e8565b9650614989836154d0565b92505060018101905061496a565b505050505050565b6149a8816157d4565b82525050565b6149b7816157e0565b82525050565b60006149c882615493565b6149d2818561550f565b93506149e2818560208601615878565b6149eb81615a13565b840191505092915050565b6000614a0182615493565b614a0b8185615520565b9350614a1b818560208601615878565b80840191505092915050565b614a3081615821565b82525050565b614a3f81615833565b82525050565b614a4e81615845565b82525050565b614a5d81615857565b82525050565b6000614a6e8261549e565b614a78818561552b565b9350614a88818560208601615878565b614a9181615a13565b840191505092915050565b6000614aa960198361552b565b9150614ab482615a31565b602082019050919050565b6000614acc601c8361552b565b9150614ad782615a5a565b602082019050919050565b6000614aef60268361552b565b9150614afa82615a83565b604082019050919050565b6000614b1260118361552b565b9150614b1d82615ad2565b602082019050919050565b6000614b35601a8361552b565b9150614b4082615afb565b602082019050919050565b6000614b58601a8361552b565b9150614b6382615b24565b602082019050919050565b6000614b7b60118361552b565b9150614b8682615b4d565b602082019050919050565b6000614b9e60268361552b565b9150614ba982615b76565b604082019050919050565b6000614bc1601a8361552b565b9150614bcc82615bc5565b602082019050919050565b6000614be4601e8361552b565b9150614bef82615bee565b602082019050919050565b6000614c0760118361552b565b9150614c1282615c17565b602082019050919050565b6000614c2a601b8361552b565b9150614c3582615c40565b602082019050919050565b6000614c4d60128361552b565b9150614c5882615c69565b602082019050919050565b6000614c7060148361552b565b9150614c7b82615c92565b602082019050919050565b6000614c9360208361552b565b9150614c9e82615cbb565b602082019050919050565b6000614cb660168361552b565b9150614cc182615ce4565b602082019050919050565b6000614cd9601d8361552b565b9150614ce482615d0d565b602082019050919050565b6000614cfc60158361552b565b9150614d0782615d36565b602082019050919050565b6000614d1f60148361552b565b9150614d2a82615d5f565b602082019050919050565b6000614d42602a8361552b565b9150614d4d82615d88565b604082019050919050565b6000614d65601f8361552b565b9150614d7082615dd7565b602082019050919050565b6000614d8860368361552b565b9150614d9382615e00565b604082019050919050565b614da78161580a565b82525050565b614db68161580a565b82525050565b6000614dc882846149f6565b915081905092915050565b6000602082019050614de8600083018461480f565b92915050565b6000604082019050614e03600083018561480f565b614e10602083018461480f565b9392505050565b6000606082019050614e2c600083018661480f565b614e39602083018561480f565b614e466040830184614dad565b949350505050565b6000604082019050614e63600083018561480f565b614e706020830184614dad565b9392505050565b600060c082019050614e8c600083018961480f565b614e996020830188614dad565b614ea66040830187614a27565b614eb36060830186614a27565b614ec0608083018561480f565b614ecd60a0830184614dad565b979650505050505050565b600061024082019050614eee600083018861481e565b8181036040830152614f0081876148d3565b9050614f0f6060830186614948565b614f1d61020083018561499f565b614f2b610220830184614dad565b9695505050505050565b60006020820190508181036000830152614f4f8184614875565b905092915050565b6000602082019050614f6c600083018461499f565b92915050565b6000602082019050614f8760008301846149ae565b92915050565b6000602082019050614fa26000830184614a27565b92915050565b6000602082019050614fbd6000830184614a36565b92915050565b6000602082019050614fd86000830184614a45565b92915050565b6000602082019050614ff36000830184614a54565b92915050565b600060208201905081810360008301526150138184614a63565b905092915050565b6000602082019050818103600083015261503481614a9c565b9050919050565b6000602082019050818103600083015261505481614abf565b9050919050565b6000602082019050818103600083015261507481614ae2565b9050919050565b6000602082019050818103600083015261509481614b05565b9050919050565b600060208201905081810360008301526150b481614b28565b9050919050565b600060208201905081810360008301526150d481614b4b565b9050919050565b600060208201905081810360008301526150f481614b6e565b9050919050565b6000602082019050818103600083015261511481614b91565b9050919050565b6000602082019050818103600083015261513481614bb4565b9050919050565b6000602082019050818103600083015261515481614bd7565b9050919050565b6000602082019050818103600083015261517481614bfa565b9050919050565b6000602082019050818103600083015261519481614c1d565b9050919050565b600060208201905081810360008301526151b481614c40565b9050919050565b600060208201905081810360008301526151d481614c63565b9050919050565b600060208201905081810360008301526151f481614c86565b9050919050565b6000602082019050818103600083015261521481614ca9565b9050919050565b6000602082019050818103600083015261523481614ccc565b9050919050565b6000602082019050818103600083015261525481614cef565b9050919050565b6000602082019050818103600083015261527481614d12565b9050919050565b6000602082019050818103600083015261529481614d35565b9050919050565b600060208201905081810360008301526152b481614d58565b9050919050565b600060208201905081810360008301526152d481614d7b565b9050919050565b60006020820190506152f06000830184614dad565b92915050565b600060408201905061530b6000830185614dad565b6153186020830184614dad565b9392505050565b600061532961533a565b905061533582826158dd565b919050565b6000604051905090565b600067ffffffffffffffff82111561535f5761535e6159e4565b5b602082029050919050565b600067ffffffffffffffff821115615385576153846159e4565b5b602082029050602081019050919050565b600067ffffffffffffffff8211156153b1576153b06159e4565b5b602082029050919050565b600067ffffffffffffffff8211156153d7576153d66159e4565b5b602082029050919050565b600067ffffffffffffffff8211156153fd576153fc6159e4565b5b602082029050919050565b600067ffffffffffffffff821115615423576154226159e4565b5b61542c82615a13565b9050602081019050919050565b6000819050919050565b6000819050602082019050919050565b6000819050919050565b6000819050919050565b600060029050919050565b600081519050919050565b6000600c9050919050565b6000600d9050919050565b600081519050919050565b600081519050919050565b6000602082019050919050565b6000602082019050919050565b6000602082019050919050565b6000602082019050919050565b600081905092915050565b600082825260208201905092915050565b600081905092915050565b600081905092915050565b600082825260208201905092915050565b600081905092915050565b600082825260208201905092915050565b60006155478261580a565b91506155528361580a565b9250827fffffffffffffffffffffffffffffffffffffffffffffffffffffffffffffffff0382111561558757615586615957565b5b828201905092915050565b600061559d8261580a565b91506155a88361580a565b9250826155b8576155b7615986565b5b828204905092915050565b6000808291508390505b600185111561560d578086048111156155e9576155e8615957565b5b60018516156155f85780820291505b808102905061560685615a24565b94506155cd565b94509492505050565b60006156218261580a565b915061562c83615814565b92506156597fffffffffffffffffffffffffffffffffffffffffffffffffffffffffffffffff8484615661565b905092915050565b600082615671576001905061572d565b8161567f576000905061572d565b8160018114615695576002811461569f576156ce565b600191505061572d565b60ff8411156156b1576156b0615957565b5b8360020a9150848211156156c8576156c7615957565b5b5061572d565b5060208310610133831016604e8410600b84101617156157035782820a9050838111156156fe576156fd615957565b5b61572d565b61571084848460016155c3565b9250905081840481111561572757615726615957565b5b81810290505b9392505050565b600061573f8261580a565b915061574a8361580a565b9250817fffffffffffffffffffffffffffffffffffffffffffffffffffffffffffffffff048311821515161561578357615782615957565b5b828202905092915050565b60006157998261580a565b91506157a48361580a565b9250828210156157b7576157b6615957565b5b828203905092915050565b60006157cd826157ea565b9050919050565b60008115159050919050565b6000819050919050565b600073ffffffffffffffffffffffffffffffffffffffff82169050919050565b6000819050919050565b600060ff82169050919050565b600061582c8261580a565b9050919050565b600061583e8261580a565b9050919050565b60006158508261580a565b9050919050565b60006158628261580a565b9050919050565b82818337600083830152505050565b60005b8381101561589657808201518184015260208101905061587b565b838111156158a5576000848401525b50505050565b600060028204905060018216806158c357607f821691505b602082108114156158d7576158d66159b5565b5b50919050565b6158e682615a13565b810181811067ffffffffffffffff82111715615905576159046159e4565b5b80604052505050565b60006159198261580a565b91507fffffffffffffffffffffffffffffffffffffffffffffffffffffffffffffffff82141561594c5761594b615957565b5b600182019050919050565b7f4e487b7100000000000000000000000000000000000000000000000000000000600052601160045260246000fd5b7f4e487b7100000000000000000000000000000000000000000000000000000000600052601260045260246000fd5b7f4e487b7100000000000000000000000000000000000000000000000000000000600052602260045260246000fd5b7f4e487b7100000000000000000000000000000000000000000000000000000000600052604160045260246000fd5b6000601f19601f8301169050919050565b60008160011c9050919050565b7f53616c653a20414c52454144595f494e495449414c495a454400000000000000600082015250565b7f53616c653a204445504f5349545f414d4f554e545f494e56414c494400000000600082015250565b7f4f776e61626c653a206e6577206f776e657220697320746865207a65726f206160008201527f6464726573730000000000000000000000000000000000000000000000000000602082015250565b7f53746174653a206e6f7420706175736564000000000000000000000000000000600082015250565b7f73746174653a20554e41424c455f544f5f46494e414c495a4544000000000000600082015250565b7f526566756e643a2053414c455f4e4f545f43414e43454c4c4544000000000000600082015250565b7f53746174653a206e6f7420616374697665000000000000000000000000000000600082015250565b7f416464726573733a20696e73756666696369656e742062616c616e636520666f60008201527f722063616c6c0000000000000000000000000000000000000000000000000000602082015250565b7f53616c653a20555345525f4e4f545f57484954454c4953544544000000000000600082015250565b7f53616c653a2050555243484153455f414d4f554e545f45584345454445440000600082015250565b7f4c69717569646974793a204c4f434b4544000000000000000000000000000000600082015250565b7f53746174653a206e6f7420616374697665206f72207061757365640000000000600082015250565b7f53616c653a20494e56414c49445f444154450000000000000000000000000000600082015250565b7f53746174653a206e6f742066696e616c697a6564000000000000000000000000600082015250565b7f4f776e61626c653a2063616c6c6572206973206e6f7420746865206f776e6572600082015250565b7f53616c652c20484152445f4341505f5245414348454400000000000000000000600082015250565b7f416464726573733a2063616c6c20746f206e6f6e2d636f6e7472616374000000600082015250565b7f49444f53616c653a205a45524f5f414444524553530000000000000000000000600082015250565b7f53616c653a205a45524f5f505552434841534544000000000000000000000000600082015250565b7f5361666545524332303a204552433230206f7065726174696f6e20646964206e60008201527f6f74207375636365656400000000000000000000000000000000000000000000602082015250565b7f5265656e7472616e637947756172643a207265656e7472616e742063616c6c00600082015250565b7f5361666545524332303a20617070726f76652066726f6d206e6f6e2d7a65726f60008201527f20746f206e6f6e2d7a65726f20616c6c6f77616e636500000000000000000000602082015250565b615e58816157c2565b8114615e6357600080fd5b50565b615e6f816157d4565b8114615e7a57600080fd5b50565b615e868161580a565b8114615e9157600080fd5b50565b615e9d81615814565b8114615ea857600080fd5b5056fea2646970667358221220631ad71ad581d7009f799f089f77332510cae33f6288a82daa6eb6fbcfd0f88664736f6c63430008040033",
    "linkReferences": {},
    "deployedLinkReferences": {}
}