{
    "_format": "hh-sol-artifact-1",
    "contractName": "Token",
    "sourceName": "contracts/Token.sol",
    "abi": [
        {
            "inputs": [
                {
                    "internalType": "string",
                    "name": "name",
                    "type": "string"
                },
                {
                    "internalType": "string",
                    "name": "symbol",
                    "type": "string"
                },
                {
                    "internalType": "uint256",
                    "name": "initialSupply",
                    "type": "uint256"
                }
            ],
            "stateMutability": "nonpayable",
            "type": "constructor"
        },
        {
            "anonymous": false,
            "inputs": [
                {
                    "indexed": true,
                    "internalType": "address",
                    "name": "owner",
                    "type": "address"
                },
                {
                    "indexed": true,
                    "internalType": "address",
                    "name": "spender",
                    "type": "address"
                },
                {
                    "indexed": false,
                    "internalType": "uint256",
                    "name": "value",
                    "type": "uint256"
                }
            ],
            "name": "Approval",
            "type": "event"
        },
        {
            "anonymous": false,
            "inputs": [
                {
                    "indexed": true,
                    "internalType": "address",
                    "name": "from",
                    "type": "address"
                },
                {
                    "indexed": true,
                    "internalType": "address",
                    "name": "to",
                    "type": "address"
                },
                {
                    "indexed": false,
                    "internalType": "uint256",
                    "name": "value",
                    "type": "uint256"
                }
            ],
            "name": "Transfer",
            "type": "event"
        },
        {
            "inputs": [
                {
                    "internalType": "address",
                    "name": "owner",
                    "type": "address"
                },
                {
                    "internalType": "address",
                    "name": "spender",
                    "type": "address"
                }
            ],
            "name": "allowance",
            "outputs": [
                {
                    "internalType": "uint256",
                    "name": "",
                    "type": "uint256"
                }
            ],
            "stateMutability": "view",
            "type": "function"
        },
        {
            "inputs": [
                {
                    "internalType": "address",
                    "name": "spender",
                    "type": "address"
                },
                {
                    "internalType": "uint256",
                    "name": "amount",
                    "type": "uint256"
                }
            ],
            "name": "approve",
            "outputs": [
                {
                    "internalType": "bool",
                    "name": "",
                    "type": "bool"
                }
            ],
            "stateMutability": "nonpayable",
            "type": "function"
        },
        {
            "inputs": [
                {
                    "internalType": "address",
                    "name": "account",
                    "type": "address"
                }
            ],
            "name": "balanceOf",
            "outputs": [
                {
                    "internalType": "uint256",
                    "name": "",
                    "type": "uint256"
                }
            ],
            "stateMutability": "view",
            "type": "function"
        },
        {
            "inputs": [
                {
                    "internalType": "uint256",
                    "name": "amount",
                    "type": "uint256"
                }
            ],
            "name": "burn",
            "outputs": [],
            "stateMutability": "nonpayable",
            "type": "function"
        },
        {
            "inputs": [
                {
                    "internalType": "address",
                    "name": "account",
                    "type": "address"
                },
                {
                    "internalType": "uint256",
                    "name": "amount",
                    "type": "uint256"
                }
            ],
            "name": "burnFrom",
            "outputs": [],
            "stateMutability": "nonpayable",
            "type": "function"
        },
        {
            "inputs": [],
            "name": "decimals",
            "outputs": [
                {
                    "internalType": "uint8",
                    "name": "",
                    "type": "uint8"
                }
            ],
            "stateMutability": "view",
            "type": "function"
        },
        {
            "inputs": [
                {
                    "internalType": "address",
                    "name": "spender",
                    "type": "address"
                },
                {
                    "internalType": "uint256",
                    "name": "subtractedValue",
                    "type": "uint256"
                }
            ],
            "name": "decreaseAllowance",
            "outputs": [
                {
                    "internalType": "bool",
                    "name": "",
                    "type": "bool"
                }
            ],
            "stateMutability": "nonpayable",
            "type": "function"
        },
        {
            "inputs": [
                {
                    "internalType": "address",
                    "name": "spender",
                    "type": "address"
                },
                {
                    "internalType": "uint256",
                    "name": "addedValue",
                    "type": "uint256"
                }
            ],
            "name": "increaseAllowance",
            "outputs": [
                {
                    "internalType": "bool",
                    "name": "",
                    "type": "bool"
                }
            ],
            "stateMutability": "nonpayable",
            "type": "function"
        },
        {
            "inputs": [],
            "name": "name",
            "outputs": [
                {
                    "internalType": "string",
                    "name": "",
                    "type": "string"
                }
            ],
            "stateMutability": "view",
            "type": "function"
        },
        {
            "inputs": [],
            "name": "symbol",
            "outputs": [
                {
                    "internalType": "string",
                    "name": "",
                    "type": "string"
                }
            ],
            "stateMutability": "view",
            "type": "function"
        },
        {
            "inputs": [],
            "name": "totalSupply",
            "outputs": [
                {
                    "internalType": "uint256",
                    "name": "",
                    "type": "uint256"
                }
            ],
            "stateMutability": "view",
            "type": "function"
        },
        {
            "inputs": [
                {
                    "internalType": "address",
                    "name": "to",
                    "type": "address"
                },
                {
                    "internalType": "uint256",
                    "name": "amount",
                    "type": "uint256"
                }
            ],
            "name": "transfer",
            "outputs": [
                {
                    "internalType": "bool",
                    "name": "",
                    "type": "bool"
                }
            ],
            "stateMutability": "nonpayable",
            "type": "function"
        },
        {
            "inputs": [
                {
                    "internalType": "address",
                    "name": "from",
                    "type": "address"
                },
                {
                    "internalType": "address",
                    "name": "to",
                    "type": "address"
                },
                {
                    "internalType": "uint256",
                    "name": "amount",
                    "type": "uint256"
                }
            ],
            "name": "transferFrom",
            "outputs": [
                {
                    "internalType": "bool",
                    "name": "",
                    "type": "bool"
                }
            ],
            "stateMutability": "nonpayable",
            "type": "function"
        }
    ],
    "bytecode": "0x60806040523480156200001157600080fd5b5060405162001def38038062001def833981810160405281019062000037919062000363565b8282826200004a6200009f60201b60201c565b83838160039080519060200190620000649291906200022a565b5080600490805190602001906200007d9291906200022a565b505050620000928183620000a760201b60201c565b50505050505050620006bc565b600033905090565b600073ffffffffffffffffffffffffffffffffffffffff168273ffffffffffffffffffffffffffffffffffffffff1614156200011a576040517f08c379a0000000000000000000000000000000000000000000000000000000008152600401620001119062000423565b60405180910390fd5b6200012e600083836200022060201b60201c565b8060026000828254620001429190620004d2565b92505081905550806000808473ffffffffffffffffffffffffffffffffffffffff1673ffffffffffffffffffffffffffffffffffffffff1681526020019081526020016000206000828254620001999190620004d2565b925050819055508173ffffffffffffffffffffffffffffffffffffffff16600073ffffffffffffffffffffffffffffffffffffffff167fddf252ad1be2c89b69c2b068fc378daa952ba7f163c4a11628f55a4df523b3ef8360405162000200919062000445565b60405180910390a36200021c600083836200022560201b60201c565b5050565b505050565b505050565b82805462000238906200056f565b90600052602060002090601f0160209004810192826200025c5760008555620002a8565b82601f106200027757805160ff1916838001178555620002a8565b82800160010185558215620002a8579182015b82811115620002a75782518255916020019190600101906200028a565b5b509050620002b79190620002bb565b5090565b5b80821115620002d6576000816000905550600101620002bc565b5090565b6000620002f1620002eb846200048b565b62000462565b9050828152602081018484840111156200030a57600080fd5b6200031784828562000539565b509392505050565b600082601f8301126200033157600080fd5b815162000343848260208601620002da565b91505092915050565b6000815190506200035d81620006a2565b92915050565b6000806000606084860312156200037957600080fd5b600084015167ffffffffffffffff8111156200039457600080fd5b620003a2868287016200031f565b935050602084015167ffffffffffffffff811115620003c057600080fd5b620003ce868287016200031f565b9250506040620003e1868287016200034c565b9150509250925092565b6000620003fa601f83620004c1565b9150620004078262000679565b602082019050919050565b6200041d816200052f565b82525050565b600060208201905081810360008301526200043e81620003eb565b9050919050565b60006020820190506200045c600083018462000412565b92915050565b60006200046e62000481565b90506200047c8282620005a5565b919050565b6000604051905090565b600067ffffffffffffffff821115620004a957620004a862000639565b5b620004b48262000668565b9050602081019050919050565b600082825260208201905092915050565b6000620004df826200052f565b9150620004ec836200052f565b9250827fffffffffffffffffffffffffffffffffffffffffffffffffffffffffffffffff03821115620005245762000523620005db565b5b828201905092915050565b6000819050919050565b60005b83811015620005595780820151818401526020810190506200053c565b8381111562000569576000848401525b50505050565b600060028204905060018216806200058857607f821691505b602082108114156200059f576200059e6200060a565b5b50919050565b620005b08262000668565b810181811067ffffffffffffffff82111715620005d257620005d162000639565b5b80604052505050565b7f4e487b7100000000000000000000000000000000000000000000000000000000600052601160045260246000fd5b7f4e487b7100000000000000000000000000000000000000000000000000000000600052602260045260246000fd5b7f4e487b7100000000000000000000000000000000000000000000000000000000600052604160045260246000fd5b6000601f19601f8301169050919050565b7f45524332303a206d696e7420746f20746865207a65726f206164647265737300600082015250565b620006ad816200052f565b8114620006b957600080fd5b50565b61172380620006cc6000396000f3fe608060405234801561001057600080fd5b50600436106100cf5760003560e01c806342966c681161008c57806395d89b411161006657806395d89b4114610226578063a457c2d714610244578063a9059cbb14610274578063dd62ed3e146102a4576100cf565b806342966c68146101be57806370a08231146101da57806379cc67901461020a576100cf565b806306fdde03146100d4578063095ea7b3146100f257806318160ddd1461012257806323b872dd14610140578063313ce56714610170578063395093511461018e575b600080fd5b6100dc6102d4565b6040516100e991906110d7565b60405180910390f35b61010c60048036038101906101079190610eb6565b610366565b60405161011991906110bc565b60405180910390f35b61012a610389565b6040516101379190611219565b60405180910390f35b61015a60048036038101906101559190610e67565b610393565b60405161016791906110bc565b60405180910390f35b6101786103c2565b6040516101859190611234565b60405180910390f35b6101a860048036038101906101a39190610eb6565b6103cb565b6040516101b591906110bc565b60405180910390f35b6101d860048036038101906101d39190610ef2565b610475565b005b6101f460048036038101906101ef9190610e02565b610489565b6040516102019190611219565b60405180910390f35b610224600480360381019061021f9190610eb6565b6104d1565b005b61022e6104f1565b60405161023b91906110d7565b60405180910390f35b61025e60048036038101906102599190610eb6565b610583565b60405161026b91906110bc565b60405180910390f35b61028e60048036038101906102899190610eb6565b61066d565b60405161029b91906110bc565b60405180910390f35b6102be60048036038101906102b99190610e2b565b610690565b6040516102cb9190611219565b60405180910390f35b6060600380546102e39061137d565b80601f016020809104026020016040519081016040528092919081815260200182805461030f9061137d565b801561035c5780601f106103315761010080835404028352916020019161035c565b820191906000526020600020905b81548152906001019060200180831161033f57829003601f168201915b5050505050905090565b600080610371610717565b905061037e81858561071f565b600191505092915050565b6000600254905090565b60008061039e610717565b90506103ab8582856108ea565b6103b6858585610976565b60019150509392505050565b60006012905090565b6000806103d6610717565b905061046a818585600160008673ffffffffffffffffffffffffffffffffffffffff1673ffffffffffffffffffffffffffffffffffffffff16815260200190815260200160002060008973ffffffffffffffffffffffffffffffffffffffff1673ffffffffffffffffffffffffffffffffffffffff16815260200190815260200160002054610465919061126b565b61071f565b600191505092915050565b610486610480610717565b82610bf7565b50565b60008060008373ffffffffffffffffffffffffffffffffffffffff1673ffffffffffffffffffffffffffffffffffffffff168152602001908152602001600020549050919050565b6104e3826104dd610717565b836108ea565b6104ed8282610bf7565b5050565b6060600480546105009061137d565b80601f016020809104026020016040519081016040528092919081815260200182805461052c9061137d565b80156105795780601f1061054e57610100808354040283529160200191610579565b820191906000526020600020905b81548152906001019060200180831161055c57829003601f168201915b5050505050905090565b60008061058e610717565b90506000600160008373ffffffffffffffffffffffffffffffffffffffff1673ffffffffffffffffffffffffffffffffffffffff16815260200190815260200160002060008673ffffffffffffffffffffffffffffffffffffffff1673ffffffffffffffffffffffffffffffffffffffff16815260200190815260200160002054905083811015610654576040517f08c379a000000000000000000000000000000000000000000000000000000000815260040161064b906111f9565b60405180910390fd5b610661828686840361071f565b60019250505092915050565b600080610678610717565b9050610685818585610976565b600191505092915050565b6000600160008473ffffffffffffffffffffffffffffffffffffffff1673ffffffffffffffffffffffffffffffffffffffff16815260200190815260200160002060008373ffffffffffffffffffffffffffffffffffffffff1673ffffffffffffffffffffffffffffffffffffffff16815260200190815260200160002054905092915050565b600033905090565b600073ffffffffffffffffffffffffffffffffffffffff168373ffffffffffffffffffffffffffffffffffffffff16141561078f576040517f08c379a0000000000000000000000000000000000000000000000000000000008152600401610786906111d9565b60405180910390fd5b600073ffffffffffffffffffffffffffffffffffffffff168273ffffffffffffffffffffffffffffffffffffffff1614156107ff576040517f08c379a00000000000000000000000000000000000000000000000000000000081526004016107f690611139565b60405180910390fd5b80600160008573ffffffffffffffffffffffffffffffffffffffff1673ffffffffffffffffffffffffffffffffffffffff16815260200190815260200160002060008473ffffffffffffffffffffffffffffffffffffffff1673ffffffffffffffffffffffffffffffffffffffff168152602001908152602001600020819055508173ffffffffffffffffffffffffffffffffffffffff168373ffffffffffffffffffffffffffffffffffffffff167f8c5be1e5ebec7d5bd14f71427d1e84f3dd0314c0f7b2291e5b200ac8c7c3b925836040516108dd9190611219565b60405180910390a3505050565b60006108f68484610690565b90507fffffffffffffffffffffffffffffffffffffffffffffffffffffffffffffffff81146109705781811015610962576040517f08c379a000000000000000000000000000000000000000000000000000000000815260040161095990611159565b60405180910390fd5b61096f848484840361071f565b5b50505050565b600073ffffffffffffffffffffffffffffffffffffffff168373ffffffffffffffffffffffffffffffffffffffff1614156109e6576040517f08c379a00000000000000000000000000000000000000000000000000000000081526004016109dd906111b9565b60405180910390fd5b600073ffffffffffffffffffffffffffffffffffffffff168273ffffffffffffffffffffffffffffffffffffffff161415610a56576040517f08c379a0000000000000000000000000000000000000000000000000000000008152600401610a4d906110f9565b60405180910390fd5b610a61838383610dce565b60008060008573ffffffffffffffffffffffffffffffffffffffff1673ffffffffffffffffffffffffffffffffffffffff16815260200190815260200160002054905081811015610ae7576040517f08c379a0000000000000000000000000000000000000000000000000000000008152600401610ade90611179565b60405180910390fd5b8181036000808673ffffffffffffffffffffffffffffffffffffffff1673ffffffffffffffffffffffffffffffffffffffff16815260200190815260200160002081905550816000808573ffffffffffffffffffffffffffffffffffffffff1673ffffffffffffffffffffffffffffffffffffffff1681526020019081526020016000206000828254610b7a919061126b565b925050819055508273ffffffffffffffffffffffffffffffffffffffff168473ffffffffffffffffffffffffffffffffffffffff167fddf252ad1be2c89b69c2b068fc378daa952ba7f163c4a11628f55a4df523b3ef84604051610bde9190611219565b60405180910390a3610bf1848484610dd3565b50505050565b600073ffffffffffffffffffffffffffffffffffffffff168273ffffffffffffffffffffffffffffffffffffffff161415610c67576040517f08c379a0000000000000000000000000000000000000000000000000000000008152600401610c5e90611199565b60405180910390fd5b610c7382600083610dce565b60008060008473ffffffffffffffffffffffffffffffffffffffff1673ffffffffffffffffffffffffffffffffffffffff16815260200190815260200160002054905081811015610cf9576040517f08c379a0000000000000000000000000000000000000000000000000000000008152600401610cf090611119565b60405180910390fd5b8181036000808573ffffffffffffffffffffffffffffffffffffffff1673ffffffffffffffffffffffffffffffffffffffff168152602001908152602001600020819055508160026000828254610d5091906112c1565b92505081905550600073ffffffffffffffffffffffffffffffffffffffff168373ffffffffffffffffffffffffffffffffffffffff167fddf252ad1be2c89b69c2b068fc378daa952ba7f163c4a11628f55a4df523b3ef84604051610db59190611219565b60405180910390a3610dc983600084610dd3565b505050565b505050565b505050565b600081359050610de7816116bf565b92915050565b600081359050610dfc816116d6565b92915050565b600060208284031215610e1457600080fd5b6000610e2284828501610dd8565b91505092915050565b60008060408385031215610e3e57600080fd5b6000610e4c85828601610dd8565b9250506020610e5d85828601610dd8565b9150509250929050565b600080600060608486031215610e7c57600080fd5b6000610e8a86828701610dd8565b9350506020610e9b86828701610dd8565b9250506040610eac86828701610ded565b9150509250925092565b60008060408385031215610ec957600080fd5b6000610ed785828601610dd8565b9250506020610ee885828601610ded565b9150509250929050565b600060208284031215610f0457600080fd5b6000610f1284828501610ded565b91505092915050565b610f2481611307565b82525050565b6000610f358261124f565b610f3f818561125a565b9350610f4f81856020860161134a565b610f588161140d565b840191505092915050565b6000610f7060238361125a565b9150610f7b8261141e565b604082019050919050565b6000610f9360228361125a565b9150610f9e8261146d565b604082019050919050565b6000610fb660228361125a565b9150610fc1826114bc565b604082019050919050565b6000610fd9601d8361125a565b9150610fe48261150b565b602082019050919050565b6000610ffc60268361125a565b915061100782611534565b604082019050919050565b600061101f60218361125a565b915061102a82611583565b604082019050919050565b600061104260258361125a565b915061104d826115d2565b604082019050919050565b600061106560248361125a565b915061107082611621565b604082019050919050565b600061108860258361125a565b915061109382611670565b604082019050919050565b6110a781611333565b82525050565b6110b68161133d565b82525050565b60006020820190506110d16000830184610f1b565b92915050565b600060208201905081810360008301526110f18184610f2a565b905092915050565b6000602082019050818103600083015261111281610f63565b9050919050565b6000602082019050818103600083015261113281610f86565b9050919050565b6000602082019050818103600083015261115281610fa9565b9050919050565b6000602082019050818103600083015261117281610fcc565b9050919050565b6000602082019050818103600083015261119281610fef565b9050919050565b600060208201905081810360008301526111b281611012565b9050919050565b600060208201905081810360008301526111d281611035565b9050919050565b600060208201905081810360008301526111f281611058565b9050919050565b600060208201905081810360008301526112128161107b565b9050919050565b600060208201905061122e600083018461109e565b92915050565b600060208201905061124960008301846110ad565b92915050565b600081519050919050565b600082825260208201905092915050565b600061127682611333565b915061128183611333565b9250827fffffffffffffffffffffffffffffffffffffffffffffffffffffffffffffffff038211156112b6576112b56113af565b5b828201905092915050565b60006112cc82611333565b91506112d783611333565b9250828210156112ea576112e96113af565b5b828203905092915050565b600061130082611313565b9050919050565b60008115159050919050565b600073ffffffffffffffffffffffffffffffffffffffff82169050919050565b6000819050919050565b600060ff82169050919050565b60005b8381101561136857808201518184015260208101905061134d565b83811115611377576000848401525b50505050565b6000600282049050600182168061139557607f821691505b602082108114156113a9576113a86113de565b5b50919050565b7f4e487b7100000000000000000000000000000000000000000000000000000000600052601160045260246000fd5b7f4e487b7100000000000000000000000000000000000000000000000000000000600052602260045260246000fd5b6000601f19601f8301169050919050565b7f45524332303a207472616e7366657220746f20746865207a65726f206164647260008201527f6573730000000000000000000000000000000000000000000000000000000000602082015250565b7f45524332303a206275726e20616d6f756e7420657863656564732062616c616e60008201527f6365000000000000000000000000000000000000000000000000000000000000602082015250565b7f45524332303a20617070726f766520746f20746865207a65726f20616464726560008201527f7373000000000000000000000000000000000000000000000000000000000000602082015250565b7f45524332303a20696e73756666696369656e7420616c6c6f77616e6365000000600082015250565b7f45524332303a207472616e7366657220616d6f756e742065786365656473206260008201527f616c616e63650000000000000000000000000000000000000000000000000000602082015250565b7f45524332303a206275726e2066726f6d20746865207a65726f2061646472657360008201527f7300000000000000000000000000000000000000000000000000000000000000602082015250565b7f45524332303a207472616e736665722066726f6d20746865207a65726f20616460008201527f6472657373000000000000000000000000000000000000000000000000000000602082015250565b7f45524332303a20617070726f76652066726f6d20746865207a65726f2061646460008201527f7265737300000000000000000000000000000000000000000000000000000000602082015250565b7f45524332303a2064656372656173656420616c6c6f77616e63652062656c6f7760008201527f207a65726f000000000000000000000000000000000000000000000000000000602082015250565b6116c8816112f5565b81146116d357600080fd5b50565b6116df81611333565b81146116ea57600080fd5b5056fea26469706673582212202b81427192806121e7c29b8464363a54c6497d11d44617889431ac71e991991c64736f6c63430008040033",
    "linkReferences": {},
    "deployedLinkReferences": {}
}