{
  "_format": "hh-sol-artifact-1",
  "contractName": "KhephrenNFTStaking",
  "sourceName": "contracts/KhephrenNFTStaking.sol",
  "abi": [
    {
      "inputs": [
        {
          "internalType": "uint256",
          "name": "_price",
          "type": "uint256"
        },
        {
          "internalType": "address",
          "name": "_projectImplementation",
          "type": "address"
        }
      ],
      "stateMutability": "nonpayable",
      "type": "constructor"
    },
    {
      "anonymous": false,
      "inputs": [
        {
          "indexed": false,
          "internalType": "uint256",
          "name": "time",
          "type": "uint256"
        },
        {
          "indexed": false,
          "internalType": "uint256",
          "name": "amount",
          "type": "uint256"
        }
      ],
      "name": "depositFund",
      "type": "event"
    },
    {
      "anonymous": false,
      "inputs": [
        {
          "indexed": false,
          "internalType": "address",
          "name": "creator",
          "type": "address"
        },
        {
          "indexed": false,
          "internalType": "address",
          "name": "project",
          "type": "address"
        },
        {
          "indexed": false,
          "internalType": "uint256",
          "name": "time",
          "type": "uint256"
        }
      ],
      "name": "projectCreated",
      "type": "event"
    },
    {
      "anonymous": false,
      "inputs": [
        {
          "indexed": false,
          "internalType": "uint256",
          "name": "time",
          "type": "uint256"
        },
        {
          "indexed": false,
          "internalType": "uint256",
          "name": "amount",
          "type": "uint256"
        }
      ],
      "name": "withdrawFund",
      "type": "event"
    },
    {
      "inputs": [
        {
          "internalType": "address",
          "name": "_nftAddress",
          "type": "address"
        }
      ],
      "name": "createProject",
      "outputs": [
        {
          "internalType": "address",
          "name": "",
          "type": "address"
        }
      ],
      "stateMutability": "payable",
      "type": "function"
    },
    {
      "inputs": [],
      "name": "getAllProject",
      "outputs": [
        {
          "internalType": "address[]",
          "name": "",
          "type": "address[]"
        }
      ],
      "stateMutability": "view",
      "type": "function"
    },
    {
      "inputs": [],
      "name": "getBalance",
      "outputs": [
        {
          "internalType": "uint256",
          "name": "",
          "type": "uint256"
        }
      ],
      "stateMutability": "view",
      "type": "function"
    },
    {
      "inputs": [],
      "name": "price",
      "outputs": [
        {
          "internalType": "uint256",
          "name": "",
          "type": "uint256"
        }
      ],
      "stateMutability": "view",
      "type": "function"
    },
    {
      "inputs": [
        {
          "internalType": "uint256",
          "name": "",
          "type": "uint256"
        }
      ],
      "name": "projects721",
      "outputs": [
        {
          "internalType": "address",
          "name": "",
          "type": "address"
        }
      ],
      "stateMutability": "view",
      "type": "function"
    },
    {
      "inputs": [
        {
          "internalType": "uint256",
          "name": "_price",
          "type": "uint256"
        }
      ],
      "name": "setPlatformPrice",
      "outputs": [],
      "stateMutability": "nonpayable",
      "type": "function"
    },
    {
      "inputs": [
        {
          "internalType": "address",
          "name": "_to",
          "type": "address"
        },
        {
          "internalType": "uint256",
          "name": "_amount",
          "type": "uint256"
        }
      ],
      "name": "withdraw",
      "outputs": [],
      "stateMutability": "nonpayable",
      "type": "function"
    }
  ],
  "bytecode": "0x60a060405234801561001057600080fd5b506040516107f33803806107f383398101604081905261002f91610078565b6001600160601b0319606082901b1660805261004b3383610052565b50506100b3565b600280546001600160a01b0319166001600160a01b039390931692909217909155600355565b6000806040838503121561008a578182fd5b825160208401519092506001600160a01b03811681146100a8578182fd5b809150509250929050565b60805160601c6107226100d160003960006101c201526107226000f3fe6080604052600436106100705760003560e01c806362b521fd1161004e57806362b521fd146100e2578063a035b1fe14610102578063d70ed49814610117578063f3fef3a31461013957610070565b806312065fe014610075578063224d5dd2146100a05780634310a25e146100c0575b600080fd5b34801561008157600080fd5b5061008a610159565b60405161009791906106d5565b60405180910390f35b6100b36100ae366004610510565b610198565b6040516100979190610572565b3480156100cc57600080fd5b506100e06100db36600461055a565b6102fc565b005b3480156100ee57600080fd5b506100b36100fd36600461055a565b61032e565b34801561010e57600080fd5b5061008a610358565b34801561012357600080fd5b5061012c61035e565b60405161009791906105c4565b34801561014557600080fd5b506100e0610154366004610531565b6103c9565b60025460009033906001600160a01b031681146101915760405162461bcd60e51b815260040161018890610611565b60405180910390fd5b4791505090565b600060035434146101bb5760405162461bcd60e51b8152600401610188906106a6565b60006101e67f000000000000000000000000000000000000000000000000000000000000000061048a565b604051630f85d11160e01b81529091506001600160a01b03821690630f85d111906102179086903390600401610586565b600060405180830381600087803b15801561023157600080fd5b505af1158015610245573d6000803e3d6000fd5b505060008054600181810183557f290decd9548b62a8d60345a988386fc84ba6bc95484008f6362f93160ef3e56390910180546001600160a01b0387166001600160a01b03199182168117909255338085526020848152604080872080549687018155875295209093018054909116909117905590517f76b9cc6438d7c5397c5f7b94051667224dd4f8d3003657272b690359493054eb93506102ec9250849042906105a0565b60405180910390a190505b919050565b60025433906001600160a01b031681146103285760405162461bcd60e51b815260040161018890610611565b50600355565b6000818154811061033e57600080fd5b6000918252602090912001546001600160a01b0316905081565b60035481565b336000908152600160209081526040918290208054835181840281018401909452808452606093928301828280156103bf57602002820191906000526020600020905b81546001600160a01b031681526001909101906020018083116103a1575b5050505050905090565b60025433906001600160a01b031681146103f55760405162461bcd60e51b815260040161018890610611565b814710156104155760405162461bcd60e51b815260040161018890610648565b6040516001600160a01b0384169083156108fc029084906000818181858888f1935050505015801561044b573d6000803e3d6000fd5b507fb88d09f6c660bed617f0f95b08a7a3a3cc6f6821017c40f3d95074d719ec3315428360405161047d9291906106de565b60405180910390a1505050565b6000604051733d602d80600a3d3981f3363d3d373d3d3d363d7360601b81528260601b60148201526e5af43d82803e903d91602b57fd5bf360881b60288201526037816000f09150506001600160a01b0381166102f75760405162461bcd60e51b815260040161018890610676565b80356001600160a01b03811681146102f757600080fd5b600060208284031215610521578081fd5b61052a826104f9565b9392505050565b60008060408385031215610543578081fd5b61054c836104f9565b946020939093013593505050565b60006020828403121561056b578081fd5b5035919050565b6001600160a01b0391909116815260200190565b6001600160a01b0392831681529116602082015260400190565b6001600160a01b039384168152919092166020820152604081019190915260600190565b6020808252825182820181905260009190848201906040850190845b818110156106055783516001600160a01b0316835292840192918401916001016105e0565b50909695505050505050565b60208082526017908201527f43616c6c6572206973206e6f7420746865206f776e6572000000000000000000604082015260600190565b602080825260149082015273496e73756666696369656e742062616c616e636560601b604082015260600190565b602080825260169082015275115490cc4c4d8dce8818dc99585d194819985a5b195960521b604082015260600190565b602080825260159082015274115490cc8c0e88125b9d985b1a5908185b5bdd5b9d605a1b604082015260600190565b90815260200190565b91825260208201526040019056fea2646970667358221220af19ebf22ff79648be3fb7824cf71f87b427dc927c7891e9677cbf595b2e9e7564736f6c63430008000033",
  "linkReferences": {},
  "deployedLinkReferences": {}
}