{
    "_format": "hh-sol-artifact-1",
    "contractName": "LaunchpadFactory",
    "sourceName": "contracts/deploy/LaunchpadFactory.sol",
    "abi": [
        {
            "inputs": [
                {
                    "internalType": "uint256",
                    "name": "listingPrice",
                    "type": "uint256"
                },
                {
                    "internalType": "uint256",
                    "name": "createTokenPrice",
                    "type": "uint256"
                },
                {
                    "internalType": "address",
                    "name": "launchpad",
                    "type": "address"
                }
            ],
            "stateMutability": "nonpayable",
            "type": "constructor"
        },
        {
            "anonymous": false,
            "inputs": [
                {
                    "indexed": true,
                    "internalType": "address",
                    "name": "contract_address",
                    "type": "address"
                },
                {
                    "indexed": true,
                    "internalType": "address",
                    "name": "owner",
                    "type": "address"
                }
            ],
            "name": "LaunchpadCreated",
            "type": "event"
        },
        {
            "anonymous": false,
            "inputs": [
                {
                    "indexed": true,
                    "internalType": "address",
                    "name": "from",
                    "type": "address"
                },
                {
                    "indexed": true,
                    "internalType": "address",
                    "name": "to",
                    "type": "address"
                },
                {
                    "indexed": false,
                    "internalType": "uint256",
                    "name": "amount",
                    "type": "uint256"
                }
            ],
            "name": "TransferSent",
            "type": "event"
        },
        {
            "inputs": [
                {
                    "internalType": "address",
                    "name": "contractAddress",
                    "type": "address"
                }
            ],
            "name": "addAcceptedRouter",
            "outputs": [],
            "stateMutability": "nonpayable",
            "type": "function"
        },
        {
            "inputs": [
                {
                    "internalType": "string",
                    "name": "name",
                    "type": "string"
                },
                {
                    "internalType": "uint256",
                    "name": "price",
                    "type": "uint256"
                }
            ],
            "name": "addPricing",
            "outputs": [],
            "stateMutability": "nonpayable",
            "type": "function"
        },
        {
            "inputs": [],
            "name": "balance",
            "outputs": [
                {
                    "internalType": "uint256",
                    "name": "",
                    "type": "uint256"
                }
            ],
            "stateMutability": "view",
            "type": "function"
        },
        {
            "inputs": [
                {
                    "internalType": "uint256",
                    "name": "amount",
                    "type": "uint256"
                }
            ],
            "name": "changeListingPrice",
            "outputs": [],
            "stateMutability": "nonpayable",
            "type": "function"
        },
        {
            "inputs": [
                {
                    "internalType": "uint256",
                    "name": "index",
                    "type": "uint256"
                },
                {
                    "internalType": "uint256",
                    "name": "amount",
                    "type": "uint256"
                }
            ],
            "name": "changePricingInfo",
            "outputs": [],
            "stateMutability": "nonpayable",
            "type": "function"
        },
        {
            "inputs": [
                {
                    "internalType": "address[2]",
                    "name": "addresses",
                    "type": "address[2]"
                },
                {
                    "internalType": "bytes32[10]",
                    "name": "projectDetails",
                    "type": "bytes32[10]"
                },
                {
                    "internalType": "uint256[2]",
                    "name": "date",
                    "type": "uint256[2]"
                },
                {
                    "internalType": "uint256[5]",
                    "name": "prices",
                    "type": "uint256[5]"
                },
                {
                    "internalType": "uint256",
                    "name": "sellQty",
                    "type": "uint256"
                },
                {
                    "internalType": "uint256",
                    "name": "listingPrice",
                    "type": "uint256"
                },
                {
                    "internalType": "uint256[2]",
                    "name": "cap",
                    "type": "uint256[2]"
                },
                {
                    "internalType": "uint256[2]",
                    "name": "minmaxBuy",
                    "type": "uint256[2]"
                },
                {
                    "internalType": "uint256[2]",
                    "name": "liquidity",
                    "type": "uint256[2]"
                },
                {
                    "internalType": "bool",
                    "name": "whitelist",
                    "type": "bool"
                }
            ],
            "name": "createLaunchpad",
            "outputs": [
                {
                    "internalType": "address",
                    "name": "",
                    "type": "address"
                }
            ],
            "stateMutability": "payable",
            "type": "function"
        },
        {
            "inputs": [],
            "name": "getAcceptedRouter",
            "outputs": [
                {
                    "components": [
                        {
                            "internalType": "uint256",
                            "name": "index",
                            "type": "uint256"
                        },
                        {
                            "internalType": "address",
                            "name": "the_address",
                            "type": "address"
                        }
                    ],
                    "internalType": "struct LaunchpadFactory.MyStandardStruct[]",
                    "name": "",
                    "type": "tuple[]"
                }
            ],
            "stateMutability": "view",
            "type": "function"
        },
        {
            "inputs": [
                {
                    "internalType": "address",
                    "name": "launchpadAddress",
                    "type": "address"
                }
            ],
            "name": "getLaunchpad",
            "outputs": [
                {
                    "components": [
                        {
                            "internalType": "uint256",
                            "name": "index",
                            "type": "uint256"
                        },
                        {
                            "internalType": "address",
                            "name": "launchpad",
                            "type": "address"
                        },
                        {
                            "internalType": "bool",
                            "name": "verified",
                            "type": "bool"
                        }
                    ],
                    "internalType": "struct LaunchpadFactory.LaunchpadStruct",
                    "name": "",
                    "type": "tuple"
                }
            ],
            "stateMutability": "view",
            "type": "function"
        },
        {
            "inputs": [],
            "name": "getLaunchpads",
            "outputs": [
                {
                    "components": [
                        {
                            "internalType": "uint256",
                            "name": "index",
                            "type": "uint256"
                        },
                        {
                            "internalType": "address",
                            "name": "launchpad",
                            "type": "address"
                        },
                        {
                            "internalType": "bool",
                            "name": "verified",
                            "type": "bool"
                        }
                    ],
                    "internalType": "struct LaunchpadFactory.LaunchpadStruct[]",
                    "name": "",
                    "type": "tuple[]"
                }
            ],
            "stateMutability": "view",
            "type": "function"
        },
        {
            "inputs": [],
            "name": "getOwnedLaunchpads",
            "outputs": [
                {
                    "components": [
                        {
                            "internalType": "address",
                            "name": "token",
                            "type": "address"
                        },
                        {
                            "internalType": "address",
                            "name": "launchpad",
                            "type": "address"
                        }
                    ],
                    "internalType": "struct LaunchpadFactory.OwnedLaunchpadStuct[]",
                    "name": "",
                    "type": "tuple[]"
                }
            ],
            "stateMutability": "view",
            "type": "function"
        },
        {
            "inputs": [],
            "name": "getPricings",
            "outputs": [
                {
                    "components": [
                        {
                            "internalType": "uint256",
                            "name": "index",
                            "type": "uint256"
                        },
                        {
                            "internalType": "string",
                            "name": "name",
                            "type": "string"
                        },
                        {
                            "internalType": "uint256",
                            "name": "price",
                            "type": "uint256"
                        }
                    ],
                    "internalType": "struct LaunchpadFactory.AdditionalPrice[]",
                    "name": "",
                    "type": "tuple[]"
                }
            ],
            "stateMutability": "view",
            "type": "function"
        },
        {
            "inputs": [],
            "name": "getlistingPrice",
            "outputs": [
                {
                    "internalType": "uint256",
                    "name": "",
                    "type": "uint256"
                }
            ],
            "stateMutability": "view",
            "type": "function"
        },
        {
            "inputs": [
                {
                    "internalType": "address",
                    "name": "contractAddress",
                    "type": "address"
                }
            ],
            "name": "removeAcceptedRouter",
            "outputs": [],
            "stateMutability": "nonpayable",
            "type": "function"
        },
        {
            "inputs": [
                {
                    "internalType": "address",
                    "name": "launchpadAddress",
                    "type": "address"
                }
            ],
            "name": "verifyLaunchPad",
            "outputs": [],
            "stateMutability": "nonpayable",
            "type": "function"
        },
        {
            "inputs": [
                {
                    "internalType": "uint256",
                    "name": "amount",
                    "type": "uint256"
                }
            ],
            "name": "withdraw",
            "outputs": [],
            "stateMutability": "nonpayable",
            "type": "function"
        }
    ],
    "bytecode": "0x60806040523480156200001157600080fd5b5060405162004a0638038062004a0683398181016040528101906200003791906200011d565b60016000819055506200004f620000e760201b60201c565b600260006101000a81548173ffffffffffffffffffffffffffffffffffffffff021916908373ffffffffffffffffffffffffffffffffffffffff160217905550826003819055508160048190555080600160006101000a81548173ffffffffffffffffffffffffffffffffffffffff021916908373ffffffffffffffffffffffffffffffffffffffff160217905550505050620001e5565b600033905090565b6000815190506200010081620001b1565b92915050565b6000815190506200011781620001cb565b92915050565b6000806000606084860312156200013357600080fd5b6000620001438682870162000106565b9350506020620001568682870162000106565b92505060406200016986828701620000ef565b9150509250925092565b6000620001808262000187565b9050919050565b600073ffffffffffffffffffffffffffffffffffffffff82169050919050565b6000819050919050565b620001bc8162000173565b8114620001c857600080fd5b50565b620001d681620001a7565b8114620001e257600080fd5b50565b61481180620001f56000396000f3fe6080604052600436106100e85760003560e01c806395f68a731161008a578063b9eabb7011610059578063b9eabb70146102d3578063ba0f1d9c146102fe578063cbb2fd9314610327578063ec9b2b5f14610350576100e8565b806395f68a7314610217578063a95bdd7614610240578063b69ef8a81461026b578063b6fbc2e114610296576100e8565b806351780b6e116100c657806351780b6e1461016f5780636b0a2d1114610198578063790e39f0146101c357806389c6308e146101ee576100e8565b80632104c175146100ed57806323aed9b61461011d5780632e1a7d4d14610146575b600080fd5b61010760048036038101906101029190612f10565b61037b565b60405161011491906139c4565b60405180910390f35b34801561012957600080fd5b50610144600480360381019061013f9190613097565b610867565b005b34801561015257600080fd5b5061016d60048036038101906101689190613045565b610952565b005b34801561017b57600080fd5b5061019660048036038101906101919190612ff1565b610b26565b005b3480156101a457600080fd5b506101ad610c3f565b6040516101ba9190613e72565b60405180910390f35b3480156101cf57600080fd5b506101d8610c49565b6040516101e59190613ab1565b60405180910390f35b3480156101fa57600080fd5b5061021560048036038101906102109190612ee7565b610d23565b005b34801561022357600080fd5b5061023e60048036038101906102399190612ee7565b610f58565b005b34801561024c57600080fd5b5061025561120b565b6040516102629190613ad3565b60405180910390f35b34801561027757600080fd5b506102806112ca565b60405161028d9190613e72565b60405180910390f35b3480156102a257600080fd5b506102bd60048036038101906102b89190612ee7565b611369565b6040516102ca9190613e57565b60405180910390f35b3480156102df57600080fd5b506102e861143d565b6040516102f59190613a8f565b60405180910390f35b34801561030a57600080fd5b5061032560048036038101906103209190613045565b611542565b005b34801561033357600080fd5b5061034e60048036038101906103499190612ee7565b6115e3565b005b34801561035c57600080fd5b50610365611b34565b6040516103729190613af5565b60405180910390f35b6000600260005414156103c3576040517f08c379a00000000000000000000000000000000000000000000000000000000081526004016103ba90613d77565b60405180910390fd5b6002600081905550600354341461040f576040517f08c379a000000000000000000000000000000000000000000000000000000000815260040161040690613e37565b60405180910390fd5b61041f8b8a8a8a8a8a8a8a611c83565b600061044c600160009054906101000a900473ffffffffffffffffffffffffffffffffffffffff166128f8565b90508073ffffffffffffffffffffffffffffffffffffffff166349b44e4e6104726129cd565b8e8e8e8e8e8e8e8e8e8e6040518c63ffffffff1660e01b81526004016104a29b9a999897969594939291906139df565b600060405180830381600087803b1580156104bc57600080fd5b505af11580156104d0573d6000803e3d6000fd5b505050506000604051806060016040528060088054905081526020018373ffffffffffffffffffffffffffffffffffffffff16815260200160001515815250905060088190806001815401808255809150506001900390600052602060002090600202016000909190919091506000820151816000015560208201518160010160006101000a81548173ffffffffffffffffffffffffffffffffffffffff021916908373ffffffffffffffffffffffffffffffffffffffff16021790555060408201518160010160146101000a81548160ff021916908315150217905550505080600960008473ffffffffffffffffffffffffffffffffffffffff1673ffffffffffffffffffffffffffffffffffffffff1681526020019081526020016000206000820151816000015560208201518160010160006101000a81548173ffffffffffffffffffffffffffffffffffffffff021916908373ffffffffffffffffffffffffffffffffffffffff16021790555060408201518160010160146101000a81548160ff021916908315150217905550905050600a60006106706129cd565b73ffffffffffffffffffffffffffffffffffffffff1673ffffffffffffffffffffffffffffffffffffffff16815260200190815260200160002060405180604001604052808f6001600281106106ef577f4e487b7100000000000000000000000000000000000000000000000000000000600052603260045260246000fd5b602002015173ffffffffffffffffffffffffffffffffffffffff1681526020018473ffffffffffffffffffffffffffffffffffffffff16815250908060018154018082558091505060019003906000526020600020906002020160009091909190915060008201518160000160006101000a81548173ffffffffffffffffffffffffffffffffffffffff021916908373ffffffffffffffffffffffffffffffffffffffff16021790555060208201518160010160006101000a81548173ffffffffffffffffffffffffffffffffffffffff021916908373ffffffffffffffffffffffffffffffffffffffff16021790555050506107ea6129cd565b73ffffffffffffffffffffffffffffffffffffffff168273ffffffffffffffffffffffffffffffffffffffff167f12f4f726e3d40b72a8eba977c6858d0fe014165116e5d458ebf1c41386f4180f60405160405180910390a361084c346129d5565b819250505060016000819055509a9950505050505050505050565b600260009054906101000a900473ffffffffffffffffffffffffffffffffffffffff1673ffffffffffffffffffffffffffffffffffffffff166108a86129cd565b73ffffffffffffffffffffffffffffffffffffffff16146108fe576040517f08c379a00000000000000000000000000000000000000000000000000000000081526004016108f590613b17565b60405180910390fd5b8060058381548110610939577f4e487b7100000000000000000000000000000000000000000000000000000000600052603260045260246000fd5b9060005260206000209060030201600201819055505050565b600260009054906101000a900473ffffffffffffffffffffffffffffffffffffffff1673ffffffffffffffffffffffffffffffffffffffff166109936129cd565b73ffffffffffffffffffffffffffffffffffffffff16146109e9576040517f08c379a00000000000000000000000000000000000000000000000000000000081526004016109e090613b17565b60405180910390fd5b80471015610a2c576040517f08c379a0000000000000000000000000000000000000000000000000000000008152600401610a2390613cb7565b60405180910390fd5b600260009054906101000a900473ffffffffffffffffffffffffffffffffffffffff1673ffffffffffffffffffffffffffffffffffffffff166108fc829081150290604051600060405180830381858888f19350505050158015610a94573d6000803e3d6000fd5b50600260009054906101000a900473ffffffffffffffffffffffffffffffffffffffff1673ffffffffffffffffffffffffffffffffffffffff16610ad66129cd565b73ffffffffffffffffffffffffffffffffffffffff167ffda3a3e0e1479b43cb1c701f7576187f4c4ad80768d627387e00184302f7d88e83604051610b1b9190613e72565b60405180910390a350565b600260009054906101000a900473ffffffffffffffffffffffffffffffffffffffff1673ffffffffffffffffffffffffffffffffffffffff16610b676129cd565b73ffffffffffffffffffffffffffffffffffffffff1614610bbd576040517f08c379a0000000000000000000000000000000000000000000000000000000008152600401610bb490613b17565b60405180910390fd5b600560405180606001604052806005805490508152602001848152602001838152509080600181540180825580915050600190039060005260206000209060030201600090919091909150600082015181600001556020820151816001019080519060200190610c2e929190612b12565b506040820151816002015550505050565b6000600354905090565b60606008805480602002602001604051908101604052809291908181526020016000905b82821015610d1a5783829060005260206000209060020201604051806060016040529081600082015481526020016001820160009054906101000a900473ffffffffffffffffffffffffffffffffffffffff1673ffffffffffffffffffffffffffffffffffffffff1673ffffffffffffffffffffffffffffffffffffffff1681526020016001820160149054906101000a900460ff16151515158152505081526020019060010190610c6d565b50505050905090565b600260009054906101000a900473ffffffffffffffffffffffffffffffffffffffff1673ffffffffffffffffffffffffffffffffffffffff16610d646129cd565b73ffffffffffffffffffffffffffffffffffffffff1614610dba576040517f08c379a0000000000000000000000000000000000000000000000000000000008152600401610db190613b17565b60405180910390fd5b600073ffffffffffffffffffffffffffffffffffffffff16600960008373ffffffffffffffffffffffffffffffffffffffff1673ffffffffffffffffffffffffffffffffffffffff16815260200190815260200160002060010160009054906101000a900473ffffffffffffffffffffffffffffffffffffffff1673ffffffffffffffffffffffffffffffffffffffff161415610e8c576040517f08c379a0000000000000000000000000000000000000000000000000000000008152600401610e8390613d97565b60405180910390fd5b6000600960008373ffffffffffffffffffffffffffffffffffffffff1673ffffffffffffffffffffffffffffffffffffffff168152602001908152602001600020905060016008826000015481548110610f0f577f4e487b7100000000000000000000000000000000000000000000000000000000600052603260045260246000fd5b906000526020600020906002020160010160146101000a81548160ff02191690831515021790555060018160010160146101000a81548160ff0219169083151502179055505050565b600260009054906101000a900473ffffffffffffffffffffffffffffffffffffffff1673ffffffffffffffffffffffffffffffffffffffff16610f996129cd565b73ffffffffffffffffffffffffffffffffffffffff1614610fef576040517f08c379a0000000000000000000000000000000000000000000000000000000008152600401610fe690613b17565b60405180910390fd5b600073ffffffffffffffffffffffffffffffffffffffff16600760008373ffffffffffffffffffffffffffffffffffffffff1673ffffffffffffffffffffffffffffffffffffffff16815260200190815260200160002060010160009054906101000a900473ffffffffffffffffffffffffffffffffffffffff1673ffffffffffffffffffffffffffffffffffffffff16146110c0576040517f08c379a00000000000000000000000000000000000000000000000000000000081526004016110b790613d17565b60405180910390fd5b6000604051806040016040528060068054905081526020018373ffffffffffffffffffffffffffffffffffffffff16815250905060068190806001815401808255809150506001900390600052602060002090600202016000909190919091506000820151816000015560208201518160010160006101000a81548173ffffffffffffffffffffffffffffffffffffffff021916908373ffffffffffffffffffffffffffffffffffffffff160217905550505080600760008473ffffffffffffffffffffffffffffffffffffffff1673ffffffffffffffffffffffffffffffffffffffff1681526020019081526020016000206000820151816000015560208201518160010160006101000a81548173ffffffffffffffffffffffffffffffffffffffff021916908373ffffffffffffffffffffffffffffffffffffffff1602179055509050505050565b60606006805480602002602001604051908101604052809291908181526020016000905b828210156112c15783829060005260206000209060020201604051806040016040529081600082015481526020016001820160009054906101000a900473ffffffffffffffffffffffffffffffffffffffff1673ffffffffffffffffffffffffffffffffffffffff1673ffffffffffffffffffffffffffffffffffffffff16815250508152602001906001019061122f565b50505050905090565b6000600260009054906101000a900473ffffffffffffffffffffffffffffffffffffffff1673ffffffffffffffffffffffffffffffffffffffff1661130d6129cd565b73ffffffffffffffffffffffffffffffffffffffff1614611363576040517f08c379a000000000000000000000000000000000000000000000000000000000815260040161135a90613b17565b60405180910390fd5b47905090565b611371612b98565b600960008373ffffffffffffffffffffffffffffffffffffffff1673ffffffffffffffffffffffffffffffffffffffff168152602001908152602001600020604051806060016040529081600082015481526020016001820160009054906101000a900473ffffffffffffffffffffffffffffffffffffffff1673ffffffffffffffffffffffffffffffffffffffff1673ffffffffffffffffffffffffffffffffffffffff1681526020016001820160149054906101000a900460ff1615151515815250509050919050565b60606005805480602002602001604051908101604052809291908181526020016000905b8282101561153957838290600052602060002090600302016040518060600160405290816000820154815260200160018201805461149e90614208565b80601f01602080910402602001604051908101604052809291908181526020018280546114ca90614208565b80156115175780601f106114ec57610100808354040283529160200191611517565b820191906000526020600020905b8154815290600101906020018083116114fa57829003601f168201915b5050505050815260200160028201548152505081526020019060010190611461565b50505050905090565b600260009054906101000a900473ffffffffffffffffffffffffffffffffffffffff1673ffffffffffffffffffffffffffffffffffffffff166115836129cd565b73ffffffffffffffffffffffffffffffffffffffff16146115d9576040517f08c379a00000000000000000000000000000000000000000000000000000000081526004016115d090613b17565b60405180910390fd5b8060038190555050565b600260009054906101000a900473ffffffffffffffffffffffffffffffffffffffff1673ffffffffffffffffffffffffffffffffffffffff166116246129cd565b73ffffffffffffffffffffffffffffffffffffffff161461167a576040517f08c379a000000000000000000000000000000000000000000000000000000000815260040161167190613b17565b60405180910390fd5b600073ffffffffffffffffffffffffffffffffffffffff16600760008373ffffffffffffffffffffffffffffffffffffffff1673ffffffffffffffffffffffffffffffffffffffff16815260200190815260200160002060010160009054906101000a900473ffffffffffffffffffffffffffffffffffffffff1673ffffffffffffffffffffffffffffffffffffffff16141561174c576040517f08c379a000000000000000000000000000000000000000000000000000000000815260040161174390613b77565b60405180910390fd5b6000600760008373ffffffffffffffffffffffffffffffffffffffff1673ffffffffffffffffffffffffffffffffffffffff168152602001908152602001600020604051806040016040529081600082015481526020016001820160009054906101000a900473ffffffffffffffffffffffffffffffffffffffff1673ffffffffffffffffffffffffffffffffffffffff1673ffffffffffffffffffffffffffffffffffffffff168152505090508060000151600660016006805490506118139190614140565b8154811061184a577f4e487b7100000000000000000000000000000000000000000000000000000000600052603260045260246000fd5b9060005260206000209060020201600001819055508060000151600760006006600160068054905061187c9190614140565b815481106118b3577f4e487b7100000000000000000000000000000000000000000000000000000000600052603260045260246000fd5b906000526020600020906002020160010160009054906101000a900473ffffffffffffffffffffffffffffffffffffffff1673ffffffffffffffffffffffffffffffffffffffff1673ffffffffffffffffffffffffffffffffffffffff168152602001908152602001600020600001819055506006600160068054905061193a9190614140565b81548110611971577f4e487b7100000000000000000000000000000000000000000000000000000000600052603260045260246000fd5b906000526020600020906002020160068260000151815481106119bd577f4e487b7100000000000000000000000000000000000000000000000000000000600052603260045260246000fd5b9060005260206000209060020201600082015481600001556001820160009054906101000a900473ffffffffffffffffffffffffffffffffffffffff168160010160006101000a81548173ffffffffffffffffffffffffffffffffffffffff021916908373ffffffffffffffffffffffffffffffffffffffff1602179055509050506006805480611a77577f4e487b7100000000000000000000000000000000000000000000000000000000600052603160045260246000fd5b60019003818190600052602060002090600202016000808201600090556001820160006101000a81549073ffffffffffffffffffffffffffffffffffffffff021916905550509055600760008373ffffffffffffffffffffffffffffffffffffffff1673ffffffffffffffffffffffffffffffffffffffff1681526020019081526020016000206000808201600090556001820160006101000a81549073ffffffffffffffffffffffffffffffffffffffff021916905550505050565b6060600a6000611b426129cd565b73ffffffffffffffffffffffffffffffffffffffff1673ffffffffffffffffffffffffffffffffffffffff168152602001908152602001600020805480602002602001604051908101604052809291908181526020016000905b82821015611c7a57838290600052602060002090600202016040518060400160405290816000820160009054906101000a900473ffffffffffffffffffffffffffffffffffffffff1673ffffffffffffffffffffffffffffffffffffffff1673ffffffffffffffffffffffffffffffffffffffff1681526020016001820160009054906101000a900473ffffffffffffffffffffffffffffffffffffffff1673ffffffffffffffffffffffffffffffffffffffff1673ffffffffffffffffffffffffffffffffffffffff168152505081526020019060010190611b9c565b50505050905090565b600073ffffffffffffffffffffffffffffffffffffffff1688600060028110611cd5577f4e487b7100000000000000000000000000000000000000000000000000000000600052603260045260246000fd5b602002015173ffffffffffffffffffffffffffffffffffffffff161415611d31576040517f08c379a0000000000000000000000000000000000000000000000000000000008152600401611d2890613db7565b60405180910390fd5b8488600060028110611d6c577f4e487b7100000000000000000000000000000000000000000000000000000000600052603260045260246000fd5b602002015173ffffffffffffffffffffffffffffffffffffffff166370a08231611d946129cd565b6040518263ffffffff1660e01b8152600401611db091906139c4565b60206040518083038186803b158015611dc857600080fd5b505afa158015611ddc573d6000803e3d6000fd5b505050506040513d601f19601f82011682018060405250810190611e00919061306e565b1015611e41576040517f08c379a0000000000000000000000000000000000000000000000000000000008152600401611e3890613bf7565b60405180910390fd5b600073ffffffffffffffffffffffffffffffffffffffff1688600160028110611e93577f4e487b7100000000000000000000000000000000000000000000000000000000600052603260045260246000fd5b602002015173ffffffffffffffffffffffffffffffffffffffff161415611eef576040517f08c379a0000000000000000000000000000000000000000000000000000000008152600401611ee690613b97565b60405180910390fd5b600073ffffffffffffffffffffffffffffffffffffffff16600760008a600160028110611f45577f4e487b7100000000000000000000000000000000000000000000000000000000600052603260045260246000fd5b602002015173ffffffffffffffffffffffffffffffffffffffff1673ffffffffffffffffffffffffffffffffffffffff16815260200190815260200160002060010160009054906101000a900473ffffffffffffffffffffffffffffffffffffffff1673ffffffffffffffffffffffffffffffffffffffff161415611fff576040517f08c379a0000000000000000000000000000000000000000000000000000000008152600401611ff690613bd7565b60405180910390fd5b428760006002811061203a577f4e487b7100000000000000000000000000000000000000000000000000000000600052603260045260246000fd5b60200201511161207f576040517f08c379a000000000000000000000000000000000000000000000000000000000815260040161207690613cf7565b60405180910390fd5b866000600281106120b9577f4e487b7100000000000000000000000000000000000000000000000000000000600052603260045260246000fd5b6020020151876001600281106120f8577f4e487b7100000000000000000000000000000000000000000000000000000000600052603260045260246000fd5b60200201511161213d576040517f08c379a000000000000000000000000000000000000000000000000000000000815260040161213490613cd7565b60405180910390fd5b600086600060058110612179577f4e487b7100000000000000000000000000000000000000000000000000000000600052603260045260246000fd5b6020020151116121be576040517f08c379a00000000000000000000000000000000000000000000000000000000081526004016121b590613bb7565b60405180910390fd5b6004866002600581106121fa577f4e487b7100000000000000000000000000000000000000000000000000000000600052603260045260246000fd5b60200201511061223f576040517f08c379a000000000000000000000000000000000000000000000000000000000815260040161223690613c77565b60405180910390fd5b60008660026005811061227b577f4e487b7100000000000000000000000000000000000000000000000000000000600052603260045260246000fd5b602002015111156124e5576000866001600581106122c2577f4e487b7100000000000000000000000000000000000000000000000000000000600052603260045260246000fd5b602002015111612307576040517f08c379a00000000000000000000000000000000000000000000000000000000081526004016122fe90613e17565b60405180910390fd5b600186600260058110612343577f4e487b7100000000000000000000000000000000000000000000000000000000600052603260045260246000fd5b602002015114156124195760068660036005811061238a577f4e487b7100000000000000000000000000000000000000000000000000000000600052603260045260246000fd5b6020020151106123cf576040517f08c379a00000000000000000000000000000000000000000000000000000000081526004016123c690613b57565b60405180910390fd5b60008660046005811061240b577f4e487b7100000000000000000000000000000000000000000000000000000000600052603260045260246000fd5b6020020181815250506124e0565b600486600460058110612455577f4e487b7100000000000000000000000000000000000000000000000000000000600052603260045260246000fd5b60200201511061249a576040517f08c379a000000000000000000000000000000000000000000000000000000000815260040161249190613c17565b60405180910390fd5b6000866003600581106124d6577f4e487b7100000000000000000000000000000000000000000000000000000000600052603260045260246000fd5b6020020181815250505b61252b565b600086600160058110612521577f4e487b7100000000000000000000000000000000000000000000000000000000600052603260045260246000fd5b6020020181815250505b600083600060028110612567577f4e487b7100000000000000000000000000000000000000000000000000000000600052603260045260246000fd5b6020020151116125ac576040517f08c379a00000000000000000000000000000000000000000000000000000000081526004016125a390613c37565b60405180910390fd5b826000600281106125e6577f4e487b7100000000000000000000000000000000000000000000000000000000600052603260045260246000fd5b602002015183600160028110612625577f4e487b7100000000000000000000000000000000000000000000000000000000600052603260045260246000fd5b60200201511161266a576040517f08c379a000000000000000000000000000000000000000000000000000000000815260040161266190613d57565b60405180910390fd5b6000826000600281106126a6577f4e487b7100000000000000000000000000000000000000000000000000000000600052603260045260246000fd5b6020020151116126eb576040517f08c379a00000000000000000000000000000000000000000000000000000000081526004016126e290613b37565b60405180910390fd5b81600060028110612725577f4e487b7100000000000000000000000000000000000000000000000000000000600052603260045260246000fd5b602002015182600160028110612764577f4e487b7100000000000000000000000000000000000000000000000000000000600052603260045260246000fd5b6020020151116127a9576040517f08c379a00000000000000000000000000000000000000000000000000000000081526004016127a090613dd7565b60405180910390fd5b600084116127ec576040517f08c379a00000000000000000000000000000000000000000000000000000000081526004016127e390613c97565b60405180910390fd5b602881600060028110612828577f4e487b7100000000000000000000000000000000000000000000000000000000600052603260045260246000fd5b60200201511161286d576040517f08c379a000000000000000000000000000000000000000000000000000000000815260040161286490613d37565b60405180910390fd5b6000816001600281106128a9577f4e487b7100000000000000000000000000000000000000000000000000000000600052603260045260246000fd5b6020020151116128ee576040517f08c379a00000000000000000000000000000000000000000000000000000000081526004016128e590613df7565b60405180910390fd5b5050505050505050565b60006040517f3d602d80600a3d3981f3363d3d373d3d3d363d7300000000000000000000000081528260601b60148201527f5af43d82803e903d91602b57fd5bf3000000000000000000000000000000000060288201526037816000f0915050600073ffffffffffffffffffffffffffffffffffffffff168173ffffffffffffffffffffffffffffffffffffffff1614156129c8576040517f08c379a00000000000000000000000000000000000000000000000000000000081526004016129bf90613c57565b60405180910390fd5b919050565b600033905090565b80471015612a18576040517f08c379a0000000000000000000000000000000000000000000000000000000008152600401612a0f90613cb7565b60405180910390fd5b600260009054906101000a900473ffffffffffffffffffffffffffffffffffffffff1673ffffffffffffffffffffffffffffffffffffffff166108fc829081150290604051600060405180830381858888f19350505050158015612a80573d6000803e3d6000fd5b50600260009054906101000a900473ffffffffffffffffffffffffffffffffffffffff1673ffffffffffffffffffffffffffffffffffffffff16612ac26129cd565b73ffffffffffffffffffffffffffffffffffffffff167ffda3a3e0e1479b43cb1c701f7576187f4c4ad80768d627387e00184302f7d88e83604051612b079190613e72565b60405180910390a350565b828054612b1e90614208565b90600052602060002090601f016020900481019282612b405760008555612b87565b82601f10612b5957805160ff1916838001178555612b87565b82800160010185558215612b87579182015b82811115612b86578251825591602001919060010190612b6b565b5b509050612b949190612bd1565b5090565b604051806060016040528060008152602001600073ffffffffffffffffffffffffffffffffffffffff1681526020016000151581525090565b5b80821115612bea576000816000905550600101612bd2565b5090565b6000612c01612bfc84613eb2565b613e8d565b90508082856020860282011115612c1757600080fd5b60005b85811015612c475781612c2d8882612db8565b845260208401935060208301925050600181019050612c1a565b5050509392505050565b6000612c64612c5f84613ed8565b613e8d565b90508082856020860282011115612c7a57600080fd5b60005b85811015612caa5781612c908882612e7e565b845260208401935060208301925050600181019050612c7d565b5050509392505050565b6000612cc7612cc284613efe565b613e8d565b90508082856020860282011115612cdd57600080fd5b60005b85811015612d0d5781612cf38882612ebd565b845260208401935060208301925050600181019050612ce0565b5050509392505050565b6000612d2a612d2584613f24565b613e8d565b90508082856020860282011115612d4057600080fd5b60005b85811015612d705781612d568882612ebd565b845260208401935060208301925050600181019050612d43565b5050509392505050565b6000612d8d612d8884613f4a565b613e8d565b905082815260208101848484011115612da557600080fd5b612db08482856141c6565b509392505050565b600081359050612dc78161477f565b92915050565b600082601f830112612dde57600080fd5b6002612deb848285612bee565b91505092915050565b600082601f830112612e0557600080fd5b600a612e12848285612c51565b91505092915050565b600082601f830112612e2c57600080fd5b6002612e39848285612cb4565b91505092915050565b600082601f830112612e5357600080fd5b6005612e60848285612d17565b91505092915050565b600081359050612e7881614796565b92915050565b600081359050612e8d816147ad565b92915050565b600082601f830112612ea457600080fd5b8135612eb4848260208601612d7a565b91505092915050565b600081359050612ecc816147c4565b92915050565b600081519050612ee1816147c4565b92915050565b600060208284031215612ef957600080fd5b6000612f0784828501612db8565b91505092915050565b6000806000806000806000806000806103808b8d031215612f3057600080fd5b6000612f3e8d828e01612dcd565b9a50506040612f4f8d828e01612df4565b995050610180612f618d828e01612e1b565b9850506101c0612f738d828e01612e42565b975050610260612f858d828e01612ebd565b965050610280612f978d828e01612ebd565b9550506102a0612fa98d828e01612e1b565b9450506102e0612fbb8d828e01612e1b565b935050610320612fcd8d828e01612e1b565b925050610360612fdf8d828e01612e69565b9150509295989b9194979a5092959850565b6000806040838503121561300457600080fd5b600083013567ffffffffffffffff81111561301e57600080fd5b61302a85828601612e93565b925050602061303b85828601612ebd565b9150509250929050565b60006020828403121561305757600080fd5b600061306584828501612ebd565b91505092915050565b60006020828403121561308057600080fd5b600061308e84828501612ed2565b91505092915050565b600080604083850312156130aa57600080fd5b60006130b885828601612ebd565b92505060206130c985828601612ebd565b9150509250929050565b60006130df8383613177565b60208301905092915050565b60006130f7838361349e565b60208301905092915050565b600061310f8383613874565b905092915050565b600061312383836138c4565b60608301905092915050565b600061313b8383613948565b60408301905092915050565b60006131538383613977565b60408301905092915050565b600061316b83836139a6565b60208301905092915050565b61318081614174565b82525050565b61318f81614174565b82525050565b61319e81613fe3565b6131a881846140ae565b92506131b382613f7b565b8060005b838110156131e45781516131cb87826130d3565b96506131d683614046565b9250506001810190506131b7565b505050505050565b6131f581613fee565b6131ff81846140b9565b925061320a82613f85565b8060005b8381101561323b57815161322287826130eb565b965061322d83614053565b92505060018101905061320e565b505050505050565b600061324e82613ff9565b61325881856140c4565b93508360208202850161326a85613f8f565b8060005b858110156132a657848403895281516132878582613103565b945061329283614060565b925060208a0199505060018101905061326e565b50829750879550505050505092915050565b60006132c382614004565b6132cd81856140d5565b93506132d883613f9f565b8060005b838110156133095781516132f08882613117565b97506132fb8361406d565b9250506001810190506132dc565b5085935050505092915050565b60006133218261400f565b61332b81856140e6565b935061333683613faf565b8060005b8381101561336757815161334e888261312f565b97506133598361407a565b92505060018101905061333a565b5085935050505092915050565b600061337f8261401a565b61338981856140f7565b935061339483613fbf565b8060005b838110156133c55781516133ac8882613147565b97506133b783614087565b925050600181019050613398565b5085935050505092915050565b6133db81614025565b6133e58184614108565b92506133f082613fcf565b8060005b83811015613421578151613408878261315f565b965061341383614094565b9250506001810190506133f4565b505050505050565b61343281614030565b61343c8184614113565b925061344782613fd9565b8060005b8381101561347857815161345f878261315f565b965061346a836140a1565b92505060018101905061344b565b505050505050565b61348981614186565b82525050565b61349881614186565b82525050565b6134a781614192565b82525050565b60006134b88261403b565b6134c2818561411e565b93506134d28185602086016141d5565b6134db816142f8565b840191505092915050565b60006134f3601b8361412f565b91506134fe82614309565b602082019050919050565b600061351660128361412f565b915061352182614332565b602082019050919050565b600061353960288361412f565b91506135448261435b565b604082019050919050565b600061355c60108361412f565b9150613567826143aa565b602082019050919050565b600061357f60148361412f565b915061358a826143d3565b602082019050919050565b60006135a260188361412f565b91506135ad826143fc565b602082019050919050565b60006135c560188361412f565b91506135d082614425565b602082019050919050565b60006135e8600e8361412f565b91506135f38261444e565b602082019050919050565b600061360b60278361412f565b915061361682614477565b604082019050919050565b600061362e600f8361412f565b9150613639826144c6565b602082019050919050565b600061365160168361412f565b915061365c826144ef565b602082019050919050565b600061367460208361412f565b915061367f82614518565b602082019050919050565b600061369760198361412f565b91506136a282614541565b602082019050919050565b60006136ba60148361412f565b91506136c58261456a565b602082019050919050565b60006136dd60198361412f565b91506136e882614593565b602082019050919050565b6000613700601b8361412f565b915061370b826145bc565b602082019050919050565b600061372360148361412f565b915061372e826145e5565b602082019050919050565b6000613746601b8361412f565b91506137518261460e565b602082019050919050565b600061376960178361412f565b915061377482614637565b602082019050919050565b600061378c601f8361412f565b915061379782614660565b602082019050919050565b60006137af60138361412f565b91506137ba82614689565b602082019050919050565b60006137d260138361412f565b91506137dd826146b2565b602082019050919050565b60006137f560158361412f565b9150613800826146db565b602082019050919050565b6000613818601a8361412f565b915061382382614704565b602082019050919050565b600061383b601a8361412f565b91506138468261472d565b602082019050919050565b600061385e601a8361412f565b915061386982614756565b602082019050919050565b600060608301600083015161388c60008601826139a6565b50602083015184820360208601526138a482826134ad565b91505060408301516138b960408601826139a6565b508091505092915050565b6060820160008201516138da60008501826139a6565b5060208201516138ed6020850182613177565b5060408201516139006040850182613480565b50505050565b60608201600082015161391c60008501826139a6565b50602082015161392f6020850182613177565b5060408201516139426040850182613480565b50505050565b60408201600082015161395e60008501826139a6565b5060208201516139716020850182613177565b50505050565b60408201600082015161398d6000850182613177565b5060208201516139a06020850182613177565b50505050565b6139af816141bc565b82525050565b6139be816141bc565b82525050565b60006020820190506139d96000830184613186565b92915050565b60006103a0820190506139f5600083018e613186565b613a02602083018d613195565b613a0f606083018c6131ec565b613a1d6101a083018b6133d2565b613a2b6101e083018a613429565b613a396102808301896139b5565b613a476102a08301886139b5565b613a556102c08301876133d2565b613a636103008301866133d2565b613a716103408301856133d2565b613a7f61038083018461348f565b9c9b505050505050505050505050565b60006020820190508181036000830152613aa98184613243565b905092915050565b60006020820190508181036000830152613acb81846132b8565b905092915050565b60006020820190508181036000830152613aed8184613316565b905092915050565b60006020820190508181036000830152613b0f8184613374565b905092915050565b60006020820190508181036000830152613b30816134e6565b9050919050565b60006020820190508181036000830152613b5081613509565b9050919050565b60006020820190508181036000830152613b708161352c565b9050919050565b60006020820190508181036000830152613b908161354f565b9050919050565b60006020820190508181036000830152613bb081613572565b9050919050565b60006020820190508181036000830152613bd081613595565b9050919050565b60006020820190508181036000830152613bf0816135b8565b9050919050565b60006020820190508181036000830152613c10816135db565b9050919050565b60006020820190508181036000830152613c30816135fe565b9050919050565b60006020820190508181036000830152613c5081613621565b9050919050565b60006020820190508181036000830152613c7081613644565b9050919050565b60006020820190508181036000830152613c9081613667565b9050919050565b60006020820190508181036000830152613cb08161368a565b9050919050565b60006020820190508181036000830152613cd0816136ad565b9050919050565b60006020820190508181036000830152613cf0816136d0565b9050919050565b60006020820190508181036000830152613d10816136f3565b9050919050565b60006020820190508181036000830152613d3081613716565b9050919050565b60006020820190508181036000830152613d5081613739565b9050919050565b60006020820190508181036000830152613d708161375c565b9050919050565b60006020820190508181036000830152613d908161377f565b9050919050565b60006020820190508181036000830152613db0816137a2565b9050919050565b60006020820190508181036000830152613dd0816137c5565b9050919050565b60006020820190508181036000830152613df0816137e8565b9050919050565b60006020820190508181036000830152613e108161380b565b9050919050565b60006020820190508181036000830152613e308161382e565b9050919050565b60006020820190508181036000830152613e5081613851565b9050919050565b6000606082019050613e6c6000830184613906565b92915050565b6000602082019050613e8760008301846139b5565b92915050565b6000613e97613ea8565b9050613ea3828261423a565b919050565b6000604051905090565b600067ffffffffffffffff821115613ecd57613ecc6142c9565b5b602082029050919050565b600067ffffffffffffffff821115613ef357613ef26142c9565b5b602082029050919050565b600067ffffffffffffffff821115613f1957613f186142c9565b5b602082029050919050565b600067ffffffffffffffff821115613f3f57613f3e6142c9565b5b602082029050919050565b600067ffffffffffffffff821115613f6557613f646142c9565b5b613f6e826142f8565b9050602081019050919050565b6000819050919050565b6000819050919050565b6000819050602082019050919050565b6000819050602082019050919050565b6000819050602082019050919050565b6000819050602082019050919050565b6000819050919050565b6000819050919050565b600060029050919050565b6000600a9050919050565b600081519050919050565b600081519050919050565b600081519050919050565b600081519050919050565b600060029050919050565b600060059050919050565b600081519050919050565b6000602082019050919050565b6000602082019050919050565b6000602082019050919050565b6000602082019050919050565b6000602082019050919050565b6000602082019050919050565b6000602082019050919050565b6000602082019050919050565b600081905092915050565b600081905092915050565b600082825260208201905092915050565b600082825260208201905092915050565b600082825260208201905092915050565b600082825260208201905092915050565b600081905092915050565b600081905092915050565b600082825260208201905092915050565b600082825260208201905092915050565b600061414b826141bc565b9150614156836141bc565b9250828210156141695761416861426b565b5b828203905092915050565b600061417f8261419c565b9050919050565b60008115159050919050565b6000819050919050565b600073ffffffffffffffffffffffffffffffffffffffff82169050919050565b6000819050919050565b82818337600083830152505050565b60005b838110156141f35780820151818401526020810190506141d8565b83811115614202576000848401525b50505050565b6000600282049050600182168061422057607f821691505b602082108114156142345761423361429a565b5b50919050565b614243826142f8565b810181811067ffffffffffffffff82111715614262576142616142c9565b5b80604052505050565b7f4e487b7100000000000000000000000000000000000000000000000000000000600052601160045260246000fd5b7f4e487b7100000000000000000000000000000000000000000000000000000000600052602260045260246000fd5b7f4e487b7100000000000000000000000000000000000000000000000000000000600052604160045260246000fd5b6000601f19601f8301169050919050565b7f6f6e6c79206f776e65722063616e2061636365737320746869732e0000000000600082015250565b7f4d494e4d41583a205a45524f5f56414c55450000000000000000000000000000600082015250565b7f4155544f5f494e435245415345445f50455243454e543a204f55545f4f465f5360008201527f454c454354494f4e000000000000000000000000000000000000000000000000602082015250565b7f726f75746572206e6f7420666f756e6400000000000000000000000000000000600082015250565b7f524f555445523a205a45524f5f41444452455353000000000000000000000000600082015250565b7f50524553414c455f524154453a205a45524f5f56414c55450000000000000000600082015250565b7f524f555445523a204f55545f4f465f53454c454354494f4e0000000000000000600082015250565b7f4f55545f4f465f42414c414e4345000000000000000000000000000000000000600082015250565b7f4155544f5f494e435245415345445f504552494f443a204f55545f4f465f534560008201527f4c454354494f4e00000000000000000000000000000000000000000000000000602082015250565b7f4341503a205a45524f5f56414c55450000000000000000000000000000000000600082015250565b7f455243313136373a20637265617465206661696c656400000000000000000000600082015250565b7f4155544f5f494e435245415345443a204f55545f4f465f53454c454354494f4e600082015250565b7f4c495354494e475f50524943453a205a45524f5f56414c554500000000000000600082015250565b7f696e73756666696369656e742062616c616e6365000000000000000000000000600082015250565b7f454e445f444154453a204c4553535f5448414e5f535441525400000000000000600082015250565b7f53544152545f444154453a204e4f545f4655545552455f444154450000000000600082015250565b7f726f7574657220616c7265616479206164646564000000000000000000000000600082015250565b7f4c49515549444954593a204c4553535f5448414e5f4e4f524d414c0000000000600082015250565b7f4341503a204c4553535f5448414e5f534f46545f434150000000000000000000600082015250565b7f5265656e7472616e637947756172643a207265656e7472616e742063616c6c00600082015250565b7f6c61756e6368706164206e6f7420666f756e6400000000000000000000000000600082015250565b7f544f4b454e3a205a45524f5f4144445245535300000000000000000000000000600082015250565b7f4d494e4d41583a204c4553535f5448414e5f4d494e0000000000000000000000600082015250565b7f4c49515549444954593a205a45524f5f54494d455f56414c5545000000000000600082015250565b7f4155544f5f494e435245415345443a205a45524f5f56414c5545000000000000600082015250565b7f696e76616c696420616d6f756e7420666f72207061796d656e74000000000000600082015250565b61478881614174565b811461479357600080fd5b50565b61479f81614186565b81146147aa57600080fd5b50565b6147b681614192565b81146147c157600080fd5b50565b6147cd816141bc565b81146147d857600080fd5b5056fea2646970667358221220675466b79862c567fb4bd22818897c325ab9650bcb95dd42f516800f2dbf8a9164736f6c63430008040033",
    "linkReferences": {},
    "deployedLinkReferences": {}
}