{
    "_format": "hh-sol-artifact-1",
    "contractName": "Pool721",
    "sourceName": "contracts/Pool721.sol",
    "abi": [
        {
            "anonymous": false,
            "inputs": [
                {
                    "indexed": false,
                    "internalType": "address",
                    "name": "nftAddress",
                    "type": "address"
                },
                {
                    "indexed": false,
                    "internalType": "uint256",
                    "name": "tokenId",
                    "type": "uint256"
                },
                {
                    "indexed": false,
                    "internalType": "uint256",
                    "name": "time",
                    "type": "uint256"
                }
            ],
            "name": "addNftRewardEVT",
            "type": "event"
        },
        {
            "anonymous": false,
            "inputs": [
                {
                    "indexed": false,
                    "internalType": "address",
                    "name": "tokenAddress",
                    "type": "address"
                },
                {
                    "indexed": false,
                    "internalType": "uint256",
                    "name": "amount",
                    "type": "uint256"
                },
                {
                    "indexed": false,
                    "internalType": "uint256",
                    "name": "time",
                    "type": "uint256"
                }
            ],
            "name": "addTokenRewardEVT",
            "type": "event"
        },
        {
            "anonymous": false,
            "inputs": [
                {
                    "indexed": false,
                    "internalType": "address",
                    "name": "owner",
                    "type": "address"
                },
                {
                    "indexed": false,
                    "internalType": "uint256",
                    "name": "tokenId",
                    "type": "uint256"
                },
                {
                    "indexed": false,
                    "internalType": "uint256",
                    "name": "time",
                    "type": "uint256"
                }
            ],
            "name": "claimNftEVT",
            "type": "event"
        },
        {
            "anonymous": false,
            "inputs": [
                {
                    "indexed": false,
                    "internalType": "address",
                    "name": "by",
                    "type": "address"
                },
                {
                    "indexed": false,
                    "internalType": "uint256",
                    "name": "tokenId",
                    "type": "uint256"
                },
                {
                    "indexed": false,
                    "internalType": "uint256",
                    "name": "time",
                    "type": "uint256"
                }
            ],
            "name": "claimNftRewardEVT",
            "type": "event"
        },
        {
            "anonymous": false,
            "inputs": [
                {
                    "indexed": false,
                    "internalType": "address",
                    "name": "by",
                    "type": "address"
                },
                {
                    "indexed": false,
                    "internalType": "uint256",
                    "name": "amount",
                    "type": "uint256"
                },
                {
                    "indexed": false,
                    "internalType": "uint256",
                    "name": "time",
                    "type": "uint256"
                }
            ],
            "name": "claimTokenRewardEVT",
            "type": "event"
        },
        {
            "inputs": [
                {
                    "internalType": "uint256",
                    "name": "_tokenId",
                    "type": "uint256"
                }
            ],
            "name": "addNftRewards",
            "outputs": [],
            "stateMutability": "nonpayable",
            "type": "function"
        },
        {
            "inputs": [
                {
                    "internalType": "uint256",
                    "name": "_amount",
                    "type": "uint256"
                },
                {
                    "internalType": "address",
                    "name": "_rewardAddress",
                    "type": "address"
                }
            ],
            "name": "addTokenRewards",
            "outputs": [],
            "stateMutability": "nonpayable",
            "type": "function"
        },
        {
            "inputs": [],
            "name": "getAllstakers",
            "outputs": [
                {
                    "components": [
                        {
                            "internalType": "uint256",
                            "name": "index",
                            "type": "uint256"
                        },
                        {
                            "internalType": "address",
                            "name": "stakers",
                            "type": "address"
                        },
                        {
                            "internalType": "uint256",
                            "name": "tokenId",
                            "type": "uint256"
                        },
                        {
                            "internalType": "uint256",
                            "name": "stakeTime",
                            "type": "uint256"
                        },
                        {
                            "internalType": "enum Pool721.StakeStatus",
                            "name": "status",
                            "type": "uint8"
                        }
                    ],
                    "internalType": "struct Pool721.Stake[]",
                    "name": "",
                    "type": "tuple[]"
                }
            ],
            "stateMutability": "view",
            "type": "function"
        },
        {
            "inputs": [],
            "name": "getNFTReward",
            "outputs": [
                {
                    "components": [
                        {
                            "internalType": "uint256",
                            "name": "index",
                            "type": "uint256"
                        },
                        {
                            "internalType": "uint256",
                            "name": "tokenId",
                            "type": "uint256"
                        },
                        {
                            "internalType": "address",
                            "name": "from",
                            "type": "address"
                        },
                        {
                            "internalType": "enum Pool721.RewardStatus",
                            "name": "status",
                            "type": "uint8"
                        }
                    ],
                    "internalType": "struct Pool721.Reward[]",
                    "name": "",
                    "type": "tuple[]"
                }
            ],
            "stateMutability": "view",
            "type": "function"
        },
        {
            "inputs": [],
            "name": "getTokenBalance",
            "outputs": [
                {
                    "internalType": "uint256",
                    "name": "",
                    "type": "uint256"
                }
            ],
            "stateMutability": "view",
            "type": "function"
        },
        {
            "inputs": [
                {
                    "internalType": "address",
                    "name": "to",
                    "type": "address"
                },
                {
                    "internalType": "address",
                    "name": "from",
                    "type": "address"
                },
                {
                    "internalType": "uint256",
                    "name": "tokenId",
                    "type": "uint256"
                },
                {
                    "internalType": "bytes",
                    "name": "_data",
                    "type": "bytes"
                }
            ],
            "name": "onERC721Received",
            "outputs": [
                {
                    "internalType": "bytes4",
                    "name": "",
                    "type": "bytes4"
                }
            ],
            "stateMutability": "nonpayable",
            "type": "function"
        },
        {
            "inputs": [],
            "name": "poolIndex",
            "outputs": [
                {
                    "internalType": "uint256",
                    "name": "",
                    "type": "uint256"
                }
            ],
            "stateMutability": "view",
            "type": "function"
        },
        {
            "inputs": [
                {
                    "internalType": "uint256[]",
                    "name": "_dates",
                    "type": "uint256[]"
                },
                {
                    "internalType": "uint16[]",
                    "name": "_data",
                    "type": "uint16[]"
                },
                {
                    "internalType": "address",
                    "name": "_nftAddress",
                    "type": "address"
                },
                {
                    "internalType": "address",
                    "name": "_poolOwner",
                    "type": "address"
                }
            ],
            "name": "setPoolDetails",
            "outputs": [],
            "stateMutability": "nonpayable",
            "type": "function"
        },
        {
            "inputs": [
                {
                    "internalType": "uint256",
                    "name": "_tokenId",
                    "type": "uint256"
                }
            ],
            "name": "stake",
            "outputs": [],
            "stateMutability": "nonpayable",
            "type": "function"
        },
        {
            "inputs": [
                {
                    "internalType": "uint256",
                    "name": "_tokenId",
                    "type": "uint256"
                },
                {
                    "internalType": "bool",
                    "name": "_iswinner",
                    "type": "bool"
                },
                {
                    "internalType": "uint256",
                    "name": "_rewardId",
                    "type": "uint256"
                }
            ],
            "name": "unStakeNftReward",
            "outputs": [],
            "stateMutability": "nonpayable",
            "type": "function"
        },
        {
            "inputs": [
                {
                    "internalType": "uint256",
                    "name": "_tokenId",
                    "type": "uint256"
                }
            ],
            "name": "unStakeTokenReward",
            "outputs": [],
            "stateMutability": "nonpayable",
            "type": "function"
        }
    ],
    "bytecode": "0x60806040526001805460ff60a01b19169055600060025534801561002257600080fd5b506123ef806100326000396000f3fe608060405234801561001057600080fd5b50600436106100a95760003560e01c80636934b9ff116100715780636934b9ff14610129578063697a11981461013c57806382b2e2571461014f578063a283415114610157578063a694fc3a1461016a578063c375a7051461017d576100a9565b8063150b7a02146100ae57806315a2bd64146100d757806321c42d51146100ec5780634ce272ee146100ff57806354883d5e14610114575b600080fd5b6100c16100bc366004611b92565b610192565b6040516100ce919061203a565b60405180910390f35b6100ea6100e5366004611d7f565b61034e565b005b6100ea6100fa366004611d20565b6106cf565b610107610a61565b6040516100ce91906122f0565b61011c610a67565b6040516100ce9190611f43565b6100ea610137366004611d50565b610b40565b6100ea61014a366004611d20565b610c96565b610107610e31565b6100ea610165366004611c2c565b610eb7565b6100ea610178366004611d20565b6111a0565b6101856113c5565b6040516100ce9190611fc0565b600082826040516101a4929190611db6565b6040805191829003822082820190915260068252651c995dd85c9960d21b6020909201919091527f594d34f771ec633c2f562d96c03f9299763555317b87ad49b1aa8c08079dde0e1415610201576101fc848661149f565b61033c565b8282604051610211929190611db6565b6040805191829003822082820190915260058252647374616b6560d81b6020909201919091527fc3a04795accb4b73d12f13b05a1e0e240cefeb9a89d008676730867a819d2f791415610268576101fc84866116a9565b8282604051610278929190611db6565b60408051918290038220828201909152600882526718db185a5b5495d160c21b6020909201919091527ff21f997cde71a8cb3f4682f974a102f0037e6e56a3fb2bdf33e2ac7e1bbd854c14156102d2576101fc8685611949565b82826040516102e2929190611db6565b604080519182900382208282019091526008825267636c61696d53544b60c01b6020909201919091527faf7f085fb8e8e1b0d48466a137f7e0d7870e881fc8f25041b4a67cc3c803119b141561033c5761033c8685611a0b565b50630a85bd0160e11b95945050505050565b600380546000908152600460209081526040808320815160e08101835281548152600180830154948201949094526002820154928101929092529384015461ffff8082166060840152620100008204166080830152600160201b81046001600160a01b031660a083015292939092909160c0840191600160c01b900460ff16908111156103eb57634e487b7160e01b600052602160045260246000fd5b600181111561040a57634e487b7160e01b600052602160045260246000fd5b9052503360009081526005602090815260408083208884528252808320815160a0810183528154815260018201546001600160a01b031693810193909352600280820154928401929092526003810154606084015260048101549495509293919291608084019160ff9091169081111561049457634e487b7160e01b600052602160045260246000fd5b60028111156104b357634e487b7160e01b600052602160045260246000fd5b90525060208101519091506001600160a01b031633146104ee5760405162461bcd60e51b81526004016104e59061211d565b60405180910390fd5b42826040015111156105125760405162461bcd60e51b81526004016104e5906120bd565b60008381526008602090815260408083208151608081018352815481526001808301549482019490945260028201546001600160a01b038116938201939093529290916060840191600160a01b90910460ff169081111561058357634e487b7160e01b600052602160045260246000fd5b60018111156105a257634e487b7160e01b600052602160045260246000fd5b90525060a084015190915060018615151415610661576000826060015160018111156105de57634e487b7160e01b600052602160045260246000fd5b146105fb5760405162461bcd60e51b81526004016104e59061225c565b6020830151604051635c46a7ef60e11b81526001600160a01b0383169163b88d4fde9161062e9130918a90600401611ec5565b600060405180830381600087803b15801561064857600080fd5b505af115801561065c573d6000803e3d6000fd5b505050505b6020830151604051635c46a7ef60e11b81526001600160a01b0383169163b88d4fde916106949130918c90600401611e40565b600060405180830381600087803b1580156106ae57600080fd5b505af11580156106c2573d6000803e3d6000fd5b5050505050505050505050565b600380546000908152600460209081526040808320815160e08101835281548152600180830154948201949094526002820154928101929092529384015461ffff8082166060840152620100008204166080830152600160201b81046001600160a01b031660a083015292939092909160c0840191600160c01b900460ff169081111561076c57634e487b7160e01b600052602160045260246000fd5b600181111561078b57634e487b7160e01b600052602160045260246000fd5b9052503360009081526005602090815260408083208684528252808320815160a0810183528154815260018201546001600160a01b031693810193909352600280820154928401929092526003810154606084015260048101549495509293919291608084019160ff9091169081111561081557634e487b7160e01b600052602160045260246000fd5b600281111561083457634e487b7160e01b600052602160045260246000fd5b90525060208101519091506001600160a01b031633146108665760405162461bcd60e51b81526004016104e59061211d565b428260400151111561088a5760405162461bcd60e51b81526004016104e5906120bd565b60a08201516001546002546001600160a01b0390911690610933576007546040516370a0823160e01b815261092f91906001600160a01b038416906370a08231906108d9903090600401611dc6565b60206040518083038186803b1580156108f157600080fd5b505afa158015610905573d6000803e3d6000fd5b505050506040513d601f19601f820116820180604052508101906109299190611d38565b90611ad8565b6002555b602083015160025460405163a9059cbb60e01b81526001600160a01b0384169263a9059cbb9261096592600401611f09565b602060405180830381600087803b15801561097f57600080fd5b505af1158015610993573d6000803e3d6000fd5b505050506040513d601f19601f820116820180604052508101906109b79190611d04565b506020830151604051635c46a7ef60e11b81526001600160a01b0384169163b88d4fde916109eb9130918a90600401611e40565b600060405180830381600087803b158015610a0557600080fd5b505af1158015610a19573d6000803e3d6000fd5b505050507ff254c2959ee66bd9c5b4e56a46660c86f2f889f3ec5fc63c4c77b1fb0b0a8fa73360025442604051610a5293929190611f22565b60405180910390a15050505050565b60035481565b60606009805480602002602001604051908101604052809291908181526020016000905b82821015610b375760008481526020908190206040805160808101825260038602909201805483526001808201549484019490945260028101546001600160a01b0381169284019290925291926060840191600160a01b900460ff1690811115610b0557634e487b7160e01b600052602160045260246000fd5b6001811115610b2457634e487b7160e01b600052602160045260246000fd5b8152505081526020019060010190610a8b565b50505050905090565b60005433906001600160a01b03168114610b6c5760405162461bcd60e51b81526004016104e590612086565b600154600160a01b900460ff161580610b90575060018054600160a01b900460ff16145b610bac5760405162461bcd60e51b81526004016104e5906121b2565b600180546001600160a01b0319166001600160a01b0384169081179091556040516323b872dd60e01b81526323b872dd90610bef90339030908890600401611dda565b602060405180830381600087803b158015610c0957600080fd5b505af1158015610c1d573d6000803e3d6000fd5b505050506040513d601f19601f82011682018060405250810190610c419190611d04565b506001805460ff60a01b1916600160a01b1790556040517f3a0d3ec5c866342432337e5ac73fc8a001b1762065cd9e17766cea1833302e8e90610c8990849086904290611f22565b60405180910390a1505050565b60005433906001600160a01b03168114610cc25760405162461bcd60e51b81526004016104e590612086565b600154600160a01b900460ff161580610ce75750600154600160a01b900460ff166002145b610d035760405162461bcd60e51b81526004016104e59061216b565b600380546000908152600460208190526040918290209092015490516331a9108f60e11b8152600160201b9091046001600160a01b031691829133918391636352211e91610d53918991016122f0565b60206040518083038186803b158015610d6b57600080fd5b505afa158015610d7f573d6000803e3d6000fd5b505050506040513d601f19601f82011682018060405250810190610da39190611b76565b6001600160a01b031614610dc95760405162461bcd60e51b81526004016104e5906120f4565b604051635c46a7ef60e11b81526001600160a01b0382169063b88d4fde90610df990339030908990600401611dfe565b600060405180830381600087803b158015610e1357600080fd5b505af1158015610e27573d6000803e3d6000fd5b5050505050505050565b6001546040516370a0823160e01b81526000916001600160a01b0316906370a0823190610e62903090600401611dc6565b60206040518083038186803b158015610e7a57600080fd5b505afa158015610e8e573d6000803e3d6000fd5b505050506040513d601f19601f82011682018060405250810190610eb29190611d38565b905090565b83600181518110610ed857634e487b7160e01b600052603260045260246000fd5b602002602001015184600081518110610f0157634e487b7160e01b600052603260045260246000fd5b6020026020010151108015610f3e57504284600081518110610f3357634e487b7160e01b600052603260045260246000fd5b602002602001015110155b610f5a5760405162461bcd60e51b81526004016104e590612293565b6000546001600160a01b031615610f835760405162461bcd60e51b81526004016104e5906121f7565b60006040518060e0016040528086600081518110610fb157634e487b7160e01b600052603260045260246000fd5b6020026020010151815260200186600181518110610fdf57634e487b7160e01b600052603260045260246000fd5b602002602001015181526020018660028151811061100d57634e487b7160e01b600052603260045260246000fd5b602002602001015181526020018560008151811061103b57634e487b7160e01b600052603260045260246000fd5b602002602001015161ffff1681526020018560018151811061106d57634e487b7160e01b600052603260045260246000fd5b602002602001015161ffff168152602001846001600160a01b03168152602001600060018111156110ae57634e487b7160e01b600052602160045260246000fd5b9052600080546001600160a01b0319166001600160a01b0385811691909117825560038054835260046020908152604093849020855181559085015160018281019190915593850151600282015560608501519181018054608087015160a088015161ffff1990921661ffff9586161763ffff0000191662010000959091169490940293909317640100000000600160c01b031916600160201b93909416929092029290921780825560c08501519495508594929360ff60c01b1990911690600160c01b90849081111561119257634e487b7160e01b600052602160045260246000fd5b021790555050505050505050565b600380546000908152600460209081526040808320815160e08101835281548152600180830154948201949094526002820154928101929092529384015461ffff8082166060840152620100008204166080830152600160201b81046001600160a01b031660a083015292939092909160c0840191600160c01b900460ff169081111561123d57634e487b7160e01b600052602160045260246000fd5b600181111561125c57634e487b7160e01b600052602160045260246000fd5b905250805190915042106112825760405162461bcd60e51b81526004016104e59061204f565b42816020015110156112a65760405162461bcd60e51b81526004016104e5906122b9565b600154600160a01b900460ff166112cf5760405162461bcd60e51b81526004016104e59061222c565b600380546000908152600460208190526040918290209092015490516331a9108f60e11b8152600160201b9091046001600160a01b031691829133918391636352211e9161131f918991016122f0565b60206040518083038186803b15801561133757600080fd5b505afa15801561134b573d6000803e3d6000fd5b505050506040513d601f19601f8201168201806040525081019061136f9190611b76565b6001600160a01b0316146113955760405162461bcd60e51b81526004016104e5906120f4565b604051635c46a7ef60e11b81526001600160a01b0382169063b88d4fde90610df990339030908990600401611e84565b60606007805480602002602001604051908101604052809291908181526020016000905b82821015610b375760008481526020908190206040805160a081018252600586029092018054835260018101546001600160a01b03169383019390935260028084015491830191909152600383015460608301526004830154919291608084019160ff9091169081111561146d57634e487b7160e01b600052602160045260246000fd5b600281111561148c57634e487b7160e01b600052602160045260246000fd5b81525050815260200190600101906113e9565b60038054600090815260046020908152604080832090930154835160808101855260095481528083018781526001600160a01b03878116838801908152606084018781528a885260089096529690952082518155905160018083019190915595516002820180546001600160a01b031916918716919091178082559451600160201b9094049095169591948594919392909160ff60a01b191690600160a01b90849081111561155e57634e487b7160e01b600052602160045260246000fd5b0217905550506009805460018181018355600092909252835160039091027f6e1540171b6c0c960b71a7020d9f60077f6af931a8bbf590da0223dacf75c7af810191825560208501517f6e1540171b6c0c960b71a7020d9f60077f6af931a8bbf590da0223dacf75c7b082015560408501517f6e1540171b6c0c960b71a7020d9f60077f6af931a8bbf590da0223dacf75c7b190910180546001600160a01b039092166001600160a01b0319909216919091178082556060860151869550929360ff60a01b1990911690600160a01b90849081111561164d57634e487b7160e01b600052602160045260246000fd5b0217905550506001805460ff60a01b1916600160a11b179055506040517f3cf731f7c81b98ecee1d772ac5556cc4f0d887e43436a57032332f96a88fe4d79061169b90849087904290611f22565b60405180910390a150505050565b6040805160a08101825260075481526001600160a01b0383811660208084018281528486018881524260608701908152600060808801818152958152600585528881208b825290945296909220855181559051600180830180546001600160a01b031916929096169190911790945590516002808301919091559451600382015590516004820180549495869593949293919260ff199092169190849081111561176357634e487b7160e01b600052602160045260246000fd5b021790555050506001600160a01b0382811660009081526006602090815260408083208054600180820183559185529383902086516005909502019384559185015183830180546001600160a01b03191691909516179093559183015160028083019190915560608401516003830155608084015160048301805486959293919260ff1990911691849081111561180a57634e487b7160e01b600052602160045260246000fd5b021790555050600780546001808201835560009290925283517fa66cc928b5edb82af9bd49922954155ab7b0942694bea4ce44661d9a8736c688600590920291820190815560208501517fa66cc928b5edb82af9bd49922954155ab7b0942694bea4ce44661d9a8736c689830180546001600160a01b0319166001600160a01b0390921691909117905560408501517fa66cc928b5edb82af9bd49922954155ab7b0942694bea4ce44661d9a8736c68a83015560608501517fa66cc928b5edb82af9bd49922954155ab7b0942694bea4ce44661d9a8736c68b83015560808501517fa66cc928b5edb82af9bd49922954155ab7b0942694bea4ce44661d9a8736c68c90920180548695509193909160ff19169083600281111561193d57634e487b7160e01b600052602160045260246000fd5b02179055505050505050565b600081815260086020526040902060028101805460ff60a01b1916600160a01b17905580546009805460019290811061199257634e487b7160e01b600052603260045260246000fd5b60009182526020909120600260039092020101805460ff60a01b1916600160a01b8360018111156119d357634e487b7160e01b600052602160045260246000fd5b02179055507f45f1960e833b264a6d44a82c4f5f627904eccf2ca2f96a972bbaa052c48cc75c838342604051610c8993929190611f22565b6001600160a01b0382166000908152600560209081526040808320848452909152902060048101805460ff191660029081179091558154600780549091908110611a6557634e487b7160e01b600052603260045260246000fd5b60009182526020909120600460059092020101805460ff19166001836002811115611aa057634e487b7160e01b600052602160045260246000fd5b02179055507f3f5c9f9cf4e31cc8c399497a36ef3cac376314a5cd5f14686a8ef2aa5326c6b0838342604051610c8993929190611f22565b6000611ae48284612347565b9392505050565b8035611af681612393565b919050565b600082601f830112611b0b578081fd5b81356020611b20611b1b83612323565b6122f9565b8281528181019085830183850287018401881015611b3c578586fd5b855b85811015611b6957813561ffff81168114611b57578788fd5b84529284019290840190600101611b3e565b5090979650505050505050565b600060208284031215611b87578081fd5b8151611ae481612393565b600080600080600060808688031215611ba9578081fd5b8535611bb481612393565b94506020860135611bc481612393565b935060408601359250606086013567ffffffffffffffff80821115611be7578283fd5b818801915088601f830112611bfa578283fd5b813581811115611c08578384fd5b896020828501011115611c19578384fd5b9699959850939650602001949392505050565b60008060008060808587031215611c41578384fd5b843567ffffffffffffffff80821115611c58578586fd5b818701915087601f830112611c6b578586fd5b81356020611c7b611b1b83612323565b82815281810190858301838502870184018d1015611c97578a8bfd5b8a96505b84871015611cb9578035835260019690960195918301918301611c9b565b5098505088013592505080821115611ccf578485fd5b50611cdc87828801611afb565b935050611ceb60408601611aeb565b9150611cf960608601611aeb565b905092959194509250565b600060208284031215611d15578081fd5b8151611ae4816123ab565b600060208284031215611d31578081fd5b5035919050565b600060208284031215611d49578081fd5b5051919050565b60008060408385031215611d62578182fd5b823591506020830135611d7481612393565b809150509250929050565b600080600060608486031215611d93578283fd5b833592506020840135611da5816123ab565b929592945050506040919091013590565b6000828483379101908152919050565b6001600160a01b0391909116815260200190565b6001600160a01b039384168152919092166020820152604081019190915260600190565b6001600160a01b0393841681529190921660208201526040810191909152608060608201819052600690820152651c995dd85c9960d21b60a082015260c00190565b6001600160a01b039384168152919092166020820152604081019190915260806060820181905260089082015267636c61696d53544b60c01b60a082015260c00190565b6001600160a01b0393841681529190921660208201526040810191909152608060608201819052600590820152647374616b6560d81b60a082015260c00190565b6001600160a01b03938416815291909216602082015260408101919091526080606082018190526008908201526718db185a5b5495d160c21b60a082015260c00190565b6001600160a01b03929092168252602082015260400190565b6001600160a01b039390931683526020830191909152604082015260600190565b602080825282518282018190526000919060409081850190868401855b82811015611fb3578151805185528681015187860152858101516001600160a01b0316868601526060908101519060028210611f9e57611f9e612367565b85015260809093019290850190600101611f60565b5091979650505050505050565b602080825282518282018190526000919060409081850190868401855b82811015611fb357815180518552868101516001600160a01b031687860152858101518686015260608082015190860152608090810151906003821061202557612025612367565b85015260a09093019290850190600101611fdd565b6001600160e01b031991909116815260200190565b6020808252601d908201527f504f4f4c3732313a205374616b696e67206973206e6f74207374617274000000604082015260600190565b60208082526017908201527f43616c6c6572206973206e6f7420746865206f776e6572000000000000000000604082015260600190565b6020808252601a908201527f4552433732313a20696e76616c696420636c61696d2064617465000000000000604082015260600190565b6020808252600f908201526e151bdad95b881b9bdd08199bdd5b99608a1b604082015260600190565b6020808252602e908201527f4552433732313a20636c61696d2063616c6c6572206973206e6f74206f776e6560408201526d1c881b9bdc88185c1c1c9bdd995960921b606082015260800190565b60208082526027908201527f504f4f4c3a37323120546f6b656e2072657761726420697320616c72656164796040820152662061637469766560c81b606082015260800190565b60208082526025908201527f504f4f4c3a373231204e46542072657761726420697320616c72656164792061604082015264637469766560d81b606082015260800190565b6020808252818101527f504f4f4c3732313a20506f6f6c20616c726561647920696e697469616c697a65604082015260600190565b6020808252601690820152751413d3d30dcc8c4e88139bc81c995dd85c99081cd95d60521b604082015260600190565b6020808252601c908201527f4552433732313a2072657761726420616c726561647920636c61696d00000000604082015260600190565b6020808252600c908201526b496e76616c6964206461746560a01b604082015260600190565b6020808252601d908201527f504f4f4c3732313a205374616b696e672074696d65206973206f766572000000604082015260600190565b90815260200190565b60405181810167ffffffffffffffff8111828210171561231b5761231b61237d565b604052919050565b600067ffffffffffffffff82111561233d5761233d61237d565b5060209081020190565b60008261236257634e487b7160e01b81526012600452602481fd5b500490565b634e487b7160e01b600052602160045260246000fd5b634e487b7160e01b600052604160045260246000fd5b6001600160a01b03811681146123a857600080fd5b50565b80151581146123a857600080fdfea2646970667358221220a048f942e1eed17d07dc969228d478a3d39529a05721d4c27b1c1fef1030039764736f6c63430008000033",
    "linkReferences": {},
    "deployedLinkReferences": {}
}