{
    "_format": "hh-sol-artifact-1",
    "contractName": "Project721",
    "sourceName": "contracts/Project721.sol",
    "abi": [
        {
            "inputs": [
                {
                    "internalType": "address",
                    "name": "_poolImplementation",
                    "type": "address"
                }
            ],
            "stateMutability": "nonpayable",
            "type": "constructor"
        },
        {
            "anonymous": false,
            "inputs": [
                {
                    "indexed": false,
                    "internalType": "address",
                    "name": "owner",
                    "type": "address"
                },
                {
                    "indexed": false,
                    "internalType": "address",
                    "name": "poolAddress",
                    "type": "address"
                },
                {
                    "indexed": false,
                    "internalType": "uint256",
                    "name": "time",
                    "type": "uint256"
                }
            ],
            "name": "createPool721EVT",
            "type": "event"
        },
        {
            "inputs": [
                {
                    "internalType": "uint256[]",
                    "name": "_dates",
                    "type": "uint256[]"
                },
                {
                    "internalType": "uint16[]",
                    "name": "_data",
                    "type": "uint16[]"
                }
            ],
            "name": "createPool721",
            "outputs": [
                {
                    "internalType": "address",
                    "name": "",
                    "type": "address"
                }
            ],
            "stateMutability": "nonpayable",
            "type": "function"
        },
        {
            "inputs": [],
            "name": "getAllPool",
            "outputs": [
                {
                    "internalType": "address[]",
                    "name": "",
                    "type": "address[]"
                }
            ],
            "stateMutability": "view",
            "type": "function"
        },
        {
            "inputs": [
                {
                    "internalType": "address",
                    "name": "_nftAddress",
                    "type": "address"
                },
                {
                    "internalType": "address",
                    "name": "_project721Owner",
                    "type": "address"
                }
            ],
            "name": "setProjectDetails",
            "outputs": [],
            "stateMutability": "nonpayable",
            "type": "function"
        }
    ],
    "bytecode": "0x60a060405234801561001057600080fd5b5060405161073938038061073983398101604081905261002f91610044565b60601b6001600160601b031916608052610072565b600060208284031215610055578081fd5b81516001600160a01b038116811461006b578182fd5b9392505050565b60805160601c6106a9610090600039600061010101526106a96000f3fe608060405234801561001057600080fd5b50600436106100415760003560e01c80630f85d111146100465780637a9980821461005b578063a20a4cb414610084575b600080fd5b610059610054366004610385565b610099565b005b61006e6100693660046103b7565b6100f9565b60405161007b919061047b565b60405180910390f35b61008c61021d565b60405161007b91906104b3565b6002546001600160a01b0316156100cb5760405162461bcd60e51b81526004016100c2906105cc565b60405180910390fd5b600180546001600160a01b039384166001600160a01b03199182161790915560028054929093169116179055565b6000806101257f000000000000000000000000000000000000000000000000000000000000000061027f565b60015460405163a283415160e01b81529192506001600160a01b038084169263a2834151926101609289928992909116903390600401610500565b600060405180830381600087803b15801561017a57600080fd5b505af115801561018e573d6000803e3d6000fd5b5050600080546001810182559080527f290decd9548b62a8d60345a988386fc84ba6bc95484008f6362f93160ef3e5630180546001600160a01b0319166001600160a01b03851617905550506040517f6356bf6527c313e3a91df7db8b9c2157025e5f9fc68c3a778f32cc0af6f8ebeb9061020e9033908490429061048f565b60405180910390a19392505050565b6060600080548060200260200160405190810160405280929190818152602001828054801561027557602002820191906000526020600020905b81546001600160a01b03168152600190910190602001808311610257575b5050505050905090565b6000604051733d602d80600a3d3981f3363d3d373d3d3d363d7360601b81528260601b60148201526e5af43d82803e903d91602b57fd5bf360881b60288201526037816000f09150506001600160a01b0381166102ee5760405162461bcd60e51b81526004016100c29061059c565b919050565b80356001600160a01b03811681146102ee57600080fd5b600082601f83011261031a578081fd5b8135602061032f61032a83610639565b61060f565b828152818101908583018385028701840188101561034b578586fd5b855b8581101561037857813561ffff81168114610366578788fd5b8452928401929084019060010161034d565b5090979650505050505050565b60008060408385031215610397578182fd5b6103a0836102f3565b91506103ae602084016102f3565b90509250929050565b600080604083850312156103c9578182fd5b823567ffffffffffffffff808211156103e0578384fd5b818501915085601f8301126103f3578384fd5b8135602061040361032a83610639565b82815281810190858301838502870184018b101561041f578889fd5b8896505b84871015610441578035835260019690960195918301918301610423565b5096505086013592505080821115610457578283fd5b506104648582860161030a565b9150509250929050565b6001600160a01b03169052565b6001600160a01b0391909116815260200190565b6001600160a01b039384168152919092166020820152604081019190915260600190565b6020808252825182820181905260009190848201906040850190845b818110156104f45783516001600160a01b0316835292840192918401916001016104cf565b50909695505050505050565b6080808252855190820181905260009060209060a0840190828901845b828110156105395781518452928401929084019060010161051d565b50505083810382850152865180825287830191830190845b8181101561057157835161ffff1683529284019291840191600101610551565b5050809350505050610586604083018561046e565b610593606083018461046e565b95945050505050565b602080825260169082015275115490cc4c4d8dce8818dc99585d194819985a5b195960521b604082015260600190565b60208082526023908201527f50726f6a6563743732313a20506f6f6c20616c726561647920696e697469616c604082015262697a6560e81b606082015260800190565b60405181810167ffffffffffffffff811182821017156106315761063161065d565b604052919050565b600067ffffffffffffffff8211156106535761065361065d565b5060209081020190565b634e487b7160e01b600052604160045260246000fdfea264697066735822122044f8f4cb3c30b4c7288277408f93e931d0667917189cd3fa990ca7616b61dce764736f6c63430008000033",
    "linkReferences": {},
    "deployedLinkReferences": {}
}