{
  "_format": "hh-sol-artifact-1",
  "contractName": "Sale",
  "sourceName": "contracts/Sale.sol",
  "abi": [
    {
      "anonymous": false,
      "inputs": [
        {
          "indexed": true,
          "internalType": "address",
          "name": "previousOwner",
          "type": "address"
        },
        {
          "indexed": true,
          "internalType": "address",
          "name": "newOwner",
          "type": "address"
        }
      ],
      "name": "OwnershipTransferred",
      "type": "event"
    },
    {
      "anonymous": false,
      "inputs": [
        {
          "indexed": false,
          "internalType": "address",
          "name": "account",
          "type": "address"
        }
      ],
      "name": "Paused",
      "type": "event"
    },
    {
      "anonymous": false,
      "inputs": [
        {
          "indexed": true,
          "internalType": "bytes32",
          "name": "role",
          "type": "bytes32"
        },
        {
          "indexed": true,
          "internalType": "bytes32",
          "name": "previousAdminRole",
          "type": "bytes32"
        },
        {
          "indexed": true,
          "internalType": "bytes32",
          "name": "newAdminRole",
          "type": "bytes32"
        }
      ],
      "name": "RoleAdminChanged",
      "type": "event"
    },
    {
      "anonymous": false,
      "inputs": [
        {
          "indexed": true,
          "internalType": "bytes32",
          "name": "role",
          "type": "bytes32"
        },
        {
          "indexed": true,
          "internalType": "address",
          "name": "account",
          "type": "address"
        },
        {
          "indexed": true,
          "internalType": "address",
          "name": "sender",
          "type": "address"
        }
      ],
      "name": "RoleGranted",
      "type": "event"
    },
    {
      "anonymous": false,
      "inputs": [
        {
          "indexed": true,
          "internalType": "bytes32",
          "name": "role",
          "type": "bytes32"
        },
        {
          "indexed": true,
          "internalType": "address",
          "name": "account",
          "type": "address"
        },
        {
          "indexed": true,
          "internalType": "address",
          "name": "sender",
          "type": "address"
        }
      ],
      "name": "RoleRevoked",
      "type": "event"
    },
    {
      "anonymous": false,
      "inputs": [
        {
          "indexed": false,
          "internalType": "address",
          "name": "sale",
          "type": "address"
        }
      ],
      "name": "SaleCancelled",
      "type": "event"
    },
    {
      "anonymous": false,
      "inputs": [
        {
          "indexed": false,
          "internalType": "address",
          "name": "sender",
          "type": "address"
        },
        {
          "indexed": false,
          "internalType": "uint256",
          "name": "amount",
          "type": "uint256"
        }
      ],
      "name": "TokenDeposited",
      "type": "event"
    },
    {
      "anonymous": false,
      "inputs": [
        {
          "indexed": false,
          "internalType": "address",
          "name": "account",
          "type": "address"
        }
      ],
      "name": "Unpaused",
      "type": "event"
    },
    {
      "anonymous": false,
      "inputs": [
        {
          "indexed": false,
          "internalType": "address",
          "name": "account",
          "type": "address"
        }
      ],
      "name": "WhitelistAdded",
      "type": "event"
    },
    {
      "anonymous": false,
      "inputs": [
        {
          "indexed": false,
          "internalType": "address",
          "name": "account",
          "type": "address"
        }
      ],
      "name": "WhitelistRemoved",
      "type": "event"
    },
    {
      "inputs": [],
      "name": "DEFAULT_ADMIN_ROLE",
      "outputs": [
        {
          "internalType": "bytes32",
          "name": "",
          "type": "bytes32"
        }
      ],
      "stateMutability": "view",
      "type": "function"
    },
    {
      "inputs": [],
      "name": "OPERATOR_ROLE",
      "outputs": [
        {
          "internalType": "bytes32",
          "name": "",
          "type": "bytes32"
        }
      ],
      "stateMutability": "view",
      "type": "function"
    },
    {
      "inputs": [],
      "name": "_cancelled",
      "outputs": [
        {
          "internalType": "bool",
          "name": "",
          "type": "bool"
        }
      ],
      "stateMutability": "view",
      "type": "function"
    },
    {
      "inputs": [],
      "name": "_details",
      "outputs": [
        {
          "internalType": "bytes",
          "name": "name",
          "type": "bytes"
        },
        {
          "internalType": "bytes",
          "name": "description",
          "type": "bytes"
        },
        {
          "internalType": "bytes",
          "name": "logo",
          "type": "bytes"
        },
        {
          "internalType": "bytes",
          "name": "website",
          "type": "bytes"
        },
        {
          "internalType": "bytes",
          "name": "twitter",
          "type": "bytes"
        },
        {
          "internalType": "bytes",
          "name": "facebook",
          "type": "bytes"
        },
        {
          "internalType": "bytes",
          "name": "instagram",
          "type": "bytes"
        },
        {
          "internalType": "bytes",
          "name": "discord",
          "type": "bytes"
        },
        {
          "internalType": "bytes",
          "name": "telegram",
          "type": "bytes"
        },
        {
          "internalType": "bytes",
          "name": "reddit",
          "type": "bytes"
        },
        {
          "internalType": "bytes",
          "name": "github",
          "type": "bytes"
        },
        {
          "internalType": "bytes",
          "name": "medium",
          "type": "bytes"
        }
      ],
      "stateMutability": "view",
      "type": "function"
    },
    {
      "inputs": [],
      "name": "_dexRouter",
      "outputs": [
        {
          "internalType": "address",
          "name": "",
          "type": "address"
        }
      ],
      "stateMutability": "view",
      "type": "function"
    },
    {
      "inputs": [],
      "name": "_endDate",
      "outputs": [
        {
          "internalType": "uint256",
          "name": "",
          "type": "uint256"
        }
      ],
      "stateMutability": "view",
      "type": "function"
    },
    {
      "inputs": [],
      "name": "_hardCap",
      "outputs": [
        {
          "internalType": "uint256",
          "name": "",
          "type": "uint256"
        }
      ],
      "stateMutability": "view",
      "type": "function"
    },
    {
      "inputs": [],
      "name": "_liquidityLockupTime",
      "outputs": [
        {
          "internalType": "uint256",
          "name": "",
          "type": "uint256"
        }
      ],
      "stateMutability": "view",
      "type": "function"
    },
    {
      "inputs": [],
      "name": "_liquidityPercent",
      "outputs": [
        {
          "internalType": "uint256",
          "name": "",
          "type": "uint256"
        }
      ],
      "stateMutability": "view",
      "type": "function"
    },
    {
      "inputs": [],
      "name": "_listingPrice",
      "outputs": [
        {
          "internalType": "uint256",
          "name": "",
          "type": "uint256"
        }
      ],
      "stateMutability": "view",
      "type": "function"
    },
    {
      "inputs": [],
      "name": "_maxBuy",
      "outputs": [
        {
          "internalType": "uint256",
          "name": "",
          "type": "uint256"
        }
      ],
      "stateMutability": "view",
      "type": "function"
    },
    {
      "inputs": [],
      "name": "_minBuy",
      "outputs": [
        {
          "internalType": "uint256",
          "name": "",
          "type": "uint256"
        }
      ],
      "stateMutability": "view",
      "type": "function"
    },
    {
      "inputs": [],
      "name": "_newOwner",
      "outputs": [
        {
          "internalType": "address",
          "name": "",
          "type": "address"
        }
      ],
      "stateMutability": "view",
      "type": "function"
    },
    {
      "inputs": [],
      "name": "_owner",
      "outputs": [
        {
          "internalType": "address",
          "name": "",
          "type": "address"
        }
      ],
      "stateMutability": "view",
      "type": "function"
    },
    {
      "inputs": [],
      "name": "_price",
      "outputs": [
        {
          "internalType": "uint256",
          "name": "",
          "type": "uint256"
        }
      ],
      "stateMutability": "view",
      "type": "function"
    },
    {
      "inputs": [],
      "name": "_saleToken",
      "outputs": [
        {
          "internalType": "contract IERC20",
          "name": "",
          "type": "address"
        }
      ],
      "stateMutability": "view",
      "type": "function"
    },
    {
      "inputs": [],
      "name": "_sellQty",
      "outputs": [
        {
          "internalType": "uint256",
          "name": "",
          "type": "uint256"
        }
      ],
      "stateMutability": "view",
      "type": "function"
    },
    {
      "inputs": [],
      "name": "_softCap",
      "outputs": [
        {
          "internalType": "uint256",
          "name": "",
          "type": "uint256"
        }
      ],
      "stateMutability": "view",
      "type": "function"
    },
    {
      "inputs": [],
      "name": "_startDate",
      "outputs": [
        {
          "internalType": "uint256",
          "name": "",
          "type": "uint256"
        }
      ],
      "stateMutability": "view",
      "type": "function"
    },
    {
      "inputs": [],
      "name": "_verified",
      "outputs": [
        {
          "internalType": "bool",
          "name": "",
          "type": "bool"
        }
      ],
      "stateMutability": "view",
      "type": "function"
    },
    {
      "inputs": [],
      "name": "_whitelist",
      "outputs": [
        {
          "internalType": "bool",
          "name": "",
          "type": "bool"
        }
      ],
      "stateMutability": "view",
      "type": "function"
    },
    {
      "inputs": [
        {
          "internalType": "address",
          "name": "account",
          "type": "address"
        }
      ],
      "name": "addOperator",
      "outputs": [],
      "stateMutability": "nonpayable",
      "type": "function"
    },
    {
      "inputs": [
        {
          "internalType": "address[]",
          "name": "accounts",
          "type": "address[]"
        }
      ],
      "name": "addWhitelist",
      "outputs": [],
      "stateMutability": "nonpayable",
      "type": "function"
    },
    {
      "inputs": [],
      "name": "cancelSale",
      "outputs": [],
      "stateMutability": "nonpayable",
      "type": "function"
    },
    {
      "inputs": [
        {
          "internalType": "address",
          "name": "account",
          "type": "address"
        }
      ],
      "name": "checkOperator",
      "outputs": [
        {
          "internalType": "bool",
          "name": "",
          "type": "bool"
        }
      ],
      "stateMutability": "view",
      "type": "function"
    },
    {
      "inputs": [
        {
          "internalType": "uint256",
          "name": "amount",
          "type": "uint256"
        }
      ],
      "name": "depositTokens",
      "outputs": [],
      "stateMutability": "nonpayable",
      "type": "function"
    },
    {
      "inputs": [],
      "name": "disableWhiteList",
      "outputs": [],
      "stateMutability": "nonpayable",
      "type": "function"
    },
    {
      "inputs": [],
      "name": "enableWhiteList",
      "outputs": [],
      "stateMutability": "nonpayable",
      "type": "function"
    },
    {
      "inputs": [
        {
          "internalType": "bytes32",
          "name": "role",
          "type": "bytes32"
        }
      ],
      "name": "getRoleAdmin",
      "outputs": [
        {
          "internalType": "bytes32",
          "name": "",
          "type": "bytes32"
        }
      ],
      "stateMutability": "view",
      "type": "function"
    },
    {
      "inputs": [
        {
          "internalType": "bytes32",
          "name": "role",
          "type": "bytes32"
        },
        {
          "internalType": "address",
          "name": "account",
          "type": "address"
        }
      ],
      "name": "grantRole",
      "outputs": [],
      "stateMutability": "nonpayable",
      "type": "function"
    },
    {
      "inputs": [
        {
          "internalType": "bytes32",
          "name": "role",
          "type": "bytes32"
        },
        {
          "internalType": "address",
          "name": "account",
          "type": "address"
        }
      ],
      "name": "hasRole",
      "outputs": [
        {
          "internalType": "bool",
          "name": "",
          "type": "bool"
        }
      ],
      "stateMutability": "view",
      "type": "function"
    },
    {
      "inputs": [
        {
          "internalType": "address",
          "name": "owner",
          "type": "address"
        },
        {
          "internalType": "address[2]",
          "name": "addresses",
          "type": "address[2]"
        },
        {
          "internalType": "bytes[12]",
          "name": "projectDetails",
          "type": "bytes[12]"
        },
        {
          "internalType": "uint256[2]",
          "name": "date",
          "type": "uint256[2]"
        },
        {
          "internalType": "uint256[5]",
          "name": "prices",
          "type": "uint256[5]"
        },
        {
          "internalType": "uint256",
          "name": "sellQty",
          "type": "uint256"
        },
        {
          "internalType": "uint256",
          "name": "listingPrice",
          "type": "uint256"
        },
        {
          "internalType": "uint256[2]",
          "name": "cap",
          "type": "uint256[2]"
        },
        {
          "internalType": "uint256[2]",
          "name": "minmaxBuy",
          "type": "uint256[2]"
        },
        {
          "internalType": "uint256[2]",
          "name": "liquidity",
          "type": "uint256[2]"
        },
        {
          "internalType": "bool",
          "name": "whitelist",
          "type": "bool"
        }
      ],
      "name": "init",
      "outputs": [],
      "stateMutability": "nonpayable",
      "type": "function"
    },
    {
      "inputs": [
        {
          "internalType": "address",
          "name": "",
          "type": "address"
        }
      ],
      "name": "isWhitelisted",
      "outputs": [
        {
          "internalType": "bool",
          "name": "",
          "type": "bool"
        }
      ],
      "stateMutability": "view",
      "type": "function"
    },
    {
      "inputs": [],
      "name": "pause",
      "outputs": [],
      "stateMutability": "nonpayable",
      "type": "function"
    },
    {
      "inputs": [],
      "name": "paused",
      "outputs": [
        {
          "internalType": "bool",
          "name": "",
          "type": "bool"
        }
      ],
      "stateMutability": "view",
      "type": "function"
    },
    {
      "inputs": [
        {
          "internalType": "address",
          "name": "account",
          "type": "address"
        }
      ],
      "name": "removeOperator",
      "outputs": [],
      "stateMutability": "nonpayable",
      "type": "function"
    },
    {
      "inputs": [
        {
          "internalType": "address[]",
          "name": "accounts",
          "type": "address[]"
        }
      ],
      "name": "removeWhitelist",
      "outputs": [],
      "stateMutability": "nonpayable",
      "type": "function"
    },
    {
      "inputs": [],
      "name": "renounceOwnership",
      "outputs": [],
      "stateMutability": "nonpayable",
      "type": "function"
    },
    {
      "inputs": [
        {
          "internalType": "bytes32",
          "name": "role",
          "type": "bytes32"
        },
        {
          "internalType": "address",
          "name": "account",
          "type": "address"
        }
      ],
      "name": "renounceRole",
      "outputs": [],
      "stateMutability": "nonpayable",
      "type": "function"
    },
    {
      "inputs": [
        {
          "internalType": "bytes32",
          "name": "role",
          "type": "bytes32"
        },
        {
          "internalType": "address",
          "name": "account",
          "type": "address"
        }
      ],
      "name": "revokeRole",
      "outputs": [],
      "stateMutability": "nonpayable",
      "type": "function"
    },
    {
      "inputs": [
        {
          "internalType": "bytes4",
          "name": "interfaceId",
          "type": "bytes4"
        }
      ],
      "name": "supportsInterface",
      "outputs": [
        {
          "internalType": "bool",
          "name": "",
          "type": "bool"
        }
      ],
      "stateMutability": "view",
      "type": "function"
    },
    {
      "inputs": [],
      "name": "unpause",
      "outputs": [],
      "stateMutability": "nonpayable",
      "type": "function"
    },
    {
      "inputs": [],
      "name": "whitelistedUsers",
      "outputs": [
        {
          "internalType": "address[]",
          "name": "",
          "type": "address[]"
        }
      ],
      "stateMutability": "view",
      "type": "function"
    },
    {
      "inputs": [],
      "name": "withdrawFunds",
      "outputs": [],
      "stateMutability": "nonpayable",
      "type": "function"
    }
  ],
  "bytecode": "0x60806040526000600360006101000a81548160ff0219169083151502179055506000600b60006101000a81548160ff0219169083151502179055506000600b60016101000a81548160ff02191690831515021790555034801561006157600080fd5b506000600160006101000a81548160ff02191690831515021790555060016002819055506155a280620000956000396000f3fe608060405234801561001057600080fd5b50600436106102745760003560e01c806391d1485411610151578063b9f2486f116100c3578063dd49756e11610087578063dd49756e146106ba578063de1ac2fd146106d6578063e623285214610706578063e7e1049014610724578063edac985b1461072e578063f5b541a61461074a57610274565b8063b9f2486f1461063a578063be7bf1c414610658578063d547741f14610676578063dbfa586314610692578063dcd83616146106b057610274565b8063ac8a584a11610115578063ac8a584a14610588578063ac8daba0146105a4578063ad61815e146105c2578063b07d5bf0146105e0578063b2bdfa7b146105fe578063b74908fe1461061c57610274565b806391d14854146104d75780639870d7fe14610507578063a217fddf14610523578063a25ee47114610541578063a9dec4361461056a57610274565b806336568abe116101ea5780635c975abb116101ae5780635c975abb1461044d5780636462a44a1461046b578063715018a6146104895780637c52d1a414610493578063806f5fc0146104af5780638456cb59146104cd57610274565b806336568abe146103cf5780633af32abf146103eb5780633f02eae91461041b5780633f4ba83a14610439578063539b2ba41461044357610274565b8063235b6ea11161023c578063235b6ea11461031f57806324600fc31461033d578063248a9ca31461034757806326380056146103775780632f296a69146103955780632f2ff15d146103b357610274565b806301ffc9a71461027957806308b3110c146102a9578063131ac604146102c75780631ec6a7de146102e55780632324521614610303575b600080fd5b610293600480360381019061028e91906142f3565b610768565b6040516102a091906148cb565b60405180910390f35b6102b16107e2565b6040516102be9190614c8c565b60405180910390f35b6102cf6107e8565b6040516102dc9190614c8c565b60405180910390f35b6102ed6107ee565b6040516102fa91906148a9565b60405180910390f35b61031d60048036038101906103189190614224565b610a26565b005b610327610da2565b6040516103349190614c8c565b60405180910390f35b610345610da8565b005b610361600480360381019061035c919061428e565b610f73565b60405161036e91906148e6565b60405180910390f35b61037f610f92565b60405161038c9190614a0f565b60405180910390f35b61039d610fb8565b6040516103aa91906148cb565b60405180910390f35b6103cd60048036038101906103c891906142b7565b610fcb565b005b6103e960048036038101906103e491906142b7565b610ff4565b005b610405600480360381019061040091906140f0565b611077565b60405161041291906148cb565b60405180910390f35b610423611097565b6040516104309190614c8c565b60405180910390f35b61044161109d565b005b61044b611117565b005b6104556111ec565b60405161046291906148cb565b60405180910390f35b610473611203565b6040516104809190614c8c565b60405180910390f35b610491611209565b005b6104ad60048036038101906104a89190614119565b611361565b005b6104b7611f7b565b6040516104c49190614c8c565b60405180910390f35b6104d5611f81565b005b6104f160048036038101906104ec91906142b7565b611ffb565b6040516104fe91906148cb565b60405180910390f35b610521600480360381019061051c91906140f0565b612065565b005b61052b612193565b60405161053891906148e6565b60405180910390f35b61054961219a565b6040516105619c9b9a99989796959493929190614901565b60405180910390f35b610572612848565b60405161057f9190614c8c565b60405180910390f35b6105a2600480360381019061059d91906140f0565b61284e565b005b6105ac61297b565b6040516105b99190614c8c565b60405180910390f35b6105ca612981565b6040516105d791906148cb565b60405180910390f35b6105e8612994565b6040516105f59190614c8c565b60405180910390f35b61060661299a565b604051610613919061482e565b60405180910390f35b6106246129c0565b604051610631919061482e565b60405180910390f35b6106426129e6565b60405161064f919061482e565b60405180910390f35b610660612a0c565b60405161066d91906148cb565b60405180910390f35b610690600480360381019061068b91906142b7565b612a1f565b005b61069a612a48565b6040516106a79190614c8c565b60405180910390f35b6106b8612a4e565b005b6106d460048036038101906106cf919061431c565b612b23565b005b6106f060048036038101906106eb91906140f0565b612d07565b6040516106fd91906148cb565b60405180910390f35b61070e612d3a565b60405161071b9190614c8c565b60405180910390f35b61072c612d40565b005b61074860048036038101906107439190614224565b612e2b565b005b610752613249565b60405161075f91906148e6565b60405180910390f35b60007f7965db0b000000000000000000000000000000000000000000000000000000007bffffffffffffffffffffffffffffffffffffffffffffffffffffffff1916827bffffffffffffffffffffffffffffffffffffffffffffffffffffffff191614806107db57506107da8261326d565b5b9050919050565b60095481565b600a5481565b60606000600c8054905067ffffffffffffffff811115610837577f4e487b7100000000000000000000000000000000000000000000000000000000600052604160045260246000fd5b6040519080825280602002602001820160405280156108655781602001602082028036833780820191505090505b50905060005b600c80549050811015610a1e57600d6000600c83815481106108b6577f4e487b7100000000000000000000000000000000000000000000000000000000600052603260045260246000fd5b9060005260206000200160009054906101000a900473ffffffffffffffffffffffffffffffffffffffff1673ffffffffffffffffffffffffffffffffffffffff1673ffffffffffffffffffffffffffffffffffffffff16815260200190815260200160002060009054906101000a900460ff1661093257610a0b565b600c818154811061096c577f4e487b7100000000000000000000000000000000000000000000000000000000600052603260045260246000fd5b9060005260206000200160009054906101000a900473ffffffffffffffffffffffffffffffffffffffff168282815181106109d0577f4e487b7100000000000000000000000000000000000000000000000000000000600052603260045260246000fd5b602002602001019073ffffffffffffffffffffffffffffffffffffffff16908173ffffffffffffffffffffffffffffffffffffffff16815250505b8080610a1690615069565b91505061086b565b508091505090565b600b60029054906101000a900460ff16610a75576040517f08c379a0000000000000000000000000000000000000000000000000000000008152600401610a6c90614aac565b60405180910390fd5b610aa67f97667070c54ef182b0f5858b034beac1b6f3089aa2d3188bb1e8929f4fa9b929610aa16132d7565b611ffb565b610ae5576040517f08c379a0000000000000000000000000000000000000000000000000000000008152600401610adc90614b8c565b60405180910390fd5b610aed6111ec565b15610b2d576040517f08c379a0000000000000000000000000000000000000000000000000000000008152600401610b2490614b4c565b60405180910390fd5b60005b8151811015610d9e57600073ffffffffffffffffffffffffffffffffffffffff16828281518110610b8a577f4e487b7100000000000000000000000000000000000000000000000000000000600052603260045260246000fd5b602002602001015173ffffffffffffffffffffffffffffffffffffffff161415610be9576040517f08c379a0000000000000000000000000000000000000000000000000000000008152600401610be090614bec565b60405180910390fd5b600d6000838381518110610c26577f4e487b7100000000000000000000000000000000000000000000000000000000600052603260045260246000fd5b602002602001015173ffffffffffffffffffffffffffffffffffffffff1673ffffffffffffffffffffffffffffffffffffffff16815260200190815260200160002060009054906101000a900460ff1615610d8b576000600d6000848481518110610cba577f4e487b7100000000000000000000000000000000000000000000000000000000600052603260045260246000fd5b602002602001015173ffffffffffffffffffffffffffffffffffffffff1673ffffffffffffffffffffffffffffffffffffffff16815260200190815260200160002060006101000a81548160ff0219169083151502179055507fde8cf212af7ce38b2840785a2768d97ff2dbf3c21b516961cec0061e134c2a1e828281518110610d6d577f4e487b7100000000000000000000000000000000000000000000000000000000600052603260045260246000fd5b6020026020010151604051610d82919061482e565b60405180910390a15b8080610d9690615069565b915050610b30565b5050565b600e5481565b600280541415610ded576040517f08c379a0000000000000000000000000000000000000000000000000000000008152600401610de490614c2c565b60405180910390fd5b60028081905550610dfc6132d7565b73ffffffffffffffffffffffffffffffffffffffff16600360019054906101000a900473ffffffffffffffffffffffffffffffffffffffff1673ffffffffffffffffffffffffffffffffffffffff1614610e8b576040517f08c379a0000000000000000000000000000000000000000000000000000000008152600401610e8290614b2c565b60405180910390fd5b426008541115610ed0576040517f08c379a0000000000000000000000000000000000000000000000000000000008152600401610ec790614bac565b60405180910390fd5b6000600360019054906101000a900473ffffffffffffffffffffffffffffffffffffffff1673ffffffffffffffffffffffffffffffffffffffff1647604051610f18906147df565b60006040518083038185875af1925050503d8060008114610f55576040519150601f19603f3d011682016040523d82523d6000602084013e610f5a565b606091505b5050905080610f6857600080fd5b506001600281905550565b6000806000838152602001908152602001600020600101549050919050565b600560009054906101000a900473ffffffffffffffffffffffffffffffffffffffff1681565b600b60019054906101000a900460ff1681565b610fd482610f73565b610fe581610fe06132d7565b6132df565b610fef838361337c565b505050565b610ffc6132d7565b73ffffffffffffffffffffffffffffffffffffffff168173ffffffffffffffffffffffffffffffffffffffff1614611069576040517f08c379a000000000000000000000000000000000000000000000000000000000815260040161106090614c6c565b60405180910390fd5b611073828261345c565b5050565b600d6020528060005260406000206000915054906101000a900460ff1681565b600f5481565b6110ce7f97667070c54ef182b0f5858b034beac1b6f3089aa2d3188bb1e8929f4fa9b9296110c96132d7565b611ffb565b61110d576040517f08c379a000000000000000000000000000000000000000000000000000000000815260040161110490614b8c565b60405180910390fd5b61111561353d565b565b6111487f97667070c54ef182b0f5858b034beac1b6f3089aa2d3188bb1e8929f4fa9b9296111436132d7565b611ffb565b611187576040517f08c379a000000000000000000000000000000000000000000000000000000000815260040161117e90614b8c565b60405180910390fd5b61118f6111ec565b156111cf576040517f08c379a00000000000000000000000000000000000000000000000000000000081526004016111c690614b4c565b60405180910390fd5b6001600b60026101000a81548160ff021916908315150217905550565b6000600160009054906101000a900460ff16905090565b60105481565b6112116132d7565b73ffffffffffffffffffffffffffffffffffffffff16600360019054906101000a900473ffffffffffffffffffffffffffffffffffffffff1673ffffffffffffffffffffffffffffffffffffffff16146112a0576040517f08c379a000000000000000000000000000000000000000000000000000000000815260040161129790614b2c565b60405180910390fd5b600073ffffffffffffffffffffffffffffffffffffffff16600360019054906101000a900473ffffffffffffffffffffffffffffffffffffffff1673ffffffffffffffffffffffffffffffffffffffff167f8be0079c531659141344cd1fd0a4f28419497f9722a3daafe3b4186f6b6457e060405160405180910390a36000600360016101000a81548173ffffffffffffffffffffffffffffffffffffffff021916908373ffffffffffffffffffffffffffffffffffffffff160217905550565b60001515600360009054906101000a900460ff161515146113b7576040517f08c379a00000000000000000000000000000000000000000000000000000000081526004016113ae90614a4c565b60405180910390fd5b8a600360016101000a81548173ffffffffffffffffffffffffffffffffffffffff021916908373ffffffffffffffffffffffffffffffffffffffff16021790555089600060028110611432577f4e487b7100000000000000000000000000000000000000000000000000000000600052603260045260246000fd5b6020020151600560006101000a81548173ffffffffffffffffffffffffffffffffffffffff021916908373ffffffffffffffffffffffffffffffffffffffff160217905550896001600281106114b1577f4e487b7100000000000000000000000000000000000000000000000000000000600052603260045260246000fd5b6020020151600660006101000a81548173ffffffffffffffffffffffffffffffffffffffff021916908373ffffffffffffffffffffffffffffffffffffffff1602179055506040518061018001604052808a6000600c811061153c577f4e487b7100000000000000000000000000000000000000000000000000000000600052603260045260246000fd5b602002015181526020018a6001600c8110611580577f4e487b7100000000000000000000000000000000000000000000000000000000600052603260045260246000fd5b602002015181526020018a6002600c81106115c4577f4e487b7100000000000000000000000000000000000000000000000000000000600052603260045260246000fd5b602002015181526020018a6003600c8110611608577f4e487b7100000000000000000000000000000000000000000000000000000000600052603260045260246000fd5b602002015181526020018a6004600c811061164c577f4e487b7100000000000000000000000000000000000000000000000000000000600052603260045260246000fd5b602002015181526020018a6005600c8110611690577f4e487b7100000000000000000000000000000000000000000000000000000000600052603260045260246000fd5b602002015181526020018a6006600c81106116d4577f4e487b7100000000000000000000000000000000000000000000000000000000600052603260045260246000fd5b602002015181526020018a6007600c8110611718577f4e487b7100000000000000000000000000000000000000000000000000000000600052603260045260246000fd5b602002015181526020018a6008600c811061175c577f4e487b7100000000000000000000000000000000000000000000000000000000600052603260045260246000fd5b602002015181526020018a6009600c81106117a0577f4e487b7100000000000000000000000000000000000000000000000000000000600052603260045260246000fd5b602002015181526020018a600a600c81106117e4577f4e487b7100000000000000000000000000000000000000000000000000000000600052603260045260246000fd5b602002015181526020018a600b600c8110611828577f4e487b7100000000000000000000000000000000000000000000000000000000600052603260045260246000fd5b60200201518152506015600082015181600001908051906020019061184e929190613c8f565b50602082015181600101908051906020019061186b929190613c8f565b506040820151816002019080519060200190611888929190613c8f565b5060608201518160030190805190602001906118a5929190613c8f565b5060808201518160040190805190602001906118c2929190613c8f565b5060a08201518160050190805190602001906118df929190613c8f565b5060c08201518160060190805190602001906118fc929190613c8f565b5060e0820151816007019080519060200190611919929190613c8f565b50610100820151816008019080519060200190611937929190613c8f565b50610120820151816009019080519060200190611955929190613c8f565b5061014082015181600a019080519060200190611973929190613c8f565b5061016082015181600b019080519060200190611991929190613c8f565b50905050876000600281106119cf577f4e487b7100000000000000000000000000000000000000000000000000000000600052603260045260246000fd5b602002015160078190555087600160028110611a14577f4e487b7100000000000000000000000000000000000000000000000000000000600052603260045260246000fd5b602002015160088190555086600060058110611a59577f4e487b7100000000000000000000000000000000000000000000000000000000600052603260045260246000fd5b6020020151600e8190555086600160058110611a9e577f4e487b7100000000000000000000000000000000000000000000000000000000600052603260045260246000fd5b602002015160228190555086600260058110611ae3577f4e487b7100000000000000000000000000000000000000000000000000000000600052603260045260246000fd5b60200201516002811115611b20577f4e487b7100000000000000000000000000000000000000000000000000000000600052602160045260246000fd5b602160006101000a81548160ff02191690836002811115611b6a577f4e487b7100000000000000000000000000000000000000000000000000000000600052602160045260246000fd5b021790555086600360058110611ba9577f4e487b7100000000000000000000000000000000000000000000000000000000600052603260045260246000fd5b60200201516005811115611be6577f4e487b7100000000000000000000000000000000000000000000000000000000600052602160045260246000fd5b602160016101000a81548160ff02191690836005811115611c30577f4e487b7100000000000000000000000000000000000000000000000000000000600052602160045260246000fd5b021790555086600460058110611c6f577f4e487b7100000000000000000000000000000000000000000000000000000000600052603260045260246000fd5b60200201516002811115611cac577f4e487b7100000000000000000000000000000000000000000000000000000000600052602160045260246000fd5b602160026101000a81548160ff02191690836002811115611cf6577f4e487b7100000000000000000000000000000000000000000000000000000000600052602160045260246000fd5b021790555085600f819055508460108190555083600060028110611d43577f4e487b7100000000000000000000000000000000000000000000000000000000600052603260045260246000fd5b602002015160118190555083600160028110611d88577f4e487b7100000000000000000000000000000000000000000000000000000000600052603260045260246000fd5b602002015160128190555082600060028110611dcd577f4e487b7100000000000000000000000000000000000000000000000000000000600052603260045260246000fd5b602002015160138190555082600160028110611e12577f4e487b7100000000000000000000000000000000000000000000000000000000600052603260045260246000fd5b602002015160148190555081600060028110611e57577f4e487b7100000000000000000000000000000000000000000000000000000000600052603260045260246000fd5b602002015160098190555081600160028110611e9c577f4e487b7100000000000000000000000000000000000000000000000000000000600052603260045260246000fd5b6020020151600a8190555080600b60026101000a81548160ff0219169083151502179055506001600360006101000a81548160ff021916908315150217905550611ee96000801b8c6135df565b611f137f97667070c54ef182b0f5858b034beac1b6f3089aa2d3188bb1e8929f4fa9b9298c6135df565b8a73ffffffffffffffffffffffffffffffffffffffff16600073ffffffffffffffffffffffffffffffffffffffff167f8be0079c531659141344cd1fd0a4f28419497f9722a3daafe3b4186f6b6457e060405160405180910390a35050505050505050505050565b60125481565b611fb27f97667070c54ef182b0f5858b034beac1b6f3089aa2d3188bb1e8929f4fa9b929611fad6132d7565b611ffb565b611ff1576040517f08c379a0000000000000000000000000000000000000000000000000000000008152600401611fe890614b8c565b60405180910390fd5b611ff96135ed565b565b600080600084815260200190815260200160002060000160008373ffffffffffffffffffffffffffffffffffffffff1673ffffffffffffffffffffffffffffffffffffffff16815260200190815260200160002060009054906101000a900460ff16905092915050565b61206d6132d7565b73ffffffffffffffffffffffffffffffffffffffff16600360019054906101000a900473ffffffffffffffffffffffffffffffffffffffff1673ffffffffffffffffffffffffffffffffffffffff16146120fc576040517f08c379a00000000000000000000000000000000000000000000000000000000081526004016120f390614b2c565b60405180910390fd5b6121267f97667070c54ef182b0f5858b034beac1b6f3089aa2d3188bb1e8929f4fa9b92982611ffb565b15612166576040517f08c379a000000000000000000000000000000000000000000000000000000000815260040161215d90614c4c565b60405180910390fd5b6121907f97667070c54ef182b0f5858b034beac1b6f3089aa2d3188bb1e8929f4fa9b92982610fcb565b50565b6000801b81565b60158060000180546121ab90615006565b80601f01602080910402602001604051908101604052809291908181526020018280546121d790615006565b80156122245780601f106121f957610100808354040283529160200191612224565b820191906000526020600020905b81548152906001019060200180831161220757829003601f168201915b50505050509080600101805461223990615006565b80601f016020809104026020016040519081016040528092919081815260200182805461226590615006565b80156122b25780601f10612287576101008083540402835291602001916122b2565b820191906000526020600020905b81548152906001019060200180831161229557829003601f168201915b5050505050908060020180546122c790615006565b80601f01602080910402602001604051908101604052809291908181526020018280546122f390615006565b80156123405780601f1061231557610100808354040283529160200191612340565b820191906000526020600020905b81548152906001019060200180831161232357829003601f168201915b50505050509080600301805461235590615006565b80601f016020809104026020016040519081016040528092919081815260200182805461238190615006565b80156123ce5780601f106123a3576101008083540402835291602001916123ce565b820191906000526020600020905b8154815290600101906020018083116123b157829003601f168201915b5050505050908060040180546123e390615006565b80601f016020809104026020016040519081016040528092919081815260200182805461240f90615006565b801561245c5780601f106124315761010080835404028352916020019161245c565b820191906000526020600020905b81548152906001019060200180831161243f57829003601f168201915b50505050509080600501805461247190615006565b80601f016020809104026020016040519081016040528092919081815260200182805461249d90615006565b80156124ea5780601f106124bf576101008083540402835291602001916124ea565b820191906000526020600020905b8154815290600101906020018083116124cd57829003601f168201915b5050505050908060060180546124ff90615006565b80601f016020809104026020016040519081016040528092919081815260200182805461252b90615006565b80156125785780601f1061254d57610100808354040283529160200191612578565b820191906000526020600020905b81548152906001019060200180831161255b57829003601f168201915b50505050509080600701805461258d90615006565b80601f01602080910402602001604051908101604052809291908181526020018280546125b990615006565b80156126065780601f106125db57610100808354040283529160200191612606565b820191906000526020600020905b8154815290600101906020018083116125e957829003601f168201915b50505050509080600801805461261b90615006565b80601f016020809104026020016040519081016040528092919081815260200182805461264790615006565b80156126945780601f1061266957610100808354040283529160200191612694565b820191906000526020600020905b81548152906001019060200180831161267757829003601f168201915b5050505050908060090180546126a990615006565b80601f01602080910402602001604051908101604052809291908181526020018280546126d590615006565b80156127225780601f106126f757610100808354040283529160200191612722565b820191906000526020600020905b81548152906001019060200180831161270557829003601f168201915b50505050509080600a01805461273790615006565b80601f016020809104026020016040519081016040528092919081815260200182805461276390615006565b80156127b05780601f10612785576101008083540402835291602001916127b0565b820191906000526020600020905b81548152906001019060200180831161279357829003601f168201915b50505050509080600b0180546127c590615006565b80601f01602080910402602001604051908101604052809291908181526020018280546127f190615006565b801561283e5780601f106128135761010080835404028352916020019161283e565b820191906000526020600020905b81548152906001019060200180831161282157829003601f168201915b505050505090508c565b60145481565b6128566132d7565b73ffffffffffffffffffffffffffffffffffffffff16600360019054906101000a900473ffffffffffffffffffffffffffffffffffffffff1673ffffffffffffffffffffffffffffffffffffffff16146128e5576040517f08c379a00000000000000000000000000000000000000000000000000000000081526004016128dc90614b2c565b60405180910390fd5b61290f7f97667070c54ef182b0f5858b034beac1b6f3089aa2d3188bb1e8929f4fa9b92982611ffb565b61294e576040517f08c379a000000000000000000000000000000000000000000000000000000000815260040161294590614b6c565b60405180910390fd5b6129787f97667070c54ef182b0f5858b034beac1b6f3089aa2d3188bb1e8929f4fa9b92982612a1f565b50565b60075481565b600b60029054906101000a900460ff1681565b60135481565b600360019054906101000a900473ffffffffffffffffffffffffffffffffffffffff1681565b600460009054906101000a900473ffffffffffffffffffffffffffffffffffffffff1681565b600660009054906101000a900473ffffffffffffffffffffffffffffffffffffffff1681565b600b60009054906101000a900460ff1681565b612a2882610f73565b612a3981612a346132d7565b6132df565b612a43838361345c565b505050565b60085481565b612a7f7f97667070c54ef182b0f5858b034beac1b6f3089aa2d3188bb1e8929f4fa9b929612a7a6132d7565b611ffb565b612abe576040517f08c379a0000000000000000000000000000000000000000000000000000000008152600401612ab590614b8c565b60405180910390fd5b612ac66111ec565b15612b06576040517f08c379a0000000000000000000000000000000000000000000000000000000008152600401612afd90614b4c565b60405180910390fd5b6000600b60026101000a81548160ff021916908315150217905550565b612b547f97667070c54ef182b0f5858b034beac1b6f3089aa2d3188bb1e8929f4fa9b929612b4f6132d7565b611ffb565b612b93576040517f08c379a0000000000000000000000000000000000000000000000000000000008152600401612b8a90614b8c565b60405180910390fd5b612b9b6111ec565b15612bdb576040517f08c379a0000000000000000000000000000000000000000000000000000000008152600401612bd290614b4c565b60405180910390fd5b600b60009054906101000a900460ff1615612c2b576040517f08c379a0000000000000000000000000000000000000000000000000000000008152600401612c2290614aec565b60405180910390fd5b60008111612c6e576040517f08c379a0000000000000000000000000000000000000000000000000000000008152600401612c6590614acc565b60405180910390fd5b612cc4612c796132d7565b3083600560009054906101000a900473ffffffffffffffffffffffffffffffffffffffff1673ffffffffffffffffffffffffffffffffffffffff1661368f909392919063ffffffff16565b7fbc7c8a4d8049a3f99a02f2a20640c206a2e4d3f2fa54fd20da9f01fda3620cda612ced6132d7565b82604051612cfc929190614880565b60405180910390a150565b6000612d337f97667070c54ef182b0f5858b034beac1b6f3089aa2d3188bb1e8929f4fa9b92983611ffb565b9050919050565b60115481565b612d486132d7565b73ffffffffffffffffffffffffffffffffffffffff16600360019054906101000a900473ffffffffffffffffffffffffffffffffffffffff1673ffffffffffffffffffffffffffffffffffffffff1614612dd7576040517f08c379a0000000000000000000000000000000000000000000000000000000008152600401612dce90614b2c565b60405180910390fd5b6001600b60006101000a81548160ff0219169083151502179055507f9831b29a6c502f45eedfac4ed0e529d888b1f8c7736982c72b3495170a77ed0d30604051612e21919061482e565b60405180910390a1565b600b60029054906101000a900460ff16612e7a576040517f08c379a0000000000000000000000000000000000000000000000000000000008152600401612e7190614aac565b60405180910390fd5b612eab7f97667070c54ef182b0f5858b034beac1b6f3089aa2d3188bb1e8929f4fa9b929612ea66132d7565b611ffb565b612eea576040517f08c379a0000000000000000000000000000000000000000000000000000000008152600401612ee190614b8c565b60405180910390fd5b612ef26111ec565b15612f32576040517f08c379a0000000000000000000000000000000000000000000000000000000008152600401612f2990614b4c565b60405180910390fd5b60005b815181101561324557600073ffffffffffffffffffffffffffffffffffffffff16828281518110612f8f577f4e487b7100000000000000000000000000000000000000000000000000000000600052603260045260246000fd5b602002602001015173ffffffffffffffffffffffffffffffffffffffff161415612fee576040517f08c379a0000000000000000000000000000000000000000000000000000000008152600401612fe590614bec565b60405180910390fd5b600d600083838151811061302b577f4e487b7100000000000000000000000000000000000000000000000000000000600052603260045260246000fd5b602002602001015173ffffffffffffffffffffffffffffffffffffffff1673ffffffffffffffffffffffffffffffffffffffff16815260200190815260200160002060009054906101000a900460ff16613232576001600d60008484815181106130be577f4e487b7100000000000000000000000000000000000000000000000000000000600052603260045260246000fd5b602002602001015173ffffffffffffffffffffffffffffffffffffffff1673ffffffffffffffffffffffffffffffffffffffff16815260200190815260200160002060006101000a81548160ff021916908315150217905550600c828281518110613152577f4e487b7100000000000000000000000000000000000000000000000000000000600052603260045260246000fd5b60200260200101519080600181540180825580915050600190039060005260206000200160009091909190916101000a81548173ffffffffffffffffffffffffffffffffffffffff021916908373ffffffffffffffffffffffffffffffffffffffff1602179055507f4790a4adb426ca2345bb5108f6e454eae852a7bf687544cd66a7270dff3a41d6828281518110613214577f4e487b7100000000000000000000000000000000000000000000000000000000600052603260045260246000fd5b6020026020010151604051613229919061482e565b60405180910390a15b808061323d90615069565b915050612f35565b5050565b7f97667070c54ef182b0f5858b034beac1b6f3089aa2d3188bb1e8929f4fa9b92981565b60007f01ffc9a7000000000000000000000000000000000000000000000000000000007bffffffffffffffffffffffffffffffffffffffffffffffffffffffff1916827bffffffffffffffffffffffffffffffffffffffffffffffffffffffff1916149050919050565b600033905090565b6132e98282611ffb565b6133785761330e8173ffffffffffffffffffffffffffffffffffffffff166014613718565b61331c8360001c6020613718565b60405160200161332d9291906147f4565b6040516020818303038152906040526040517f08c379a000000000000000000000000000000000000000000000000000000000815260040161336f9190614a2a565b60405180910390fd5b5050565b6133868282611ffb565b61345857600160008084815260200190815260200160002060000160008373ffffffffffffffffffffffffffffffffffffffff1673ffffffffffffffffffffffffffffffffffffffff16815260200190815260200160002060006101000a81548160ff0219169083151502179055506133fd6132d7565b73ffffffffffffffffffffffffffffffffffffffff168173ffffffffffffffffffffffffffffffffffffffff16837f2f8788117e7eff1d82e926ec794901d17c78024a50270940304540a733656f0d60405160405180910390a45b5050565b6134668282611ffb565b1561353957600080600084815260200190815260200160002060000160008373ffffffffffffffffffffffffffffffffffffffff1673ffffffffffffffffffffffffffffffffffffffff16815260200190815260200160002060006101000a81548160ff0219169083151502179055506134de6132d7565b73ffffffffffffffffffffffffffffffffffffffff168173ffffffffffffffffffffffffffffffffffffffff16837ff6391f5c32d9c69d2a47ea670b442974b53935d1edc7fd64eb21e047a839171b60405160405180910390a45b5050565b6135456111ec565b613584576040517f08c379a000000000000000000000000000000000000000000000000000000000815260040161357b90614a8c565b60405180910390fd5b6000600160006101000a81548160ff0219169083151502179055507f5db9ee0a495bf2e6ff9c91a7834c1ba4fdd244a5e8aa4e537bd38aeae4b073aa6135c86132d7565b6040516135d5919061482e565b60405180910390a1565b6135e9828261337c565b5050565b6135f56111ec565b15613635576040517f08c379a000000000000000000000000000000000000000000000000000000000815260040161362c90614b4c565b60405180910390fd5b60018060006101000a81548160ff0219169083151502179055507f62e78cea01bee320cd4e420270b5ea74000d11b0c9f74754ebdbfc544b05a2586136786132d7565b604051613685919061482e565b60405180910390a1565b613712846323b872dd60e01b8585856040516024016136b093929190614849565b604051602081830303815290604052907bffffffffffffffffffffffffffffffffffffffffffffffffffffffff19166020820180517bffffffffffffffffffffffffffffffffffffffffffffffffffffffff8381831617835250505050613a12565b50505050565b60606000600283600261372b9190614e9e565b6137359190614e48565b67ffffffffffffffff811115613774577f4e487b7100000000000000000000000000000000000000000000000000000000600052604160045260246000fd5b6040519080825280601f01601f1916602001820160405280156137a65781602001600182028036833780820191505090505b5090507f300000000000000000000000000000000000000000000000000000000000000081600081518110613804577f4e487b7100000000000000000000000000000000000000000000000000000000600052603260045260246000fd5b60200101907effffffffffffffffffffffffffffffffffffffffffffffffffffffffffffff1916908160001a9053507f78000000000000000000000000000000000000000000000000000000000000008160018151811061388e577f4e487b7100000000000000000000000000000000000000000000000000000000600052603260045260246000fd5b60200101907effffffffffffffffffffffffffffffffffffffffffffffffffffffffffffff1916908160001a905350600060018460026138ce9190614e9e565b6138d89190614e48565b90505b60018111156139c4577f3031323334353637383961626364656600000000000000000000000000000000600f861660108110613940577f4e487b7100000000000000000000000000000000000000000000000000000000600052603260045260246000fd5b1a60f81b82828151811061397d577f4e487b7100000000000000000000000000000000000000000000000000000000600052603260045260246000fd5b60200101907effffffffffffffffffffffffffffffffffffffffffffffffffffffffffffff1916908160001a905350600485901c9450806139bd90614fdc565b90506138db565b5060008414613a08576040517f08c379a00000000000000000000000000000000000000000000000000000000081526004016139ff90614a6c565b60405180910390fd5b8091505092915050565b6000613a74826040518060400160405280602081526020017f5361666545524332303a206c6f772d6c6576656c2063616c6c206661696c65648152508573ffffffffffffffffffffffffffffffffffffffff16613ad99092919063ffffffff16565b9050600081511115613ad45780806020019051810190613a949190614265565b613ad3576040517f08c379a0000000000000000000000000000000000000000000000000000000008152600401613aca90614c0c565b60405180910390fd5b5b505050565b6060613ae88484600085613af1565b90509392505050565b606082471015613b36576040517f08c379a0000000000000000000000000000000000000000000000000000000008152600401613b2d90614b0c565b60405180910390fd5b613b3f85613c05565b613b7e576040517f08c379a0000000000000000000000000000000000000000000000000000000008152600401613b7590614bcc565b60405180910390fd5b6000808673ffffffffffffffffffffffffffffffffffffffff168587604051613ba791906147c8565b60006040518083038185875af1925050503d8060008114613be4576040519150601f19603f3d011682016040523d82523d6000602084013e613be9565b606091505b5091509150613bf9828286613c28565b92505050949350505050565b6000808273ffffffffffffffffffffffffffffffffffffffff163b119050919050565b60608315613c3857829050613c88565b600083511115613c4b5782518084602001fd5b816040517f08c379a0000000000000000000000000000000000000000000000000000000008152600401613c7f9190614a2a565b60405180910390fd5b9392505050565b828054613c9b90615006565b90600052602060002090601f016020900481019282613cbd5760008555613d04565b82601f10613cd657805160ff1916838001178555613d04565b82800160010185558215613d04579182015b82811115613d03578251825591602001919060010190613ce8565b5b509050613d119190613d15565b5090565b5b80821115613d2e576000816000905550600101613d16565b5090565b6000613d45613d4084614ccc565b614ca7565b90508082856020860282011115613d5b57600080fd5b60005b85811015613d8b5781613d718882613f82565b845260208401935060208301925050600181019050613d5e565b5050509392505050565b6000613da8613da384614cf2565b614ca7565b90508083825260208201905082856020860282011115613dc757600080fd5b60005b85811015613df75781613ddd8882613f82565b845260208401935060208301925050600181019050613dca565b5050509392505050565b6000613e14613e0f84614d1e565b614ca7565b90508082856020860282011115613e2a57600080fd5b60005b85811015613e7457813567ffffffffffffffff811115613e4c57600080fd5b808601613e5989826140b1565b85526020850194506020840193505050600181019050613e2d565b5050509392505050565b6000613e91613e8c84614d44565b614ca7565b90508082856020860282011115613ea757600080fd5b60005b85811015613ed75781613ebd88826140db565b845260208401935060208301925050600181019050613eaa565b5050509392505050565b6000613ef4613eef84614d6a565b614ca7565b90508082856020860282011115613f0a57600080fd5b60005b85811015613f3a5781613f2088826140db565b845260208401935060208301925050600181019050613f0d565b5050509392505050565b6000613f57613f5284614d90565b614ca7565b905082815260208101848484011115613f6f57600080fd5b613f7a848285614f9a565b509392505050565b600081359050613f91816154f9565b92915050565b600082601f830112613fa857600080fd5b6002613fb5848285613d32565b91505092915050565b600082601f830112613fcf57600080fd5b8135613fdf848260208601613d95565b91505092915050565b600082601f830112613ff957600080fd5b600c614006848285613e01565b91505092915050565b600082601f83011261402057600080fd5b600261402d848285613e7e565b91505092915050565b600082601f83011261404757600080fd5b6005614054848285613ee1565b91505092915050565b60008135905061406c81615510565b92915050565b60008151905061408181615510565b92915050565b60008135905061409681615527565b92915050565b6000813590506140ab8161553e565b92915050565b600082601f8301126140c257600080fd5b81356140d2848260208601613f44565b91505092915050565b6000813590506140ea81615555565b92915050565b60006020828403121561410257600080fd5b600061411084828501613f82565b91505092915050565b60008060008060008060008060008060006102808c8e03121561413b57600080fd5b60006141498e828f01613f82565b9b5050602061415a8e828f01613f97565b9a505060608c013567ffffffffffffffff81111561417757600080fd5b6141838e828f01613fe8565b99505060806141948e828f0161400f565b98505060c06141a58e828f01614036565b9750506101606141b78e828f016140db565b9650506101806141c98e828f016140db565b9550506101a06141db8e828f0161400f565b9450506101e06141ed8e828f0161400f565b9350506102206141ff8e828f0161400f565b9250506102606142118e828f0161405d565b9150509295989b509295989b9093969950565b60006020828403121561423657600080fd5b600082013567ffffffffffffffff81111561425057600080fd5b61425c84828501613fbe565b91505092915050565b60006020828403121561427757600080fd5b600061428584828501614072565b91505092915050565b6000602082840312156142a057600080fd5b60006142ae84828501614087565b91505092915050565b600080604083850312156142ca57600080fd5b60006142d885828601614087565b92505060206142e985828601613f82565b9150509250929050565b60006020828403121561430557600080fd5b60006143138482850161409c565b91505092915050565b60006020828403121561432e57600080fd5b600061433c848285016140db565b91505092915050565b6000614351838361435d565b60208301905092915050565b61436681614ef8565b82525050565b61437581614ef8565b82525050565b600061438682614dd1565b6143908185614dff565b935061439b83614dc1565b8060005b838110156143cc5781516143b38882614345565b97506143be83614df2565b92505060018101905061439f565b5085935050505092915050565b6143e281614f0a565b82525050565b6143f181614f16565b82525050565b600061440282614ddc565b61440c8185614e10565b935061441c818560208601614fa9565b6144258161513f565b840191505092915050565b600061443b82614ddc565b6144458185614e21565b9350614455818560208601614fa9565b80840191505092915050565b61446a81614f76565b82525050565b600061447b82614de7565b6144858185614e2c565b9350614495818560208601614fa9565b61449e8161513f565b840191505092915050565b60006144b482614de7565b6144be8185614e3d565b93506144ce818560208601614fa9565b80840191505092915050565b60006144e7601983614e2c565b91506144f282615150565b602082019050919050565b600061450a602083614e2c565b915061451582615179565b602082019050919050565b600061452d601483614e2c565b9150614538826151a2565b602082019050919050565b6000614550601883614e2c565b915061455b826151cb565b602082019050919050565b6000614573601c83614e2c565b915061457e826151f4565b602082019050919050565b6000614596601483614e2c565b91506145a18261521d565b602082019050919050565b60006145b9602683614e2c565b91506145c482615246565b604082019050919050565b60006145dc601583614e2c565b91506145e782615295565b602082019050919050565b60006145ff601083614e2c565b915061460a826152be565b602082019050919050565b6000614622601683614e2c565b915061462d826152e7565b602082019050919050565b6000614645601d83614e2c565b915061465082615310565b602082019050919050565b6000614668601483614e2c565b915061467382615339565b602082019050919050565b600061468b600083614e21565b915061469682615362565b600082019050919050565b60006146ae601d83614e2c565b91506146b982615365565b602082019050919050565b60006146d1601583614e2c565b91506146dc8261538e565b602082019050919050565b60006146f4601783614e3d565b91506146ff826153b7565b601782019050919050565b6000614717602a83614e2c565b9150614722826153e0565b604082019050919050565b600061473a601f83614e2c565b91506147458261542f565b602082019050919050565b600061475d601b83614e2c565b915061476882615458565b602082019050919050565b6000614780601183614e3d565b915061478b82615481565b601182019050919050565b60006147a3602f83614e2c565b91506147ae826154aa565b604082019050919050565b6147c281614f6c565b82525050565b60006147d48284614430565b915081905092915050565b60006147ea8261467e565b9150819050919050565b60006147ff826146e7565b915061480b82856144a9565b915061481682614773565b915061482282846144a9565b91508190509392505050565b6000602082019050614843600083018461436c565b92915050565b600060608201905061485e600083018661436c565b61486b602083018561436c565b61487860408301846147b9565b949350505050565b6000604082019050614895600083018561436c565b6148a260208301846147b9565b9392505050565b600060208201905081810360008301526148c3818461437b565b905092915050565b60006020820190506148e060008301846143d9565b92915050565b60006020820190506148fb60008301846143e8565b92915050565b600061018082019050818103600083015261491c818f6143f7565b90508181036020830152614930818e6143f7565b90508181036040830152614944818d6143f7565b90508181036060830152614958818c6143f7565b9050818103608083015261496c818b6143f7565b905081810360a0830152614980818a6143f7565b905081810360c083015261499481896143f7565b905081810360e08301526149a881886143f7565b90508181036101008301526149bd81876143f7565b90508181036101208301526149d281866143f7565b90508181036101408301526149e781856143f7565b90508181036101608301526149fc81846143f7565b90509d9c50505050505050505050505050565b6000602082019050614a246000830184614461565b92915050565b60006020820190508181036000830152614a448184614470565b905092915050565b60006020820190508181036000830152614a65816144da565b9050919050565b60006020820190508181036000830152614a85816144fd565b9050919050565b60006020820190508181036000830152614aa581614520565b9050919050565b60006020820190508181036000830152614ac581614543565b9050919050565b60006020820190508181036000830152614ae581614566565b9050919050565b60006020820190508181036000830152614b0581614589565b9050919050565b60006020820190508181036000830152614b25816145ac565b9050919050565b60006020820190508181036000830152614b45816145cf565b9050919050565b60006020820190508181036000830152614b65816145f2565b9050919050565b60006020820190508181036000830152614b8581614615565b9050919050565b60006020820190508181036000830152614ba581614638565b9050919050565b60006020820190508181036000830152614bc58161465b565b9050919050565b60006020820190508181036000830152614be5816146a1565b9050919050565b60006020820190508181036000830152614c05816146c4565b9050919050565b60006020820190508181036000830152614c258161470a565b9050919050565b60006020820190508181036000830152614c458161472d565b9050919050565b60006020820190508181036000830152614c6581614750565b9050919050565b60006020820190508181036000830152614c8581614796565b9050919050565b6000602082019050614ca160008301846147b9565b92915050565b6000614cb1614cc2565b9050614cbd8282615038565b919050565b6000604051905090565b600067ffffffffffffffff821115614ce757614ce6615110565b5b602082029050919050565b600067ffffffffffffffff821115614d0d57614d0c615110565b5b602082029050602081019050919050565b600067ffffffffffffffff821115614d3957614d38615110565b5b602082029050919050565b600067ffffffffffffffff821115614d5f57614d5e615110565b5b602082029050919050565b600067ffffffffffffffff821115614d8557614d84615110565b5b602082029050919050565b600067ffffffffffffffff821115614dab57614daa615110565b5b614db48261513f565b9050602081019050919050565b6000819050602082019050919050565b600081519050919050565b600081519050919050565b600081519050919050565b6000602082019050919050565b600082825260208201905092915050565b600082825260208201905092915050565b600081905092915050565b600082825260208201905092915050565b600081905092915050565b6000614e5382614f6c565b9150614e5e83614f6c565b9250827fffffffffffffffffffffffffffffffffffffffffffffffffffffffffffffffff03821115614e9357614e926150b2565b5b828201905092915050565b6000614ea982614f6c565b9150614eb483614f6c565b9250817fffffffffffffffffffffffffffffffffffffffffffffffffffffffffffffffff0483118215151615614eed57614eec6150b2565b5b828202905092915050565b6000614f0382614f4c565b9050919050565b60008115159050919050565b6000819050919050565b60007fffffffff0000000000000000000000000000000000000000000000000000000082169050919050565b600073ffffffffffffffffffffffffffffffffffffffff82169050919050565b6000819050919050565b6000614f8182614f88565b9050919050565b6000614f9382614f4c565b9050919050565b82818337600083830152505050565b60005b83811015614fc7578082015181840152602081019050614fac565b83811115614fd6576000848401525b50505050565b6000614fe782614f6c565b91506000821415614ffb57614ffa6150b2565b5b600182039050919050565b6000600282049050600182168061501e57607f821691505b60208210811415615032576150316150e1565b5b50919050565b6150418261513f565b810181811067ffffffffffffffff821117156150605761505f615110565b5b80604052505050565b600061507482614f6c565b91507fffffffffffffffffffffffffffffffffffffffffffffffffffffffffffffffff8214156150a7576150a66150b2565b5b600182019050919050565b7f4e487b7100000000000000000000000000000000000000000000000000000000600052601160045260246000fd5b7f4e487b7100000000000000000000000000000000000000000000000000000000600052602260045260246000fd5b7f4e487b7100000000000000000000000000000000000000000000000000000000600052604160045260246000fd5b6000601f19601f8301169050919050565b7f53616c653a20414c52454144595f494e495449414c495a454400000000000000600082015250565b7f537472696e67733a20686578206c656e67746820696e73756666696369656e74600082015250565b7f5061757361626c653a206e6f7420706175736564000000000000000000000000600082015250565b7f53616c653a2057484954454c4953545f44495341424c45440000000000000000600082015250565b7f53616c653a204445504f5349545f414d4f554e545f494e56414c494400000000600082015250565b7f53616c653a2053414c455f43414e43454c4c4544000000000000000000000000600082015250565b7f416464726573733a20696e73756666696369656e742062616c616e636520666f60008201527f722063616c6c0000000000000000000000000000000000000000000000000000602082015250565b7f53616c653a2043414c4c45525f4e4f5f4f574e45520000000000000000000000600082015250565b7f5061757361626c653a2070617573656400000000000000000000000000000000600082015250565b7f53616c653a204e4f5f4f50455241544f525f524f4c4500000000000000000000600082015250565b7f53616c653a2043414c4c45525f4e4f5f4f50455241544f525f524f4c45000000600082015250565b7f53616c653a2053414c455f4e4f545f454e444544000000000000000000000000600082015250565b50565b7f416464726573733a2063616c6c20746f206e6f6e2d636f6e7472616374000000600082015250565b7f49444f53616c653a205a45524f5f414444524553530000000000000000000000600082015250565b7f416363657373436f6e74726f6c3a206163636f756e7420000000000000000000600082015250565b7f5361666545524332303a204552433230206f7065726174696f6e20646964206e60008201527f6f74207375636365656400000000000000000000000000000000000000000000602082015250565b7f5265656e7472616e637947756172643a207265656e7472616e742063616c6c00600082015250565b7f53616c653a20414c52454144595f4f50455241544f525f524f4c450000000000600082015250565b7f206973206d697373696e6720726f6c6520000000000000000000000000000000600082015250565b7f416363657373436f6e74726f6c3a2063616e206f6e6c792072656e6f756e636560008201527f20726f6c657320666f722073656c660000000000000000000000000000000000602082015250565b61550281614ef8565b811461550d57600080fd5b50565b61551981614f0a565b811461552457600080fd5b50565b61553081614f16565b811461553b57600080fd5b50565b61554781614f20565b811461555257600080fd5b50565b61555e81614f6c565b811461556957600080fd5b5056fea26469706673582212204bcdf8af195cc34d1efac6106af92099e5db841f261d28cfa8a7da4dd0767cac64736f6c63430008040033",
  "linkReferences": {},
  "deployedLinkReferences": {}
}