{
  "_format": "hh-sol-artifact-1",
  "contractName": "KhephrenNFTStaking",
  "sourceName": "contracts/KhephrenNFTStaking.sol",
  "abi": [
    {
      "inputs": [
        {
          "internalType": "uint256",
          "name": "_price",
          "type": "uint256"
        },
        {
          "internalType": "address",
          "name": "_projectImplementation",
          "type": "address"
        }
      ],
      "stateMutability": "nonpayable",
      "type": "constructor"
    },
    {
      "anonymous": false,
      "inputs": [
        {
          "indexed": false,
          "internalType": "uint256",
          "name": "time",
          "type": "uint256"
        },
        {
          "indexed": false,
          "internalType": "uint256",
          "name": "amount",
          "type": "uint256"
        }
      ],
      "name": "depositFund",
      "type": "event"
    },
    {
      "anonymous": false,
      "inputs": [
        {
          "indexed": false,
          "internalType": "address",
          "name": "creator",
          "type": "address"
        },
        {
          "indexed": false,
          "internalType": "address",
          "name": "project",
          "type": "address"
        },
        {
          "indexed": false,
          "internalType": "uint256",
          "name": "time",
          "type": "uint256"
        }
      ],
      "name": "projectCreated",
      "type": "event"
    },
    {
      "anonymous": false,
      "inputs": [
        {
          "indexed": false,
          "internalType": "uint256",
          "name": "time",
          "type": "uint256"
        },
        {
          "indexed": false,
          "internalType": "uint256",
          "name": "amount",
          "type": "uint256"
        }
      ],
      "name": "withdrawFund",
      "type": "event"
    },
    {
      "inputs": [
        {
          "internalType": "address",
          "name": "_nftAddress",
          "type": "address"
        },
        {
          "internalType": "bytes[3]",
          "name": "_projectDetails",
          "type": "bytes[3]"
        }
      ],
      "name": "createProject",
      "outputs": [
        {
          "internalType": "address",
          "name": "",
          "type": "address"
        }
      ],
      "stateMutability": "payable",
      "type": "function"
    },
    {
      "inputs": [],
      "name": "getAllProjects",
      "outputs": [
        {
          "internalType": "address[]",
          "name": "",
          "type": "address[]"
        }
      ],
      "stateMutability": "view",
      "type": "function"
    },
    {
      "inputs": [],
      "name": "getAllUserProjects",
      "outputs": [
        {
          "internalType": "address[]",
          "name": "",
          "type": "address[]"
        }
      ],
      "stateMutability": "view",
      "type": "function"
    },
    {
      "inputs": [],
      "name": "getBalance",
      "outputs": [
        {
          "internalType": "uint256",
          "name": "",
          "type": "uint256"
        }
      ],
      "stateMutability": "view",
      "type": "function"
    },
    {
      "inputs": [],
      "name": "price",
      "outputs": [
        {
          "internalType": "uint256",
          "name": "",
          "type": "uint256"
        }
      ],
      "stateMutability": "view",
      "type": "function"
    },
    {
      "inputs": [
        {
          "internalType": "uint256",
          "name": "_price",
          "type": "uint256"
        }
      ],
      "name": "setPlatformPrice",
      "outputs": [],
      "stateMutability": "nonpayable",
      "type": "function"
    },
    {
      "inputs": [
        {
          "internalType": "address",
          "name": "_to",
          "type": "address"
        },
        {
          "internalType": "uint256",
          "name": "_amount",
          "type": "uint256"
        }
      ],
      "name": "withdraw",
      "outputs": [],
      "stateMutability": "nonpayable",
      "type": "function"
    }
  ],
  "bytecode": "0x60a060405234801561001057600080fd5b506040516109bb3803806109bb83398101604081905261002f91610078565b6001600160601b0319606082901b1660805261004b3383610052565b50506100b3565b600280546001600160a01b0319166001600160a01b039390931692909217909155600355565b6000806040838503121561008a578182fd5b825160208401519092506001600160a01b03811681146100a8578182fd5b809150509250929050565b60805160601c6108ea6100d1600039600061025401526108ea6000f3fe6080604052600436106100705760003560e01c8063698981761161004e57806369898176146100e457806380d0382914610104578063a035b1fe14610119578063f3fef3a31461012e57610070565b806312065fe014610075578063164f0589146100a05780634310a25e146100c2575b600080fd5b34801561008157600080fd5b5061008a61014e565b604051610097919061085d565b60405180910390f35b3480156100ac57600080fd5b506100b561018d565b604051610097919061074c565b3480156100ce57600080fd5b506100e26100dd366004610648565b6101f8565b005b6100f76100f2366004610541565b61022a565b604051610097919061066d565b34801561011057600080fd5b506100b561038f565b34801561012557600080fd5b5061008a6103ef565b34801561013a57600080fd5b506100e261014936600461061f565b6103f5565b60025460009033906001600160a01b031681146101865760405162461bcd60e51b815260040161017d90610799565b60405180910390fd5b4791505090565b336000908152600160209081526040918290208054835181840281018401909452808452606093928301828280156101ee57602002820191906000526020600020905b81546001600160a01b031681526001909101906020018083116101d0575b5050505050905090565b60025433906001600160a01b031681146102245760405162461bcd60e51b815260040161017d90610799565b50600355565b6000600354341461024d5760405162461bcd60e51b815260040161017d9061082e565b60006102787f00000000000000000000000000000000000000000000000000000000000000006104b6565b604051630603e23960e21b81529091506001600160a01b0382169063180f88e4906102ab908790879033906004016106a5565b600060405180830381600087803b1580156102c557600080fd5b505af11580156102d9573d6000803e3d6000fd5b505060008054600181810183557f290decd9548b62a8d60345a988386fc84ba6bc95484008f6362f93160ef3e56390910180546001600160a01b0387166001600160a01b03199182168117909255338085526020848152604080872080549687018155875295209093018054909116909117905590517f76b9cc6438d7c5397c5f7b94051667224dd4f8d3003657272b690359493054eb9350610380925084904290610681565b60405180910390a19392505050565b606060008054806020026020016040519081016040528092919081815260200182805480156101ee576020028201919060005260206000209081546001600160a01b031681526001909101906020018083116101d0575050505050905090565b60035481565b60025433906001600160a01b031681146104215760405162461bcd60e51b815260040161017d90610799565b814710156104415760405162461bcd60e51b815260040161017d906107d0565b6040516001600160a01b0384169083156108fc029084906000818181858888f19350505050158015610477573d6000803e3d6000fd5b507fb88d09f6c660bed617f0f95b08a7a3a3cc6f6821017c40f3d95074d719ec331542836040516104a9929190610866565b60405180910390a1505050565b6000604051733d602d80600a3d3981f3363d3d373d3d3d363d7360601b81528260601b60148201526e5af43d82803e903d91602b57fd5bf360881b60288201526037816000f09150506001600160a01b0381166105255760405162461bcd60e51b815260040161017d906107fe565b919050565b80356001600160a01b038116811461052557600080fd5b60008060408385031215610553578182fd5b61055c8361052a565b915060208084013567ffffffffffffffff80821115610579578384fd5b8186019150601f878184011261058d578485fd5b6105976060610874565b8084875b600381101561060e57813587018c868201126105b557898afd5b8035878111156105c7576105c761089e565b6105d8818801601f19168b01610874565b8181528e8b8385010111156105eb578b8cfd5b818b84018c8301379081018a018b9052855250928701929087019060010161059b565b50979a909950975050505050505050565b60008060408385031215610631578182fd5b61063a8361052a565b946020939093013593505050565b600060208284031215610659578081fd5b5035919050565b6001600160a01b03169052565b6001600160a01b0391909116815260200190565b6001600160a01b039384168152919092166020820152604081019190915260600190565b6001600160a01b03841681526060602080830182905260009160c084019190840186845b600381101561072f57868503605f1901835281518051808752875b818110156106ff5782810187015188820188015286016106e4565b8181111561070f578887838a0101525b50601f01601f1916959095018401945091830191908301906001016106c9565b50505050809150506107446040830184610660565b949350505050565b6020808252825182820181905260009190848201906040850190845b8181101561078d5783516001600160a01b031683529284019291840191600101610768565b50909695505050505050565b60208082526017908201527f43616c6c6572206973206e6f7420746865206f776e6572000000000000000000604082015260600190565b602080825260149082015273496e73756666696369656e742062616c616e636560601b604082015260600190565b602080825260169082015275115490cc4c4d8dce8818dc99585d194819985a5b195960521b604082015260600190565b602080825260159082015274115490cc8c0e88125b9d985b1a5908185b5bdd5b9d605a1b604082015260600190565b90815260200190565b918252602082015260400190565b60405181810167ffffffffffffffff811182821017156108965761089661089e565b604052919050565b634e487b7160e01b600052604160045260246000fdfea2646970667358221220c4a4749eeb6dd1c3a6d143fec6d872c3791c255fb527ffeb8703e922a9ef5a7d64736f6c63430008000033",
  "linkReferences": {},
  "deployedLinkReferences": {}
}