{
  "_format": "hh-sol-artifact-1",
  "contractName": "Pool721",
  "sourceName": "contracts/Pool721.sol",
  "abi": [
    {
      "anonymous": false,
      "inputs": [
        {
          "indexed": false,
          "internalType": "address",
          "name": "nftAddress",
          "type": "address"
        },
        {
          "indexed": false,
          "internalType": "uint256",
          "name": "tokenId",
          "type": "uint256"
        },
        {
          "indexed": false,
          "internalType": "uint256",
          "name": "time",
          "type": "uint256"
        }
      ],
      "name": "addNftRewardEVT",
      "type": "event"
    },
    {
      "anonymous": false,
      "inputs": [
        {
          "indexed": false,
          "internalType": "address",
          "name": "tokenAddress",
          "type": "address"
        },
        {
          "indexed": false,
          "internalType": "uint256",
          "name": "amount",
          "type": "uint256"
        },
        {
          "indexed": false,
          "internalType": "uint256",
          "name": "time",
          "type": "uint256"
        }
      ],
      "name": "addTokenRewardEVT",
      "type": "event"
    },
    {
      "anonymous": false,
      "inputs": [
        {
          "indexed": false,
          "internalType": "address",
          "name": "owner",
          "type": "address"
        },
        {
          "indexed": false,
          "internalType": "uint256",
          "name": "tokenId",
          "type": "uint256"
        },
        {
          "indexed": false,
          "internalType": "uint256",
          "name": "time",
          "type": "uint256"
        }
      ],
      "name": "claimNftEVT",
      "type": "event"
    },
    {
      "anonymous": false,
      "inputs": [
        {
          "indexed": false,
          "internalType": "address",
          "name": "by",
          "type": "address"
        },
        {
          "indexed": false,
          "internalType": "uint256",
          "name": "tokenId",
          "type": "uint256"
        },
        {
          "indexed": false,
          "internalType": "uint256",
          "name": "time",
          "type": "uint256"
        }
      ],
      "name": "claimNftRewardEVT",
      "type": "event"
    },
    {
      "anonymous": false,
      "inputs": [
        {
          "indexed": false,
          "internalType": "address",
          "name": "by",
          "type": "address"
        },
        {
          "indexed": false,
          "internalType": "uint256",
          "name": "amount",
          "type": "uint256"
        },
        {
          "indexed": false,
          "internalType": "uint256",
          "name": "time",
          "type": "uint256"
        }
      ],
      "name": "claimTokenRewardEVT",
      "type": "event"
    },
    {
      "inputs": [
        {
          "internalType": "uint256",
          "name": "_tokenId",
          "type": "uint256"
        }
      ],
      "name": "addNftRewards",
      "outputs": [],
      "stateMutability": "nonpayable",
      "type": "function"
    },
    {
      "inputs": [
        {
          "internalType": "uint256",
          "name": "_amount",
          "type": "uint256"
        },
        {
          "internalType": "address",
          "name": "_rewardAddress",
          "type": "address"
        },
        {
          "internalType": "uint8",
          "name": "_tokenRewardType",
          "type": "uint8"
        }
      ],
      "name": "addTokenRewards",
      "outputs": [],
      "stateMutability": "nonpayable",
      "type": "function"
    },
    {
      "inputs": [],
      "name": "cancelPool721",
      "outputs": [],
      "stateMutability": "nonpayable",
      "type": "function"
    },
    {
      "inputs": [],
      "name": "finalize",
      "outputs": [],
      "stateMutability": "nonpayable",
      "type": "function"
    },
    {
      "inputs": [],
      "name": "getAllstakers",
      "outputs": [
        {
          "components": [
            {
              "internalType": "uint256",
              "name": "index",
              "type": "uint256"
            },
            {
              "internalType": "address",
              "name": "stakers",
              "type": "address"
            },
            {
              "internalType": "uint256",
              "name": "tokenId",
              "type": "uint256"
            },
            {
              "internalType": "uint256",
              "name": "stakeTime",
              "type": "uint256"
            },
            {
              "internalType": "bool",
              "name": "isWinner",
              "type": "bool"
            },
            {
              "internalType": "uint256",
              "name": "nftReward",
              "type": "uint256"
            },
            {
              "internalType": "enum Pool721.StakeStatus",
              "name": "status",
              "type": "uint8"
            }
          ],
          "internalType": "struct Pool721.Stake[]",
          "name": "",
          "type": "tuple[]"
        }
      ],
      "stateMutability": "view",
      "type": "function"
    },
    {
      "inputs": [],
      "name": "getNFTReward",
      "outputs": [
        {
          "components": [
            {
              "internalType": "uint256",
              "name": "index",
              "type": "uint256"
            },
            {
              "internalType": "uint256",
              "name": "tokenId",
              "type": "uint256"
            },
            {
              "internalType": "address",
              "name": "from",
              "type": "address"
            },
            {
              "internalType": "enum Pool721.RewardStatus",
              "name": "status",
              "type": "uint8"
            }
          ],
          "internalType": "struct Pool721.Reward[]",
          "name": "",
          "type": "tuple[]"
        }
      ],
      "stateMutability": "view",
      "type": "function"
    },
    {
      "inputs": [],
      "name": "getPoolDetails",
      "outputs": [
        {
          "components": [
            {
              "internalType": "uint256",
              "name": "start",
              "type": "uint256"
            },
            {
              "internalType": "uint256",
              "name": "stakingEndDate",
              "type": "uint256"
            },
            {
              "internalType": "uint256",
              "name": "end",
              "type": "uint256"
            },
            {
              "internalType": "uint16",
              "name": "minimumStakers",
              "type": "uint16"
            },
            {
              "internalType": "uint16",
              "name": "maximumStakers",
              "type": "uint16"
            },
            {
              "internalType": "uint16",
              "name": "tax",
              "type": "uint16"
            },
            {
              "internalType": "address",
              "name": "nftAddress",
              "type": "address"
            },
            {
              "internalType": "enum Pool721.PoolStatus",
              "name": "status",
              "type": "uint8"
            }
          ],
          "internalType": "struct Pool721.poolDetails721",
          "name": "",
          "type": "tuple"
        }
      ],
      "stateMutability": "view",
      "type": "function"
    },
    {
      "inputs": [],
      "name": "getTokenBalance",
      "outputs": [
        {
          "internalType": "uint256",
          "name": "",
          "type": "uint256"
        }
      ],
      "stateMutability": "view",
      "type": "function"
    },
    {
      "inputs": [
        {
          "internalType": "address",
          "name": "to",
          "type": "address"
        },
        {
          "internalType": "address",
          "name": "from",
          "type": "address"
        },
        {
          "internalType": "uint256",
          "name": "tokenId",
          "type": "uint256"
        },
        {
          "internalType": "bytes",
          "name": "_data",
          "type": "bytes"
        }
      ],
      "name": "onERC721Received",
      "outputs": [
        {
          "internalType": "bytes4",
          "name": "",
          "type": "bytes4"
        }
      ],
      "stateMutability": "nonpayable",
      "type": "function"
    },
    {
      "inputs": [
        {
          "internalType": "uint256[]",
          "name": "_dates",
          "type": "uint256[]"
        },
        {
          "internalType": "uint16[]",
          "name": "_data",
          "type": "uint16[]"
        },
        {
          "internalType": "address",
          "name": "_nftAddress",
          "type": "address"
        },
        {
          "internalType": "address",
          "name": "_poolOwner",
          "type": "address"
        }
      ],
      "name": "setPoolDetails",
      "outputs": [],
      "stateMutability": "nonpayable",
      "type": "function"
    },
    {
      "inputs": [
        {
          "internalType": "uint256",
          "name": "_tokenId",
          "type": "uint256"
        }
      ],
      "name": "stake",
      "outputs": [],
      "stateMutability": "nonpayable",
      "type": "function"
    },
    {
      "inputs": [
        {
          "internalType": "uint256",
          "name": "_tokenId",
          "type": "uint256"
        },
        {
          "internalType": "bool",
          "name": "_iswinner",
          "type": "bool"
        },
        {
          "internalType": "uint256",
          "name": "_rewardId",
          "type": "uint256"
        }
      ],
      "name": "unStakeNftReward",
      "outputs": [],
      "stateMutability": "nonpayable",
      "type": "function"
    },
    {
      "inputs": [
        {
          "internalType": "uint256",
          "name": "_tokenId",
          "type": "uint256"
        }
      ],
      "name": "unStakeTokenReward",
      "outputs": [],
      "stateMutability": "nonpayable",
      "type": "function"
    }
  ],
  "bytecode": "0x60806040526002805461ffff60a01b19169055600060038190556004805460ff1916905560055534801561003257600080fd5b5060016000556135d3806100476000396000f3fe608060405234801561001057600080fd5b50600436106100cf5760003560e01c8063697a11981161008c578063a694fc3a11610066578063a694fc3a14610185578063aca34c1114610198578063add00256146101ad578063c375a705146101c0576100cf565b8063697a11981461014a57806382b2e2571461015d578063a283415114610172576100cf565b8063150b7a02146100d457806315a2bd64146100fd57806321c42d51146101125780634bb278f3146101255780635082cb811461012d57806354883d5e14610135575b600080fd5b6100e76100e2366004612a12565b6101d5565b6040516100f49190612ef6565b60405180910390f35b61011061010b366004612c16565b610391565b005b610110610120366004612ba0565b610762565b6101106107c5565b610110610847565b61013d610af7565b6040516100f49190612df0565b610110610158366004612ba0565b610bd0565b610165610d67565b6040516100f49190613421565b610110610180366004612aac565b610ded565b610110610193366004612ba0565b611124565b6101a061139b565b6040516100f491906133a9565b6101106101bb366004612bd0565b611471565b6101c8611639565b6040516100f49190612e66565b600082826040516101e7929190612c4d565b6040805191829003822082820190915260068252651c995dd85c9960d21b6020909201919091527f594d34f771ec633c2f562d96c03f9299763555317b87ad49b1aa8c08079dde0e14156102445761023f848661172b565b61037f565b8282604051610254929190612c4d565b6040805191829003822082820190915260058252647374616b6560d81b6020909201919091527fc3a04795accb4b73d12f13b05a1e0e240cefeb9a89d008676730867a819d2f7914156102ab5761023f8486611925565b82826040516102bb929190612c4d565b60408051918290038220828201909152600882526718db185a5b5495d160c21b6020909201919091527ff21f997cde71a8cb3f4682f974a102f0037e6e56a3fb2bdf33e2ac7e1bbd854c14156103155761023f8685611c6c565b8282604051610325929190612c4d565b604080519182900382208282019091526008825267636c61696d53544b60c01b6020909201919091527faf7f085fb8e8e1b0d48466a137f7e0d7870e881fc8f25041b4a67cc3c803119b141561037f5761037f8685611d13565b50630a85bd0160e11b95945050505050565b600260005414156103bd5760405162461bcd60e51b81526004016103b4906132f4565b60405180910390fd5b6002600081815530815260066020908152604080832081516101008101835281548152600180830154948201949094529481015491850191909152600381015461ffff808216606087015262010000820481166080870152600160201b82041660a08601526001600160a01b03600160301b82041660c0860152929392909160e0840191600160d01b900460ff169081111561046957634e487b7160e01b600052602160045260246000fd5b600181111561048857634e487b7160e01b600052602160045260246000fd5b9052503360009081526007602090815260408083208884528252808320815160e0810183528154815260018201546001600160a01b0316938101939093526002808201549284019290925260038101546060840152600481015460ff90811615156080850152600582015460a0850152600682015495965093949293909260c085019291169081111561052b57634e487b7160e01b600052602160045260246000fd5b600281111561054a57634e487b7160e01b600052602160045260246000fd5b90525060208101519091506001600160a01b0316331461057c5760405162461bcd60e51b81526004016103b49061308e565b42826040015111156105a05760405162461bcd60e51b81526004016103b490612ff7565b6000838152600a602090815260408083208151608081018352815481526001808301549482019490945260028201546001600160a01b038116938201939093529290916060840191600160a01b90910460ff169081111561061157634e487b7160e01b600052602160045260246000fd5b600181111561063057634e487b7160e01b600052602160045260246000fd5b90525060c0840151909150600186151514156106ef5760008260600151600181111561066c57634e487b7160e01b600052602160045260246000fd5b146106895760405162461bcd60e51b81526004016103b4906131e4565b6020830151604051635c46a7ef60e11b81526001600160a01b0383169163b88d4fde916106bc9130918a90600401612d72565b600060405180830381600087803b1580156106d657600080fd5b505af11580156106ea573d6000803e3d6000fd5b505050505b6020830151604051635c46a7ef60e11b81526001600160a01b0383169163b88d4fde916107229130918c90600401612ced565b600060405180830381600087803b15801561073c57600080fd5b505af1158015610750573d6000803e3d6000fd5b50506001600055505050505050505050565b600260005414156107855760405162461bcd60e51b81526004016103b4906132f4565b600260005560045460ff16600114156107a6576107a181611dd0565b6107bd565b60045460ff16600214156107bd576107bd81612132565b506001600055565b60015433906001600160a01b031681146107f15760405162461bcd60e51b81526004016103b490612f42565b600254600160a01b900460ff166001141561083c5760045460ff16600114156108215761081c612483565b610837565b60045460ff16600214156108375761083761264c565b610844565b6108446127d3565b50565b60015433906001600160a01b031681146108735760405162461bcd60e51b81526004016103b490612f42565b306000908152600660205260409020600954600382015461ffff1611801561089e5750428160010154105b6108ba5760405162461bcd60e51b81526004016103b49061325c565b600254600160a01b900460ff16600114156109cd576002546001546040516370a0823160e01b81526001600160a01b039283169263a9059cbb92169083906370a082319061090c903090600401612c73565b60206040518083038186803b15801561092457600080fd5b505afa158015610938573d6000803e3d6000fd5b505050506040513d601f19601f8201168201806040525081019061095c9190612bb8565b6040518363ffffffff1660e01b8152600401610979929190612db6565b602060405180830381600087803b15801561099357600080fd5b505af11580156109a7573d6000803e3d6000fd5b505050506040513d601f19601f820116820180604052508101906109cb9190612b84565b505b60038101805460ff60d01b1916600160d01b17905560005b600954811015610af2578160030160069054906101000a90046001600160a01b03166001600160a01b031663b88d4fde3060098481548110610a3757634e487b7160e01b600052603260045260246000fd5b906000526020600020906007020160010160009054906101000a90046001600160a01b031660098581548110610a7d57634e487b7160e01b600052603260045260246000fd5b9060005260206000209060070201600201546040518463ffffffff1660e01b8152600401610aad93929190612ced565b600060405180830381600087803b158015610ac757600080fd5b505af1158015610adb573d6000803e3d6000fd5b505050508080610aea906134e3565b9150506109e5565b505050565b6060600b805480602002602001604051908101604052809291908181526020016000905b82821015610bc75760008481526020908190206040805160808101825260038602909201805483526001808201549484019490945260028101546001600160a01b0381169284019290925291926060840191600160a01b900460ff1690811115610b9557634e487b7160e01b600052602160045260246000fd5b6001811115610bb457634e487b7160e01b600052602160045260246000fd5b8152505081526020019060010190610b1b565b50505050905090565b60015433906001600160a01b03168114610bfc5760405162461bcd60e51b81526004016103b490612f42565b600254600160a01b900460ff161580610c20575060028054600160a01b900460ff16145b610c3c5760405162461bcd60e51b81526004016103b490612fb0565b30600090815260066020526040908190206003015490516331a9108f60e11b8152600160301b9091046001600160a01b031690819033908290636352211e90610c89908890600401613421565b60206040518083038186803b158015610ca157600080fd5b505afa158015610cb5573d6000803e3d6000fd5b505050506040513d601f19601f82011682018060405250810190610cd991906129f6565b6001600160a01b031614610cff5760405162461bcd60e51b81526004016103b49061302e565b604051635c46a7ef60e11b81526001600160a01b0382169063b88d4fde90610d2f90339030908990600401612cab565b600060405180830381600087803b158015610d4957600080fd5b505af1158015610d5d573d6000803e3d6000fd5b5050505050505050565b6002546040516370a0823160e01b81526000916001600160a01b0316906370a0823190610d98903090600401612c73565b60206040518083038186803b158015610db057600080fd5b505afa158015610dc4573d6000803e3d6000fd5b505050506040513d601f19601f82011682018060405250810190610de89190612bb8565b905090565b83600181518110610e0e57634e487b7160e01b600052603260045260246000fd5b602002602001015184600081518110610e3757634e487b7160e01b600052603260045260246000fd5b602002602001015111158015610e7557504284600081518110610e6a57634e487b7160e01b600052603260045260246000fd5b602002602001015110155b610e915760405162461bcd60e51b81526004016103b4906132ce565b6001546001600160a01b031615610eba5760405162461bcd60e51b81526004016103b49061313a565b600060405180610100016040528086600081518110610ee957634e487b7160e01b600052603260045260246000fd5b6020026020010151815260200186600181518110610f1757634e487b7160e01b600052603260045260246000fd5b6020026020010151815260200186600281518110610f4557634e487b7160e01b600052603260045260246000fd5b6020026020010151815260200185600081518110610f7357634e487b7160e01b600052603260045260246000fd5b602002602001015161ffff16815260200185600181518110610fa557634e487b7160e01b600052603260045260246000fd5b602002602001015161ffff16815260200185600281518110610fd757634e487b7160e01b600052603260045260246000fd5b602002602001015161ffff168152602001846001600160a01b031681526020016000600181111561101857634e487b7160e01b600052602160045260246000fd5b9052600180546001600160a01b038086166001600160a01b0319909216919091178255306000908152600660209081526040918290208551815590850151818501559084015160028201556060840151600382018054608087015160a088015160c0890151909616600160301b026601000000000000600160d01b031961ffff978816600160201b0265ffff0000000019938916620100000263ffff0000199990971661ffff199095169490941797909716949094171617939093161780835560e08501519495508594919391929160ff60d01b1990911690600160d01b90849081111561111657634e487b7160e01b600052602160045260246000fd5b021790555050505050505050565b3060009081526006602090815260408083208151610100810183528154815260018083015494820194909452600282015492810192909252600381015461ffff808216606085015262010000820481166080850152600160201b82041660a08401526001600160a01b03600160301b82041660c08401529192909160e0840191600160d01b90910460ff16908111156111cd57634e487b7160e01b600052602160045260246000fd5b60018111156111ec57634e487b7160e01b600052602160045260246000fd5b90525080519091504210156112135760405162461bcd60e51b81526004016103b490612f0b565b60045460ff16600114156112455742816020015110156112455760405162461bcd60e51b81526004016103b490613372565b60045460ff166002141561127f57600254600160a81b900460ff1660011461127f5760405162461bcd60e51b81526004016103b49061332b565b600254600160a01b900460ff166112a85760405162461bcd60e51b81526004016103b4906131b4565b30600090815260066020526040908190206003015490516331a9108f60e11b8152600160301b9091046001600160a01b031690819033908290636352211e906112f5908890600401613421565b60206040518083038186803b15801561130d57600080fd5b505afa158015611321573d6000803e3d6000fd5b505050506040513d601f19601f8201168201806040525081019061134591906129f6565b6001600160a01b03161461136b5760405162461bcd60e51b81526004016103b49061302e565b604051635c46a7ef60e11b81526001600160a01b0382169063b88d4fde90610d2f90339030908990600401612d31565b6113a3612929565b306000908152600660209081526040918290208251610100810184528154815260018083015493820193909352600282015493810193909352600381015461ffff808216606086015262010000820481166080860152600160201b82041660a08501526001600160a01b03600160301b82041660c0850152909160e0840191600160d01b900460ff169081111561144a57634e487b7160e01b600052602160045260246000fd5b600181111561146957634e487b7160e01b600052602160045260246000fd5b905250905090565b60015433906001600160a01b0316811461149d5760405162461bcd60e51b81526004016103b490612f42565b600254600160a01b900460ff1615806114c25750600254600160a01b900460ff166001145b6114de5760405162461bcd60e51b81526004016103b49061316f565b600254600160a01b900460ff1660011415611520576002546001600160a01b038481169116146115205760405162461bcd60e51b81526004016103b4906130dc565b6040516323b872dd60e01b81526001600160a01b038416906323b872dd9061155090339030908990600401612c87565b602060405180830381600087803b15801561156a57600080fd5b505af115801561157e573d6000803e3d6000fd5b505050506040513d601f19601f820116820180604052508101906115a29190612b84565b6115be5760405162461bcd60e51b81526004016103b490612f79565b6004805460ff191660ff841617905560028054600160a01b6001600160a01b03199091166001600160a01b0386161760ff60a01b19161790556040517f3a0d3ec5c866342432337e5ac73fc8a001b1762065cd9e17766cea1833302e8e9061162b90859087904290612dcf565b60405180910390a150505050565b60606009805480602002602001604051908101604052809291908181526020016000905b82821015610bc75760008481526020908190206040805160e081018252600786029092018054835260018101546001600160a01b0316938301939093526002808401549183019190915260038301546060830152600483015460ff90811615156080840152600584015460a0840152600684015492939260c08501929116908111156116f957634e487b7160e01b600052602160045260246000fd5b600281111561171857634e487b7160e01b600052602160045260246000fd5b815250508152602001906001019061165d565b306000908152600660209081526040808320600301548151608081018352600b5481528084018781526001600160a01b03878116838601908152606084018881528a8952600a9097529490962082518155905160018083019190915593516002820180546001600160a01b031916918816919091178082559551600160301b90940490961695919485949193929160ff60a01b1990911690600160a01b9084908111156117e857634e487b7160e01b600052602160045260246000fd5b021790555050600b805460018181018355600092909252835160039091027f0175b7a638427703f0dbe7bb9bbf987a2551717b34e79f33b5b1008d1fa01db9810191825560208501517f0175b7a638427703f0dbe7bb9bbf987a2551717b34e79f33b5b1008d1fa01dba82015560408501517f0175b7a638427703f0dbe7bb9bbf987a2551717b34e79f33b5b1008d1fa01dbb90910180546001600160a01b039092166001600160a01b0319909216919091178082556060860151869550929360ff60a01b1990911690600160a01b9084908111156118d757634e487b7160e01b600052602160045260246000fd5b0217905550506002805460ff60a01b1916600160a11b179055506040517f3cf731f7c81b98ecee1d772ac5556cc4f0d887e43436a57032332f96a88fe4d79061162b90849087904290612dcf565b6040805160e08101825260095481526001600160a01b038381166020808401828152848601888152426060870190815260006080880181815260a0890182815260c08a01838152978352600787528a83208d845290965298902087518155925160018085018054929098166001600160a01b031990921691909117909655905160028084019190915590516003830155955160048201805491151560ff19928316179055915160058201559151600683018054959687969495929491939190911691908490811115611a0757634e487b7160e01b600052602160045260246000fd5b021790555050506001600160a01b038083166000908152600860209081526040808320805460018181018355918552938390208651600790950201938455918501518383018054919095166001600160a01b0319909116179093559183015160028083019190915560608401516003830155608084015160048301805491151560ff1992831617905560a0850151600584015560c08501516006840180548796929491931691908490811115611acd57634e487b7160e01b600052602160045260246000fd5b0217905550506009805460018181018355600092909252835160079091027f6e1540171b6c0c960b71a7020d9f60077f6af931a8bbf590da0223dacf75c7af810191825560208501517f6e1540171b6c0c960b71a7020d9f60077f6af931a8bbf590da0223dacf75c7b0820180546001600160a01b039092166001600160a01b031990921691909117905560408501517f6e1540171b6c0c960b71a7020d9f60077f6af931a8bbf590da0223dacf75c7b182015560608501517f6e1540171b6c0c960b71a7020d9f60077f6af931a8bbf590da0223dacf75c7b282015560808501517f6e1540171b6c0c960b71a7020d9f60077f6af931a8bbf590da0223dacf75c7b38201805491151560ff1992831617905560a08601517f6e1540171b6c0c960b71a7020d9f60077f6af931a8bbf590da0223dacf75c7b483015560c08601517f6e1540171b6c0c960b71a7020d9f60077f6af931a8bbf590da0223dacf75c7b59092018054879650939492939092911690836002811115611c6057634e487b7160e01b600052602160045260246000fd5b02179055505050505050565b6000818152600a602052604081208054600b80549293929091908110611ca257634e487b7160e01b600052603260045260246000fd5b6000918252602090912060028481018054600160a01b60ff60a01b199182168117909255600390940290920190810180549093169091179091556040519091507f45f1960e833b264a6d44a82c4f5f627904eccf2ca2f96a972bbaa052c48cc75c9061162b90869086904290612dcf565b6001600160a01b038216600090815260076020908152604080832084845290915281208054600980549293929091908110611d5e57634e487b7160e01b600052603260045260246000fd5b600091825260209091206006840180546007909302909101925060029160ff191660018302179055506006810180546002919060ff191660018302179055507f3f5c9f9cf4e31cc8c399497a36ef3cac376314a5cd5f14686a8ef2aa5326c6b084844260405161162b93929190612dcf565b3060009081526006602090815260408083208151610100810183528154815260018083015494820194909452600282015492810192909252600381015461ffff808216606085015262010000820481166080850152600160201b82041660a08401526001600160a01b03600160301b82041660c08401529192909160e0840191600160d01b90910460ff1690811115611e7957634e487b7160e01b600052602160045260246000fd5b6001811115611e9857634e487b7160e01b600052602160045260246000fd5b9052503360009081526007602090815260408083208684528252808320815160e0810183528154815260018201546001600160a01b0316938101939093526002808201549284019290925260038101546060840152600481015460ff90811615156080850152600582015460a0850152600682015495965093949293909260c0850192911690811115611f3b57634e487b7160e01b600052602160045260246000fd5b6002811115611f5a57634e487b7160e01b600052602160045260246000fd5b90525060208101519091506001600160a01b03163314611f8c5760405162461bcd60e51b81526004016103b49061308e565b4282604001511115611fb05760405162461bcd60e51b81526004016103b490612ff7565b600254600160a81b900460ff16600114611fdc5760405162461bcd60e51b81526004016103b490613057565b60c08201516002546005546003546001600160a01b039092169160009161200391906128fe565b602085015160405163a9059cbb60e01b81529192506001600160a01b0384169163a9059cbb91612037918590600401612db6565b602060405180830381600087803b15801561205157600080fd5b505af1158015612065573d6000803e3d6000fd5b505050506040513d601f19601f820116820180604052508101906120899190612b84565b506020840151604051635c46a7ef60e11b81526001600160a01b0385169163b88d4fde916120bd9130918b90600401612ced565b600060405180830381600087803b1580156120d757600080fd5b505af11580156120eb573d6000803e3d6000fd5b505050507ff254c2959ee66bd9c5b4e56a46660c86f2f889f3ec5fc63c4c77b1fb0b0a8fa733824260405161212293929190612dcf565b60405180910390a1505050505050565b3060009081526006602090815260408083208151610100810183528154815260018083015494820194909452600282015492810192909252600381015461ffff808216606085015262010000820481166080850152600160201b82041660a08401526001600160a01b03600160301b82041660c08401529192909160e0840191600160d01b90910460ff16908111156121db57634e487b7160e01b600052602160045260246000fd5b60018111156121fa57634e487b7160e01b600052602160045260246000fd5b9052503360009081526007602090815260408083208684528252808320815160e0810183528154815260018201546001600160a01b0316938101939093526002808201549284019290925260038101546060840152600481015460ff90811615156080850152600582015460a0850152600682015495965093949293909260c085019291169081111561229d57634e487b7160e01b600052602160045260246000fd5b60028111156122bc57634e487b7160e01b600052602160045260246000fd5b90525060208101519091506001600160a01b031633146122ee5760405162461bcd60e51b81526004016103b49061308e565b60c082015160025460608301516001600160a01b039091169060009061232490620151809061231e9042906128fe565b90612911565b905060006123536123408360055461291d90919063ffffffff16565b60035461234d908561291d565b906128fe565b602086015160405163a9059cbb60e01b81529192506001600160a01b0385169163a9059cbb91612387918590600401612db6565b602060405180830381600087803b1580156123a157600080fd5b505af11580156123b5573d6000803e3d6000fd5b505050506040513d601f19601f820116820180604052508101906123d99190612b84565b506020850151604051635c46a7ef60e11b81526001600160a01b0386169163b88d4fde9161240d9130918c90600401612ced565b600060405180830381600087803b15801561242757600080fd5b505af115801561243b573d6000803e3d6000fd5b505050507ff254c2959ee66bd9c5b4e56a46660c86f2f889f3ec5fc63c4c77b1fb0b0a8fa733824260405161247293929190612dcf565b60405180910390a150505050505050565b3060009081526006602090815260408083208151610100810183528154815260018083015494820194909452600282015492810192909252600381015461ffff808216606085015262010000820481166080850152600160201b82041660a08401526001600160a01b03600160301b82041660c08401529192909160e0840191600160d01b90910460ff169081111561252c57634e487b7160e01b600052602160045260246000fd5b600181111561254b57634e487b7160e01b600052602160045260246000fd5b815250509050428160200151106125745760405162461bcd60e51b81526004016103b49061321b565b6002546009546040516370a0823160e01b81526001600160a01b03909216916125fe919083906370a08231906125ae903090600401612c73565b60206040518083038186803b1580156125c657600080fd5b505afa1580156125da573d6000803e3d6000fd5b505050506040513d601f19601f8201168201806040525081019061231e9190612bb8565b60035560a082015161ffff16156126355760035460648360a001516126239190613478565b61ffff1661263191906134ad565b6005555b50506002805460ff60a81b1916600160a81b179055565b3060009081526006602090815260408083208151610100810183528154815260018083015494820194909452600282015492810192909252600381015461ffff808216606085015262010000820481166080850152600160201b82041660a08401526001600160a01b03600160301b82041660c08401529192909160e0840191600160d01b90910460ff16908111156126f557634e487b7160e01b600052602160045260246000fd5b600181111561271457634e487b7160e01b600052602160045260246000fd5b905250600254815160408301519293506001600160a01b039091169160009161274691620151809161231e91906128fe565b9050612784836080015161ffff1661231e83856001600160a01b03166370a08231306040518263ffffffff1660e01b81526004016125ae9190612c73565b60035560a083015161ffff16156127bb5760035460648460a001516127a99190613478565b61ffff166127b791906134ad565b6005555b50506002805460ff60a81b1916600160a81b17905550565b60005b600b548110156108445760004442836040516020016127f793929190612c5d565b60408051601f19818403018152919052805160209091012060095490915060009061282290836134fe565b905060006009828154811061284757634e487b7160e01b600052603260045260246000fd5b6000918252602080832060079283020160018101546001600160a01b031684529181526040808420600284015485529091528220600b8054929450909291879081106128a357634e487b7160e01b600052603260045260246000fd5b6000918252602090912060048581018054600160ff1991821681179092556003909402909201820180546005978801559085018054909316909117909155549190920155508291506128f69050816134e3565b9150506127d6565b600061290a82846134cc565b9392505050565b600061290a8284613499565b600061290a82846134ad565b6040805161010081018252600080825260208201819052918101829052606081018290526080810182905260a0810182905260c081018290529060e082015290565b80356129768161357a565b919050565b600082601f83011261298b578081fd5b813560206129a061299b83613454565b61342a565b82815281810190858301838502870184018810156129bc578586fd5b855b858110156129e957813561ffff811681146129d7578788fd5b845292840192908401906001016129be565b5090979650505050505050565b600060208284031215612a07578081fd5b815161290a8161357a565b600080600080600060808688031215612a29578081fd5b8535612a348161357a565b94506020860135612a448161357a565b935060408601359250606086013567ffffffffffffffff80821115612a67578283fd5b818801915088601f830112612a7a578283fd5b813581811115612a88578384fd5b896020828501011115612a99578384fd5b9699959850939650602001949392505050565b60008060008060808587031215612ac1578384fd5b843567ffffffffffffffff80821115612ad8578586fd5b818701915087601f830112612aeb578586fd5b81356020612afb61299b83613454565b82815281810190858301838502870184018d1015612b17578a8bfd5b8a96505b84871015612b39578035835260019690960195918301918301612b1b565b5098505088013592505080821115612b4f578485fd5b50612b5c8782880161297b565b935050612b6b6040860161296b565b9150612b796060860161296b565b905092959194509250565b600060208284031215612b95578081fd5b815161290a8161358f565b600060208284031215612bb1578081fd5b5035919050565b600060208284031215612bc9578081fd5b5051919050565b600080600060608486031215612be4578283fd5b833592506020840135612bf68161357a565b9150604084013560ff81168114612c0b578182fd5b809150509250925092565b600080600060608486031215612c2a578283fd5b833592506020840135612c3c8161358f565b929592945050506040919091013590565b6000828483379101908152919050565b9283526020830191909152604082015260600190565b6001600160a01b0391909116815260200190565b6001600160a01b039384168152919092166020820152604081019190915260600190565b6001600160a01b0393841681529190921660208201526040810191909152608060608201819052600690820152651c995dd85c9960d21b60a082015260c00190565b6001600160a01b039384168152919092166020820152604081019190915260806060820181905260089082015267636c61696d53544b60c01b60a082015260c00190565b6001600160a01b0393841681529190921660208201526040810191909152608060608201819052600590820152647374616b6560d81b60a082015260c00190565b6001600160a01b03938416815291909216602082015260408101919091526080606082018190526008908201526718db185a5b5495d160c21b60a082015260c00190565b6001600160a01b03929092168252602082015260400190565b6001600160a01b039390931683526020830191909152604082015260600190565b602080825282518282018190526000919060409081850190868401855b82811015612e59578151805185528681015187860152858101516001600160a01b03168686015260609081015190612e448261356a565b85015260809093019290850190600101612e0d565b5091979650505050505050565b602080825282518282018190526000919060409081850190868401855b82811015612e5957815180518552868101516001600160a01b03168786015285810151868601526060808201519086015260808082015115159086015260a0808201519086015260c0908101519060038210612ee157612ee161353e565b85015260e09093019290850190600101612e83565b6001600160e01b031991909116815260200190565b6020808252601d908201527f504f4f4c3732313a205374616b696e67206973206e6f74207374617274000000604082015260600190565b60208082526017908201527f43616c6c6572206973206e6f7420746865206f776e6572000000000000000000604082015260600190565b6020808252601b908201527f504f4f4c3732313a205472616e73616374696f6e206661696c65640000000000604082015260600190565b60208082526027908201527f504f4f4c3732313a20546f6b656e2072657761726420697320616c72656164796040820152662061637469766560c81b606082015260800190565b6020808252601a908201527f4552433732313a20696e76616c696420636c61696d2064617465000000000000604082015260600190565b6020808252600f908201526e151bdad95b881b9bdd08199bdd5b99608a1b604082015260600190565b6020808252601a908201527f504f4f4c3732313a20506f6f6c206e6f742066696e616c697a65000000000000604082015260600190565b6020808252602e908201527f4552433732313a20636c61696d2063616c6c6572206973206e6f74206f776e6560408201526d1c881b9bdc88185c1c1c9bdd995960921b606082015260800190565b602080825260409082018190527f504f4f4c3732313a205265776172642061646472657373206973206e6f74206d908201527f6174636820776974682063757272656e74207265776172642041646472657373606082015260800190565b6020808252818101527f504f4f4c3732313a20506f6f6c20616c726561647920696e697469616c697a65604082015260600190565b60208082526025908201527f504f4f4c3732313a204e46542072657761726420697320616c72656164792061604082015264637469766560d81b606082015260800190565b6020808252601690820152751413d3d30dcc8c4e88139bc81c995dd85c99081cd95d60521b604082015260600190565b6020808252601c908201527f4552433732313a2072657761726420616c726561647920636c61696d00000000604082015260600190565b60208082526021908201527f504f4f4c3732313a205374616b696e672074696d65206973206e6f74206f76656040820152603960f91b606082015260800190565b6020808252604c908201527f506f6f6c3732313a204d696e696d756d20726571756972656d656e742069732060408201527f616c7265616479206163686965766564206f72207374616b696e672074696d6560608201526b206973206e6f7420646f6e6560a01b608082015260a00190565b6020808252600c908201526b496e76616c6964206461746560a01b604082015260600190565b6020808252601f908201527f5265656e7472616e637947756172643a207265656e7472616e742063616c6c00604082015260600190565b60208082526027908201527f504f4f4c3732313a20506f6f6c20697320726577617264206973206e6f742066604082015266696e616c697a6560c81b606082015260800190565b6020808252601d908201527f504f4f4c3732313a205374616b696e672074696d65206973206f766572000000604082015260600190565b600061010082019050825182526020830151602083015260408301516040830152606083015161ffff80821660608501528060808601511660808501528060a08601511660a0850152505060018060a01b0360c08401511660c083015260e08301516134148161356a565b8060e08401525092915050565b90815260200190565b60405181810167ffffffffffffffff8111828210171561344c5761344c613554565b604052919050565b600067ffffffffffffffff82111561346e5761346e613554565b5060209081020190565b600061ffff8084168061348d5761348d613528565b92169190910492915050565b6000826134a8576134a8613528565b500490565b60008160001904831182151516156134c7576134c7613512565b500290565b6000828210156134de576134de613512565b500390565b60006000198214156134f7576134f7613512565b5060010190565b60008261350d5761350d613528565b500690565b634e487b7160e01b600052601160045260246000fd5b634e487b7160e01b600052601260045260246000fd5b634e487b7160e01b600052602160045260246000fd5b634e487b7160e01b600052604160045260246000fd5b600281106108445761084461353e565b6001600160a01b038116811461084457600080fd5b801515811461084457600080fdfea2646970667358221220cfebf6c4f96cf0f24e39d5024540a53ddeaa5a24528f47015eca7f01d2ed16df64736f6c63430008000033",
  "linkReferences": {},
  "deployedLinkReferences": {}
}